{
  "_format": "hh-sol-artifact-1",
  "contractName": "Vault",
  "sourceName": "contracts/vault.sol",
  "abi": [
    {
      "inputs": [
        {
          "internalType": "address",
          "name": "_usdcTokenAddress",
          "type": "address"
        },
        {
          "internalType": "address",
          "name": "_NonfungiblePositionManager",
          "type": "address"
        },
        {
          "internalType": "address",
          "name": "_ctf",
          "type": "address"
        },
        {
          "internalType": "address",
          "name": "_swaprouter",
          "type": "address"
        }
      ],
      "stateMutability": "nonpayable",
      "type": "constructor"
    },
    {
      "anonymous": false,
      "inputs": [
        {
          "indexed": true,
          "internalType": "address",
          "name": "owner",
          "type": "address"
        },
        {
          "indexed": true,
          "internalType": "address",
          "name": "spender",
          "type": "address"
        },
        {
          "indexed": false,
          "internalType": "uint256",
          "name": "value",
          "type": "uint256"
        }
      ],
      "name": "Approval",
      "type": "event"
    },
    {
      "anonymous": false,
      "inputs": [
        {
          "indexed": false,
          "internalType": "uint256",
          "name": "amountIn",
          "type": "uint256"
        },
        {
          "indexed": false,
          "internalType": "uint256",
          "name": "amountOut",
          "type": "uint256"
        },
        {
          "indexed": false,
          "internalType": "address",
          "name": "pool",
          "type": "address"
        }
      ],
      "name": "BuyNo",
      "type": "event"
    },
    {
      "anonymous": false,
      "inputs": [
        {
          "indexed": false,
          "internalType": "uint256",
          "name": "amountIn",
          "type": "uint256"
        },
        {
          "indexed": false,
          "internalType": "uint256",
          "name": "amountOut",
          "type": "uint256"
        },
        {
          "indexed": false,
          "internalType": "address",
          "name": "pool",
          "type": "address"
        }
      ],
      "name": "BuyYes",
      "type": "event"
    },
    {
      "anonymous": false,
      "inputs": [
        {
          "indexed": true,
          "internalType": "uint256",
          "name": "tokenId",
          "type": "uint256"
        },
        {
          "indexed": false,
          "internalType": "uint128",
          "name": "liquidity",
          "type": "uint128"
        },
        {
          "indexed": false,
          "internalType": "uint256",
          "name": "amount0",
          "type": "uint256"
        },
        {
          "indexed": false,
          "internalType": "uint256",
          "name": "amount1",
          "type": "uint256"
        }
      ],
      "name": "IncreaseLiquidity",
      "type": "event"
    },
    {
      "anonymous": false,
      "inputs": [
        {
          "indexed": false,
          "internalType": "uint256",
          "name": "amountIn",
          "type": "uint256"
        },
        {
          "indexed": false,
          "internalType": "uint256",
          "name": "amountOut",
          "type": "uint256"
        },
        {
          "indexed": false,
          "internalType": "address",
          "name": "pool",
          "type": "address"
        }
      ],
      "name": "SellNo",
      "type": "event"
    },
    {
      "anonymous": false,
      "inputs": [
        {
          "indexed": false,
          "internalType": "uint256",
          "name": "amountIn",
          "type": "uint256"
        },
        {
          "indexed": false,
          "internalType": "uint256",
          "name": "amountOut",
          "type": "uint256"
        },
        {
          "indexed": false,
          "internalType": "address",
          "name": "pool",
          "type": "address"
        }
      ],
      "name": "SellYes",
      "type": "event"
    },
    {
      "anonymous": false,
      "inputs": [
        {
          "indexed": true,
          "internalType": "address",
          "name": "from",
          "type": "address"
        },
        {
          "indexed": true,
          "internalType": "address",
          "name": "to",
          "type": "address"
        },
        {
          "indexed": false,
          "internalType": "uint256",
          "name": "value",
          "type": "uint256"
        }
      ],
      "name": "Transfer",
      "type": "event"
    },
    {
      "inputs": [],
      "name": "DAILY_INTEREST_RATE",
      "outputs": [
        {
          "internalType": "uint256",
          "name": "",
          "type": "uint256"
        }
      ],
      "stateMutability": "view",
      "type": "function"
    },
    {
      "inputs": [],
      "name": "FIXED_POINT",
      "outputs": [
        {
          "internalType": "uint256",
          "name": "",
          "type": "uint256"
        }
      ],
      "stateMutability": "view",
      "type": "function"
    },
    {
      "inputs": [
        {
          "internalType": "address",
          "name": "",
          "type": "address"
        }
      ],
      "name": "LPshares",
      "outputs": [
        {
          "internalType": "uint256",
          "name": "",
          "type": "uint256"
        }
      ],
      "stateMutability": "view",
      "type": "function"
    },
    {
      "inputs": [],
      "name": "NonfungiblePositionManager",
      "outputs": [
        {
          "internalType": "address",
          "name": "",
          "type": "address"
        }
      ],
      "stateMutability": "view",
      "type": "function"
    },
    {
      "inputs": [],
      "name": "SECONDS_IN_A_DAY",
      "outputs": [
        {
          "internalType": "uint256",
          "name": "",
          "type": "uint256"
        }
      ],
      "stateMutability": "view",
      "type": "function"
    },
    {
      "inputs": [],
      "name": "SwapRouter",
      "outputs": [
        {
          "internalType": "address",
          "name": "",
          "type": "address"
        }
      ],
      "stateMutability": "view",
      "type": "function"
    },
    {
      "inputs": [
        {
          "components": [
            {
              "internalType": "address",
              "name": "token0",
              "type": "address"
            },
            {
              "internalType": "address",
              "name": "token1",
              "type": "address"
            },
            {
              "internalType": "uint24",
              "name": "fee",
              "type": "uint24"
            },
            {
              "internalType": "int24",
              "name": "tickLower",
              "type": "int24"
            },
            {
              "internalType": "int24",
              "name": "tickUpper",
              "type": "int24"
            },
            {
              "internalType": "uint256",
              "name": "amount0Desired",
              "type": "uint256"
            },
            {
              "internalType": "uint256",
              "name": "amount1Desired",
              "type": "uint256"
            },
            {
              "internalType": "uint256",
              "name": "amount0Min",
              "type": "uint256"
            },
            {
              "internalType": "uint256",
              "name": "amount1Min",
              "type": "uint256"
            },
            {
              "internalType": "address",
              "name": "recipient",
              "type": "address"
            },
            {
              "internalType": "uint256",
              "name": "deadline",
              "type": "uint256"
            }
          ],
          "internalType": "struct INonfungiblePositionManager.MintParams",
          "name": "mintParams",
          "type": "tuple"
        },
        {
          "components": [
            {
              "internalType": "contract IERC20",
              "name": "collateralToken",
              "type": "address"
            },
            {
              "internalType": "bytes32",
              "name": "parentCollectionId",
              "type": "bytes32"
            },
            {
              "internalType": "bytes32",
              "name": "conditionId",
              "type": "bytes32"
            },
            {
              "internalType": "uint256[]",
              "name": "partition",
              "type": "uint256[]"
            },
            {
              "internalType": "uint256",
              "name": "amount",
              "type": "uint256"
            }
          ],
          "internalType": "struct SplitPositionParams",
          "name": "splitPositionParmas",
          "type": "tuple"
        },
        {
          "components": [
            {
              "internalType": "address",
              "name": "from",
              "type": "address"
            },
            {
              "internalType": "address",
              "name": "to",
              "type": "address"
            },
            {
              "internalType": "uint256",
              "name": "id",
              "type": "uint256"
            },
            {
              "internalType": "uint256",
              "name": "value",
              "type": "uint256"
            },
            {
              "internalType": "bytes",
              "name": "data",
              "type": "bytes"
            }
          ],
          "internalType": "struct ERC1155TransferParams",
          "name": "transferParmas",
          "type": "tuple"
        },
        {
          "internalType": "address",
          "name": "ERC1155Factory",
          "type": "address"
        },
        {
          "internalType": "address",
          "name": "poolAddress",
          "type": "address"
        }
      ],
      "name": "addLiquidity",
      "outputs": [
        {
          "internalType": "uint256",
          "name": "tokenId",
          "type": "uint256"
        },
        {
          "internalType": "uint128",
          "name": "liquidity",
          "type": "uint128"
        },
        {
          "internalType": "uint256",
          "name": "amount0",
          "type": "uint256"
        },
        {
          "internalType": "uint256",
          "name": "amount1",
          "type": "uint256"
        }
      ],
      "stateMutability": "nonpayable",
      "type": "function"
    },
    {
      "inputs": [
        {
          "internalType": "address",
          "name": "owner",
          "type": "address"
        },
        {
          "internalType": "address",
          "name": "spender",
          "type": "address"
        }
      ],
      "name": "allowance",
      "outputs": [
        {
          "internalType": "uint256",
          "name": "",
          "type": "uint256"
        }
      ],
      "stateMutability": "view",
      "type": "function"
    },
    {
      "inputs": [
        {
          "internalType": "address",
          "name": "spender",
          "type": "address"
        },
        {
          "internalType": "uint256",
          "name": "amount",
          "type": "uint256"
        }
      ],
      "name": "approve",
      "outputs": [
        {
          "internalType": "bool",
          "name": "",
          "type": "bool"
        }
      ],
      "stateMutability": "nonpayable",
      "type": "function"
    },
    {
      "inputs": [
        {
          "internalType": "address",
          "name": "account",
          "type": "address"
        }
      ],
      "name": "balanceOf",
      "outputs": [
        {
          "internalType": "uint256",
          "name": "",
          "type": "uint256"
        }
      ],
      "stateMutability": "view",
      "type": "function"
    },
    {
      "inputs": [
        {
          "components": [
            {
              "internalType": "address",
              "name": "tokenIn",
              "type": "address"
            },
            {
              "internalType": "address",
              "name": "tokenOut",
              "type": "address"
            },
            {
              "internalType": "uint24",
              "name": "fee",
              "type": "uint24"
            },
            {
              "internalType": "address",
              "name": "recipient",
              "type": "address"
            },
            {
              "internalType": "uint256",
              "name": "deadline",
              "type": "uint256"
            },
            {
              "internalType": "uint256",
              "name": "amountIn",
              "type": "uint256"
            },
            {
              "internalType": "uint256",
              "name": "amountOutMinimum",
              "type": "uint256"
            },
            {
              "internalType": "uint160",
              "name": "sqrtPriceLimitX96",
              "type": "uint160"
            }
          ],
          "internalType": "struct ISwapRouter.ExactInputSingleParams",
          "name": "params",
          "type": "tuple"
        },
        {
          "components": [
            {
              "internalType": "contract IERC20",
              "name": "collateralToken",
              "type": "address"
            },
            {
              "internalType": "bytes32",
              "name": "parentCollectionId",
              "type": "bytes32"
            },
            {
              "internalType": "bytes32",
              "name": "conditionId",
              "type": "bytes32"
            },
            {
              "internalType": "uint256[]",
              "name": "partition",
              "type": "uint256[]"
            },
            {
              "internalType": "uint256",
              "name": "amount",
              "type": "uint256"
            }
          ],
          "internalType": "struct SplitPositionParams",
          "name": "splitPositionParmas",
          "type": "tuple"
        },
        {
          "components": [
            {
              "internalType": "address",
              "name": "from",
              "type": "address"
            },
            {
              "internalType": "address",
              "name": "to",
              "type": "address"
            },
            {
              "internalType": "uint256",
              "name": "id",
              "type": "uint256"
            },
            {
              "internalType": "uint256",
              "name": "value",
              "type": "uint256"
            },
            {
              "internalType": "bytes",
              "name": "data",
              "type": "bytes"
            }
          ],
          "internalType": "struct ERC1155TransferParams",
          "name": "transferParmas",
          "type": "tuple"
        },
        {
          "internalType": "uint256",
          "name": "noPositionId",
          "type": "uint256"
        },
        {
          "internalType": "address",
          "name": "ERC1155Factory",
          "type": "address"
        },
        {
          "internalType": "address",
          "name": "pool",
          "type": "address"
        }
      ],
      "name": "buyNo",
      "outputs": [],
      "stateMutability": "nonpayable",
      "type": "function"
    },
    {
      "inputs": [
        {
          "components": [
            {
              "internalType": "address",
              "name": "tokenIn",
              "type": "address"
            },
            {
              "internalType": "address",
              "name": "tokenOut",
              "type": "address"
            },
            {
              "internalType": "uint24",
              "name": "fee",
              "type": "uint24"
            },
            {
              "internalType": "address",
              "name": "recipient",
              "type": "address"
            },
            {
              "internalType": "uint256",
              "name": "deadline",
              "type": "uint256"
            },
            {
              "internalType": "uint256",
              "name": "amountIn",
              "type": "uint256"
            },
            {
              "internalType": "uint256",
              "name": "amountOutMinimum",
              "type": "uint256"
            },
            {
              "internalType": "uint160",
              "name": "sqrtPriceLimitX96",
              "type": "uint160"
            }
          ],
          "internalType": "struct ISwapRouter.ExactInputSingleParams",
          "name": "params",
          "type": "tuple"
        },
        {
          "internalType": "address",
          "name": "pool",
          "type": "address"
        }
      ],
      "name": "buyYes",
      "outputs": [],
      "stateMutability": "nonpayable",
      "type": "function"
    },
    {
      "inputs": [],
      "name": "ctfAddress",
      "outputs": [
        {
          "internalType": "address",
          "name": "",
          "type": "address"
        }
      ],
      "stateMutability": "view",
      "type": "function"
    },
    {
      "inputs": [],
      "name": "decimals",
      "outputs": [
        {
          "internalType": "uint8",
          "name": "",
          "type": "uint8"
        }
      ],
      "stateMutability": "view",
      "type": "function"
    },
    {
      "inputs": [
        {
          "internalType": "address",
          "name": "spender",
          "type": "address"
        },
        {
          "internalType": "uint256",
          "name": "subtractedValue",
          "type": "uint256"
        }
      ],
      "name": "decreaseAllowance",
      "outputs": [
        {
          "internalType": "bool",
          "name": "",
          "type": "bool"
        }
      ],
      "stateMutability": "nonpayable",
      "type": "function"
    },
    {
      "inputs": [
        {
          "components": [
            {
              "internalType": "uint256",
              "name": "tokenId",
              "type": "uint256"
            },
            {
              "internalType": "uint128",
              "name": "liquidity",
              "type": "uint128"
            },
            {
              "internalType": "uint256",
              "name": "amount0Min",
              "type": "uint256"
            },
            {
              "internalType": "uint256",
              "name": "amount1Min",
              "type": "uint256"
            },
            {
              "internalType": "uint256",
              "name": "deadline",
              "type": "uint256"
            }
          ],
          "internalType": "struct INonfungiblePositionManager.DecreaseLiquidityParams",
          "name": "params",
          "type": "tuple"
        }
      ],
      "name": "decreaseLiquidity",
      "outputs": [],
      "stateMutability": "nonpayable",
      "type": "function"
    },
    {
      "inputs": [
        {
          "internalType": "uint256",
          "name": "amount",
          "type": "uint256"
        }
      ],
      "name": "deposit",
      "outputs": [],
      "stateMutability": "nonpayable",
      "type": "function"
    },
    {
      "inputs": [
        {
          "internalType": "address",
          "name": "",
          "type": "address"
        }
      ],
      "name": "deposits",
      "outputs": [
        {
          "internalType": "uint256",
          "name": "principal",
          "type": "uint256"
        },
        {
          "internalType": "uint256",
          "name": "interestAccrued",
          "type": "uint256"
        },
        {
          "internalType": "uint256",
          "name": "lastDepositTime",
          "type": "uint256"
        }
      ],
      "stateMutability": "view",
      "type": "function"
    },
    {
      "inputs": [
        {
          "internalType": "address",
          "name": "user",
          "type": "address"
        }
      ],
      "name": "getBalance",
      "outputs": [
        {
          "internalType": "uint256",
          "name": "principal",
          "type": "uint256"
        },
        {
          "internalType": "uint256",
          "name": "interest",
          "type": "uint256"
        }
      ],
      "stateMutability": "view",
      "type": "function"
    },
    {
      "inputs": [],
      "name": "getTotalBalance",
      "outputs": [
        {
          "internalType": "uint256",
          "name": "totalPrincipalAmount",
          "type": "uint256"
        },
        {
          "internalType": "uint256",
          "name": "totalInterestAmount",
          "type": "uint256"
        }
      ],
      "stateMutability": "view",
      "type": "function"
    },
    {
      "inputs": [
        {
          "internalType": "address",
          "name": "spender",
          "type": "address"
        },
        {
          "internalType": "uint256",
          "name": "addedValue",
          "type": "uint256"
        }
      ],
      "name": "increaseAllowance",
      "outputs": [
        {
          "internalType": "bool",
          "name": "",
          "type": "bool"
        }
      ],
      "stateMutability": "nonpayable",
      "type": "function"
    },
    {
      "inputs": [],
      "name": "lastUpdateTimestamp",
      "outputs": [
        {
          "internalType": "uint256",
          "name": "",
          "type": "uint256"
        }
      ],
      "stateMutability": "view",
      "type": "function"
    },
    {
      "inputs": [
        {
          "internalType": "uint256",
          "name": "amount",
          "type": "uint256"
        }
      ],
      "name": "mint",
      "outputs": [],
      "stateMutability": "nonpayable",
      "type": "function"
    },
    {
      "inputs": [],
      "name": "name",
      "outputs": [
        {
          "internalType": "string",
          "name": "",
          "type": "string"
        }
      ],
      "stateMutability": "view",
      "type": "function"
    },
    {
      "inputs": [
        {
          "internalType": "address",
          "name": "operator",
          "type": "address"
        },
        {
          "internalType": "address",
          "name": "",
          "type": "address"
        },
        {
          "internalType": "uint256[]",
          "name": "ids",
          "type": "uint256[]"
        },
        {
          "internalType": "uint256[]",
          "name": "values",
          "type": "uint256[]"
        },
        {
          "internalType": "bytes",
          "name": "data",
          "type": "bytes"
        }
      ],
      "name": "onERC1155BatchReceived",
      "outputs": [
        {
          "internalType": "bytes4",
          "name": "",
          "type": "bytes4"
        }
      ],
      "stateMutability": "nonpayable",
      "type": "function"
    },
    {
      "inputs": [
        {
          "internalType": "address",
          "name": "operator",
          "type": "address"
        },
        {
          "internalType": "address",
          "name": "",
          "type": "address"
        },
        {
          "internalType": "uint256",
          "name": "id",
          "type": "uint256"
        },
        {
          "internalType": "uint256",
          "name": "value",
          "type": "uint256"
        },
        {
          "internalType": "bytes",
          "name": "data",
          "type": "bytes"
        }
      ],
      "name": "onERC1155Received",
      "outputs": [
        {
          "internalType": "bytes4",
          "name": "",
          "type": "bytes4"
        }
      ],
      "stateMutability": "nonpayable",
      "type": "function"
    },
    {
      "inputs": [
        {
          "internalType": "address",
          "name": "",
          "type": "address"
        }
      ],
      "name": "poolExposure",
      "outputs": [
        {
          "internalType": "uint256",
          "name": "",
          "type": "uint256"
        }
      ],
      "stateMutability": "view",
      "type": "function"
    },
    {
      "inputs": [
        {
          "components": [
            {
              "internalType": "address",
              "name": "tokenIn",
              "type": "address"
            },
            {
              "internalType": "address",
              "name": "tokenOut",
              "type": "address"
            },
            {
              "internalType": "uint24",
              "name": "fee",
              "type": "uint24"
            },
            {
              "internalType": "address",
              "name": "recipient",
              "type": "address"
            },
            {
              "internalType": "uint256",
              "name": "deadline",
              "type": "uint256"
            },
            {
              "internalType": "uint256",
              "name": "amountOut",
              "type": "uint256"
            },
            {
              "internalType": "uint256",
              "name": "amountInMaximum",
              "type": "uint256"
            },
            {
              "internalType": "uint160",
              "name": "sqrtPriceLimitX96",
              "type": "uint160"
            }
          ],
          "internalType": "struct ISwapRouter.ExactOutputSingleParams",
          "name": "params",
          "type": "tuple"
        },
        {
          "components": [
            {
              "internalType": "contract IERC20",
              "name": "collateralToken",
              "type": "address"
            },
            {
              "internalType": "bytes32",
              "name": "parentCollectionId",
              "type": "bytes32"
            },
            {
              "internalType": "bytes32",
              "name": "conditionId",
              "type": "bytes32"
            },
            {
              "internalType": "uint256[]",
              "name": "partition",
              "type": "uint256[]"
            },
            {
              "internalType": "uint256",
              "name": "amount",
              "type": "uint256"
            }
          ],
          "internalType": "struct SplitPositionParams",
          "name": "splitPositionParmas",
          "type": "tuple"
        },
        {
          "components": [
            {
              "internalType": "address",
              "name": "multiToken",
              "type": "address"
            },
            {
              "internalType": "uint256",
              "name": "tokenId",
              "type": "uint256"
            },
            {
              "internalType": "uint256",
              "name": "amount",
              "type": "uint256"
            },
            {
              "internalType": "address",
              "name": "recipient",
              "type": "address"
            },
            {
              "internalType": "bytes",
              "name": "data",
              "type": "bytes"
            }
          ],
          "internalType": "struct UnwrappedParams",
          "name": "unwrappedParams",
          "type": "tuple"
        },
        {
          "internalType": "uint256",
          "name": "noPositionId",
          "type": "uint256"
        },
        {
          "internalType": "address",
          "name": "ERC1155Factory",
          "type": "address"
        },
        {
          "internalType": "address",
          "name": "pool",
          "type": "address"
        }
      ],
      "name": "sellNo",
      "outputs": [],
      "stateMutability": "nonpayable",
      "type": "function"
    },
    {
      "inputs": [
        {
          "components": [
            {
              "internalType": "address",
              "name": "tokenIn",
              "type": "address"
            },
            {
              "internalType": "address",
              "name": "tokenOut",
              "type": "address"
            },
            {
              "internalType": "uint24",
              "name": "fee",
              "type": "uint24"
            },
            {
              "internalType": "address",
              "name": "recipient",
              "type": "address"
            },
            {
              "internalType": "uint256",
              "name": "deadline",
              "type": "uint256"
            },
            {
              "internalType": "uint256",
              "name": "amountIn",
              "type": "uint256"
            },
            {
              "internalType": "uint256",
              "name": "amountOutMinimum",
              "type": "uint256"
            },
            {
              "internalType": "uint160",
              "name": "sqrtPriceLimitX96",
              "type": "uint160"
            }
          ],
          "internalType": "struct ISwapRouter.ExactInputSingleParams",
          "name": "params",
          "type": "tuple"
        },
        {
          "internalType": "address",
          "name": "pool",
          "type": "address"
        }
      ],
      "name": "sellYes",
      "outputs": [],
      "stateMutability": "nonpayable",
      "type": "function"
    },
    {
      "inputs": [
        {
          "internalType": "bytes4",
          "name": "interfaceId",
          "type": "bytes4"
        }
      ],
      "name": "supportsInterface",
      "outputs": [
        {
          "internalType": "bool",
          "name": "",
          "type": "bool"
        }
      ],
      "stateMutability": "view",
      "type": "function"
    },
    {
      "inputs": [],
      "name": "symbol",
      "outputs": [
        {
          "internalType": "string",
          "name": "",
          "type": "string"
        }
      ],
      "stateMutability": "view",
      "type": "function"
    },
    {
      "inputs": [],
      "name": "totalInterest",
      "outputs": [
        {
          "internalType": "uint256",
          "name": "",
          "type": "uint256"
        }
      ],
      "stateMutability": "view",
      "type": "function"
    },
    {
      "inputs": [],
      "name": "totalInterestCanUse",
      "outputs": [
        {
          "internalType": "uint256",
          "name": "",
          "type": "uint256"
        }
      ],
      "stateMutability": "view",
      "type": "function"
    },
    {
      "inputs": [],
      "name": "totalPrincipal",
      "outputs": [
        {
          "internalType": "uint256",
          "name": "",
          "type": "uint256"
        }
      ],
      "stateMutability": "view",
      "type": "function"
    },
    {
      "inputs": [],
      "name": "totalSupply",
      "outputs": [
        {
          "internalType": "uint256",
          "name": "",
          "type": "uint256"
        }
      ],
      "stateMutability": "view",
      "type": "function"
    },
    {
      "inputs": [],
      "name": "totalshares",
      "outputs": [
        {
          "internalType": "uint256",
          "name": "",
          "type": "uint256"
        }
      ],
      "stateMutability": "view",
      "type": "function"
    },
    {
      "inputs": [
        {
          "internalType": "uint256",
          "name": "amount",
          "type": "uint256"
        }
      ],
      "name": "traderDeposit",
      "outputs": [],
      "stateMutability": "nonpayable",
      "type": "function"
    },
    {
      "inputs": [
        {
          "internalType": "uint256",
          "name": "amount",
          "type": "uint256"
        }
      ],
      "name": "traderWithdraw",
      "outputs": [],
      "stateMutability": "nonpayable",
      "type": "function"
    },
    {
      "inputs": [
        {
          "internalType": "address",
          "name": "recipient",
          "type": "address"
        },
        {
          "internalType": "uint256",
          "name": "amount",
          "type": "uint256"
        }
      ],
      "name": "transfer",
      "outputs": [
        {
          "internalType": "bool",
          "name": "",
          "type": "bool"
        }
      ],
      "stateMutability": "nonpayable",
      "type": "function"
    },
    {
      "inputs": [
        {
          "internalType": "address",
          "name": "sender",
          "type": "address"
        },
        {
          "internalType": "address",
          "name": "recipient",
          "type": "address"
        },
        {
          "internalType": "uint256",
          "name": "amount",
          "type": "uint256"
        }
      ],
      "name": "transferFrom",
      "outputs": [
        {
          "internalType": "bool",
          "name": "",
          "type": "bool"
        }
      ],
      "stateMutability": "nonpayable",
      "type": "function"
    },
    {
      "inputs": [],
      "name": "usdbTokenAddress",
      "outputs": [
        {
          "internalType": "address",
          "name": "",
          "type": "address"
        }
      ],
      "stateMutability": "view",
      "type": "function"
    },
    {
      "inputs": [],
      "name": "usdc",
      "outputs": [
        {
          "internalType": "contract IERC20",
          "name": "",
          "type": "address"
        }
      ],
      "stateMutability": "view",
      "type": "function"
    },
    {
      "inputs": [],
      "name": "withdraw",
      "outputs": [],
      "stateMutability": "nonpayable",
      "type": "function"
    }
  ],
  "bytecode": "0x60806040523480156200001157600080fd5b5060405162003f5f38038062003f5f83398101604081905262000034916200028d565b604080518082018252600a81526955534420427562626c7960b01b602080830191909152825180840190935260048352632aa9a22160e11b9083015290620000836301ffc9a760e01b6200013f565b62000095630271189760e51b6200013f565b8151620000aa906004906020850190620001c4565b508051620000c0906005906020840190620001c4565b505060068054600880546001600160a01b03199081163017909155600a80546001600160a01b03998a1690831617905542601290815596881661010002610100600160a81b031960ff199093169097179190911695909517905550600980549285169284169290921790915560078054919093169116179055620002e9565b6001600160e01b031980821614156200019f576040805162461bcd60e51b815260206004820152601c60248201527f4552433136353a20696e76616c696420696e7465726661636520696400000000604482015290519081900360640190fd5b6001600160e01b0319166000908152602081905260409020805460ff19166001179055565b828054600181600116156101000203166002900490600052602060002090601f016020900481019282620001fc576000855562000247565b82601f106200021757805160ff191683800117855562000247565b8280016001018555821562000247579182015b82811115620002475782518255916020019190600101906200022a565b506200025592915062000259565b5090565b5b808211156200025557600081556001016200025a565b80516001600160a01b03811681146200028857600080fd5b919050565b60008060008060808587031215620002a3578384fd5b620002ae8562000270565b9350620002be6020860162000270565b9250620002ce6040860162000270565b9150620002de6060860162000270565b905092959194509250565b613c6680620002f96000396000f3fe608060405234801561001057600080fd5b50600436106102e95760003560e01c806370a0823111610191578063d061c81e116100e3578063f8b2cb4f11610097578063fbd24d4511610071578063fbd24d4514610587578063fc7e286d146105aa578063fef396c9146105cc576102e9565b8063f8b2cb4f14610559578063f9cfa06f1461056c578063fa29b0ba14610574576102e9565b8063deabb06b116100c8578063deabb06b1461052b578063eb582d131461053e578063f23a6e6114610546576102e9565b8063d061c81e14610510578063dd62ed3e14610518576102e9565b8063a9059cbb11610145578063bc197c811161011f578063bc197c81146104d5578063bc7a36d6146104f5578063c20b58ec146104fd576102e9565b8063a9059cbb1461049c578063b024f98a146104af578063b6b55f25146104c2576102e9565b806395d89b411161017657806395d89b411461046e578063a0712d6814610476578063a457c2d714610489576102e9565b806370a08231146104535780637a458d7a14610466576102e9565b806323b872dd1161024a5780634b1533b2116101fe578063623f17bd116101d8578063623f17bd14610425578063632e784d14610438578063636a6d461461044b576102e9565b80634b1533b2146104025780634dc32eff1461040a578063573e4bdb14610412576102e9565b8063395093511161022f57806339509351146103df5780633ccfd60b146103f25780633e413bee146103fa576102e9565b806323b872dd146103b7578063313ce567146103ca576102e9565b806312b58349116102a157806314bcec9f1161028657806314bcec9f1461039257806318160ddd146103a757806322c4b937146103af576102e9565b806312b5834914610369578063146e6db71461037f576102e9565b806306fdde03116102d257806306fdde031461032c578063095ea7b3146103415780630c49ccbe14610354576102e9565b806301ffc9a7146102ee57806303f71c5a14610317575b600080fd5b6103016102fc366004613171565b6105d4565b60405161030e919061367d565b60405180910390f35b61031f61060f565b60405161030e91906134e8565b61033461062b565b60405161030e919061373a565b61030161034f366004613126565b6106df565b6103676103623660046131b1565b6106fd565b005b6103716107ad565b60405161030e9291906139af565b61036761038d3660046131fa565b6107f2565b61039a610e0d565b60405161030e9190613979565b61039a610e13565b61039a610e19565b6103016103c536600461306c565b610e1e565b6103d2610ebf565b60405161030e91906139ff565b6103016103ed366004613126565b610ec8565b610367610f23565b61031f611051565b61039a61106d565b61031f611073565b61039a610420366004612f41565b61108f565b6103676104333660046131cc565b6110a1565b610367610446366004613347565b61136e565b61031f611428565b61039a610461366004612f41565b611444565b61039a61146c565b610334611478565b610367610484366004613347565b6114f7565b610301610497366004613126565b611501565b6103016104aa366004613126565b611576565b61039a6104bd366004612f41565b61158a565b6103676104d0366004613347565b61159c565b6104e86104e3366004612fb1565b6116f0565b60405161030e9190613688565b61039a61171d565b61036761050b3660046131cc565b611723565b61039a6119cf565b61039a610526366004612f79565b6119d5565b610367610539366004613347565b611a0d565b61031f611ac1565b6104e86105543660046130ac565b611ae2565b610371610567366004612f41565b611b0d565b61039a611b56565b6103676105823660046131fa565b611b5d565b61059a6105953660046132a2565b61200f565b60405161030e9493929190613982565b6105bd6105b8366004612f41565b612608565b60405161030e939291906139e9565b61039a612629565b7fffffffff00000000000000000000000000000000000000000000000000000000811660009081526020819052604090205460ff165b919050565b60095473ffffffffffffffffffffffffffffffffffffffff1681565b60048054604080516020601f60027fffffffffffffffffffffffffffffffffffffffffffffffffffffffffffffffff6101006001881615020190951694909404938401819004810282018101909252828152606093909290918301828280156106d55780601f106106aa576101008083540402835291602001916106d5565b820191906000526020600020905b8154815290600101906020018083116106b857829003601f168201915b5050505050905090565b60006106f36106ec61262f565b8484612633565b5060015b92915050565b6006546040517f0c49ccbe00000000000000000000000000000000000000000000000000000000815261010090910473ffffffffffffffffffffffffffffffffffffffff1690630c49ccbe90610757908490600401613819565b6040805180830381600087803b15801561077057600080fd5b505af1158015610784573d6000803e3d6000fd5b505050506040513d601f19601f820116820180604052508101906107a891906133b4565b505050565b6000806000601254420390506000620151806103e86001600e5402816107cf57fe5b04816107d757fe5b600e54600f5490965091900492909202919091019150509091565b600a546040517f23b872dd00000000000000000000000000000000000000000000000000000000815273ffffffffffffffffffffffffffffffffffffffff909116906323b872dd90610850903390309060a08c013590600401613509565b602060405180830381600087803b15801561086a57600080fd5b505af115801561087e573d6000803e3d6000fd5b505050506040513d601f19601f820116820180604052508101906108a29190613151565b506108b1308760a0013561277a565b60085473ffffffffffffffffffffffffffffffffffffffff166108d76020880188612f41565b73ffffffffffffffffffffffffffffffffffffffff1614156108f857600080fd5b6008546009546040517f095ea7b300000000000000000000000000000000000000000000000000000000815273ffffffffffffffffffffffffffffffffffffffff9283169263095ea7b392610974929116907fffffffffffffffffffffffffffffffffffffffffffffffffffffffffffffffff9060040161357f565b602060405180830381600087803b15801561098e57600080fd5b505af11580156109a2573d6000803e3d6000fd5b505050506040513d601f19601f820116820180604052508101906109c69190613151565b5060095473ffffffffffffffffffffffffffffffffffffffff166372ce42756109f26020880188612f41565b60208801356040890135610a0960608b018b613a0d565b8b608001356040518763ffffffff1660e01b8152600401610a2f969594939291906136b5565b600060405180830381600087803b158015610a4957600080fd5b505af1158015610a5d573d6000803e3d6000fd5b50506009546040517ff242432a00000000000000000000000000000000000000000000000000000000815273ffffffffffffffffffffffffffffffffffffffff909116925063f242432a9150610ac19030903390889060808c01359060040161353a565b600060405180830381600087803b158015610adb57600080fd5b505af1158015610aef573d6000803e3d6000fd5b505060095473ffffffffffffffffffffffffffffffffffffffff16915063f242432a9050610b206020870187612f41565b610b306040880160208901612f41565b60408801356060890135610b4760808b018b613a72565b6040518763ffffffff1660e01b8152600401610b68969594939291906135a5565b600060405180830381600087803b158015610b8257600080fd5b505af1158015610b96573d6000803e3d6000fd5b50506009546000925073ffffffffffffffffffffffffffffffffffffffff80861692506308b2ea5e91166040880135610bd260808a018a613a72565b6040518563ffffffff1660e01b8152600401610bf194939291906135f7565b60206040518083038186803b158015610c0957600080fd5b505afa158015610c1d573d6000803e3d6000fd5b505050506040513d601f19601f82011682018060405250810190610c419190612f5d565b6007546040517f095ea7b300000000000000000000000000000000000000000000000000000000815291925073ffffffffffffffffffffffffffffffffffffffff8084169263095ea7b392610cbc9216907fffffffffffffffffffffffffffffffffffffffffffffffffffffffffffffffff9060040161357f565b602060405180830381600087803b158015610cd657600080fd5b505af1158015610cea573d6000803e3d6000fd5b505050506040513d601f19601f82011682018060405250810190610d0e9190613151565b506007546040517f414bf38900000000000000000000000000000000000000000000000000000000815260009173ffffffffffffffffffffffffffffffffffffffff169063414bf38990610d66908b9060040161386c565b602060405180830381600087803b158015610d8057600080fd5b505af1158015610d94573d6000803e3d6000fd5b505050506040513d601f19601f82011682018060405250810190610db8919061335f565b9050610dc43382612784565b7f842cd44bec4035a1073f566a5ba9cdaf533a87c6b4ce9e30805cde486f7486038860a001358285604051610dfb939291906139bd565b60405180910390a15050505050505050565b60125481565b60035490565b600181565b6000610e2b8484846127dc565b610eb584610e3761262f565b610eb085604051806060016040528060288152602001613ba36028913973ffffffffffffffffffffffffffffffffffffffff8a16600090815260026020526040812090610e8261262f565b73ffffffffffffffffffffffffffffffffffffffff16815260208101919091526040016000205491906129ae565b612633565b5060019392505050565b60065460ff1690565b60006106f3610ed561262f565b84610eb08560026000610ee661262f565b73ffffffffffffffffffffffffffffffffffffffff908116825260208083019390935260409182016000908120918c168152925290205490612a5f565b336000818152600b6020526040902090610f3c90612ada565b600181015481540180610f84576040517f08c379a0000000000000000000000000000000000000000000000000000000008152600401610f7b906137e2565b60405180910390fd5b8154600e8054919091039055600182018054600f805491909103905560008084559055600a546040517fa9059cbb00000000000000000000000000000000000000000000000000000000815273ffffffffffffffffffffffffffffffffffffffff9091169063a9059cbb90610fff903390859060040161357f565b602060405180830381600087803b15801561101957600080fd5b505af115801561102d573d6000803e3d6000fd5b505050506040513d601f19601f820116820180604052508101906107a89190613151565b600a5473ffffffffffffffffffffffffffffffffffffffff1681565b600e5481565b60075473ffffffffffffffffffffffffffffffffffffffff1681565b600c6020526000908152604090205481565b600a546040517f23b872dd00000000000000000000000000000000000000000000000000000000815273ffffffffffffffffffffffffffffffffffffffff909116906323b872dd906110ff903390309060a088013590600401613509565b602060405180830381600087803b15801561111957600080fd5b505af115801561112d573d6000803e3d6000fd5b505050506040513d601f19601f820116820180604052508101906111519190613151565b50611160308360a0013561277a565b60085473ffffffffffffffffffffffffffffffffffffffff166111866020840184612f41565b73ffffffffffffffffffffffffffffffffffffffff16146111a657600080fd5b6111b36020830183612f41565b6007546040517f095ea7b300000000000000000000000000000000000000000000000000000000815273ffffffffffffffffffffffffffffffffffffffff9283169263095ea7b39261122c929116907fffffffffffffffffffffffffffffffffffffffffffffffffffffffffffffffff9060040161357f565b602060405180830381600087803b15801561124657600080fd5b505af115801561125a573d6000803e3d6000fd5b505050506040513d601f19601f8201168201806040525081019061127e9190613151565b506007546040517f414bf38900000000000000000000000000000000000000000000000000000000815260009173ffffffffffffffffffffffffffffffffffffffff169063414bf389906112d690869060040161386c565b602060405180830381600087803b1580156112f057600080fd5b505af1158015611304573d6000803e3d6000fd5b505050506040513d601f19601f82011682018060405250810190611328919061335f565b90507f0f50b931fd9db6426c1c5e8170803f02c6a50a1e5e5f3138240d0e3d43e6a3d98360a001358284604051611361939291906139bd565b60405180910390a1505050565b600a546040517f23b872dd00000000000000000000000000000000000000000000000000000000815273ffffffffffffffffffffffffffffffffffffffff909116906323b872dd906113c890339030908690600401613509565b602060405180830381600087803b1580156113e257600080fd5b505af11580156113f6573d6000803e3d6000fd5b505050506040513d601f19601f8201168201806040525081019061141a9190613151565b506114253382612b29565b50565b60085473ffffffffffffffffffffffffffffffffffffffff1681565b73ffffffffffffffffffffffffffffffffffffffff1660009081526001602052604090205490565b670de0b6b3a764000081565b60058054604080516020601f60027fffffffffffffffffffffffffffffffffffffffffffffffffffffffffffffffff6101006001881615020190951694909404938401819004810282018101909252828152606093909290918301828280156106d55780601f106106aa576101008083540402835291602001916106d5565b6114253382612b29565b60006106f361150e61262f565b84610eb085604051806060016040528060258152602001613c35602591396002600061153861262f565b73ffffffffffffffffffffffffffffffffffffffff908116825260208083019390935260409182016000908120918d168152925290205491906129ae565b60006106f361158361262f565b84846127dc565b600d6020526000908152604090205481565b600081116115d6576040517f08c379a0000000000000000000000000000000000000000000000000000000008152600401610f7b906137ab565b336000908152600b602052604090208054156115f5576115f533612ada565b600a546040517f23b872dd00000000000000000000000000000000000000000000000000000000815273ffffffffffffffffffffffffffffffffffffffff909116906323b872dd9061164f90339030908790600401613509565b602060405180830381600087803b15801561166957600080fd5b505af115801561167d573d6000803e3d6000fd5b505050506040513d601f19601f820116820180604052508101906116a19190613151565b506116ac3083612b29565b336000908152600d60205260409020805483019055601180548301905580546116d6574260028201555b805482018155600e8054830190556116ec612c5c565b5050565b7fbc197c810000000000000000000000000000000000000000000000000000000098975050505050505050565b600f5481565b6117306020830183612f41565b73ffffffffffffffffffffffffffffffffffffffff166323b872dd33308560a001356040518463ffffffff1660e01b815260040161177093929190613509565b602060405180830381600087803b15801561178a57600080fd5b505af115801561179e573d6000803e3d6000fd5b505050506040513d601f19601f820116820180604052508101906117c29190613151565b5060085473ffffffffffffffffffffffffffffffffffffffff166117e96020840184612f41565b73ffffffffffffffffffffffffffffffffffffffff16141561180a57600080fd5b6118176020830183612f41565b6007546040517f095ea7b300000000000000000000000000000000000000000000000000000000815273ffffffffffffffffffffffffffffffffffffffff9283169263095ea7b392611890929116907fffffffffffffffffffffffffffffffffffffffffffffffffffffffffffffffff9060040161357f565b602060405180830381600087803b1580156118aa57600080fd5b505af11580156118be573d6000803e3d6000fd5b505050506040513d601f19601f820116820180604052508101906118e29190613151565b506007546040517f414bf38900000000000000000000000000000000000000000000000000000000815260009173ffffffffffffffffffffffffffffffffffffffff169063414bf3899061193a90869060040161386c565b602060405180830381600087803b15801561195457600080fd5b505af1158015611968573d6000803e3d6000fd5b505050506040513d601f19601f8201168201806040525081019061198c919061335f565b90506119983382612784565b7faaec555da5a9973ee15d1a7a5dd852956bb07a908a6f52855902b1196927f51d8360a001358284604051611361939291906139bd565b60115481565b73ffffffffffffffffffffffffffffffffffffffff918216600090815260026020908152604080832093909416825291909152205490565b611a173382612c9a565b600a546040517fa9059cbb00000000000000000000000000000000000000000000000000000000815273ffffffffffffffffffffffffffffffffffffffff9091169063a9059cbb90611a6f903390859060040161357f565b602060405180830381600087803b158015611a8957600080fd5b505af1158015611a9d573d6000803e3d6000fd5b505050506040513d601f19601f820116820180604052508101906116ec9190613151565b600654610100900473ffffffffffffffffffffffffffffffffffffffff1681565b7ff23a6e61000000000000000000000000000000000000000000000000000000009695505050505050565b73ffffffffffffffffffffffffffffffffffffffff166000908152600b602052604090206002810154815460019092015491924291909103620151806103e88504040290910190565b6201518081565b600a546040517f23b872dd00000000000000000000000000000000000000000000000000000000815273ffffffffffffffffffffffffffffffffffffffff909116906323b872dd90611bbb903390309060a08c013590600401613509565b602060405180830381600087803b158015611bd557600080fd5b505af1158015611be9573d6000803e3d6000fd5b505050506040513d601f19601f82011682018060405250810190611c0d9190613151565b50611c1c308760a0013561277a565b60085473ffffffffffffffffffffffffffffffffffffffff16611c426020880188612f41565b73ffffffffffffffffffffffffffffffffffffffff1614611c6257600080fd5b611c6f6020870187612f41565b6007546040517f095ea7b300000000000000000000000000000000000000000000000000000000815273ffffffffffffffffffffffffffffffffffffffff9283169263095ea7b392611ce8929116907fffffffffffffffffffffffffffffffffffffffffffffffffffffffffffffffff9060040161357f565b602060405180830381600087803b158015611d0257600080fd5b505af1158015611d16573d6000803e3d6000fd5b505050506040513d601f19601f82011682018060405250810190611d3a9190613151565b506007546040517fdb3e219800000000000000000000000000000000000000000000000000000000815260009173ffffffffffffffffffffffffffffffffffffffff169063db3e219890611d92908a9060040161386c565b602060405180830381600087803b158015611dac57600080fd5b505af1158015611dc0573d6000803e3d6000fd5b505050506040513d601f19601f82011682018060405250810190611de4919061335f565b905073ffffffffffffffffffffffffffffffffffffffff83166352aecb24611e0f6020880188612f41565b602088013560a08b0135611e2960808b0160608c01612f41565b611e3660808c018c613a72565b6040518763ffffffff1660e01b8152600401611e5796959493929190613637565b600060405180830381600087803b158015611e7157600080fd5b505af1158015611e85573d6000803e3d6000fd5b50506009546040517ff242432a00000000000000000000000000000000000000000000000000000000815273ffffffffffffffffffffffffffffffffffffffff909116925063f242432a9150611ee99033903090899060a08e01359060040161353a565b600060405180830381600087803b158015611f0357600080fd5b505af1158015611f17573d6000803e3d6000fd5b505060095473ffffffffffffffffffffffffffffffffffffffff169150639e7212ad9050611f486020890189612f41565b602089013560408a0135611f5f60608c018c613a0d565b8d60a001356040518763ffffffff1660e01b8152600401611f85969594939291906136b5565b600060405180830381600087803b158015611f9f57600080fd5b505af1158015611fb3573d6000803e3d6000fd5b50505050611fc733828960a0013503612784565b7fc4bccc626b045e490fe81aa2804b504c0cca328902e59a4d9769c51f08f05554818860a0013584604051611ffe939291906139bd565b60405180910390a150505050505050565b60008060008088610140013580612024612de4565b111561209157604080517f08c379a000000000000000000000000000000000000000000000000000000000815260206004820152601360248201527f5472616e73616374696f6e20746f6f206f6c6400000000000000000000000000604482015290519081900360640190fd5b61209e60208a018a612f41565b6009546040517f095ea7b300000000000000000000000000000000000000000000000000000000815273ffffffffffffffffffffffffffffffffffffffff9283169263095ea7b392612117929116907fffffffffffffffffffffffffffffffffffffffffffffffffffffffffffffffff9060040161357f565b602060405180830381600087803b15801561213157600080fd5b505af1158015612145573d6000803e3d6000fd5b505050506040513d601f19601f820116820180604052508101906121699190613151565b5060095473ffffffffffffffffffffffffffffffffffffffff166372ce427561219560208c018c612f41565b60208c013560408d01356121ac60608f018f613a0d565b8f608001356040518763ffffffff1660e01b81526004016121d2969594939291906136b5565b600060405180830381600087803b1580156121ec57600080fd5b505af1158015612200573d6000803e3d6000fd5b505060095473ffffffffffffffffffffffffffffffffffffffff16915063f242432a905061223160208b018b612f41565b61224160408c0160208d01612f41565b60408c013560608d013561225860808f018f613a72565b6040518763ffffffff1660e01b8152600401612279969594939291906135a5565b600060405180830381600087803b15801561229357600080fd5b505af11580156122a7573d6000803e3d6000fd5b50506009546000925073ffffffffffffffffffffffffffffffffffffffff808b1692506308b2ea5e911660408c01356122e360808e018e613a72565b6040518563ffffffff1660e01b815260040161230294939291906135f7565b60206040518083038186803b15801561231a57600080fd5b505afa15801561232e573d6000803e3d6000fd5b505050506040513d601f19601f820116820180604052508101906123529190612f5d565b6006546040517f095ea7b300000000000000000000000000000000000000000000000000000000815291925073ffffffffffffffffffffffffffffffffffffffff8084169263095ea7b3926123d39261010090910416907fffffffffffffffffffffffffffffffffffffffffffffffffffffffffffffffff9060040161357f565b602060405180830381600087803b1580156123ed57600080fd5b505af1158015612401573d6000803e3d6000fd5b505050506040513d601f19601f820116820180604052508101906124259190613151565b5061243360208b018b612f41565b6006546040517f095ea7b300000000000000000000000000000000000000000000000000000000815273ffffffffffffffffffffffffffffffffffffffff9283169263095ea7b3926124b392610100909104909116907fffffffffffffffffffffffffffffffffffffffffffffffffffffffffffffffff9060040161357f565b602060405180830381600087803b1580156124cd57600080fd5b505af11580156124e1573d6000803e3d6000fd5b505050506040513d601f19601f820116820180604052508101906125059190613151565b506006546040517f8831645600000000000000000000000000000000000000000000000000000000815261010090910473ffffffffffffffffffffffffffffffffffffffff1690638831645690612560908e9060040161387b565b608060405180830381600087803b15801561257a57600080fd5b505af115801561258e573d6000803e3d6000fd5b505050506040513d601f19601f820116820180604052508101906125b29190613377565b6040519399509197509550935086907f3067048beee31b25b2f1681f88dac838c8bba36af25bfb2b7cf7473a5847e35f906125f29088908890889061394f565b60405180910390a2505095509550955095915050565b600b6020526000908152604090208054600182015460029092015490919083565b60105481565b3390565b73ffffffffffffffffffffffffffffffffffffffff831661269f576040517f08c379a0000000000000000000000000000000000000000000000000000000008152600401808060200182810382526024815260200180613c116024913960400191505060405180910390fd5b73ffffffffffffffffffffffffffffffffffffffff821661270b576040517f08c379a0000000000000000000000000000000000000000000000000000000008152600401808060200182810382526022815260200180613b5b6022913960400191505060405180910390fd5b73ffffffffffffffffffffffffffffffffffffffff808416600081815260026020908152604080832094871680845294825291829020859055815185815291517f8c5be1e5ebec7d5bd14f71427d1e84f3dd0314c0f7b2291e5b200ac8c7c3b9259281900390910190a3505050565b6116ec8282612b29565b600a546040517fa9059cbb00000000000000000000000000000000000000000000000000000000815273ffffffffffffffffffffffffffffffffffffffff9091169063a9059cbb90610fff908590859060040161357f565b73ffffffffffffffffffffffffffffffffffffffff8316612848576040517f08c379a0000000000000000000000000000000000000000000000000000000008152600401808060200182810382526025815260200180613bec6025913960400191505060405180910390fd5b73ffffffffffffffffffffffffffffffffffffffff82166128b4576040517f08c379a0000000000000000000000000000000000000000000000000000000008152600401808060200182810382526023815260200180613b166023913960400191505060405180910390fd5b6128bf8383836107a8565b61290981604051806060016040528060268152602001613b7d6026913973ffffffffffffffffffffffffffffffffffffffff861660009081526001602052604090205491906129ae565b73ffffffffffffffffffffffffffffffffffffffff80851660009081526001602052604080822093909355908416815220546129459082612a5f565b73ffffffffffffffffffffffffffffffffffffffff80841660008181526001602090815260409182902094909455805185815290519193928716927fddf252ad1be2c89b69c2b068fc378daa952ba7f163c4a11628f55a4df523b3ef92918290030190a3505050565b60008184841115612a57576040517f08c379a00000000000000000000000000000000000000000000000000000000081526004018080602001828103825283818151815260200191508051906020019080838360005b83811015612a1c578181015183820152602001612a04565b50505050905090810190601f168015612a495780820380516001836020036101000a031916815260200191505b509250505060405180910390fd5b505050900390565b600082820183811015612ad357604080517f08c379a000000000000000000000000000000000000000000000000000000000815260206004820152601b60248201527f536166654d6174683a206164646974696f6e206f766572666c6f770000000000604482015290519081900360640190fd5b9392505050565b73ffffffffffffffffffffffffffffffffffffffff166000908152600b60205260409020600281018054825460019093018054620151806103e890950494909404429283030290930190925555565b73ffffffffffffffffffffffffffffffffffffffff8216612bab57604080517f08c379a000000000000000000000000000000000000000000000000000000000815260206004820152601f60248201527f45524332303a206d696e7420746f20746865207a65726f206164647265737300604482015290519081900360640190fd5b612bb7600083836107a8565b600354612bc49082612a5f565b60035573ffffffffffffffffffffffffffffffffffffffff8216600090815260016020526040902054612bf79082612a5f565b73ffffffffffffffffffffffffffffffffffffffff831660008181526001602090815260408083209490945583518581529351929391927fddf252ad1be2c89b69c2b068fc378daa952ba7f163c4a11628f55a4df523b3ef9281900390910190a35050565b6000601254420390506000620151806103e86001600e540281612c7b57fe5b0481612c8357fe5b600f80549290910493909302019091555042601255565b73ffffffffffffffffffffffffffffffffffffffff8216612d06576040517f08c379a0000000000000000000000000000000000000000000000000000000008152600401808060200182810382526021815260200180613bcb6021913960400191505060405180910390fd5b612d12826000836107a8565b612d5c81604051806060016040528060228152602001613b396022913973ffffffffffffffffffffffffffffffffffffffff851660009081526001602052604090205491906129ae565b73ffffffffffffffffffffffffffffffffffffffff8316600090815260016020526040902055600354612d8f9082612de8565b60035560408051828152905160009173ffffffffffffffffffffffffffffffffffffffff8516917fddf252ad1be2c89b69c2b068fc378daa952ba7f163c4a11628f55a4df523b3ef9181900360200190a35050565b4290565b600082821115612e5957604080517f08c379a000000000000000000000000000000000000000000000000000000000815260206004820152601e60248201527f536166654d6174683a207375627472616374696f6e206f766572666c6f770000604482015290519081900360640190fd5b50900390565b803561060a81613ad5565b60008083601f840112612e7b578182fd5b50813567ffffffffffffffff811115612e92578182fd5b6020830191508360208083028501011115612eac57600080fd5b9250929050565b60008083601f840112612ec4578182fd5b50813567ffffffffffffffff811115612edb578182fd5b602083019150836020828501011115612eac57600080fd5b8035600281900b811461060a57600080fd5b600060a08284031215612f16578081fd5b50919050565b60006101008284031215612f16578081fd5b803562ffffff8116811461060a57600080fd5b600060208284031215612f52578081fd5b8135612ad381613ad5565b600060208284031215612f6e578081fd5b8151612ad381613ad5565b60008060408385031215612f8b578081fd5b8235612f9681613ad5565b91506020830135612fa681613ad5565b809150509250929050565b60008060008060008060008060a0898b031215612fcc578384fd5b8835612fd781613ad5565b97506020890135612fe781613ad5565b9650604089013567ffffffffffffffff80821115613003578586fd5b61300f8c838d01612e6a565b909850965060608b0135915080821115613027578586fd5b6130338c838d01612e6a565b909650945060808b013591508082111561304b578384fd5b506130588b828c01612eb3565b999c989b5096995094979396929594505050565b600080600060608486031215613080578283fd5b833561308b81613ad5565b9250602084013561309b81613ad5565b929592945050506040919091013590565b60008060008060008060a087890312156130c4578182fd5b86356130cf81613ad5565b955060208701356130df81613ad5565b94506040870135935060608701359250608087013567ffffffffffffffff811115613108578283fd5b61311489828a01612eb3565b979a9699509497509295939492505050565b60008060408385031215613138578182fd5b823561314381613ad5565b946020939093013593505050565b600060208284031215613162578081fd5b81518015158114612ad3578182fd5b600060208284031215613182578081fd5b81357fffffffff0000000000000000000000000000000000000000000000000000000081168114612ad3578182fd5b600060a082840312156131c2578081fd5b612ad38383612f05565b60008061012083850312156131df578182fd5b6131e98484612f1c565b9150610100830135612fa681613ad5565b6000806000806000806101a08789031215613213578384fd5b61321d8888612f1c565b955061010087013567ffffffffffffffff8082111561323a578586fd5b6132468a838b01612f05565b965061012089013591508082111561325c578586fd5b5061326989828a01612f05565b945050610140870135925061016087013561328381613ad5565b915061018087013561329481613ad5565b809150509295509295509295565b60008060008060008587036101e08112156132bb578384fd5b610160808212156132ca578485fd5b879650860135905067ffffffffffffffff808211156132e7578485fd5b6132f389838a01612f05565b9550610180880135915080821115613309578485fd5b5061331688828901612f05565b9350506101a086013561332881613ad5565b91506101c086013561333981613ad5565b809150509295509295909350565b600060208284031215613358578081fd5b5035919050565b600060208284031215613370578081fd5b5051919050565b6000806000806080858703121561338c578182fd5b84519350602085015161339e81613af7565b6040860151606090960151949790965092505050565b600080604083850312156133c6578182fd5b505080516020909101519092909150565b73ffffffffffffffffffffffffffffffffffffffff169052565b600082845282826020860137806020848601015260207fffffffffffffffffffffffffffffffffffffffffffffffffffffffffffffffe0601f85011685010190509392505050565b60020b9052565b803561344b81613ad5565b73ffffffffffffffffffffffffffffffffffffffff908116835260208201359061347482613ad5565b808216602085015262ffffff61348c60408501612f2e565b166040850152606083013591506134a282613ad5565b1660608301526080818101359083015260a0808201359083015260c080820135908301526134d260e08201612e5f565b6107a860e08401826133d7565b62ffffff169052565b73ffffffffffffffffffffffffffffffffffffffff91909116815260200190565b73ffffffffffffffffffffffffffffffffffffffff9384168152919092166020820152604081019190915260600190565b73ffffffffffffffffffffffffffffffffffffffff94851681529290931660208301526040820152606081019190915260a06080820181905260009082015260c00190565b73ffffffffffffffffffffffffffffffffffffffff929092168252602082015260400190565b600073ffffffffffffffffffffffffffffffffffffffff808916835280881660208401525085604083015284606083015260a060808301526135eb60a0830184866133f1565b98975050505050505050565b600073ffffffffffffffffffffffffffffffffffffffff861682528460208301526060604083015261362d6060830184866133f1565b9695505050505050565b600073ffffffffffffffffffffffffffffffffffffffff808916835287602084015286604084015280861660608401525060a060808301526135eb60a0830184866133f1565b901515815260200190565b7fffffffff0000000000000000000000000000000000000000000000000000000091909116815260200190565b600073ffffffffffffffffffffffffffffffffffffffff8816825286602083015285604083015260a060608301528360a08301527f07ffffffffffffffffffffffffffffffffffffffffffffffffffffffffffffff841115613715578081fd5b60208402808660c0850137820160c00190815260809091019190915295945050505050565b6000602080835283518082850152825b818110156137665785810183015185820160400152820161374a565b818111156137775783604083870101525b50601f017fffffffffffffffffffffffffffffffffffffffffffffffffffffffffffffffe016929092016040019392505050565b6020808252601d908201527f416d6f756e74206d7573742062652067726561746572207468616e2030000000604082015260600190565b60208082526014908201527f4e6f2066756e647320746f207769746864726177000000000000000000000000604082015260600190565b8135815260a08101602083013561382f81613af7565b6fffffffffffffffffffffffffffffffff811660208401525060408301356040830152606083013560608301526080830135608083015292915050565b61010081016106f78284613440565b61016081016138928261388d85612e5f565b6133d7565b61389e60208401612e5f565b6138ab60208401826133d7565b506138b860408401612f2e565b6138c560408401826134df565b506138d260608401612ef3565b6138df6060840182613439565b506138ec60808401612ef3565b6138f96080840182613439565b5060a083013560a083015260c083013560c083015260e083013560e0830152610100808401358184015250610120613932818501612e5f565b61393e828501826133d7565b505061014092830135919092015290565b6fffffffffffffffffffffffffffffffff9390931683526020830191909152604082015260600190565b90815260200190565b9384526fffffffffffffffffffffffffffffffff9290921660208401526040830152606082015260800190565b918252602082015260400190565b928352602083019190915273ffffffffffffffffffffffffffffffffffffffff16604082015260600190565b9283526020830191909152604082015260600190565b60ff91909116815260200190565b60008083357fffffffffffffffffffffffffffffffffffffffffffffffffffffffffffffffe1843603018112613a41578283fd5b83018035915067ffffffffffffffff821115613a5b578283fd5b6020908101925081023603821315612eac57600080fd5b60008083357fffffffffffffffffffffffffffffffffffffffffffffffffffffffffffffffe1843603018112613aa6578283fd5b83018035915067ffffffffffffffff821115613ac0578283fd5b602001915036819003821315612eac57600080fd5b73ffffffffffffffffffffffffffffffffffffffff8116811461142557600080fd5b6fffffffffffffffffffffffffffffffff8116811461142557600080fdfe45524332303a207472616e7366657220746f20746865207a65726f206164647265737345524332303a206275726e20616d6f756e7420657863656564732062616c616e636545524332303a20617070726f766520746f20746865207a65726f206164647265737345524332303a207472616e7366657220616d6f756e7420657863656564732062616c616e636545524332303a207472616e7366657220616d6f756e74206578636565647320616c6c6f77616e636545524332303a206275726e2066726f6d20746865207a65726f206164647265737345524332303a207472616e736665722066726f6d20746865207a65726f206164647265737345524332303a20617070726f76652066726f6d20746865207a65726f206164647265737345524332303a2064656372656173656420616c6c6f77616e63652062656c6f77207a65726fa164736f6c6343000706000a",
  "linkReferences": {},
  "deployedLinkReferences": {}
}