{
  "_format": "hh-sol-artifact-1",
  "contractName": "Vault",
  "sourceName": "contracts/vault.sol",
  "abi": [
    {
      "inputs": [
        {
          "internalType": "address",
          "name": "_usdcTokenAddress",
          "type": "address"
        },
        {
          "internalType": "address",
          "name": "_NonfungiblePositionManager",
          "type": "address"
        },
        {
          "internalType": "address",
          "name": "_ctf",
          "type": "address"
        },
        {
          "internalType": "address",
          "name": "_swaprouter",
          "type": "address"
        }
      ],
      "stateMutability": "nonpayable",
      "type": "constructor"
    },
    {
      "anonymous": false,
      "inputs": [
        {
          "indexed": true,
          "internalType": "address",
          "name": "owner",
          "type": "address"
        },
        {
          "indexed": true,
          "internalType": "address",
          "name": "spender",
          "type": "address"
        },
        {
          "indexed": false,
          "internalType": "uint256",
          "name": "value",
          "type": "uint256"
        }
      ],
      "name": "Approval",
      "type": "event"
    },
    {
      "anonymous": false,
      "inputs": [
        {
          "indexed": false,
          "internalType": "uint256",
          "name": "amountIn",
          "type": "uint256"
        },
        {
          "indexed": false,
          "internalType": "uint256",
          "name": "amountOut",
          "type": "uint256"
        },
        {
          "indexed": false,
          "internalType": "address",
          "name": "pool",
          "type": "address"
        }
      ],
      "name": "BuyNo",
      "type": "event"
    },
    {
      "anonymous": false,
      "inputs": [
        {
          "indexed": false,
          "internalType": "uint256",
          "name": "amountIn",
          "type": "uint256"
        },
        {
          "indexed": false,
          "internalType": "uint256",
          "name": "amountOut",
          "type": "uint256"
        },
        {
          "indexed": false,
          "internalType": "address",
          "name": "pool",
          "type": "address"
        }
      ],
      "name": "BuyYes",
      "type": "event"
    },
    {
      "anonymous": false,
      "inputs": [
        {
          "indexed": true,
          "internalType": "uint256",
          "name": "tokenId",
          "type": "uint256"
        },
        {
          "indexed": false,
          "internalType": "uint128",
          "name": "liquidity",
          "type": "uint128"
        },
        {
          "indexed": false,
          "internalType": "uint256",
          "name": "amount0",
          "type": "uint256"
        },
        {
          "indexed": false,
          "internalType": "uint256",
          "name": "amount1",
          "type": "uint256"
        }
      ],
      "name": "IncreaseLiquidity",
      "type": "event"
    },
    {
      "anonymous": false,
      "inputs": [
        {
          "indexed": false,
          "internalType": "uint256",
          "name": "amountIn",
          "type": "uint256"
        },
        {
          "indexed": false,
          "internalType": "uint256",
          "name": "amountOut",
          "type": "uint256"
        },
        {
          "indexed": false,
          "internalType": "address",
          "name": "pool",
          "type": "address"
        }
      ],
      "name": "SellNo",
      "type": "event"
    },
    {
      "anonymous": false,
      "inputs": [
        {
          "indexed": false,
          "internalType": "uint256",
          "name": "amountIn",
          "type": "uint256"
        },
        {
          "indexed": false,
          "internalType": "uint256",
          "name": "amountOut",
          "type": "uint256"
        },
        {
          "indexed": false,
          "internalType": "address",
          "name": "pool",
          "type": "address"
        }
      ],
      "name": "SellYes",
      "type": "event"
    },
    {
      "anonymous": false,
      "inputs": [
        {
          "indexed": true,
          "internalType": "address",
          "name": "from",
          "type": "address"
        },
        {
          "indexed": true,
          "internalType": "address",
          "name": "to",
          "type": "address"
        },
        {
          "indexed": false,
          "internalType": "uint256",
          "name": "value",
          "type": "uint256"
        }
      ],
      "name": "Transfer",
      "type": "event"
    },
    {
      "inputs": [],
      "name": "DAILY_INTEREST_RATE",
      "outputs": [
        {
          "internalType": "uint256",
          "name": "",
          "type": "uint256"
        }
      ],
      "stateMutability": "view",
      "type": "function"
    },
    {
      "inputs": [],
      "name": "FIXED_POINT",
      "outputs": [
        {
          "internalType": "uint256",
          "name": "",
          "type": "uint256"
        }
      ],
      "stateMutability": "view",
      "type": "function"
    },
    {
      "inputs": [
        {
          "internalType": "address",
          "name": "",
          "type": "address"
        }
      ],
      "name": "LPshares",
      "outputs": [
        {
          "internalType": "uint256",
          "name": "",
          "type": "uint256"
        }
      ],
      "stateMutability": "view",
      "type": "function"
    },
    {
      "inputs": [],
      "name": "NonfungiblePositionManager",
      "outputs": [
        {
          "internalType": "address",
          "name": "",
          "type": "address"
        }
      ],
      "stateMutability": "view",
      "type": "function"
    },
    {
      "inputs": [],
      "name": "SECONDS_IN_A_DAY",
      "outputs": [
        {
          "internalType": "uint256",
          "name": "",
          "type": "uint256"
        }
      ],
      "stateMutability": "view",
      "type": "function"
    },
    {
      "inputs": [],
      "name": "SwapRouter",
      "outputs": [
        {
          "internalType": "address",
          "name": "",
          "type": "address"
        }
      ],
      "stateMutability": "view",
      "type": "function"
    },
    {
      "inputs": [
        {
          "components": [
            {
              "internalType": "address",
              "name": "token0",
              "type": "address"
            },
            {
              "internalType": "address",
              "name": "token1",
              "type": "address"
            },
            {
              "internalType": "uint24",
              "name": "fee",
              "type": "uint24"
            },
            {
              "internalType": "int24",
              "name": "tickLower",
              "type": "int24"
            },
            {
              "internalType": "int24",
              "name": "tickUpper",
              "type": "int24"
            },
            {
              "internalType": "uint256",
              "name": "amount0Desired",
              "type": "uint256"
            },
            {
              "internalType": "uint256",
              "name": "amount1Desired",
              "type": "uint256"
            },
            {
              "internalType": "uint256",
              "name": "amount0Min",
              "type": "uint256"
            },
            {
              "internalType": "uint256",
              "name": "amount1Min",
              "type": "uint256"
            },
            {
              "internalType": "address",
              "name": "recipient",
              "type": "address"
            },
            {
              "internalType": "uint256",
              "name": "deadline",
              "type": "uint256"
            }
          ],
          "internalType": "struct INonfungiblePositionManager.MintParams",
          "name": "mintParams",
          "type": "tuple"
        },
        {
          "components": [
            {
              "internalType": "contract IERC20",
              "name": "collateralToken",
              "type": "address"
            },
            {
              "internalType": "bytes32",
              "name": "parentCollectionId",
              "type": "bytes32"
            },
            {
              "internalType": "bytes32",
              "name": "conditionId",
              "type": "bytes32"
            },
            {
              "internalType": "uint256[]",
              "name": "partition",
              "type": "uint256[]"
            },
            {
              "internalType": "uint256",
              "name": "amount",
              "type": "uint256"
            }
          ],
          "internalType": "struct SplitPositionParams",
          "name": "splitPositionParmas",
          "type": "tuple"
        },
        {
          "components": [
            {
              "internalType": "address",
              "name": "from",
              "type": "address"
            },
            {
              "internalType": "address",
              "name": "to",
              "type": "address"
            },
            {
              "internalType": "uint256",
              "name": "id",
              "type": "uint256"
            },
            {
              "internalType": "uint256",
              "name": "value",
              "type": "uint256"
            },
            {
              "internalType": "bytes",
              "name": "data",
              "type": "bytes"
            }
          ],
          "internalType": "struct ERC1155TransferParams",
          "name": "transferParmas",
          "type": "tuple"
        },
        {
          "internalType": "address",
          "name": "ERC1155Factory",
          "type": "address"
        },
        {
          "internalType": "address",
          "name": "poolAddress",
          "type": "address"
        }
      ],
      "name": "addLiquidity",
      "outputs": [
        {
          "internalType": "uint256",
          "name": "tokenId",
          "type": "uint256"
        },
        {
          "internalType": "uint128",
          "name": "liquidity",
          "type": "uint128"
        },
        {
          "internalType": "uint256",
          "name": "amount0",
          "type": "uint256"
        },
        {
          "internalType": "uint256",
          "name": "amount1",
          "type": "uint256"
        }
      ],
      "stateMutability": "nonpayable",
      "type": "function"
    },
    {
      "inputs": [
        {
          "internalType": "address",
          "name": "owner",
          "type": "address"
        },
        {
          "internalType": "address",
          "name": "spender",
          "type": "address"
        }
      ],
      "name": "allowance",
      "outputs": [
        {
          "internalType": "uint256",
          "name": "",
          "type": "uint256"
        }
      ],
      "stateMutability": "view",
      "type": "function"
    },
    {
      "inputs": [
        {
          "internalType": "address",
          "name": "spender",
          "type": "address"
        },
        {
          "internalType": "uint256",
          "name": "amount",
          "type": "uint256"
        }
      ],
      "name": "approve",
      "outputs": [
        {
          "internalType": "bool",
          "name": "",
          "type": "bool"
        }
      ],
      "stateMutability": "nonpayable",
      "type": "function"
    },
    {
      "inputs": [
        {
          "internalType": "address",
          "name": "account",
          "type": "address"
        }
      ],
      "name": "balanceOf",
      "outputs": [
        {
          "internalType": "uint256",
          "name": "",
          "type": "uint256"
        }
      ],
      "stateMutability": "view",
      "type": "function"
    },
    {
      "inputs": [
        {
          "components": [
            {
              "internalType": "address",
              "name": "tokenIn",
              "type": "address"
            },
            {
              "internalType": "address",
              "name": "tokenOut",
              "type": "address"
            },
            {
              "internalType": "uint24",
              "name": "fee",
              "type": "uint24"
            },
            {
              "internalType": "address",
              "name": "recipient",
              "type": "address"
            },
            {
              "internalType": "uint256",
              "name": "deadline",
              "type": "uint256"
            },
            {
              "internalType": "uint256",
              "name": "amountIn",
              "type": "uint256"
            },
            {
              "internalType": "uint256",
              "name": "amountOutMinimum",
              "type": "uint256"
            },
            {
              "internalType": "uint160",
              "name": "sqrtPriceLimitX96",
              "type": "uint160"
            }
          ],
          "internalType": "struct ISwapRouter.ExactInputSingleParams",
          "name": "params",
          "type": "tuple"
        },
        {
          "components": [
            {
              "internalType": "contract IERC20",
              "name": "collateralToken",
              "type": "address"
            },
            {
              "internalType": "bytes32",
              "name": "parentCollectionId",
              "type": "bytes32"
            },
            {
              "internalType": "bytes32",
              "name": "conditionId",
              "type": "bytes32"
            },
            {
              "internalType": "uint256[]",
              "name": "partition",
              "type": "uint256[]"
            },
            {
              "internalType": "uint256",
              "name": "amount",
              "type": "uint256"
            }
          ],
          "internalType": "struct SplitPositionParams",
          "name": "splitPositionParmas",
          "type": "tuple"
        },
        {
          "components": [
            {
              "internalType": "address",
              "name": "from",
              "type": "address"
            },
            {
              "internalType": "address",
              "name": "to",
              "type": "address"
            },
            {
              "internalType": "uint256",
              "name": "id",
              "type": "uint256"
            },
            {
              "internalType": "uint256",
              "name": "value",
              "type": "uint256"
            },
            {
              "internalType": "bytes",
              "name": "data",
              "type": "bytes"
            }
          ],
          "internalType": "struct ERC1155TransferParams",
          "name": "transferParmas",
          "type": "tuple"
        },
        {
          "internalType": "uint256",
          "name": "noPositionId",
          "type": "uint256"
        },
        {
          "internalType": "address",
          "name": "ERC1155Factory",
          "type": "address"
        },
        {
          "internalType": "address",
          "name": "pool",
          "type": "address"
        }
      ],
      "name": "buyNo",
      "outputs": [],
      "stateMutability": "nonpayable",
      "type": "function"
    },
    {
      "inputs": [
        {
          "components": [
            {
              "internalType": "address",
              "name": "tokenIn",
              "type": "address"
            },
            {
              "internalType": "address",
              "name": "tokenOut",
              "type": "address"
            },
            {
              "internalType": "uint24",
              "name": "fee",
              "type": "uint24"
            },
            {
              "internalType": "address",
              "name": "recipient",
              "type": "address"
            },
            {
              "internalType": "uint256",
              "name": "deadline",
              "type": "uint256"
            },
            {
              "internalType": "uint256",
              "name": "amountIn",
              "type": "uint256"
            },
            {
              "internalType": "uint256",
              "name": "amountOutMinimum",
              "type": "uint256"
            },
            {
              "internalType": "uint160",
              "name": "sqrtPriceLimitX96",
              "type": "uint160"
            }
          ],
          "internalType": "struct ISwapRouter.ExactInputSingleParams",
          "name": "params",
          "type": "tuple"
        },
        {
          "internalType": "address",
          "name": "pool",
          "type": "address"
        }
      ],
      "name": "buyYes",
      "outputs": [],
      "stateMutability": "nonpayable",
      "type": "function"
    },
    {
      "inputs": [],
      "name": "ctfAddress",
      "outputs": [
        {
          "internalType": "address",
          "name": "",
          "type": "address"
        }
      ],
      "stateMutability": "view",
      "type": "function"
    },
    {
      "inputs": [],
      "name": "decimals",
      "outputs": [
        {
          "internalType": "uint8",
          "name": "",
          "type": "uint8"
        }
      ],
      "stateMutability": "view",
      "type": "function"
    },
    {
      "inputs": [
        {
          "internalType": "address",
          "name": "spender",
          "type": "address"
        },
        {
          "internalType": "uint256",
          "name": "subtractedValue",
          "type": "uint256"
        }
      ],
      "name": "decreaseAllowance",
      "outputs": [
        {
          "internalType": "bool",
          "name": "",
          "type": "bool"
        }
      ],
      "stateMutability": "nonpayable",
      "type": "function"
    },
    {
      "inputs": [
        {
          "components": [
            {
              "internalType": "uint256",
              "name": "tokenId",
              "type": "uint256"
            },
            {
              "internalType": "uint128",
              "name": "liquidity",
              "type": "uint128"
            },
            {
              "internalType": "uint256",
              "name": "amount0Min",
              "type": "uint256"
            },
            {
              "internalType": "uint256",
              "name": "amount1Min",
              "type": "uint256"
            },
            {
              "internalType": "uint256",
              "name": "deadline",
              "type": "uint256"
            }
          ],
          "internalType": "struct INonfungiblePositionManager.DecreaseLiquidityParams",
          "name": "params",
          "type": "tuple"
        }
      ],
      "name": "decreaseLiquidity",
      "outputs": [],
      "stateMutability": "nonpayable",
      "type": "function"
    },
    {
      "inputs": [
        {
          "internalType": "uint256",
          "name": "amount",
          "type": "uint256"
        }
      ],
      "name": "deposit",
      "outputs": [],
      "stateMutability": "nonpayable",
      "type": "function"
    },
    {
      "inputs": [
        {
          "internalType": "address",
          "name": "",
          "type": "address"
        }
      ],
      "name": "deposits",
      "outputs": [
        {
          "internalType": "uint256",
          "name": "principal",
          "type": "uint256"
        },
        {
          "internalType": "uint256",
          "name": "interestAccrued",
          "type": "uint256"
        },
        {
          "internalType": "uint256",
          "name": "lastDepositTime",
          "type": "uint256"
        }
      ],
      "stateMutability": "view",
      "type": "function"
    },
    {
      "inputs": [
        {
          "internalType": "address",
          "name": "user",
          "type": "address"
        }
      ],
      "name": "getBalance",
      "outputs": [
        {
          "internalType": "uint256",
          "name": "principal",
          "type": "uint256"
        },
        {
          "internalType": "uint256",
          "name": "interest",
          "type": "uint256"
        }
      ],
      "stateMutability": "view",
      "type": "function"
    },
    {
      "inputs": [],
      "name": "getTotalBalance",
      "outputs": [
        {
          "internalType": "uint256",
          "name": "totalPrincipalAmount",
          "type": "uint256"
        },
        {
          "internalType": "uint256",
          "name": "totalInterestAmount",
          "type": "uint256"
        }
      ],
      "stateMutability": "view",
      "type": "function"
    },
    {
      "inputs": [
        {
          "internalType": "address",
          "name": "spender",
          "type": "address"
        },
        {
          "internalType": "uint256",
          "name": "addedValue",
          "type": "uint256"
        }
      ],
      "name": "increaseAllowance",
      "outputs": [
        {
          "internalType": "bool",
          "name": "",
          "type": "bool"
        }
      ],
      "stateMutability": "nonpayable",
      "type": "function"
    },
    {
      "inputs": [],
      "name": "lastUpdateTimestamp",
      "outputs": [
        {
          "internalType": "uint256",
          "name": "",
          "type": "uint256"
        }
      ],
      "stateMutability": "view",
      "type": "function"
    },
    {
      "inputs": [
        {
          "internalType": "uint256",
          "name": "amount",
          "type": "uint256"
        }
      ],
      "name": "mint",
      "outputs": [],
      "stateMutability": "nonpayable",
      "type": "function"
    },
    {
      "inputs": [],
      "name": "name",
      "outputs": [
        {
          "internalType": "string",
          "name": "",
          "type": "string"
        }
      ],
      "stateMutability": "view",
      "type": "function"
    },
    {
      "inputs": [
        {
          "internalType": "address",
          "name": "operator",
          "type": "address"
        },
        {
          "internalType": "address",
          "name": "",
          "type": "address"
        },
        {
          "internalType": "uint256[]",
          "name": "ids",
          "type": "uint256[]"
        },
        {
          "internalType": "uint256[]",
          "name": "values",
          "type": "uint256[]"
        },
        {
          "internalType": "bytes",
          "name": "data",
          "type": "bytes"
        }
      ],
      "name": "onERC1155BatchReceived",
      "outputs": [
        {
          "internalType": "bytes4",
          "name": "",
          "type": "bytes4"
        }
      ],
      "stateMutability": "nonpayable",
      "type": "function"
    },
    {
      "inputs": [
        {
          "internalType": "address",
          "name": "operator",
          "type": "address"
        },
        {
          "internalType": "address",
          "name": "",
          "type": "address"
        },
        {
          "internalType": "uint256",
          "name": "id",
          "type": "uint256"
        },
        {
          "internalType": "uint256",
          "name": "value",
          "type": "uint256"
        },
        {
          "internalType": "bytes",
          "name": "data",
          "type": "bytes"
        }
      ],
      "name": "onERC1155Received",
      "outputs": [
        {
          "internalType": "bytes4",
          "name": "",
          "type": "bytes4"
        }
      ],
      "stateMutability": "nonpayable",
      "type": "function"
    },
    {
      "inputs": [
        {
          "internalType": "address",
          "name": "",
          "type": "address"
        }
      ],
      "name": "poolExposure",
      "outputs": [
        {
          "internalType": "uint256",
          "name": "",
          "type": "uint256"
        }
      ],
      "stateMutability": "view",
      "type": "function"
    },
    {
      "inputs": [
        {
          "components": [
            {
              "internalType": "address",
              "name": "tokenIn",
              "type": "address"
            },
            {
              "internalType": "address",
              "name": "tokenOut",
              "type": "address"
            },
            {
              "internalType": "uint24",
              "name": "fee",
              "type": "uint24"
            },
            {
              "internalType": "address",
              "name": "recipient",
              "type": "address"
            },
            {
              "internalType": "uint256",
              "name": "deadline",
              "type": "uint256"
            },
            {
              "internalType": "uint256",
              "name": "amountOut",
              "type": "uint256"
            },
            {
              "internalType": "uint256",
              "name": "amountInMaximum",
              "type": "uint256"
            },
            {
              "internalType": "uint160",
              "name": "sqrtPriceLimitX96",
              "type": "uint160"
            }
          ],
          "internalType": "struct ISwapRouter.ExactOutputSingleParams",
          "name": "params",
          "type": "tuple"
        },
        {
          "components": [
            {
              "internalType": "contract IERC20",
              "name": "collateralToken",
              "type": "address"
            },
            {
              "internalType": "bytes32",
              "name": "parentCollectionId",
              "type": "bytes32"
            },
            {
              "internalType": "bytes32",
              "name": "conditionId",
              "type": "bytes32"
            },
            {
              "internalType": "uint256[]",
              "name": "partition",
              "type": "uint256[]"
            },
            {
              "internalType": "uint256",
              "name": "amount",
              "type": "uint256"
            }
          ],
          "internalType": "struct SplitPositionParams",
          "name": "splitPositionParmas",
          "type": "tuple"
        },
        {
          "components": [
            {
              "internalType": "address",
              "name": "multiToken",
              "type": "address"
            },
            {
              "internalType": "uint256",
              "name": "tokenId",
              "type": "uint256"
            },
            {
              "internalType": "uint256",
              "name": "amount",
              "type": "uint256"
            },
            {
              "internalType": "address",
              "name": "recipient",
              "type": "address"
            },
            {
              "internalType": "bytes",
              "name": "data",
              "type": "bytes"
            }
          ],
          "internalType": "struct UnwrappedParams",
          "name": "unwrappedParams",
          "type": "tuple"
        },
        {
          "internalType": "uint256",
          "name": "noPositionId",
          "type": "uint256"
        },
        {
          "internalType": "address",
          "name": "ERC1155Factory",
          "type": "address"
        },
        {
          "internalType": "address",
          "name": "pool",
          "type": "address"
        }
      ],
      "name": "sellNo",
      "outputs": [],
      "stateMutability": "nonpayable",
      "type": "function"
    },
    {
      "inputs": [
        {
          "components": [
            {
              "internalType": "address",
              "name": "tokenIn",
              "type": "address"
            },
            {
              "internalType": "address",
              "name": "tokenOut",
              "type": "address"
            },
            {
              "internalType": "uint24",
              "name": "fee",
              "type": "uint24"
            },
            {
              "internalType": "address",
              "name": "recipient",
              "type": "address"
            },
            {
              "internalType": "uint256",
              "name": "deadline",
              "type": "uint256"
            },
            {
              "internalType": "uint256",
              "name": "amountIn",
              "type": "uint256"
            },
            {
              "internalType": "uint256",
              "name": "amountOutMinimum",
              "type": "uint256"
            },
            {
              "internalType": "uint160",
              "name": "sqrtPriceLimitX96",
              "type": "uint160"
            }
          ],
          "internalType": "struct ISwapRouter.ExactInputSingleParams",
          "name": "params",
          "type": "tuple"
        },
        {
          "internalType": "address",
          "name": "pool",
          "type": "address"
        }
      ],
      "name": "sellYes",
      "outputs": [],
      "stateMutability": "nonpayable",
      "type": "function"
    },
    {
      "inputs": [
        {
          "internalType": "bytes4",
          "name": "interfaceId",
          "type": "bytes4"
        }
      ],
      "name": "supportsInterface",
      "outputs": [
        {
          "internalType": "bool",
          "name": "",
          "type": "bool"
        }
      ],
      "stateMutability": "view",
      "type": "function"
    },
    {
      "inputs": [],
      "name": "symbol",
      "outputs": [
        {
          "internalType": "string",
          "name": "",
          "type": "string"
        }
      ],
      "stateMutability": "view",
      "type": "function"
    },
    {
      "inputs": [],
      "name": "totalInterest",
      "outputs": [
        {
          "internalType": "uint256",
          "name": "",
          "type": "uint256"
        }
      ],
      "stateMutability": "view",
      "type": "function"
    },
    {
      "inputs": [],
      "name": "totalInterestCanUse",
      "outputs": [
        {
          "internalType": "uint256",
          "name": "",
          "type": "uint256"
        }
      ],
      "stateMutability": "view",
      "type": "function"
    },
    {
      "inputs": [],
      "name": "totalPrincipal",
      "outputs": [
        {
          "internalType": "uint256",
          "name": "",
          "type": "uint256"
        }
      ],
      "stateMutability": "view",
      "type": "function"
    },
    {
      "inputs": [],
      "name": "totalSupply",
      "outputs": [
        {
          "internalType": "uint256",
          "name": "",
          "type": "uint256"
        }
      ],
      "stateMutability": "view",
      "type": "function"
    },
    {
      "inputs": [],
      "name": "totalshares",
      "outputs": [
        {
          "internalType": "uint256",
          "name": "",
          "type": "uint256"
        }
      ],
      "stateMutability": "view",
      "type": "function"
    },
    {
      "inputs": [
        {
          "internalType": "address",
          "name": "recipient",
          "type": "address"
        },
        {
          "internalType": "uint256",
          "name": "amount",
          "type": "uint256"
        }
      ],
      "name": "transfer",
      "outputs": [
        {
          "internalType": "bool",
          "name": "",
          "type": "bool"
        }
      ],
      "stateMutability": "nonpayable",
      "type": "function"
    },
    {
      "inputs": [
        {
          "internalType": "address",
          "name": "sender",
          "type": "address"
        },
        {
          "internalType": "address",
          "name": "recipient",
          "type": "address"
        },
        {
          "internalType": "uint256",
          "name": "amount",
          "type": "uint256"
        }
      ],
      "name": "transferFrom",
      "outputs": [
        {
          "internalType": "bool",
          "name": "",
          "type": "bool"
        }
      ],
      "stateMutability": "nonpayable",
      "type": "function"
    },
    {
      "inputs": [],
      "name": "usdbTokenAddress",
      "outputs": [
        {
          "internalType": "address",
          "name": "",
          "type": "address"
        }
      ],
      "stateMutability": "view",
      "type": "function"
    },
    {
      "inputs": [],
      "name": "usdc",
      "outputs": [
        {
          "internalType": "contract IERC20",
          "name": "",
          "type": "address"
        }
      ],
      "stateMutability": "view",
      "type": "function"
    },
    {
      "inputs": [],
      "name": "withdraw",
      "outputs": [],
      "stateMutability": "nonpayable",
      "type": "function"
    }
  ],
  "bytecode": "0x60806040523480156200001157600080fd5b5060405162003a0338038062003a0383398101604081905262000034916200028d565b604080518082018252600a81526955534420427562626c7960b01b602080830191909152825180840190935260048352632aa9a22160e11b9083015290620000836301ffc9a760e01b6200013f565b62000095630271189760e51b6200013f565b8151620000aa906004906020850190620001c4565b508051620000c0906005906020840190620001c4565b505060068054600880546001600160a01b03199081163017909155600a80546001600160a01b03998a1690831617905542601290815596881661010002610100600160a81b031960ff199093169097179190911695909517905550600980549285169284169290921790915560078054919093169116179055620002e9565b6001600160e01b031980821614156200019f576040805162461bcd60e51b815260206004820152601c60248201527f4552433136353a20696e76616c696420696e7465726661636520696400000000604482015290519081900360640190fd5b6001600160e01b0319166000908152602081905260409020805460ff19166001179055565b828054600181600116156101000203166002900490600052602060002090601f016020900481019282620001fc576000855562000247565b82601f106200021757805160ff191683800117855562000247565b8280016001018555821562000247579182015b82811115620002475782518255916020019190600101906200022a565b506200025592915062000259565b5090565b5b808211156200025557600081556001016200025a565b80516001600160a01b03811681146200028857600080fd5b919050565b60008060008060808587031215620002a3578384fd5b620002ae8562000270565b9350620002be6020860162000270565b9250620002ce6040860162000270565b9150620002de6060860162000270565b905092959194509250565b61370a80620002f96000396000f3fe608060405234801561001057600080fd5b50600436106102d35760003560e01c806370a0823111610186578063c20b58ec116100e3578063f8b2cb4f11610097578063fbd24d4511610071578063fbd24d451461054b578063fc7e286d1461056e578063fef396c914610590576102d3565b8063f8b2cb4f1461051d578063f9cfa06f14610530578063fa29b0ba14610538576102d3565b8063dd62ed3e116100c8578063dd62ed3e146104ef578063eb582d1314610502578063f23a6e611461050a576102d3565b8063c20b58ec146104d4578063d061c81e146104e7576102d3565b8063a9059cbb1161013a578063b6b55f251161011f578063b6b55f2514610499578063bc197c81146104ac578063bc7a36d6146104cc576102d3565b8063a9059cbb14610473578063b024f98a14610486576102d3565b806395d89b411161016b57806395d89b4114610445578063a0712d681461044d578063a457c2d714610460576102d3565b806370a082311461042a5780637a458d7a1461043d576102d3565b806323b872dd116102345780634b1533b2116101e8578063573e4bdb116101cd578063573e4bdb146103fc578063623f17bd1461040f578063636a6d4614610422576102d3565b80634b1533b2146103ec5780634dc32eff146103f4576102d3565b8063395093511161021957806339509351146103c95780633ccfd60b146103dc5780633e413bee146103e4576102d3565b806323b872dd146103a1578063313ce567146103b4576102d3565b806312b583491161028b57806314bcec9f1161027057806314bcec9f1461037c57806318160ddd1461039157806322c4b93714610399576102d3565b806312b5834914610353578063146e6db714610369576102d3565b806306fdde03116102bc57806306fdde0314610316578063095ea7b31461032b5780630c49ccbe1461033e576102d3565b806301ffc9a7146102d857806303f71c5a14610301575b600080fd5b6102eb6102e6366004612c58565b610598565b6040516102f89190613164565b60405180910390f35b6103096105d3565b6040516102f89190612fcf565b61031e6105ef565b6040516102f89190613221565b6102eb610339366004612c0d565b6106a3565b61035161034c366004612c98565b6106c1565b005b61035b610771565b6040516102f8929190613496565b610351610377366004612ce1565b6107b6565b610384610d27565b6040516102f89190613460565b610384610d2d565b610384610d33565b6102eb6103af366004612b53565b610d38565b6103bc610dd9565b6040516102f891906134e6565b6102eb6103d7366004612c0d565b610de2565b610351610e3d565b610309610f6b565b610384610f87565b610309610f8d565b61038461040a366004612a28565b610fa9565b61035161041d366004612cb3565b610fbb565b610309611288565b610384610438366004612a28565b6112a4565b6103846112cc565b61031e6112d8565b61035161045b366004612e2e565b611357565b6102eb61046e366004612c0d565b611364565b6102eb610481366004612c0d565b6113d9565b610384610494366004612a28565b6113ed565b6103516104a7366004612e2e565b6113ff565b6104bf6104ba366004612a98565b611553565b6040516102f8919061316f565b610384611580565b6103516104e2366004612cb3565b611586565b610384611833565b6103846104fd366004612a60565b611839565b610309611871565b6104bf610518366004612b93565b611892565b61035b61052b366004612a28565b6118bd565b610384611906565b610351610546366004612ce1565b61190d565b61055e610559366004612d89565b611d0f565b6040516102f89493929190613469565b61058161057c366004612a28565b612308565b6040516102f8939291906134d0565b610384612329565b7fffffffff00000000000000000000000000000000000000000000000000000000811660009081526020819052604090205460ff165b919050565b60095473ffffffffffffffffffffffffffffffffffffffff1681565b60048054604080516020601f60027fffffffffffffffffffffffffffffffffffffffffffffffffffffffffffffffff6101006001881615020190951694909404938401819004810282018101909252828152606093909290918301828280156106995780601f1061066e57610100808354040283529160200191610699565b820191906000526020600020905b81548152906001019060200180831161067c57829003601f168201915b5050505050905090565b60006106b76106b061232f565b8484612333565b5060015b92915050565b6006546040517f0c49ccbe00000000000000000000000000000000000000000000000000000000815261010090910473ffffffffffffffffffffffffffffffffffffffff1690630c49ccbe9061071b908490600401613300565b6040805180830381600087803b15801561073457600080fd5b505af1158015610748573d6000803e3d6000fd5b505050506040513d601f19601f8201168201806040525081019061076c9190612e9b565b505050565b6000806000601254420390506000620151806103e86001600e54028161079357fe5b048161079b57fe5b600e54600f5490965091900492909202919091019150509091565b6107c4308760a0013561247a565b60085473ffffffffffffffffffffffffffffffffffffffff166107ea6020880188612a28565b73ffffffffffffffffffffffffffffffffffffffff16141561080b57600080fd5b6008546009546040517f095ea7b300000000000000000000000000000000000000000000000000000000815273ffffffffffffffffffffffffffffffffffffffff9283169263095ea7b392610887929116907fffffffffffffffffffffffffffffffffffffffffffffffffffffffffffffffff90600401613066565b602060405180830381600087803b1580156108a157600080fd5b505af11580156108b5573d6000803e3d6000fd5b505050506040513d601f19601f820116820180604052508101906108d99190612c38565b5060095473ffffffffffffffffffffffffffffffffffffffff166372ce42756109056020880188612a28565b6020880135604089013561091c60608b018b6134f4565b8b608001356040518763ffffffff1660e01b81526004016109429695949392919061319c565b600060405180830381600087803b15801561095c57600080fd5b505af1158015610970573d6000803e3d6000fd5b50506009546040517ff242432a00000000000000000000000000000000000000000000000000000000815273ffffffffffffffffffffffffffffffffffffffff909116925063f242432a91506109d49030903390889060808c013590600401613021565b600060405180830381600087803b1580156109ee57600080fd5b505af1158015610a02573d6000803e3d6000fd5b505060095473ffffffffffffffffffffffffffffffffffffffff16915063f242432a9050610a336020870187612a28565b610a436040880160208901612a28565b60408801356060890135610a5a60808b018b613559565b6040518763ffffffff1660e01b8152600401610a7b9695949392919061308c565b600060405180830381600087803b158015610a9557600080fd5b505af1158015610aa9573d6000803e3d6000fd5b50506009546000925073ffffffffffffffffffffffffffffffffffffffff80861692506308b2ea5e91166040880135610ae560808a018a613559565b6040518563ffffffff1660e01b8152600401610b0494939291906130de565b60206040518083038186803b158015610b1c57600080fd5b505afa158015610b30573d6000803e3d6000fd5b505050506040513d601f19601f82011682018060405250810190610b549190612a44565b6007546040517f095ea7b300000000000000000000000000000000000000000000000000000000815291925073ffffffffffffffffffffffffffffffffffffffff8084169263095ea7b392610bcf9216907fffffffffffffffffffffffffffffffffffffffffffffffffffffffffffffffff90600401613066565b602060405180830381600087803b158015610be957600080fd5b505af1158015610bfd573d6000803e3d6000fd5b505050506040513d601f19601f82011682018060405250810190610c219190612c38565b506007546040517f414bf38900000000000000000000000000000000000000000000000000000000815260009173ffffffffffffffffffffffffffffffffffffffff169063414bf38990610c79908b90600401613353565b602060405180830381600087803b158015610c9357600080fd5b505af1158015610ca7573d6000803e3d6000fd5b505050506040513d601f19601f82011682018060405250810190610ccb9190612e46565b9050610cdd33828a60a00135036113d9565b507f842cd44bec4035a1073f566a5ba9cdaf533a87c6b4ce9e30805cde486f7486038860a001358285604051610d15939291906134a4565b60405180910390a15050505050505050565b60125481565b60035490565b600181565b6000610d45848484612484565b610dcf84610d5161232f565b610dca856040518060600160405280602881526020016136686028913973ffffffffffffffffffffffffffffffffffffffff8a16600090815260026020526040812090610d9c61232f565b73ffffffffffffffffffffffffffffffffffffffff1681526020810191909152604001600020549190612656565b612333565b5060019392505050565b60065460ff1690565b60006106b7610def61232f565b84610dca8560026000610e0061232f565b73ffffffffffffffffffffffffffffffffffffffff908116825260208083019390935260409182016000908120918c168152925290205490612707565b336000818152600b6020526040902090610e5690612782565b600181015481540180610e9e576040517f08c379a0000000000000000000000000000000000000000000000000000000008152600401610e95906132c9565b60405180910390fd5b8154600e8054919091039055600182018054600f805491909103905560008084559055600a546040517fa9059cbb00000000000000000000000000000000000000000000000000000000815273ffffffffffffffffffffffffffffffffffffffff9091169063a9059cbb90610f199033908590600401613066565b602060405180830381600087803b158015610f3357600080fd5b505af1158015610f47573d6000803e3d6000fd5b505050506040513d601f19601f8201168201806040525081019061076c9190612c38565b600a5473ffffffffffffffffffffffffffffffffffffffff1681565b600e5481565b60075473ffffffffffffffffffffffffffffffffffffffff1681565b600c6020526000908152604090205481565b600a546040517f23b872dd00000000000000000000000000000000000000000000000000000000815273ffffffffffffffffffffffffffffffffffffffff909116906323b872dd90611019903390309060a088013590600401612ff0565b602060405180830381600087803b15801561103357600080fd5b505af1158015611047573d6000803e3d6000fd5b505050506040513d601f19601f8201168201806040525081019061106b9190612c38565b5061107a308360a0013561247a565b60085473ffffffffffffffffffffffffffffffffffffffff166110a06020840184612a28565b73ffffffffffffffffffffffffffffffffffffffff16146110c057600080fd5b6110cd6020830183612a28565b6007546040517f095ea7b300000000000000000000000000000000000000000000000000000000815273ffffffffffffffffffffffffffffffffffffffff9283169263095ea7b392611146929116907fffffffffffffffffffffffffffffffffffffffffffffffffffffffffffffffff90600401613066565b602060405180830381600087803b15801561116057600080fd5b505af1158015611174573d6000803e3d6000fd5b505050506040513d601f19601f820116820180604052508101906111989190612c38565b506007546040517f414bf38900000000000000000000000000000000000000000000000000000000815260009173ffffffffffffffffffffffffffffffffffffffff169063414bf389906111f0908690600401613353565b602060405180830381600087803b15801561120a57600080fd5b505af115801561121e573d6000803e3d6000fd5b505050506040513d601f19601f820116820180604052508101906112429190612e46565b90507f0f50b931fd9db6426c1c5e8170803f02c6a50a1e5e5f3138240d0e3d43e6a3d98360a00135828460405161127b939291906134a4565b60405180910390a1505050565b60085473ffffffffffffffffffffffffffffffffffffffff1681565b73ffffffffffffffffffffffffffffffffffffffff1660009081526001602052604090205490565b670de0b6b3a764000081565b60058054604080516020601f60027fffffffffffffffffffffffffffffffffffffffffffffffffffffffffffffffff6101006001881615020190951694909404938401819004810282018101909252828152606093909290918301828280156106995780601f1061066e57610100808354040283529160200191610699565b61136133826127d1565b50565b60006106b761137161232f565b84610dca856040518060600160405280602581526020016136d9602591396002600061139b61232f565b73ffffffffffffffffffffffffffffffffffffffff908116825260208083019390935260409182016000908120918d16815292529020549190612656565b60006106b76113e661232f565b8484612484565b600d6020526000908152604090205481565b60008111611439576040517f08c379a0000000000000000000000000000000000000000000000000000000008152600401610e9590613292565b336000908152600b602052604090208054156114585761145833612782565b600a546040517f23b872dd00000000000000000000000000000000000000000000000000000000815273ffffffffffffffffffffffffffffffffffffffff909116906323b872dd906114b290339030908790600401612ff0565b602060405180830381600087803b1580156114cc57600080fd5b505af11580156114e0573d6000803e3d6000fd5b505050506040513d601f19601f820116820180604052508101906115049190612c38565b5061150f30836127d1565b336000908152600d6020526040902080548301905560118054830190558054611539574260028201555b805482018155600e80548301905561154f612904565b5050565b7fbc197c810000000000000000000000000000000000000000000000000000000098975050505050505050565b600f5481565b6115936020830183612a28565b73ffffffffffffffffffffffffffffffffffffffff166323b872dd33308560a001356040518463ffffffff1660e01b81526004016115d393929190612ff0565b602060405180830381600087803b1580156115ed57600080fd5b505af1158015611601573d6000803e3d6000fd5b505050506040513d601f19601f820116820180604052508101906116259190612c38565b5060085473ffffffffffffffffffffffffffffffffffffffff1661164c6020840184612a28565b73ffffffffffffffffffffffffffffffffffffffff16141561166d57600080fd5b61167a6020830183612a28565b6007546040517f095ea7b300000000000000000000000000000000000000000000000000000000815273ffffffffffffffffffffffffffffffffffffffff9283169263095ea7b3926116f3929116907fffffffffffffffffffffffffffffffffffffffffffffffffffffffffffffffff90600401613066565b602060405180830381600087803b15801561170d57600080fd5b505af1158015611721573d6000803e3d6000fd5b505050506040513d601f19601f820116820180604052508101906117459190612c38565b506007546040517f414bf38900000000000000000000000000000000000000000000000000000000815260009173ffffffffffffffffffffffffffffffffffffffff169063414bf3899061179d908690600401613353565b602060405180830381600087803b1580156117b757600080fd5b505af11580156117cb573d6000803e3d6000fd5b505050506040513d601f19601f820116820180604052508101906117ef9190612e46565b90506117fb33826113d9565b507faaec555da5a9973ee15d1a7a5dd852956bb07a908a6f52855902b1196927f51d8360a00135828460405161127b939291906134a4565b60115481565b73ffffffffffffffffffffffffffffffffffffffff918216600090815260026020908152604080832093909416825291909152205490565b600654610100900473ffffffffffffffffffffffffffffffffffffffff1681565b7ff23a6e61000000000000000000000000000000000000000000000000000000009695505050505050565b73ffffffffffffffffffffffffffffffffffffffff166000908152600b602052604090206002810154815460019092015491924291909103620151806103e88504040290910190565b6201518081565b61191b308760a0013561247a565b60085473ffffffffffffffffffffffffffffffffffffffff166119416020880188612a28565b73ffffffffffffffffffffffffffffffffffffffff161461196157600080fd5b61196e6020870187612a28565b6007546040517f095ea7b300000000000000000000000000000000000000000000000000000000815273ffffffffffffffffffffffffffffffffffffffff9283169263095ea7b3926119e7929116907fffffffffffffffffffffffffffffffffffffffffffffffffffffffffffffffff90600401613066565b602060405180830381600087803b158015611a0157600080fd5b505af1158015611a15573d6000803e3d6000fd5b505050506040513d601f19601f82011682018060405250810190611a399190612c38565b506007546040517fdb3e219800000000000000000000000000000000000000000000000000000000815260009173ffffffffffffffffffffffffffffffffffffffff169063db3e219890611a91908a90600401613353565b602060405180830381600087803b158015611aab57600080fd5b505af1158015611abf573d6000803e3d6000fd5b505050506040513d601f19601f82011682018060405250810190611ae39190612e46565b905073ffffffffffffffffffffffffffffffffffffffff83166352aecb24611b0e6020880188612a28565b602088013560a08b0135611b2860808b0160608c01612a28565b611b3560808c018c613559565b6040518763ffffffff1660e01b8152600401611b569695949392919061311e565b600060405180830381600087803b158015611b7057600080fd5b505af1158015611b84573d6000803e3d6000fd5b50506009546040517ff242432a00000000000000000000000000000000000000000000000000000000815273ffffffffffffffffffffffffffffffffffffffff909116925063f242432a9150611be89033903090899060a08e013590600401613021565b600060405180830381600087803b158015611c0257600080fd5b505af1158015611c16573d6000803e3d6000fd5b505060095473ffffffffffffffffffffffffffffffffffffffff169150639e7212ad9050611c476020890189612a28565b602089013560408a0135611c5e60608c018c6134f4565b8d60a001356040518763ffffffff1660e01b8152600401611c849695949392919061319c565b600060405180830381600087803b158015611c9e57600080fd5b505af1158015611cb2573d6000803e3d6000fd5b50505050611cc633828960a00135036113d9565b507fc4bccc626b045e490fe81aa2804b504c0cca328902e59a4d9769c51f08f05554818860a0013584604051611cfe939291906134a4565b60405180910390a150505050505050565b60008060008088610140013580611d24612942565b1115611d9157604080517f08c379a000000000000000000000000000000000000000000000000000000000815260206004820152601360248201527f5472616e73616374696f6e20746f6f206f6c6400000000000000000000000000604482015290519081900360640190fd5b611d9e60208a018a612a28565b6009546040517f095ea7b300000000000000000000000000000000000000000000000000000000815273ffffffffffffffffffffffffffffffffffffffff9283169263095ea7b392611e17929116907fffffffffffffffffffffffffffffffffffffffffffffffffffffffffffffffff90600401613066565b602060405180830381600087803b158015611e3157600080fd5b505af1158015611e45573d6000803e3d6000fd5b505050506040513d601f19601f82011682018060405250810190611e699190612c38565b5060095473ffffffffffffffffffffffffffffffffffffffff166372ce4275611e9560208c018c612a28565b60208c013560408d0135611eac60608f018f6134f4565b8f608001356040518763ffffffff1660e01b8152600401611ed29695949392919061319c565b600060405180830381600087803b158015611eec57600080fd5b505af1158015611f00573d6000803e3d6000fd5b505060095473ffffffffffffffffffffffffffffffffffffffff16915063f242432a9050611f3160208b018b612a28565b611f4160408c0160208d01612a28565b60408c013560608d0135611f5860808f018f613559565b6040518763ffffffff1660e01b8152600401611f799695949392919061308c565b600060405180830381600087803b158015611f9357600080fd5b505af1158015611fa7573d6000803e3d6000fd5b50506009546000925073ffffffffffffffffffffffffffffffffffffffff808b1692506308b2ea5e911660408c0135611fe360808e018e613559565b6040518563ffffffff1660e01b815260040161200294939291906130de565b60206040518083038186803b15801561201a57600080fd5b505afa15801561202e573d6000803e3d6000fd5b505050506040513d601f19601f820116820180604052508101906120529190612a44565b6006546040517f095ea7b300000000000000000000000000000000000000000000000000000000815291925073ffffffffffffffffffffffffffffffffffffffff8084169263095ea7b3926120d39261010090910416907fffffffffffffffffffffffffffffffffffffffffffffffffffffffffffffffff90600401613066565b602060405180830381600087803b1580156120ed57600080fd5b505af1158015612101573d6000803e3d6000fd5b505050506040513d601f19601f820116820180604052508101906121259190612c38565b5061213360208b018b612a28565b6006546040517f095ea7b300000000000000000000000000000000000000000000000000000000815273ffffffffffffffffffffffffffffffffffffffff9283169263095ea7b3926121b392610100909104909116907fffffffffffffffffffffffffffffffffffffffffffffffffffffffffffffffff90600401613066565b602060405180830381600087803b1580156121cd57600080fd5b505af11580156121e1573d6000803e3d6000fd5b505050506040513d601f19601f820116820180604052508101906122059190612c38565b506006546040517f8831645600000000000000000000000000000000000000000000000000000000815261010090910473ffffffffffffffffffffffffffffffffffffffff1690638831645690612260908e90600401613362565b608060405180830381600087803b15801561227a57600080fd5b505af115801561228e573d6000803e3d6000fd5b505050506040513d601f19601f820116820180604052508101906122b29190612e5e565b6040519399509197509550935086907f3067048beee31b25b2f1681f88dac838c8bba36af25bfb2b7cf7473a5847e35f906122f290889088908890613436565b60405180910390a2505095509550955095915050565b600b6020526000908152604090208054600182015460029092015490919083565b60105481565b3390565b73ffffffffffffffffffffffffffffffffffffffff831661239f576040517f08c379a00000000000000000000000000000000000000000000000000000000081526004018080602001828103825260248152602001806136b56024913960400191505060405180910390fd5b73ffffffffffffffffffffffffffffffffffffffff821661240b576040517f08c379a00000000000000000000000000000000000000000000000000000000081526004018080602001828103825260228152602001806136206022913960400191505060405180910390fd5b73ffffffffffffffffffffffffffffffffffffffff808416600081815260026020908152604080832094871680845294825291829020859055815185815291517f8c5be1e5ebec7d5bd14f71427d1e84f3dd0314c0f7b2291e5b200ac8c7c3b9259281900390910190a3505050565b61154f82826127d1565b73ffffffffffffffffffffffffffffffffffffffff83166124f0576040517f08c379a00000000000000000000000000000000000000000000000000000000081526004018080602001828103825260258152602001806136906025913960400191505060405180910390fd5b73ffffffffffffffffffffffffffffffffffffffff821661255c576040517f08c379a00000000000000000000000000000000000000000000000000000000081526004018080602001828103825260238152602001806135fd6023913960400191505060405180910390fd5b61256783838361076c565b6125b1816040518060600160405280602681526020016136426026913973ffffffffffffffffffffffffffffffffffffffff86166000908152600160205260409020549190612656565b73ffffffffffffffffffffffffffffffffffffffff80851660009081526001602052604080822093909355908416815220546125ed9082612707565b73ffffffffffffffffffffffffffffffffffffffff80841660008181526001602090815260409182902094909455805185815290519193928716927fddf252ad1be2c89b69c2b068fc378daa952ba7f163c4a11628f55a4df523b3ef92918290030190a3505050565b600081848411156126ff576040517f08c379a00000000000000000000000000000000000000000000000000000000081526004018080602001828103825283818151815260200191508051906020019080838360005b838110156126c45781810151838201526020016126ac565b50505050905090810190601f1680156126f15780820380516001836020036101000a031916815260200191505b509250505060405180910390fd5b505050900390565b60008282018381101561277b57604080517f08c379a000000000000000000000000000000000000000000000000000000000815260206004820152601b60248201527f536166654d6174683a206164646974696f6e206f766572666c6f770000000000604482015290519081900360640190fd5b9392505050565b73ffffffffffffffffffffffffffffffffffffffff166000908152600b60205260409020600281018054825460019093018054620151806103e890950494909404429283030290930190925555565b73ffffffffffffffffffffffffffffffffffffffff821661285357604080517f08c379a000000000000000000000000000000000000000000000000000000000815260206004820152601f60248201527f45524332303a206d696e7420746f20746865207a65726f206164647265737300604482015290519081900360640190fd5b61285f6000838361076c565b60035461286c9082612707565b60035573ffffffffffffffffffffffffffffffffffffffff821660009081526001602052604090205461289f9082612707565b73ffffffffffffffffffffffffffffffffffffffff831660008181526001602090815260408083209490945583518581529351929391927fddf252ad1be2c89b69c2b068fc378daa952ba7f163c4a11628f55a4df523b3ef9281900390910190a35050565b6000601254420390506000620151806103e86001600e54028161292357fe5b048161292b57fe5b600f80549290910493909302019091555042601255565b4290565b80356105ce816135bc565b60008083601f840112612962578182fd5b50813567ffffffffffffffff811115612979578182fd5b602083019150836020808302850101111561299357600080fd5b9250929050565b60008083601f8401126129ab578182fd5b50813567ffffffffffffffff8111156129c2578182fd5b60208301915083602082850101111561299357600080fd5b8035600281900b81146105ce57600080fd5b600060a082840312156129fd578081fd5b50919050565b600061010082840312156129fd578081fd5b803562ffffff811681146105ce57600080fd5b600060208284031215612a39578081fd5b813561277b816135bc565b600060208284031215612a55578081fd5b815161277b816135bc565b60008060408385031215612a72578081fd5b8235612a7d816135bc565b91506020830135612a8d816135bc565b809150509250929050565b60008060008060008060008060a0898b031215612ab3578384fd5b8835612abe816135bc565b97506020890135612ace816135bc565b9650604089013567ffffffffffffffff80821115612aea578586fd5b612af68c838d01612951565b909850965060608b0135915080821115612b0e578586fd5b612b1a8c838d01612951565b909650945060808b0135915080821115612b32578384fd5b50612b3f8b828c0161299a565b999c989b5096995094979396929594505050565b600080600060608486031215612b67578283fd5b8335612b72816135bc565b92506020840135612b82816135bc565b929592945050506040919091013590565b60008060008060008060a08789031215612bab578182fd5b8635612bb6816135bc565b95506020870135612bc6816135bc565b94506040870135935060608701359250608087013567ffffffffffffffff811115612bef578283fd5b612bfb89828a0161299a565b979a9699509497509295939492505050565b60008060408385031215612c1f578182fd5b8235612c2a816135bc565b946020939093013593505050565b600060208284031215612c49578081fd5b8151801515811461277b578182fd5b600060208284031215612c69578081fd5b81357fffffffff000000000000000000000000000000000000000000000000000000008116811461277b578182fd5b600060a08284031215612ca9578081fd5b61277b83836129ec565b6000806101208385031215612cc6578182fd5b612cd08484612a03565b9150610100830135612a8d816135bc565b6000806000806000806101a08789031215612cfa578384fd5b612d048888612a03565b955061010087013567ffffffffffffffff80821115612d21578586fd5b612d2d8a838b016129ec565b9650610120890135915080821115612d43578586fd5b50612d5089828a016129ec565b9450506101408701359250610160870135612d6a816135bc565b9150610180870135612d7b816135bc565b809150509295509295509295565b60008060008060008587036101e0811215612da2578384fd5b61016080821215612db1578485fd5b879650860135905067ffffffffffffffff80821115612dce578485fd5b612dda89838a016129ec565b9550610180880135915080821115612df0578485fd5b50612dfd888289016129ec565b9350506101a0860135612e0f816135bc565b91506101c0860135612e20816135bc565b809150509295509295909350565b600060208284031215612e3f578081fd5b5035919050565b600060208284031215612e57578081fd5b5051919050565b60008060008060808587031215612e73578182fd5b845193506020850151612e85816135de565b6040860151606090960151949790965092505050565b60008060408385031215612ead578182fd5b505080516020909101519092909150565b73ffffffffffffffffffffffffffffffffffffffff169052565b600082845282826020860137806020848601015260207fffffffffffffffffffffffffffffffffffffffffffffffffffffffffffffffe0601f85011685010190509392505050565b60020b9052565b8035612f32816135bc565b73ffffffffffffffffffffffffffffffffffffffff9081168352602082013590612f5b826135bc565b808216602085015262ffffff612f7360408501612a15565b16604085015260608301359150612f89826135bc565b1660608301526080818101359083015260a0808201359083015260c08082013590830152612fb960e08201612946565b61076c60e0840182612ebe565b62ffffff169052565b73ffffffffffffffffffffffffffffffffffffffff91909116815260200190565b73ffffffffffffffffffffffffffffffffffffffff9384168152919092166020820152604081019190915260600190565b73ffffffffffffffffffffffffffffffffffffffff94851681529290931660208301526040820152606081019190915260a06080820181905260009082015260c00190565b73ffffffffffffffffffffffffffffffffffffffff929092168252602082015260400190565b600073ffffffffffffffffffffffffffffffffffffffff808916835280881660208401525085604083015284606083015260a060808301526130d260a083018486612ed8565b98975050505050505050565b600073ffffffffffffffffffffffffffffffffffffffff8616825284602083015260606040830152613114606083018486612ed8565b9695505050505050565b600073ffffffffffffffffffffffffffffffffffffffff808916835287602084015286604084015280861660608401525060a060808301526130d260a083018486612ed8565b901515815260200190565b7fffffffff0000000000000000000000000000000000000000000000000000000091909116815260200190565b600073ffffffffffffffffffffffffffffffffffffffff8816825286602083015285604083015260a060608301528360a08301527f07ffffffffffffffffffffffffffffffffffffffffffffffffffffffffffffff8411156131fc578081fd5b60208402808660c0850137820160c00190815260809091019190915295945050505050565b6000602080835283518082850152825b8181101561324d57858101830151858201604001528201613231565b8181111561325e5783604083870101525b50601f017fffffffffffffffffffffffffffffffffffffffffffffffffffffffffffffffe016929092016040019392505050565b6020808252601d908201527f416d6f756e74206d7573742062652067726561746572207468616e2030000000604082015260600190565b60208082526014908201527f4e6f2066756e647320746f207769746864726177000000000000000000000000604082015260600190565b8135815260a081016020830135613316816135de565b6fffffffffffffffffffffffffffffffff811660208401525060408301356040830152606083013560608301526080830135608083015292915050565b61010081016106bb8284612f27565b61016081016133798261337485612946565b612ebe565b61338560208401612946565b6133926020840182612ebe565b5061339f60408401612a15565b6133ac6040840182612fc6565b506133b9606084016129da565b6133c66060840182612f20565b506133d3608084016129da565b6133e06080840182612f20565b5060a083013560a083015260c083013560c083015260e083013560e0830152610100808401358184015250610120613419818501612946565b61342582850182612ebe565b505061014092830135919092015290565b6fffffffffffffffffffffffffffffffff9390931683526020830191909152604082015260600190565b90815260200190565b9384526fffffffffffffffffffffffffffffffff9290921660208401526040830152606082015260800190565b918252602082015260400190565b928352602083019190915273ffffffffffffffffffffffffffffffffffffffff16604082015260600190565b9283526020830191909152604082015260600190565b60ff91909116815260200190565b60008083357fffffffffffffffffffffffffffffffffffffffffffffffffffffffffffffffe1843603018112613528578283fd5b83018035915067ffffffffffffffff821115613542578283fd5b602090810192508102360382131561299357600080fd5b60008083357fffffffffffffffffffffffffffffffffffffffffffffffffffffffffffffffe184360301811261358d578283fd5b83018035915067ffffffffffffffff8211156135a7578283fd5b60200191503681900382131561299357600080fd5b73ffffffffffffffffffffffffffffffffffffffff8116811461136157600080fd5b6fffffffffffffffffffffffffffffffff8116811461136157600080fdfe45524332303a207472616e7366657220746f20746865207a65726f206164647265737345524332303a20617070726f766520746f20746865207a65726f206164647265737345524332303a207472616e7366657220616d6f756e7420657863656564732062616c616e636545524332303a207472616e7366657220616d6f756e74206578636565647320616c6c6f77616e636545524332303a207472616e736665722066726f6d20746865207a65726f206164647265737345524332303a20617070726f76652066726f6d20746865207a65726f206164647265737345524332303a2064656372656173656420616c6c6f77616e63652062656c6f77207a65726fa164736f6c6343000706000a",
  "linkReferences": {},
  "deployedLinkReferences": {}
}