{
  "_format": "hh-sol-artifact-1",
  "contractName": "Wrapped1155Metadata",
  "sourceName": "contracts/Wrapped1155Factory.sol",
  "abi": [
    {
      "inputs": [],
      "name": "factory",
      "outputs": [
        {
          "internalType": "contract Wrapped1155Factory",
          "name": "",
          "type": "address"
        }
      ],
      "stateMutability": "view",
      "type": "function"
    },
    {
      "inputs": [],
      "name": "multiToken",
      "outputs": [
        {
          "internalType": "contract IERC1155",
          "name": "",
          "type": "address"
        }
      ],
      "stateMutability": "view",
      "type": "function"
    },
    {
      "inputs": [],
      "name": "tokenId",
      "outputs": [
        {
          "internalType": "uint256",
          "name": "",
          "type": "uint256"
        }
      ],
      "stateMutability": "view",
      "type": "function"
    }
  ],
  "bytecode": "0x608060405234801561001057600080fd5b5060d98061001f6000396000f3fe6080604052348015600f57600080fd5b5060043610603c5760003560e01c806317d70f7c1460415780631904e5c9146059578063c45a0155146088575b600080fd5b6047608e565b60408051918252519081900360200190f35b605f6094565b6040805173ffffffffffffffffffffffffffffffffffffffff9092168252519081900360200190f35b605f60b0565b60025481565b60015473ffffffffffffffffffffffffffffffffffffffff1681565b60005473ffffffffffffffffffffffffffffffffffffffff168156fea164736f6c6343000706000a",
  "linkReferences": {},
  "deployedLinkReferences": {}
}