{
  "_format": "hh-sol-artifact-1",
  "contractName": "Wrapped1155",
  "sourceName": "contracts/Wrapped1155Factory.sol",
  "abi": [
    {
      "inputs": [],
      "stateMutability": "nonpayable",
      "type": "constructor"
    },
    {
      "anonymous": false,
      "inputs": [
        {
          "indexed": true,
          "internalType": "address",
          "name": "owner",
          "type": "address"
        },
        {
          "indexed": true,
          "internalType": "address",
          "name": "spender",
          "type": "address"
        },
        {
          "indexed": false,
          "internalType": "uint256",
          "name": "value",
          "type": "uint256"
        }
      ],
      "name": "Approval",
      "type": "event"
    },
    {
      "anonymous": false,
      "inputs": [
        {
          "indexed": true,
          "internalType": "address",
          "name": "from",
          "type": "address"
        },
        {
          "indexed": true,
          "internalType": "address",
          "name": "to",
          "type": "address"
        },
        {
          "indexed": false,
          "internalType": "uint256",
          "name": "value",
          "type": "uint256"
        }
      ],
      "name": "Transfer",
      "type": "event"
    },
    {
      "inputs": [
        {
          "internalType": "address",
          "name": "owner",
          "type": "address"
        },
        {
          "internalType": "address",
          "name": "spender",
          "type": "address"
        }
      ],
      "name": "allowance",
      "outputs": [
        {
          "internalType": "uint256",
          "name": "",
          "type": "uint256"
        }
      ],
      "stateMutability": "view",
      "type": "function"
    },
    {
      "inputs": [
        {
          "internalType": "address",
          "name": "spender",
          "type": "address"
        },
        {
          "internalType": "uint256",
          "name": "amount",
          "type": "uint256"
        }
      ],
      "name": "approve",
      "outputs": [
        {
          "internalType": "bool",
          "name": "",
          "type": "bool"
        }
      ],
      "stateMutability": "nonpayable",
      "type": "function"
    },
    {
      "inputs": [
        {
          "internalType": "address",
          "name": "account",
          "type": "address"
        }
      ],
      "name": "balanceOf",
      "outputs": [
        {
          "internalType": "uint256",
          "name": "",
          "type": "uint256"
        }
      ],
      "stateMutability": "view",
      "type": "function"
    },
    {
      "inputs": [
        {
          "internalType": "address",
          "name": "account",
          "type": "address"
        },
        {
          "internalType": "uint256",
          "name": "amount",
          "type": "uint256"
        }
      ],
      "name": "burn",
      "outputs": [],
      "stateMutability": "nonpayable",
      "type": "function"
    },
    {
      "inputs": [],
      "name": "decimals",
      "outputs": [
        {
          "internalType": "uint8",
          "name": "",
          "type": "uint8"
        }
      ],
      "stateMutability": "view",
      "type": "function"
    },
    {
      "inputs": [
        {
          "internalType": "address",
          "name": "spender",
          "type": "address"
        },
        {
          "internalType": "uint256",
          "name": "subtractedValue",
          "type": "uint256"
        }
      ],
      "name": "decreaseAllowance",
      "outputs": [
        {
          "internalType": "bool",
          "name": "",
          "type": "bool"
        }
      ],
      "stateMutability": "nonpayable",
      "type": "function"
    },
    {
      "inputs": [],
      "name": "factory",
      "outputs": [
        {
          "internalType": "contract Wrapped1155Factory",
          "name": "",
          "type": "address"
        }
      ],
      "stateMutability": "view",
      "type": "function"
    },
    {
      "inputs": [
        {
          "internalType": "address",
          "name": "spender",
          "type": "address"
        },
        {
          "internalType": "uint256",
          "name": "addedValue",
          "type": "uint256"
        }
      ],
      "name": "increaseAllowance",
      "outputs": [
        {
          "internalType": "bool",
          "name": "",
          "type": "bool"
        }
      ],
      "stateMutability": "nonpayable",
      "type": "function"
    },
    {
      "inputs": [
        {
          "internalType": "address",
          "name": "account",
          "type": "address"
        },
        {
          "internalType": "uint256",
          "name": "amount",
          "type": "uint256"
        }
      ],
      "name": "mint",
      "outputs": [],
      "stateMutability": "nonpayable",
      "type": "function"
    },
    {
      "inputs": [],
      "name": "multiToken",
      "outputs": [
        {
          "internalType": "contract IERC1155",
          "name": "",
          "type": "address"
        }
      ],
      "stateMutability": "view",
      "type": "function"
    },
    {
      "inputs": [],
      "name": "name",
      "outputs": [
        {
          "internalType": "string",
          "name": "",
          "type": "string"
        }
      ],
      "stateMutability": "view",
      "type": "function"
    },
    {
      "inputs": [],
      "name": "symbol",
      "outputs": [
        {
          "internalType": "string",
          "name": "",
          "type": "string"
        }
      ],
      "stateMutability": "view",
      "type": "function"
    },
    {
      "inputs": [],
      "name": "tokenId",
      "outputs": [
        {
          "internalType": "uint256",
          "name": "",
          "type": "uint256"
        }
      ],
      "stateMutability": "view",
      "type": "function"
    },
    {
      "inputs": [],
      "name": "totalSupply",
      "outputs": [
        {
          "internalType": "uint256",
          "name": "",
          "type": "uint256"
        }
      ],
      "stateMutability": "view",
      "type": "function"
    },
    {
      "inputs": [
        {
          "internalType": "address",
          "name": "recipient",
          "type": "address"
        },
        {
          "internalType": "uint256",
          "name": "amount",
          "type": "uint256"
        }
      ],
      "name": "transfer",
      "outputs": [
        {
          "internalType": "bool",
          "name": "",
          "type": "bool"
        }
      ],
      "stateMutability": "nonpayable",
      "type": "function"
    },
    {
      "inputs": [
        {
          "internalType": "address",
          "name": "sender",
          "type": "address"
        },
        {
          "internalType": "address",
          "name": "recipient",
          "type": "address"
        },
        {
          "internalType": "uint256",
          "name": "amount",
          "type": "uint256"
        }
      ],
      "name": "transferFrom",
      "outputs": [
        {
          "internalType": "bool",
          "name": "",
          "type": "bool"
        }
      ],
      "stateMutability": "nonpayable",
      "type": "function"
    }
  ],
  "bytecode": "0x60806040523480156200001157600080fd5b50604080518082018252601f81527f57726170706564204552432d3131353520496d706c656d656e746174696f6e006020808301918252835180850190945260048452632ba6aa1560e11b90840152815191929162000073916006916200009f565b508051620000899060079060208401906200009f565b50506008805460ff19166012179055506200014b565b828054600181600116156101000203166002900490600052602060002090601f016020900481019282620000d7576000855562000122565b82601f10620000f257805160ff191683800117855562000122565b8280016001018555821562000122579182015b828111156200012257825182559160200191906001019062000105565b506200013092915062000134565b5090565b5b8082111562000130576000815560010162000135565b611163806200015b6000396000f3fe608060405234801561001057600080fd5b50600436106101005760003560e01c806340c10f1911610097578063a457c2d711610066578063a457c2d71461036b578063a9059cbb146103a4578063c45a0155146103dd578063dd62ed3e146103e557610100565b806340c10f19146102bc57806370a08231146102f757806395d89b411461032a5780639dc29fac1461033257610100565b80631904e5c9116100d35780631904e5c9146101f157806323b872dd14610222578063313ce56714610265578063395093511461028357610100565b806306fdde0314610105578063095ea7b31461018257806317d70f7c146101cf57806318160ddd146101e9575b600080fd5b61010d610420565b6040805160208082528351818301528351919283929083019185019080838360005b8381101561014757818101518382015260200161012f565b50505050905090810190601f1680156101745780820380516001836020036101000a031916815260200191505b509250505060405180910390f35b6101bb6004803603604081101561019857600080fd5b5073ffffffffffffffffffffffffffffffffffffffff81351690602001356104d4565b604080519115158252519081900360200190f35b6101d76104f1565b60408051918252519081900360200190f35b6101d76104f7565b6101f96104fd565b6040805173ffffffffffffffffffffffffffffffffffffffff9092168252519081900360200190f35b6101bb6004803603606081101561023857600080fd5b5073ffffffffffffffffffffffffffffffffffffffff813581169160208101359091169060400135610519565b61026d6105ba565b6040805160ff9092168252519081900360200190f35b6101bb6004803603604081101561029957600080fd5b5073ffffffffffffffffffffffffffffffffffffffff81351690602001356105c3565b6102f5600480360360408110156102d257600080fd5b5073ffffffffffffffffffffffffffffffffffffffff813516906020013561061e565b005b6101d76004803603602081101561030d57600080fd5b503573ffffffffffffffffffffffffffffffffffffffff1661069c565b61010d6106c4565b6102f56004803603604081101561034857600080fd5b5073ffffffffffffffffffffffffffffffffffffffff8135169060200135610743565b6101bb6004803603604081101561038157600080fd5b5073ffffffffffffffffffffffffffffffffffffffff81351690602001356107bd565b6101bb600480360360408110156103ba57600080fd5b5073ffffffffffffffffffffffffffffffffffffffff8135169060200135610832565b6101f9610846565b6101d7600480360360408110156103fb57600080fd5b5073ffffffffffffffffffffffffffffffffffffffff81358116916020013516610862565b60068054604080516020601f60027fffffffffffffffffffffffffffffffffffffffffffffffffffffffffffffffff6101006001881615020190951694909404938401819004810282018101909252828152606093909290918301828280156104ca5780601f1061049f576101008083540402835291602001916104ca565b820191906000526020600020905b8154815290600101906020018083116104ad57829003601f168201915b5050505050905090565b60006104e86104e161089a565b848461089e565b50600192915050565b60025481565b60055490565b60015473ffffffffffffffffffffffffffffffffffffffff1681565b60006105268484846109e5565b6105b08461053261089a565b6105ab8560405180606001604052806028815260200161106a6028913973ffffffffffffffffffffffffffffffffffffffff8a1660009081526004602052604081209061057d61089a565b73ffffffffffffffffffffffffffffffffffffffff1681526020810191909152604001600020549190610bb7565b61089e565b5060019392505050565b60085460ff1690565b60006104e86105d061089a565b846105ab85600460006105e161089a565b73ffffffffffffffffffffffffffffffffffffffff908116825260208083019390935260409182016000908120918c168152925290205490610c68565b60005473ffffffffffffffffffffffffffffffffffffffff16331461068e576040517f08c379a00000000000000000000000000000000000000000000000000000000081526004018080602001828103825260368152602001806110b36036913960400191505060405180910390fd5b6106988282610ce3565b5050565b73ffffffffffffffffffffffffffffffffffffffff1660009081526003602052604090205490565b60078054604080516020601f60027fffffffffffffffffffffffffffffffffffffffffffffffffffffffffffffffff6101006001881615020190951694909404938401819004810282018101909252828152606093909290918301828280156104ca5780601f1061049f576101008083540402835291602001916104ca565b60005473ffffffffffffffffffffffffffffffffffffffff1633146107b3576040517f08c379a00000000000000000000000000000000000000000000000000000000081526004018080602001828103825260368152602001806110b36036913960400191505060405180910390fd5b6106988282610e16565b60006104e86107ca61089a565b846105ab8560405180606001604052806025815260200161113260259139600460006107f461089a565b73ffffffffffffffffffffffffffffffffffffffff908116825260208083019390935260409182016000908120918d16815292529020549190610bb7565b60006104e861083f61089a565b84846109e5565b60005473ffffffffffffffffffffffffffffffffffffffff1681565b73ffffffffffffffffffffffffffffffffffffffff918216600090815260046020908152604080832093909416825291909152205490565b3390565b73ffffffffffffffffffffffffffffffffffffffff831661090a576040517f08c379a000000000000000000000000000000000000000000000000000000000815260040180806020018281038252602481526020018061110e6024913960400191505060405180910390fd5b73ffffffffffffffffffffffffffffffffffffffff8216610976576040517f08c379a00000000000000000000000000000000000000000000000000000000081526004018080602001828103825260228152602001806110226022913960400191505060405180910390fd5b73ffffffffffffffffffffffffffffffffffffffff808416600081815260046020908152604080832094871680845294825291829020859055815185815291517f8c5be1e5ebec7d5bd14f71427d1e84f3dd0314c0f7b2291e5b200ac8c7c3b9259281900390910190a3505050565b73ffffffffffffffffffffffffffffffffffffffff8316610a51576040517f08c379a00000000000000000000000000000000000000000000000000000000081526004018080602001828103825260258152602001806110e96025913960400191505060405180910390fd5b73ffffffffffffffffffffffffffffffffffffffff8216610abd576040517f08c379a0000000000000000000000000000000000000000000000000000000008152600401808060200182810382526023815260200180610fdd6023913960400191505060405180910390fd5b610ac8838383610f60565b610b12816040518060600160405280602681526020016110446026913973ffffffffffffffffffffffffffffffffffffffff86166000908152600360205260409020549190610bb7565b73ffffffffffffffffffffffffffffffffffffffff8085166000908152600360205260408082209390935590841681522054610b4e9082610c68565b73ffffffffffffffffffffffffffffffffffffffff80841660008181526003602090815260409182902094909455805185815290519193928716927fddf252ad1be2c89b69c2b068fc378daa952ba7f163c4a11628f55a4df523b3ef92918290030190a3505050565b60008184841115610c60576040517f08c379a00000000000000000000000000000000000000000000000000000000081526004018080602001828103825283818151815260200191508051906020019080838360005b83811015610c25578181015183820152602001610c0d565b50505050905090810190601f168015610c525780820380516001836020036101000a031916815260200191505b509250505060405180910390fd5b505050900390565b600082820183811015610cdc57604080517f08c379a000000000000000000000000000000000000000000000000000000000815260206004820152601b60248201527f536166654d6174683a206164646974696f6e206f766572666c6f770000000000604482015290519081900360640190fd5b9392505050565b73ffffffffffffffffffffffffffffffffffffffff8216610d6557604080517f08c379a000000000000000000000000000000000000000000000000000000000815260206004820152601f60248201527f45524332303a206d696e7420746f20746865207a65726f206164647265737300604482015290519081900360640190fd5b610d7160008383610f60565b600554610d7e9082610c68565b60055573ffffffffffffffffffffffffffffffffffffffff8216600090815260036020526040902054610db19082610c68565b73ffffffffffffffffffffffffffffffffffffffff831660008181526003602090815260408083209490945583518581529351929391927fddf252ad1be2c89b69c2b068fc378daa952ba7f163c4a11628f55a4df523b3ef9281900390910190a35050565b73ffffffffffffffffffffffffffffffffffffffff8216610e82576040517f08c379a00000000000000000000000000000000000000000000000000000000081526004018080602001828103825260218152602001806110926021913960400191505060405180910390fd5b610e8e82600083610f60565b610ed8816040518060600160405280602281526020016110006022913973ffffffffffffffffffffffffffffffffffffffff85166000908152600360205260409020549190610bb7565b73ffffffffffffffffffffffffffffffffffffffff8316600090815260036020526040902055600554610f0b9082610f65565b60055560408051828152905160009173ffffffffffffffffffffffffffffffffffffffff8516917fddf252ad1be2c89b69c2b068fc378daa952ba7f163c4a11628f55a4df523b3ef9181900360200190a35050565b505050565b600082821115610fd657604080517f08c379a000000000000000000000000000000000000000000000000000000000815260206004820152601e60248201527f536166654d6174683a207375627472616374696f6e206f766572666c6f770000604482015290519081900360640190fd5b5090039056fe45524332303a207472616e7366657220746f20746865207a65726f206164647265737345524332303a206275726e20616d6f756e7420657863656564732062616c616e636545524332303a20617070726f766520746f20746865207a65726f206164647265737345524332303a207472616e7366657220616d6f756e7420657863656564732062616c616e636545524332303a207472616e7366657220616d6f756e74206578636565647320616c6c6f77616e636545524332303a206275726e2066726f6d20746865207a65726f206164647265737357726170706564313135353a206f6e6c7920666163746f727920616c6c6f77656420746f20706572666f726d206f7065726174696f6e45524332303a207472616e736665722066726f6d20746865207a65726f206164647265737345524332303a20617070726f76652066726f6d20746865207a65726f206164647265737345524332303a2064656372656173656420616c6c6f77616e63652062656c6f77207a65726fa164736f6c6343000706000a",
  "linkReferences": {},
  "deployedLinkReferences": {}
}