{
  "_format": "hh-sol-artifact-1",
  "contractName": "Wrapped1155Factory",
  "sourceName": "contracts/Wrapped1155Factory.sol",
  "abi": [
    {
      "inputs": [],
      "stateMutability": "nonpayable",
      "type": "constructor"
    },
    {
      "anonymous": false,
      "inputs": [
        {
          "indexed": true,
          "internalType": "contract IERC1155",
          "name": "multiToken",
          "type": "address"
        },
        {
          "indexed": true,
          "internalType": "uint256",
          "name": "tokenId",
          "type": "uint256"
        },
        {
          "indexed": true,
          "internalType": "contract Wrapped1155",
          "name": "wrappedToken",
          "type": "address"
        }
      ],
      "name": "Wrapped1155Creation",
      "type": "event"
    },
    {
      "inputs": [
        {
          "internalType": "contract IERC1155",
          "name": "multiToken",
          "type": "address"
        },
        {
          "internalType": "uint256[]",
          "name": "tokenIds",
          "type": "uint256[]"
        },
        {
          "internalType": "uint256[]",
          "name": "amounts",
          "type": "uint256[]"
        },
        {
          "internalType": "address",
          "name": "recipient",
          "type": "address"
        },
        {
          "internalType": "bytes",
          "name": "data",
          "type": "bytes"
        }
      ],
      "name": "batchUnwrap",
      "outputs": [],
      "stateMutability": "nonpayable",
      "type": "function"
    },
    {
      "inputs": [],
      "name": "erc20Implementation",
      "outputs": [
        {
          "internalType": "contract Wrapped1155",
          "name": "",
          "type": "address"
        }
      ],
      "stateMutability": "view",
      "type": "function"
    },
    {
      "inputs": [
        {
          "internalType": "contract IERC1155",
          "name": "multiToken",
          "type": "address"
        },
        {
          "internalType": "uint256",
          "name": "tokenId",
          "type": "uint256"
        },
        {
          "internalType": "bytes",
          "name": "data",
          "type": "bytes"
        }
      ],
      "name": "getWrapped1155",
      "outputs": [
        {
          "internalType": "contract Wrapped1155",
          "name": "",
          "type": "address"
        }
      ],
      "stateMutability": "view",
      "type": "function"
    },
    {
      "inputs": [
        {
          "internalType": "contract IERC1155",
          "name": "multiToken",
          "type": "address"
        },
        {
          "internalType": "uint256",
          "name": "tokenId",
          "type": "uint256"
        },
        {
          "internalType": "bytes",
          "name": "data",
          "type": "bytes"
        }
      ],
      "name": "getWrapped1155DeployBytecode",
      "outputs": [
        {
          "internalType": "bytes",
          "name": "",
          "type": "bytes"
        }
      ],
      "stateMutability": "view",
      "type": "function"
    },
    {
      "inputs": [
        {
          "internalType": "address",
          "name": "operator",
          "type": "address"
        },
        {
          "internalType": "address",
          "name": "",
          "type": "address"
        },
        {
          "internalType": "uint256[]",
          "name": "ids",
          "type": "uint256[]"
        },
        {
          "internalType": "uint256[]",
          "name": "values",
          "type": "uint256[]"
        },
        {
          "internalType": "bytes",
          "name": "data",
          "type": "bytes"
        }
      ],
      "name": "onERC1155BatchReceived",
      "outputs": [
        {
          "internalType": "bytes4",
          "name": "",
          "type": "bytes4"
        }
      ],
      "stateMutability": "nonpayable",
      "type": "function"
    },
    {
      "inputs": [
        {
          "internalType": "address",
          "name": "operator",
          "type": "address"
        },
        {
          "internalType": "address",
          "name": "",
          "type": "address"
        },
        {
          "internalType": "uint256",
          "name": "id",
          "type": "uint256"
        },
        {
          "internalType": "uint256",
          "name": "value",
          "type": "uint256"
        },
        {
          "internalType": "bytes",
          "name": "data",
          "type": "bytes"
        }
      ],
      "name": "onERC1155Received",
      "outputs": [
        {
          "internalType": "bytes4",
          "name": "",
          "type": "bytes4"
        }
      ],
      "stateMutability": "nonpayable",
      "type": "function"
    },
    {
      "inputs": [
        {
          "internalType": "contract IERC1155",
          "name": "multiToken",
          "type": "address"
        },
        {
          "internalType": "uint256",
          "name": "tokenId",
          "type": "uint256"
        },
        {
          "internalType": "bytes",
          "name": "data",
          "type": "bytes"
        }
      ],
      "name": "requireWrapped1155",
      "outputs": [
        {
          "internalType": "contract Wrapped1155",
          "name": "",
          "type": "address"
        }
      ],
      "stateMutability": "nonpayable",
      "type": "function"
    },
    {
      "inputs": [
        {
          "internalType": "bytes4",
          "name": "interfaceId",
          "type": "bytes4"
        }
      ],
      "name": "supportsInterface",
      "outputs": [
        {
          "internalType": "bool",
          "name": "",
          "type": "bool"
        }
      ],
      "stateMutability": "view",
      "type": "function"
    },
    {
      "inputs": [
        {
          "internalType": "contract IERC1155",
          "name": "multiToken",
          "type": "address"
        },
        {
          "internalType": "uint256",
          "name": "tokenId",
          "type": "uint256"
        },
        {
          "internalType": "uint256",
          "name": "amount",
          "type": "uint256"
        },
        {
          "internalType": "address",
          "name": "recipient",
          "type": "address"
        },
        {
          "internalType": "bytes",
          "name": "data",
          "type": "bytes"
        }
      ],
      "name": "unwrap",
      "outputs": [],
      "stateMutability": "nonpayable",
      "type": "function"
    }
  ],
  "bytecode": "0x60806040523480156200001157600080fd5b50620000246301ffc9a760e01b62000088565b62000036630271189760e51b62000088565b60405162000044906200010d565b604051809103906000f08015801562000061573d6000803e3d6000fd5b50600180546001600160a01b0319166001600160a01b03929092169190911790556200011b565b6001600160e01b03198082161415620000e8576040805162461bcd60e51b815260206004820152601c60248201527f4552433136353a20696e76616c696420696e7465726661636520696400000000604482015290519081900360640190fd5b6001600160e01b0319166000908152602081905260409020805460ff19166001179055565b6112be8062001c1783390190565b611aec806200012b6000396000f3fe608060405234801561001057600080fd5b50600436106100a35760003560e01c8063901be04111610076578063bad7b7141161005b578063bad7b714146104aa578063bc197c81146105e7578063f23a6e6114610756576100a3565b8063901be04114610357578063a7eaa1861461035f576100a3565b806301ffc9a7146100a857806308b2ea5e146100fb5780633125810e146101ec57806352aecb24146102b4575b600080fd5b6100e7600480360360208110156100be57600080fd5b50357fffffffff00000000000000000000000000000000000000000000000000000000166107f8565b604080519115158252519081900360200190f35b6101c36004803603606081101561011157600080fd5b73ffffffffffffffffffffffffffffffffffffffff8235169160208101359181019060608101604082013564010000000081111561014e57600080fd5b82018360208201111561016057600080fd5b8035906020019184600183028401116401000000008311171561018257600080fd5b91908080601f01602080910402602001604051908101604052809392919081815260200183838082843760009201919091525092955061082f945050505050565b6040805173ffffffffffffffffffffffffffffffffffffffff9092168252519081900360200190f35b6101c36004803603606081101561020257600080fd5b73ffffffffffffffffffffffffffffffffffffffff8235169160208101359181019060608101604082013564010000000081111561023f57600080fd5b82018360208201111561025157600080fd5b8035906020019184600183028401116401000000008311171561027357600080fd5b91908080601f0160208091040260200160405190810160405280939291908181526020018383808284376000920191909152509295506108af945050505050565b610355600480360360a08110156102ca57600080fd5b73ffffffffffffffffffffffffffffffffffffffff8235811692602081013592604082013592606083013516919081019060a08101608082013564010000000081111561031657600080fd5b82018360208201111561032857600080fd5b8035906020019184600183028401116401000000008311171561034a57600080fd5b509092509050610a3f565b005b6101c3610bf3565b610355600480360360a081101561037557600080fd5b73ffffffffffffffffffffffffffffffffffffffff82351691908101906040810160208201356401000000008111156103ad57600080fd5b8201836020820111156103bf57600080fd5b803590602001918460208302840111640100000000831117156103e157600080fd5b9193909290916020810190356401000000008111156103ff57600080fd5b82018360208201111561041157600080fd5b8035906020019184602083028401116401000000008311171561043357600080fd5b9193909273ffffffffffffffffffffffffffffffffffffffff8335169260408101906020013564010000000081111561046b57600080fd5b82018360208201111561047d57600080fd5b8035906020019184600183028401116401000000008311171561049f57600080fd5b509092509050610c0f565b610572600480360360608110156104c057600080fd5b73ffffffffffffffffffffffffffffffffffffffff823516916020810135918101906060810160408201356401000000008111156104fd57600080fd5b82018360208201111561050f57600080fd5b8035906020019184600183028401116401000000008311171561053157600080fd5b91908080601f016020809104026020016040519081016040528093929190818152602001838380828437600092019190915250929550610f73945050505050565b6040805160208082528351818301528351919283929083019185019080838360005b838110156105ac578181015183820152602001610594565b50505050905090810190601f1680156105d95780820380516001836020036101000a031916815260200191505b509250505060405180910390f35b610721600480360360a08110156105fd57600080fd5b73ffffffffffffffffffffffffffffffffffffffff823581169260208101359091169181019060608101604082013564010000000081111561063e57600080fd5b82018360208201111561065057600080fd5b8035906020019184602083028401116401000000008311171561067257600080fd5b91939092909160208101903564010000000081111561069057600080fd5b8201836020820111156106a257600080fd5b803590602001918460208302840111640100000000831117156106c457600080fd5b9193909290916020810190356401000000008111156106e257600080fd5b8201836020820111156106f457600080fd5b8035906020019184600183028401116401000000008311171561071657600080fd5b509092509050611658565b604080517fffffffff000000000000000000000000000000000000000000000000000000009092168252519081900360200190f35b610721600480360360a081101561076c57600080fd5b73ffffffffffffffffffffffffffffffffffffffff823581169260208101359091169160408201359160608101359181019060a0810160808201356401000000008111156107b957600080fd5b8201836020820111156107cb57600080fd5b803590602001918460018302840111640100000000831117156107ed57600080fd5b50909250905061181e565b7fffffffff000000000000000000000000000000000000000000000000000000001660009081526020819052604090205460ff1690565b600060ff30610483610842878787610f73565b80519060200120604051602001808560ff1660f81b81526001018473ffffffffffffffffffffffffffffffffffffffff1660601b81526014018381526020018281526020019450505050506040516020818303038152906040528051906020012060001c90509392505050565b6000806108bd858585610f73565b8051602080830191909120604080517fff00000000000000000000000000000000000000000000000000000000000000818501523060601b60218201526104836035820152605580820193909352815180820390930183526075019052805191012090915061094173ffffffffffffffffffffffffffffffffffffffff8216611920565b610a365760006104838351602085016000f590508073ffffffffffffffffffffffffffffffffffffffff168273ffffffffffffffffffffffffffffffffffffffff16146109d9576040517f08c379a0000000000000000000000000000000000000000000000000000000008152600401808060200182810382526024815260200180611a6a6024913960400191505060405180910390fd5b8173ffffffffffffffffffffffffffffffffffffffff16868873ffffffffffffffffffffffffffffffffffffffff167f5cf3a4006b0dcb221517555192a3e5df5e19783c22ea769c1ef46dd421ae2d3260405160405180910390a4505b95945050505050565b610a80868684848080601f01602080910402602001604051908101604052809392919081815260200183838082843760009201919091525061082f92505050565b73ffffffffffffffffffffffffffffffffffffffff16639dc29fac33866040518363ffffffff1660e01b8152600401808373ffffffffffffffffffffffffffffffffffffffff16815260200182815260200192505050600060405180830381600087803b158015610af057600080fd5b505af1158015610b04573d6000803e3d6000fd5b505050508573ffffffffffffffffffffffffffffffffffffffff1663f242432a3085888887876040518763ffffffff1660e01b8152600401808773ffffffffffffffffffffffffffffffffffffffff1681526020018673ffffffffffffffffffffffffffffffffffffffff168152602001858152602001848152602001806020018281038252848482818152602001925080828437600081840152601f19601f820116905080830192505050975050505050505050600060405180830381600087803b158015610bd357600080fd5b505af1158015610be7573d6000803e3d6000fd5b50505050505050505050565b60015473ffffffffffffffffffffffffffffffffffffffff1681565b858414610c67576040517f08c379a000000000000000000000000000000000000000000000000000000000815260040180806020018281038252602b815260200180611a3f602b913960400191505060405180910390fd5b80610c73876041611926565b14610cc9576040517f08c379a0000000000000000000000000000000000000000000000000000000008152600401808060200182810382526031815260200180611aaf6031913960400191505060405180910390fd5b60005b86811015610dfa576000610ce1826041611926565b90506000610cf08260416119a2565b9050610d528b8b8b86818110610d0257fe5b60200291909101359050610d188486898b611a16565b8080601f01602080910402602001604051908101604052809392919081815260200183838082843760009201919091525061082f92505050565b73ffffffffffffffffffffffffffffffffffffffff16639dc29fac338a8a87818110610d7a57fe5b905060200201356040518363ffffffff1660e01b8152600401808373ffffffffffffffffffffffffffffffffffffffff16815260200182815260200192505050600060405180830381600087803b158015610dd457600080fd5b505af1158015610de8573d6000803e3d6000fd5b505060019094019350610ccc92505050565b508773ffffffffffffffffffffffffffffffffffffffff16632eb2c2d630858a8a8a8a89896040518963ffffffff1660e01b8152600401808973ffffffffffffffffffffffffffffffffffffffff1681526020018873ffffffffffffffffffffffffffffffffffffffff16815260200180602001806020018060200184810384528a8a82818152602001925060200280828437600083820152601f017fffffffffffffffffffffffffffffffffffffffffffffffffffffffffffffffe0169091018581038452888152602090810191508990890280828437600083820152601f017fffffffffffffffffffffffffffffffffffffffffffffffffffffffffffffffe01690910185810383528681526020019050868680828437600081840152601f19601f8201169050808301925050509b505050505050505050505050600060405180830381600087803b158015610f5157600080fd5b505af1158015610f65573d6000803e3d6000fd5b505050505050505050505050565b6040805160208082528183019092526060916000919060208201818036833701905050905060005b6020811015610ffe57838181518110610fb057fe5b602001015160f81c60f81b828281518110610fc757fe5b60200101907effffffffffffffffffffffffffffffffffffffffffffffffffffffffffffff1916908160001a905350600101610f9b565b5060408051602080825281830190925260009160208201818036833701905050905060005b60208110156110895784816020018151811061103b57fe5b602001015160f81c60f81b82828151811061105257fe5b60200101907effffffffffffffffffffffffffffffffffffffffffffffffffffffffffffff1916908160001a905350600101611023565b50604080516001808252818301909252600091602082018180368337019050509050846040815181106110b857fe5b602001015160f81c60f81b816000815181106110d057fe5b60200101907effffffffffffffffffffffffffffffffffffffffffffffffffffffffffffff1916908160001a905350308787858585602c60ab600160009054906101000a900473ffffffffffffffffffffffffffffffffffffffff1660405160200180807f73000000000000000000000000000000000000000000000000000000000000008152506001018a73ffffffffffffffffffffffffffffffffffffffff1660601b8152601401807f3d55000000000000000000000000000000000000000000000000000000000000815250600201807f73000000000000000000000000000000000000000000000000000000000000008152506001018973ffffffffffffffffffffffffffffffffffffffff1660601b8152601401807f6001550000000000000000000000000000000000000000000000000000000000815250600301807f7f00000000000000000000000000000000000000000000000000000000000000815250600101888152602001807f6002550000000000000000000000000000000000000000000000000000000000815250600301807f7f0000000000000000000000000000000000000000000000000000000000000081525060010187805190602001908083835b602083106112d857805182527fffffffffffffffffffffffffffffffffffffffffffffffffffffffffffffffe0909201916020918201910161129b565b51815160209384036101000a7fffffffffffffffffffffffffffffffffffffffffffffffffffffffffffffffff01801990921691161790527f6006550000000000000000000000000000000000000000000000000000000000919093019081527f7f0000000000000000000000000000000000000000000000000000000000000060038201528851600490910192890191508083835b602083106113ab57805182527fffffffffffffffffffffffffffffffffffffffffffffffffffffffffffffffe0909201916020918201910161136e565b51815160209384036101000a7fffffffffffffffffffffffffffffffffffffffffffffffffffffffffffffffff01801990921691161790527f6007550000000000000000000000000000000000000000000000000000000000919093019081527f600000000000000000000000000000000000000000000000000000000000000060038201528751600490910192880191508083835b6020831061147e57805182527fffffffffffffffffffffffffffffffffffffffffffffffffffffffffffffffe09092019160209182019101611441565b5181516020939093036101000a7fffffffffffffffffffffffffffffffffffffffffffffffffffffffffffffffff01801990911692169190911790527f60085500000000000000000000000000000000000000000000000000000000009201918252507f60000000000000000000000000000000000000000000000000000000000000006003820181905260f895861b7fff0000000000000000000000000000000000000000000000000000000000000090811660048401527f604051000000000000000000000000000000000000000000000000000000000060058401527f8100000000000000000000000000000000000000000000000000000000000000600884015260098301919091529390941b909216600a8401527f8239f30000000000000000000000000000000000000000000000000000000000600b8401527f3d3d3d3d363d3d37363d73000000000000000000000000000000000000000000600e84015260601b7fffffffffffffffffffffffffffffffffffffffff000000000000000000000000166019830152507f5af43d3d93803e602a57fd5bf300000000000000000000000000000000000000602d82015260408051808303601a018152603a90920190529d9c50505050505050505050505050565b600081611666876041611926565b146116bc576040517f08c379a0000000000000000000000000000000000000000000000000000000008152600401808060200182810382526031815260200180611aaf6031913960400191505060405180910390fd5b8860005b878110156117ee5760006116d5826041611926565b905060006116e48260416119a2565b9050611746338c8c868181106116f657fe5b6020029190910135905061170c84868b8d611a16565b8080601f0160208091040260200160405190810160405280939291908181526020018383808284376000920191909152506108af92505050565b73ffffffffffffffffffffffffffffffffffffffff166340c10f19858b8b8781811061176e57fe5b905060200201356040518363ffffffff1660e01b8152600401808373ffffffffffffffffffffffffffffffffffffffff16815260200182815260200192505050600060405180830381600087803b1580156117c857600080fd5b505af11580156117dc573d6000803e3d6000fd5b5050600190940193506116c092505050565b507fbc197c81000000000000000000000000000000000000000000000000000000009a9950505050505050505050565b6000808790506000611867338887878080601f0160208091040260200160405190810160405280939291908181526020018383808284376000920191909152506108af92505050565b90508073ffffffffffffffffffffffffffffffffffffffff166340c10f1983886040518363ffffffff1660e01b8152600401808373ffffffffffffffffffffffffffffffffffffffff16815260200182815260200192505050600060405180830381600087803b1580156118da57600080fd5b505af11580156118ee573d6000803e3d6000fd5b507ff23a6e61000000000000000000000000000000000000000000000000000000009c9b505050505050505050505050565b3b151590565b6000826119355750600061199c565b8282028284828161194257fe5b0414611999576040517f08c379a0000000000000000000000000000000000000000000000000000000008152600401808060200182810382526021815260200180611a8e6021913960400191505060405180910390fd5b90505b92915050565b60008282018381101561199957604080517f08c379a000000000000000000000000000000000000000000000000000000000815260206004820152601b60248201527f536166654d6174683a206164646974696f6e206f766572666c6f770000000000604482015290519081900360640190fd5b60008085851115611a25578182fd5b83861115611a31578182fd5b505082019391909203915056fe5772617070656431313535466163746f72793a206d69736d61746368656420696e707574206172726179735772617070656431313535466163746f72793a206661696c656420746f206465706c6f79536166654d6174683a206d756c7469706c69636174696f6e206f766572666c6f775772617070656431313535466163746f72793a20646174612062797465732073686f756c64206265206964732073697a65a164736f6c6343000706000a60806040523480156200001157600080fd5b50604080518082018252601f81527f57726170706564204552432d3131353520496d706c656d656e746174696f6e006020808301918252835180850190945260048452632ba6aa1560e11b90840152815191929162000073916006916200009f565b508051620000899060079060208401906200009f565b50506008805460ff19166012179055506200014b565b828054600181600116156101000203166002900490600052602060002090601f016020900481019282620000d7576000855562000122565b82601f10620000f257805160ff191683800117855562000122565b8280016001018555821562000122579182015b828111156200012257825182559160200191906001019062000105565b506200013092915062000134565b5090565b5b8082111562000130576000815560010162000135565b611163806200015b6000396000f3fe608060405234801561001057600080fd5b50600436106101005760003560e01c806340c10f1911610097578063a457c2d711610066578063a457c2d71461036b578063a9059cbb146103a4578063c45a0155146103dd578063dd62ed3e146103e557610100565b806340c10f19146102bc57806370a08231146102f757806395d89b411461032a5780639dc29fac1461033257610100565b80631904e5c9116100d35780631904e5c9146101f157806323b872dd14610222578063313ce56714610265578063395093511461028357610100565b806306fdde0314610105578063095ea7b31461018257806317d70f7c146101cf57806318160ddd146101e9575b600080fd5b61010d610420565b6040805160208082528351818301528351919283929083019185019080838360005b8381101561014757818101518382015260200161012f565b50505050905090810190601f1680156101745780820380516001836020036101000a031916815260200191505b509250505060405180910390f35b6101bb6004803603604081101561019857600080fd5b5073ffffffffffffffffffffffffffffffffffffffff81351690602001356104d4565b604080519115158252519081900360200190f35b6101d76104f1565b60408051918252519081900360200190f35b6101d76104f7565b6101f96104fd565b6040805173ffffffffffffffffffffffffffffffffffffffff9092168252519081900360200190f35b6101bb6004803603606081101561023857600080fd5b5073ffffffffffffffffffffffffffffffffffffffff813581169160208101359091169060400135610519565b61026d6105ba565b6040805160ff9092168252519081900360200190f35b6101bb6004803603604081101561029957600080fd5b5073ffffffffffffffffffffffffffffffffffffffff81351690602001356105c3565b6102f5600480360360408110156102d257600080fd5b5073ffffffffffffffffffffffffffffffffffffffff813516906020013561061e565b005b6101d76004803603602081101561030d57600080fd5b503573ffffffffffffffffffffffffffffffffffffffff1661069c565b61010d6106c4565b6102f56004803603604081101561034857600080fd5b5073ffffffffffffffffffffffffffffffffffffffff8135169060200135610743565b6101bb6004803603604081101561038157600080fd5b5073ffffffffffffffffffffffffffffffffffffffff81351690602001356107bd565b6101bb600480360360408110156103ba57600080fd5b5073ffffffffffffffffffffffffffffffffffffffff8135169060200135610832565b6101f9610846565b6101d7600480360360408110156103fb57600080fd5b5073ffffffffffffffffffffffffffffffffffffffff81358116916020013516610862565b60068054604080516020601f60027fffffffffffffffffffffffffffffffffffffffffffffffffffffffffffffffff6101006001881615020190951694909404938401819004810282018101909252828152606093909290918301828280156104ca5780601f1061049f576101008083540402835291602001916104ca565b820191906000526020600020905b8154815290600101906020018083116104ad57829003601f168201915b5050505050905090565b60006104e86104e161089a565b848461089e565b50600192915050565b60025481565b60055490565b60015473ffffffffffffffffffffffffffffffffffffffff1681565b60006105268484846109e5565b6105b08461053261089a565b6105ab8560405180606001604052806028815260200161106a6028913973ffffffffffffffffffffffffffffffffffffffff8a1660009081526004602052604081209061057d61089a565b73ffffffffffffffffffffffffffffffffffffffff1681526020810191909152604001600020549190610bb7565b61089e565b5060019392505050565b60085460ff1690565b60006104e86105d061089a565b846105ab85600460006105e161089a565b73ffffffffffffffffffffffffffffffffffffffff908116825260208083019390935260409182016000908120918c168152925290205490610c68565b60005473ffffffffffffffffffffffffffffffffffffffff16331461068e576040517f08c379a00000000000000000000000000000000000000000000000000000000081526004018080602001828103825260368152602001806110b36036913960400191505060405180910390fd5b6106988282610ce3565b5050565b73ffffffffffffffffffffffffffffffffffffffff1660009081526003602052604090205490565b60078054604080516020601f60027fffffffffffffffffffffffffffffffffffffffffffffffffffffffffffffffff6101006001881615020190951694909404938401819004810282018101909252828152606093909290918301828280156104ca5780601f1061049f576101008083540402835291602001916104ca565b60005473ffffffffffffffffffffffffffffffffffffffff1633146107b3576040517f08c379a00000000000000000000000000000000000000000000000000000000081526004018080602001828103825260368152602001806110b36036913960400191505060405180910390fd5b6106988282610e16565b60006104e86107ca61089a565b846105ab8560405180606001604052806025815260200161113260259139600460006107f461089a565b73ffffffffffffffffffffffffffffffffffffffff908116825260208083019390935260409182016000908120918d16815292529020549190610bb7565b60006104e861083f61089a565b84846109e5565b60005473ffffffffffffffffffffffffffffffffffffffff1681565b73ffffffffffffffffffffffffffffffffffffffff918216600090815260046020908152604080832093909416825291909152205490565b3390565b73ffffffffffffffffffffffffffffffffffffffff831661090a576040517f08c379a000000000000000000000000000000000000000000000000000000000815260040180806020018281038252602481526020018061110e6024913960400191505060405180910390fd5b73ffffffffffffffffffffffffffffffffffffffff8216610976576040517f08c379a00000000000000000000000000000000000000000000000000000000081526004018080602001828103825260228152602001806110226022913960400191505060405180910390fd5b73ffffffffffffffffffffffffffffffffffffffff808416600081815260046020908152604080832094871680845294825291829020859055815185815291517f8c5be1e5ebec7d5bd14f71427d1e84f3dd0314c0f7b2291e5b200ac8c7c3b9259281900390910190a3505050565b73ffffffffffffffffffffffffffffffffffffffff8316610a51576040517f08c379a00000000000000000000000000000000000000000000000000000000081526004018080602001828103825260258152602001806110e96025913960400191505060405180910390fd5b73ffffffffffffffffffffffffffffffffffffffff8216610abd576040517f08c379a0000000000000000000000000000000000000000000000000000000008152600401808060200182810382526023815260200180610fdd6023913960400191505060405180910390fd5b610ac8838383610f60565b610b12816040518060600160405280602681526020016110446026913973ffffffffffffffffffffffffffffffffffffffff86166000908152600360205260409020549190610bb7565b73ffffffffffffffffffffffffffffffffffffffff8085166000908152600360205260408082209390935590841681522054610b4e9082610c68565b73ffffffffffffffffffffffffffffffffffffffff80841660008181526003602090815260409182902094909455805185815290519193928716927fddf252ad1be2c89b69c2b068fc378daa952ba7f163c4a11628f55a4df523b3ef92918290030190a3505050565b60008184841115610c60576040517f08c379a00000000000000000000000000000000000000000000000000000000081526004018080602001828103825283818151815260200191508051906020019080838360005b83811015610c25578181015183820152602001610c0d565b50505050905090810190601f168015610c525780820380516001836020036101000a031916815260200191505b509250505060405180910390fd5b505050900390565b600082820183811015610cdc57604080517f08c379a000000000000000000000000000000000000000000000000000000000815260206004820152601b60248201527f536166654d6174683a206164646974696f6e206f766572666c6f770000000000604482015290519081900360640190fd5b9392505050565b73ffffffffffffffffffffffffffffffffffffffff8216610d6557604080517f08c379a000000000000000000000000000000000000000000000000000000000815260206004820152601f60248201527f45524332303a206d696e7420746f20746865207a65726f206164647265737300604482015290519081900360640190fd5b610d7160008383610f60565b600554610d7e9082610c68565b60055573ffffffffffffffffffffffffffffffffffffffff8216600090815260036020526040902054610db19082610c68565b73ffffffffffffffffffffffffffffffffffffffff831660008181526003602090815260408083209490945583518581529351929391927fddf252ad1be2c89b69c2b068fc378daa952ba7f163c4a11628f55a4df523b3ef9281900390910190a35050565b73ffffffffffffffffffffffffffffffffffffffff8216610e82576040517f08c379a00000000000000000000000000000000000000000000000000000000081526004018080602001828103825260218152602001806110926021913960400191505060405180910390fd5b610e8e82600083610f60565b610ed8816040518060600160405280602281526020016110006022913973ffffffffffffffffffffffffffffffffffffffff85166000908152600360205260409020549190610bb7565b73ffffffffffffffffffffffffffffffffffffffff8316600090815260036020526040902055600554610f0b9082610f65565b60055560408051828152905160009173ffffffffffffffffffffffffffffffffffffffff8516917fddf252ad1be2c89b69c2b068fc378daa952ba7f163c4a11628f55a4df523b3ef9181900360200190a35050565b505050565b600082821115610fd657604080517f08c379a000000000000000000000000000000000000000000000000000000000815260206004820152601e60248201527f536166654d6174683a207375627472616374696f6e206f766572666c6f770000604482015290519081900360640190fd5b5090039056fe45524332303a207472616e7366657220746f20746865207a65726f206164647265737345524332303a206275726e20616d6f756e7420657863656564732062616c616e636545524332303a20617070726f766520746f20746865207a65726f206164647265737345524332303a207472616e7366657220616d6f756e7420657863656564732062616c616e636545524332303a207472616e7366657220616d6f756e74206578636565647320616c6c6f77616e636545524332303a206275726e2066726f6d20746865207a65726f206164647265737357726170706564313135353a206f6e6c7920666163746f727920616c6c6f77656420746f20706572666f726d206f7065726174696f6e45524332303a207472616e736665722066726f6d20746865207a65726f206164647265737345524332303a20617070726f76652066726f6d20746865207a65726f206164647265737345524332303a2064656372656173656420616c6c6f77616e63652062656c6f77207a65726fa164736f6c6343000706000a",
  "linkReferences": {},
  "deployedLinkReferences": {}
}