{
  "_format": "hh-sol-artifact-1",
  "contractName": "SwapRouter",
  "sourceName": "contracts/SwapRouter.sol",
  "abi": [
    {
      "inputs": [
        {
          "internalType": "address",
          "name": "_deployer",
          "type": "address"
        },
        {
          "internalType": "address",
          "name": "_factory",
          "type": "address"
        },
        {
          "internalType": "address",
          "name": "_WETH9",
          "type": "address"
        }
      ],
      "stateMutability": "nonpayable",
      "type": "constructor"
    },
    {
      "inputs": [
        {
          "internalType": "int256",
          "name": "amount0Delta",
          "type": "int256"
        },
        {
          "internalType": "int256",
          "name": "amount1Delta",
          "type": "int256"
        },
        {
          "internalType": "bytes",
          "name": "_data",
          "type": "bytes"
        }
      ],
      "name": "BubblySwapSwapCallback",
      "outputs": [],
      "stateMutability": "nonpayable",
      "type": "function"
    },
    {
      "inputs": [],
      "name": "WETH9",
      "outputs": [
        {
          "internalType": "address",
          "name": "",
          "type": "address"
        }
      ],
      "stateMutability": "view",
      "type": "function"
    },
    {
      "inputs": [],
      "name": "deployer",
      "outputs": [
        {
          "internalType": "address",
          "name": "",
          "type": "address"
        }
      ],
      "stateMutability": "view",
      "type": "function"
    },
    {
      "inputs": [
        {
          "components": [
            {
              "internalType": "bytes",
              "name": "path",
              "type": "bytes"
            },
            {
              "internalType": "address",
              "name": "recipient",
              "type": "address"
            },
            {
              "internalType": "uint256",
              "name": "deadline",
              "type": "uint256"
            },
            {
              "internalType": "uint256",
              "name": "amountIn",
              "type": "uint256"
            },
            {
              "internalType": "uint256",
              "name": "amountOutMinimum",
              "type": "uint256"
            }
          ],
          "internalType": "struct ISwapRouter.ExactInputParams",
          "name": "params",
          "type": "tuple"
        }
      ],
      "name": "exactInput",
      "outputs": [
        {
          "internalType": "uint256",
          "name": "amountOut",
          "type": "uint256"
        }
      ],
      "stateMutability": "payable",
      "type": "function"
    },
    {
      "inputs": [
        {
          "components": [
            {
              "internalType": "address",
              "name": "tokenIn",
              "type": "address"
            },
            {
              "internalType": "address",
              "name": "tokenOut",
              "type": "address"
            },
            {
              "internalType": "uint24",
              "name": "fee",
              "type": "uint24"
            },
            {
              "internalType": "address",
              "name": "recipient",
              "type": "address"
            },
            {
              "internalType": "uint256",
              "name": "deadline",
              "type": "uint256"
            },
            {
              "internalType": "uint256",
              "name": "amountIn",
              "type": "uint256"
            },
            {
              "internalType": "uint256",
              "name": "amountOutMinimum",
              "type": "uint256"
            },
            {
              "internalType": "uint160",
              "name": "sqrtPriceLimitX96",
              "type": "uint160"
            }
          ],
          "internalType": "struct ISwapRouter.ExactInputSingleParams",
          "name": "params",
          "type": "tuple"
        }
      ],
      "name": "exactInputSingle",
      "outputs": [
        {
          "internalType": "uint256",
          "name": "amountOut",
          "type": "uint256"
        }
      ],
      "stateMutability": "payable",
      "type": "function"
    },
    {
      "inputs": [
        {
          "components": [
            {
              "internalType": "bytes",
              "name": "path",
              "type": "bytes"
            },
            {
              "internalType": "address",
              "name": "recipient",
              "type": "address"
            },
            {
              "internalType": "uint256",
              "name": "deadline",
              "type": "uint256"
            },
            {
              "internalType": "uint256",
              "name": "amountOut",
              "type": "uint256"
            },
            {
              "internalType": "uint256",
              "name": "amountInMaximum",
              "type": "uint256"
            }
          ],
          "internalType": "struct ISwapRouter.ExactOutputParams",
          "name": "params",
          "type": "tuple"
        }
      ],
      "name": "exactOutput",
      "outputs": [
        {
          "internalType": "uint256",
          "name": "amountIn",
          "type": "uint256"
        }
      ],
      "stateMutability": "payable",
      "type": "function"
    },
    {
      "inputs": [
        {
          "components": [
            {
              "internalType": "address",
              "name": "tokenIn",
              "type": "address"
            },
            {
              "internalType": "address",
              "name": "tokenOut",
              "type": "address"
            },
            {
              "internalType": "uint24",
              "name": "fee",
              "type": "uint24"
            },
            {
              "internalType": "address",
              "name": "recipient",
              "type": "address"
            },
            {
              "internalType": "uint256",
              "name": "deadline",
              "type": "uint256"
            },
            {
              "internalType": "uint256",
              "name": "amountOut",
              "type": "uint256"
            },
            {
              "internalType": "uint256",
              "name": "amountInMaximum",
              "type": "uint256"
            },
            {
              "internalType": "uint160",
              "name": "sqrtPriceLimitX96",
              "type": "uint160"
            }
          ],
          "internalType": "struct ISwapRouter.ExactOutputSingleParams",
          "name": "params",
          "type": "tuple"
        }
      ],
      "name": "exactOutputSingle",
      "outputs": [
        {
          "internalType": "uint256",
          "name": "amountIn",
          "type": "uint256"
        }
      ],
      "stateMutability": "payable",
      "type": "function"
    },
    {
      "inputs": [],
      "name": "factory",
      "outputs": [
        {
          "internalType": "address",
          "name": "",
          "type": "address"
        }
      ],
      "stateMutability": "view",
      "type": "function"
    },
    {
      "inputs": [
        {
          "internalType": "bytes[]",
          "name": "data",
          "type": "bytes[]"
        }
      ],
      "name": "multicall",
      "outputs": [
        {
          "internalType": "bytes[]",
          "name": "results",
          "type": "bytes[]"
        }
      ],
      "stateMutability": "payable",
      "type": "function"
    },
    {
      "inputs": [],
      "name": "refundETH",
      "outputs": [],
      "stateMutability": "payable",
      "type": "function"
    },
    {
      "inputs": [
        {
          "internalType": "address",
          "name": "token",
          "type": "address"
        },
        {
          "internalType": "uint256",
          "name": "value",
          "type": "uint256"
        },
        {
          "internalType": "uint256",
          "name": "deadline",
          "type": "uint256"
        },
        {
          "internalType": "uint8",
          "name": "v",
          "type": "uint8"
        },
        {
          "internalType": "bytes32",
          "name": "r",
          "type": "bytes32"
        },
        {
          "internalType": "bytes32",
          "name": "s",
          "type": "bytes32"
        }
      ],
      "name": "selfPermit",
      "outputs": [],
      "stateMutability": "payable",
      "type": "function"
    },
    {
      "inputs": [
        {
          "internalType": "address",
          "name": "token",
          "type": "address"
        },
        {
          "internalType": "uint256",
          "name": "nonce",
          "type": "uint256"
        },
        {
          "internalType": "uint256",
          "name": "expiry",
          "type": "uint256"
        },
        {
          "internalType": "uint8",
          "name": "v",
          "type": "uint8"
        },
        {
          "internalType": "bytes32",
          "name": "r",
          "type": "bytes32"
        },
        {
          "internalType": "bytes32",
          "name": "s",
          "type": "bytes32"
        }
      ],
      "name": "selfPermitAllowed",
      "outputs": [],
      "stateMutability": "payable",
      "type": "function"
    },
    {
      "inputs": [
        {
          "internalType": "address",
          "name": "token",
          "type": "address"
        },
        {
          "internalType": "uint256",
          "name": "nonce",
          "type": "uint256"
        },
        {
          "internalType": "uint256",
          "name": "expiry",
          "type": "uint256"
        },
        {
          "internalType": "uint8",
          "name": "v",
          "type": "uint8"
        },
        {
          "internalType": "bytes32",
          "name": "r",
          "type": "bytes32"
        },
        {
          "internalType": "bytes32",
          "name": "s",
          "type": "bytes32"
        }
      ],
      "name": "selfPermitAllowedIfNecessary",
      "outputs": [],
      "stateMutability": "payable",
      "type": "function"
    },
    {
      "inputs": [
        {
          "internalType": "address",
          "name": "token",
          "type": "address"
        },
        {
          "internalType": "uint256",
          "name": "value",
          "type": "uint256"
        },
        {
          "internalType": "uint256",
          "name": "deadline",
          "type": "uint256"
        },
        {
          "internalType": "uint8",
          "name": "v",
          "type": "uint8"
        },
        {
          "internalType": "bytes32",
          "name": "r",
          "type": "bytes32"
        },
        {
          "internalType": "bytes32",
          "name": "s",
          "type": "bytes32"
        }
      ],
      "name": "selfPermitIfNecessary",
      "outputs": [],
      "stateMutability": "payable",
      "type": "function"
    },
    {
      "inputs": [
        {
          "internalType": "address",
          "name": "token",
          "type": "address"
        },
        {
          "internalType": "uint256",
          "name": "amountMinimum",
          "type": "uint256"
        },
        {
          "internalType": "address",
          "name": "recipient",
          "type": "address"
        }
      ],
      "name": "sweepToken",
      "outputs": [],
      "stateMutability": "payable",
      "type": "function"
    },
    {
      "inputs": [
        {
          "internalType": "address",
          "name": "token",
          "type": "address"
        },
        {
          "internalType": "uint256",
          "name": "amountMinimum",
          "type": "uint256"
        },
        {
          "internalType": "address",
          "name": "recipient",
          "type": "address"
        },
        {
          "internalType": "uint256",
          "name": "feeBips",
          "type": "uint256"
        },
        {
          "internalType": "address",
          "name": "feeRecipient",
          "type": "address"
        }
      ],
      "name": "sweepTokenWithFee",
      "outputs": [],
      "stateMutability": "payable",
      "type": "function"
    },
    {
      "inputs": [
        {
          "internalType": "uint256",
          "name": "amountMinimum",
          "type": "uint256"
        },
        {
          "internalType": "address",
          "name": "recipient",
          "type": "address"
        }
      ],
      "name": "unwrapWETH9",
      "outputs": [],
      "stateMutability": "payable",
      "type": "function"
    },
    {
      "inputs": [
        {
          "internalType": "uint256",
          "name": "amountMinimum",
          "type": "uint256"
        },
        {
          "internalType": "address",
          "name": "recipient",
          "type": "address"
        },
        {
          "internalType": "uint256",
          "name": "feeBips",
          "type": "uint256"
        },
        {
          "internalType": "address",
          "name": "feeRecipient",
          "type": "address"
        }
      ],
      "name": "unwrapWETH9WithFee",
      "outputs": [],
      "stateMutability": "payable",
      "type": "function"
    },
    {
      "stateMutability": "payable",
      "type": "receive"
    }
  ],
  "bytecode": "0x60e06040526000196000553480156200001757600080fd5b50604051620030aa380380620030aa8339810160408190526200003a916200007f565b6001600160601b0319606093841b811660805291831b821660a05290911b1660c052620000c8565b80516001600160a01b03811681146200007a57600080fd5b919050565b60008060006060848603121562000094578283fd5b6200009f8462000062565b9250620000af6020850162000062565b9150620000bf6040850162000062565b90509250925092565b60805160601c60a05160601c60c05160601c612f7a620001306000398061014a52806105b352806106dd528061077752806107b752806108e15280611906528061196652806119e7525080610df6525080610e5d5280610f615280611e7a5250612f7a6000f3fe60806040526004361061012d5760003560e01c8063c2e3140a116100a5578063db3e219811610074578063e0e189a011610059578063e0e189a014610332578063f28c049814610345578063f3995c6714610358576101d8565b8063db3e21981461030c578063df2ab5bb1461031f576101d8565b8063c2e3140a146102af578063c45a0155146102c2578063ce41b35a146102d7578063d5f39488146102f7576101d8565b80634aa4a4fc116100fc578063a4a78f0c116100e1578063a4a78f0c14610269578063ac9650d81461027c578063c04b8d591461029c576101d8565b80634aa4a4fc146102345780639b2c0a3714610256576101d8565b806312210e8a146101dd578063414bf389146101e55780634659a4941461020e57806349404b7c14610221576101d8565b366101d8573373ffffffffffffffffffffffffffffffffffffffff7f000000000000000000000000000000000000000000000000000000000000000016146101d657604080517f08c379a000000000000000000000000000000000000000000000000000000000815260206004820152600960248201527f4e6f742057455448390000000000000000000000000000000000000000000000604482015290519081900360640190fd5b005b600080fd5b6101d661036b565b6101f86101f3366004612a4c565b61037d565b6040516102059190612e45565b60405180910390f35b6101d661021c3660046127ca565b6104ef565b6101d661022f366004612b53565b6105af565b34801561024057600080fd5b50610249610775565b6040516102059190612c8b565b6101d6610264366004612b82565b610799565b6101d66102773660046127ca565b6109b1565b61028f61028a36600461282a565b610a86565b6040516102059190612cfe565b6101f86102aa3660046129a1565b610be0565b6101d66102bd3660046127ca565b610d3f565b3480156102ce57600080fd5b50610249610df4565b3480156102e357600080fd5b506101d66102f23660046128bc565b610e18565b34801561030357600080fd5b50610249610f5f565b6101f861031a366004612a4c565b610f83565b6101d661032d36600461272b565b611113565b6101d661034036600461276c565b611230565b6101f8610353366004612a68565b611396565b6101d66103663660046127ca565b6114ca565b471561037b5761037b3347611562565b565b600081608001358061038d6116b0565b11156103fa57604080517f08c379a000000000000000000000000000000000000000000000000000000000815260206004820152601360248201527f5472616e73616374696f6e20746f6f206f6c6400000000000000000000000000604482015290519081900360640190fd5b6104a060a08401356104126080860160608701612708565b610423610100870160e08801612708565b604080518082019091528061043b60208a018a612708565b61044b60608b0160408c01612b30565b61045b60408c0160208d01612708565b60405160200161046d93929190612c15565b60405160208183030381529060405281526020013373ffffffffffffffffffffffffffffffffffffffff168152506116b4565b91508260c001358210156104e9576040517f08c379a00000000000000000000000000000000000000000000000000000000081526004016104e090612dc6565b60405180910390fd5b50919050565b604080517f8fcbaf0c00000000000000000000000000000000000000000000000000000000815233600482015230602482015260448101879052606481018690526001608482015260ff851660a482015260c4810184905260e48101839052905173ffffffffffffffffffffffffffffffffffffffff881691638fcbaf0c9161010480830192600092919082900301818387803b15801561058f57600080fd5b505af11580156105a3573d6000803e3d6000fd5b50505050505050505050565b60007f000000000000000000000000000000000000000000000000000000000000000073ffffffffffffffffffffffffffffffffffffffff166370a08231306040518263ffffffff1660e01b8152600401808273ffffffffffffffffffffffffffffffffffffffff16815260200191505060206040518083038186803b15801561063857600080fd5b505afa15801561064c573d6000803e3d6000fd5b505050506040513d602081101561066257600080fd5b50519050828110156106d557604080517f08c379a000000000000000000000000000000000000000000000000000000000815260206004820152601260248201527f496e73756666696369656e742057455448390000000000000000000000000000604482015290519081900360640190fd5b8015610770577f000000000000000000000000000000000000000000000000000000000000000073ffffffffffffffffffffffffffffffffffffffff16632e1a7d4d826040518263ffffffff1660e01b815260040180828152602001915050600060405180830381600087803b15801561074e57600080fd5b505af1158015610762573d6000803e3d6000fd5b505050506107708282611562565b505050565b7f000000000000000000000000000000000000000000000000000000000000000081565b6000821180156107aa575060648211155b6107b357600080fd5b60007f000000000000000000000000000000000000000000000000000000000000000073ffffffffffffffffffffffffffffffffffffffff166370a08231306040518263ffffffff1660e01b8152600401808273ffffffffffffffffffffffffffffffffffffffff16815260200191505060206040518083038186803b15801561083c57600080fd5b505afa158015610850573d6000803e3d6000fd5b505050506040513d602081101561086657600080fd5b50519050848110156108d957604080517f08c379a000000000000000000000000000000000000000000000000000000000815260206004820152601260248201527f496e73756666696369656e742057455448390000000000000000000000000000604482015290519081900360640190fd5b80156109aa577f000000000000000000000000000000000000000000000000000000000000000073ffffffffffffffffffffffffffffffffffffffff16632e1a7d4d826040518263ffffffff1660e01b815260040180828152602001915050600060405180830381600087803b15801561095257600080fd5b505af1158015610966573d6000803e3d6000fd5b505050506000612710610982858461183a90919063ffffffff16565b8161098957fe5b049050801561099c5761099c8382611562565b6109a885828403611562565b505b5050505050565b604080517fdd62ed3e00000000000000000000000000000000000000000000000000000000815233600482015230602482015290517fffffffffffffffffffffffffffffffffffffffffffffffffffffffffffffffff9173ffffffffffffffffffffffffffffffffffffffff89169163dd62ed3e91604480820192602092909190829003018186803b158015610a4657600080fd5b505afa158015610a5a573d6000803e3d6000fd5b505050506040513d6020811015610a7057600080fd5b505110156109a8576109a88686868686866104ef565b60608167ffffffffffffffff81118015610a9f57600080fd5b50604051908082528060200260200182016040528015610ad357816020015b6060815260200190600190039081610abe5790505b50905060005b82811015610bd95760008030868685818110610af157fe5b9050602002810190610b039190612e4e565b604051610b11929190612c7b565b600060405180830381855af49150503d8060008114610b4c576040519150601f19603f3d011682016040523d82523d6000602084013e610b51565b606091505b509150915081610bb757604481511015610b6a57600080fd5b60048101905080806020019051810190610b849190612937565b6040517f08c379a00000000000000000000000000000000000000000000000000000000081526004016104e09190612d7c565b80848481518110610bc457fe5b60209081029190910101525050600101610ad9565b5092915050565b6000816040015180610bf06116b0565b1115610c5d57604080517f08c379a000000000000000000000000000000000000000000000000000000000815260206004820152601360248201527f5472616e73616374696f6e20746f6f206f6c6400000000000000000000000000604482015290519081900360640190fd5b335b6000610c6e8560000151611864565b9050610cc7856060015182610c87578660200151610c89565b305b60006040518060400160405280610ca38b60000151611870565b81526020018773ffffffffffffffffffffffffffffffffffffffff168152506116b4565b60608601528015610ce7578451309250610ce09061187f565b8552610cf4565b8460600151935050610cfa565b50610c5f565b8360800151831015610d38576040517f08c379a00000000000000000000000000000000000000000000000000000000081526004016104e090612dc6565b5050919050565b604080517fdd62ed3e0000000000000000000000000000000000000000000000000000000081523360048201523060248201529051869173ffffffffffffffffffffffffffffffffffffffff89169163dd62ed3e91604480820192602092909190829003018186803b158015610db457600080fd5b505afa158015610dc8573d6000803e3d6000fd5b505050506040513d6020811015610dde57600080fd5b505110156109a8576109a88686868686866114ca565b7f000000000000000000000000000000000000000000000000000000000000000081565b6000841380610e275750600083135b610e3057600080fd5b6000610e3e82840184612aa0565b90506000806000610e5284600001516118b4565b925092509250610e847f00000000000000000000000000000000000000000000000000000000000000008484846118e5565b5060008060008a13610ec5578473ffffffffffffffffffffffffffffffffffffffff168473ffffffffffffffffffffffffffffffffffffffff161089610ef6565b8373ffffffffffffffffffffffffffffffffffffffff168573ffffffffffffffffffffffffffffffffffffffff16108a5b915091508115610f1557610f108587602001513384611904565b6105a3565b8551610f2090611864565b15610f45578551610f309061187f565b8652610f3f8133600089611ae2565b506105a3565b806000819055508394506105a38587602001513384611904565b7f000000000000000000000000000000000000000000000000000000000000000081565b6000816080013580610f936116b0565b111561100057604080517f08c379a000000000000000000000000000000000000000000000000000000000815260206004820152601360248201527f5472616e73616374696f6e20746f6f206f6c6400000000000000000000000000604482015290519081900360640190fd5b6110a960a08401356110186080860160608701612708565b611029610100870160e08801612708565b60405180604001604052808860200160208101906110479190612708565b61105760608b0160408c01612b30565b61106460208c018c612708565b60405160200161107693929190612c15565b60405160208183030381529060405281526020013373ffffffffffffffffffffffffffffffffffffffff16815250611ae2565b91508260c001358211156110e9576040517f08c379a00000000000000000000000000000000000000000000000000000000081526004016104e090612d8f565b507fffffffffffffffffffffffffffffffffffffffffffffffffffffffffffffffff600055919050565b60008373ffffffffffffffffffffffffffffffffffffffff166370a08231306040518263ffffffff1660e01b8152600401808273ffffffffffffffffffffffffffffffffffffffff16815260200191505060206040518083038186803b15801561117c57600080fd5b505afa158015611190573d6000803e3d6000fd5b505050506040513d60208110156111a657600080fd5b505190508281101561121957604080517f08c379a000000000000000000000000000000000000000000000000000000000815260206004820152601260248201527f496e73756666696369656e7420746f6b656e0000000000000000000000000000604482015290519081900360640190fd5b801561122a5761122a848383611c9e565b50505050565b600082118015611241575060648211155b61124a57600080fd5b60008573ffffffffffffffffffffffffffffffffffffffff166370a08231306040518263ffffffff1660e01b8152600401808273ffffffffffffffffffffffffffffffffffffffff16815260200191505060206040518083038186803b1580156112b357600080fd5b505afa1580156112c7573d6000803e3d6000fd5b505050506040513d60208110156112dd57600080fd5b505190508481101561135057604080517f08c379a000000000000000000000000000000000000000000000000000000000815260206004820152601260248201527f496e73756666696369656e7420746f6b656e0000000000000000000000000000604482015290519081900360640190fd5b80156109a8576000612710611365838661183a565b8161136c57fe5b049050801561138057611380878483611c9e565b61138d8786838503611c9e565b50505050505050565b60008160400135806113a66116b0565b111561141357604080517f08c379a000000000000000000000000000000000000000000000000000000000815260206004820152601360248201527f5472616e73616374696f6e20746f6f206f6c6400000000000000000000000000604482015290519081900360640190fd5b611486606084013561142b6040860160208701612708565b60408051808201909152600090806114438980612e4e565b8080601f01602080910402602001604051908101604052809392919081815260200183838082843760009201919091525050509082525033602090910152611ae2565b50600054915082608001358211156110e9576040517f08c379a00000000000000000000000000000000000000000000000000000000081526004016104e090612d8f565b604080517fd505accf000000000000000000000000000000000000000000000000000000008152336004820152306024820152604481018790526064810186905260ff8516608482015260a4810184905260c48101839052905173ffffffffffffffffffffffffffffffffffffffff88169163d505accf9160e480830192600092919082900301818387803b15801561058f57600080fd5b6040805160008082526020820190925273ffffffffffffffffffffffffffffffffffffffff84169083906040518082805190602001908083835b602083106115d957805182527fffffffffffffffffffffffffffffffffffffffffffffffffffffffffffffffe0909201916020918201910161159c565b6001836020036101000a03801982511681845116808217855250505050505090500191505060006040518083038185875af1925050503d806000811461163b576040519150601f19603f3d011682016040523d82523d6000602084013e611640565b606091505b505090508061077057604080517f08c379a000000000000000000000000000000000000000000000000000000000815260206004820152600360248201527f5354450000000000000000000000000000000000000000000000000000000000604482015290519081900360640190fd5b4290565b600073ffffffffffffffffffffffffffffffffffffffff84166116d5573093505b60008060006116e785600001516118b4565b9194509250905073ffffffffffffffffffffffffffffffffffffffff80831690841610600080611718868686611e73565b73ffffffffffffffffffffffffffffffffffffffff1663128acb088b8561173e8f611eb1565b73ffffffffffffffffffffffffffffffffffffffff8e1615611760578d611786565b8761177f5773fffd8963efd1fc6a506488495d951d5263988d25611786565b6401000276a45b8d6040516020016117979190612dfd565b6040516020818303038152906040526040518663ffffffff1660e01b81526004016117c6959493929190612cac565b6040805180830381600087803b1580156117df57600080fd5b505af11580156117f3573d6000803e3d6000fd5b505050506040513d601f19601f820116820180604052508101906118179190612899565b91509150826118265781611828565b805b6000039b9a5050505050505050505050565b60008215806118555750508181028183828161185257fe5b04145b61185e57600080fd5b92915050565b8051604211155b919050565b606061185e826000602b611ee3565b805160609061185e9083906017907fffffffffffffffffffffffffffffffffffffffffffffffffffffffffffffffe901611ee3565b600080806118c284826120ca565b92506118cf8460146121ca565b90506118dc8460176120ca565b91509193909250565b60006118fb856118f68686866122ba565b612337565b95945050505050565b7f000000000000000000000000000000000000000000000000000000000000000073ffffffffffffffffffffffffffffffffffffffff168473ffffffffffffffffffffffffffffffffffffffff1614801561195f5750804710155b15611aa8577f000000000000000000000000000000000000000000000000000000000000000073ffffffffffffffffffffffffffffffffffffffff1663d0e30db0826040518263ffffffff1660e01b81526004016000604051808303818588803b1580156119cc57600080fd5b505af11580156119e0573d6000803e3d6000fd5b50505050507f000000000000000000000000000000000000000000000000000000000000000073ffffffffffffffffffffffffffffffffffffffff1663a9059cbb83836040518363ffffffff1660e01b8152600401808373ffffffffffffffffffffffffffffffffffffffff16815260200182815260200192505050602060405180830381600087803b158015611a7657600080fd5b505af1158015611a8a573d6000803e3d6000fd5b505050506040513d6020811015611aa057600080fd5b5061122a9050565b73ffffffffffffffffffffffffffffffffffffffff8316301415611ad657611ad1848383611c9e565b61122a565b61122a84848484612367565b600073ffffffffffffffffffffffffffffffffffffffff8416611b03573093505b6000806000611b1585600001516118b4565b9194509250905073ffffffffffffffffffffffffffffffffffffffff80841690831610600080611b46858786611e73565b73ffffffffffffffffffffffffffffffffffffffff1663128acb088b85611b6c8f611eb1565b60000373ffffffffffffffffffffffffffffffffffffffff8e1615611b91578d611bb7565b87611bb05773fffd8963efd1fc6a506488495d951d5263988d25611bb7565b6401000276a45b8d604051602001611bc89190612dfd565b6040516020818303038152906040526040518663ffffffff1660e01b8152600401611bf7959493929190612cac565b6040805180830381600087803b158015611c1057600080fd5b505af1158015611c24573d6000803e3d6000fd5b505050506040513d601f19601f82011682018060405250810190611c489190612899565b91509150600083611c5d578183600003611c63565b82826000035b909850905073ffffffffffffffffffffffffffffffffffffffff8a16611c8f578b8114611c8f57600080fd5b50505050505050949350505050565b6040805173ffffffffffffffffffffffffffffffffffffffff8481166024830152604480830185905283518084039091018152606490920183526020820180517bffffffffffffffffffffffffffffffffffffffffffffffffffffffff167fa9059cbb000000000000000000000000000000000000000000000000000000001781529251825160009485949389169392918291908083835b60208310611d7357805182527fffffffffffffffffffffffffffffffffffffffffffffffffffffffffffffffe09092019160209182019101611d36565b6001836020036101000a0380198251168184511680821785525050505050509050019150506000604051808303816000865af19150503d8060008114611dd5576040519150601f19603f3d011682016040523d82523d6000602084013e611dda565b606091505b5091509150818015611e08575080511580611e085750808060200190516020811015611e0557600080fd5b50515b6109aa57604080517f08c379a000000000000000000000000000000000000000000000000000000000815260206004820152600260248201527f5354000000000000000000000000000000000000000000000000000000000000604482015290519081900360640190fd5b6000611ea97f0000000000000000000000000000000000000000000000000000000000000000611ea48686866122ba565b612544565b949350505050565b60007f80000000000000000000000000000000000000000000000000000000000000008210611edf57600080fd5b5090565b60608182601f011015611f5757604080517f08c379a000000000000000000000000000000000000000000000000000000000815260206004820152600e60248201527f736c6963655f6f766572666c6f77000000000000000000000000000000000000604482015290519081900360640190fd5b828284011015611fc857604080517f08c379a000000000000000000000000000000000000000000000000000000000815260206004820152600e60248201527f736c6963655f6f766572666c6f77000000000000000000000000000000000000604482015290519081900360640190fd5b8183018451101561203a57604080517f08c379a000000000000000000000000000000000000000000000000000000000815260206004820152601160248201527f736c6963655f6f75744f66426f756e6473000000000000000000000000000000604482015290519081900360640190fd5b60608215801561205957604051915060008252602082016040526120c1565b6040519150601f8416801560200281840101858101878315602002848b0101015b8183101561209257805183526020928301920161207a565b5050858452601f017fffffffffffffffffffffffffffffffffffffffffffffffffffffffffffffffe016604052505b50949350505050565b60008182601401101561213e57604080517f08c379a000000000000000000000000000000000000000000000000000000000815260206004820152601260248201527f746f416464726573735f6f766572666c6f770000000000000000000000000000604482015290519081900360640190fd5b81601401835110156121b157604080517f08c379a000000000000000000000000000000000000000000000000000000000815260206004820152601560248201527f746f416464726573735f6f75744f66426f756e64730000000000000000000000604482015290519081900360640190fd5b5001602001516c01000000000000000000000000900490565b60008182600301101561223e57604080517f08c379a000000000000000000000000000000000000000000000000000000000815260206004820152601160248201527f746f55696e7432345f6f766572666c6f77000000000000000000000000000000604482015290519081900360640190fd5b81600301835110156122b157604080517f08c379a000000000000000000000000000000000000000000000000000000000815260206004820152601460248201527f746f55696e7432345f6f75744f66426f756e6473000000000000000000000000604482015290519081900360640190fd5b50016003015190565b6122c261267a565b8273ffffffffffffffffffffffffffffffffffffffff168473ffffffffffffffffffffffffffffffffffffffff1611156122fa579192915b506040805160608101825273ffffffffffffffffffffffffffffffffffffffff948516815292909316602083015262ffffff169181019190915290565b60006123438383612544565b90503373ffffffffffffffffffffffffffffffffffffffff82161461185e57600080fd5b6040805173ffffffffffffffffffffffffffffffffffffffff85811660248301528481166044830152606480830185905283518084039091018152608490920183526020820180517bffffffffffffffffffffffffffffffffffffffffffffffffffffffff167f23b872dd00000000000000000000000000000000000000000000000000000000178152925182516000948594938a169392918291908083835b6020831061244457805182527fffffffffffffffffffffffffffffffffffffffffffffffffffffffffffffffe09092019160209182019101612407565b6001836020036101000a0380198251168184511680821785525050505050509050019150506000604051808303816000865af19150503d80600081146124a6576040519150601f19603f3d011682016040523d82523d6000602084013e6124ab565b606091505b50915091508180156124d95750805115806124d957508080602001905160208110156124d657600080fd5b50515b6109a857604080517f08c379a000000000000000000000000000000000000000000000000000000000815260206004820152600360248201527f5354460000000000000000000000000000000000000000000000000000000000604482015290519081900360640190fd5b6000816020015173ffffffffffffffffffffffffffffffffffffffff16826000015173ffffffffffffffffffffffffffffffffffffffff161061258657600080fd5b508051602080830151604093840151845173ffffffffffffffffffffffffffffffffffffffff94851681850152939091168385015262ffffff166060808401919091528351808403820181526080840185528051908301207fff0000000000000000000000000000000000000000000000000000000000000060a085015294901b7fffffffffffffffffffffffffffffffffffffffff0000000000000000000000001660a183015260b58201939093527f0d28a143a55ec9a5c99aad68c5ddbec488f23663d53236879a8d8ea26f47ae7660d5808301919091528251808303909101815260f5909101909152805191012090565b604080516060810182526000808252602082018190529181019190915290565b803561186b81612f48565b600082601f8301126126b5578081fd5b81356126c86126c382612edc565b612eb8565b8181528460208386010111156126dc578283fd5b816020850160208301379081016020019190915292915050565b600061010082840312156104e9578081fd5b600060208284031215612719578081fd5b813561272481612f48565b9392505050565b60008060006060848603121561273f578182fd5b833561274a81612f48565b925060208401359150604084013561276181612f48565b809150509250925092565b600080600080600060a08688031215612783578081fd5b853561278e81612f48565b94506020860135935060408601356127a581612f48565b92506060860135915060808601356127bc81612f48565b809150509295509295909350565b60008060008060008060c087890312156127e2578081fd5b86356127ed81612f48565b95506020870135945060408701359350606087013560ff81168114612810578182fd5b9598949750929560808101359460a0909101359350915050565b6000806020838503121561283c578182fd5b823567ffffffffffffffff80821115612853578384fd5b818501915085601f830112612866578384fd5b813581811115612874578485fd5b8660208083028501011115612887578485fd5b60209290920196919550909350505050565b600080604083850312156128ab578182fd5b505080516020909101519092909150565b600080600080606085870312156128d1578182fd5b8435935060208501359250604085013567ffffffffffffffff808211156128f6578384fd5b818701915087601f830112612909578384fd5b813581811115612917578485fd5b886020828501011115612928578485fd5b95989497505060200194505050565b600060208284031215612948578081fd5b815167ffffffffffffffff81111561295e578182fd5b8201601f8101841361296e578182fd5b805161297c6126c382612edc565b818152856020838501011115612990578384fd5b6118fb826020830160208601612f1c565b6000602082840312156129b2578081fd5b813567ffffffffffffffff808211156129c9578283fd5b9083019060a082860312156129dc578283fd5b60405160a0810181811083821117156129f157fe5b604052823582811115612a02578485fd5b612a0e878286016126a5565b825250612a1d6020840161269a565b602082015260408301356040820152606083013560608201526080830135608082015280935050505092915050565b60006101008284031215612a5e578081fd5b61272483836126f6565b600060208284031215612a79578081fd5b813567ffffffffffffffff811115612a8f578182fd5b820160a08185031215612724578182fd5b600060208284031215612ab1578081fd5b813567ffffffffffffffff80821115612ac8578283fd5b9083019060408286031215612adb578283fd5b604051604081018181108382111715612af057fe5b604052823582811115612b01578485fd5b612b0d878286016126a5565b82525060208301359250612b2083612f48565b6020810192909252509392505050565b600060208284031215612b41578081fd5b813562ffffff81168114612724578182fd5b60008060408385031215612b65578182fd5b823591506020830135612b7781612f48565b809150509250929050565b60008060008060808587031215612b97578182fd5b843593506020850135612ba981612f48565b9250604085013591506060850135612bc081612f48565b939692955090935050565b60008151808452612be3816020860160208601612f1c565b601f017fffffffffffffffffffffffffffffffffffffffffffffffffffffffffffffffe0169290920160200192915050565b606093841b7fffffffffffffffffffffffffffffffffffffffff000000000000000000000000908116825260e89390931b7fffffff0000000000000000000000000000000000000000000000000000000000166014820152921b166017820152602b0190565b6000828483379101908152919050565b73ffffffffffffffffffffffffffffffffffffffff91909116815260200190565b600073ffffffffffffffffffffffffffffffffffffffff8088168352861515602084015285604084015280851660608401525060a06080830152612cf360a0830184612bcb565b979650505050505050565b6000602080830181845280855180835260408601915060408482028701019250838701855b82811015612d6f577fffffffffffffffffffffffffffffffffffffffffffffffffffffffffffffffc0888603018452612d5d858351612bcb565b94509285019290850190600101612d23565b5092979650505050505050565b6000602082526127246020830184612bcb565b60208082526012908201527f546f6f206d756368207265717565737465640000000000000000000000000000604082015260600190565b60208082526013908201527f546f6f206c6974746c6520726563656976656400000000000000000000000000604082015260600190565b600060208252825160406020840152612e196060840182612bcb565b905073ffffffffffffffffffffffffffffffffffffffff60208501511660408401528091505092915050565b90815260200190565b60008083357fffffffffffffffffffffffffffffffffffffffffffffffffffffffffffffffe1843603018112612e82578283fd5b83018035915067ffffffffffffffff821115612e9c578283fd5b602001915036819003821315612eb157600080fd5b9250929050565b60405181810167ffffffffffffffff81118282101715612ed457fe5b604052919050565b600067ffffffffffffffff821115612ef057fe5b50601f017fffffffffffffffffffffffffffffffffffffffffffffffffffffffffffffffe01660200190565b60005b83811015612f37578181015183820152602001612f1f565b8381111561122a5750506000910152565b73ffffffffffffffffffffffffffffffffffffffff81168114612f6a57600080fd5b5056fea164736f6c6343000706000a",
  "linkReferences": {},
  "deployedLinkReferences": {}
}