{
  "_format": "hh-sol-artifact-1",
  "contractName": "Quoter",
  "sourceName": "contracts/lens/Quoter.sol",
  "abi": [
    {
      "inputs": [
        {
          "internalType": "address",
          "name": "_deployer",
          "type": "address"
        },
        {
          "internalType": "address",
          "name": "_factory",
          "type": "address"
        },
        {
          "internalType": "address",
          "name": "_WETH9",
          "type": "address"
        }
      ],
      "stateMutability": "nonpayable",
      "type": "constructor"
    },
    {
      "inputs": [
        {
          "internalType": "int256",
          "name": "amount0Delta",
          "type": "int256"
        },
        {
          "internalType": "int256",
          "name": "amount1Delta",
          "type": "int256"
        },
        {
          "internalType": "bytes",
          "name": "path",
          "type": "bytes"
        }
      ],
      "name": "BubblySwapSwapCallback",
      "outputs": [],
      "stateMutability": "view",
      "type": "function"
    },
    {
      "inputs": [],
      "name": "WETH9",
      "outputs": [
        {
          "internalType": "address",
          "name": "",
          "type": "address"
        }
      ],
      "stateMutability": "view",
      "type": "function"
    },
    {
      "inputs": [],
      "name": "deployer",
      "outputs": [
        {
          "internalType": "address",
          "name": "",
          "type": "address"
        }
      ],
      "stateMutability": "view",
      "type": "function"
    },
    {
      "inputs": [],
      "name": "factory",
      "outputs": [
        {
          "internalType": "address",
          "name": "",
          "type": "address"
        }
      ],
      "stateMutability": "view",
      "type": "function"
    },
    {
      "inputs": [
        {
          "internalType": "bytes",
          "name": "path",
          "type": "bytes"
        },
        {
          "internalType": "uint256",
          "name": "amountIn",
          "type": "uint256"
        }
      ],
      "name": "quoteExactInput",
      "outputs": [
        {
          "internalType": "uint256",
          "name": "amountOut",
          "type": "uint256"
        }
      ],
      "stateMutability": "nonpayable",
      "type": "function"
    },
    {
      "inputs": [
        {
          "internalType": "address",
          "name": "tokenIn",
          "type": "address"
        },
        {
          "internalType": "address",
          "name": "tokenOut",
          "type": "address"
        },
        {
          "internalType": "uint24",
          "name": "fee",
          "type": "uint24"
        },
        {
          "internalType": "uint256",
          "name": "amountIn",
          "type": "uint256"
        },
        {
          "internalType": "uint160",
          "name": "sqrtPriceLimitX96",
          "type": "uint160"
        }
      ],
      "name": "quoteExactInputSingle",
      "outputs": [
        {
          "internalType": "uint256",
          "name": "amountOut",
          "type": "uint256"
        }
      ],
      "stateMutability": "nonpayable",
      "type": "function"
    },
    {
      "inputs": [
        {
          "internalType": "bytes",
          "name": "path",
          "type": "bytes"
        },
        {
          "internalType": "uint256",
          "name": "amountOut",
          "type": "uint256"
        }
      ],
      "name": "quoteExactOutput",
      "outputs": [
        {
          "internalType": "uint256",
          "name": "amountIn",
          "type": "uint256"
        }
      ],
      "stateMutability": "nonpayable",
      "type": "function"
    },
    {
      "inputs": [
        {
          "internalType": "address",
          "name": "tokenIn",
          "type": "address"
        },
        {
          "internalType": "address",
          "name": "tokenOut",
          "type": "address"
        },
        {
          "internalType": "uint24",
          "name": "fee",
          "type": "uint24"
        },
        {
          "internalType": "uint256",
          "name": "amountOut",
          "type": "uint256"
        },
        {
          "internalType": "uint160",
          "name": "sqrtPriceLimitX96",
          "type": "uint160"
        }
      ],
      "name": "quoteExactOutputSingle",
      "outputs": [
        {
          "internalType": "uint256",
          "name": "amountIn",
          "type": "uint256"
        }
      ],
      "stateMutability": "nonpayable",
      "type": "function"
    }
  ],
  "bytecode": "0x60e060405234801561001057600080fd5b50604051620013443803806200134483398101604081905261003191610074565b6001600160601b0319606093841b811660805291831b821660a05290911b1660c0526100b6565b80516001600160a01b038116811461006f57600080fd5b919050565b600080600060608486031215610088578283fd5b61009184610058565b925061009f60208501610058565b91506100ad60408501610058565b90509250925092565b60805160601c60a05160601c60c05160601c61124e620000f66000398061035552508061037952508061041a52806104f6528061070c525061124e6000f3fe608060405234801561001057600080fd5b50600436106100885760003560e01c8063cdca17531161005b578063cdca1753146100e6578063ce41b35a146100f9578063d5f394881461010e578063f7729d431461011657610088565b80632f80bb1d1461008d57806330d07f21146100b65780634aa4a4fc146100c9578063c45a0155146100de575b600080fd5b6100a061009b366004610ed5565b610129565b6040516100ad919061117f565b60405180910390f35b6100a06100c4366004610e67565b61018e565b6100d1610353565b6040516100ad91906110bb565b6100d1610377565b6100a06100f4366004610ed5565b61039b565b61010c610107366004610f3b565b6103e9565b005b6100d16104f4565b6100a0610124366004610e67565b610518565b60005b600061013784610697565b905060008060006101478761069f565b92509250925061015b82848389600061018e565b955083156101735761016c876106d0565b965061017f565b85945050505050610188565b5050505061012c565b92915050565b600073ffffffffffffffffffffffffffffffffffffffff808616878216109083166101b95760008490555b6101c4878787610705565b73ffffffffffffffffffffffffffffffffffffffff1663128acb0830836101ea88610743565b60000373ffffffffffffffffffffffffffffffffffffffff88161561020f5787610235565b8561022e5773fffd8963efd1fc6a506488495d951d5263988d25610235565b6401000276a45b8b8b8e60405160200161024a93929190611055565b6040516020818303038152906040526040518663ffffffff1660e01b81526004016102799594939291906110dc565b6040805180830381600087803b15801561029257600080fd5b505af19250505080156102e0575060408051601f3d9081017fffffffffffffffffffffffffffffffffffffffffffffffffffffffffffffffe01682019092526102dd91810190610f18565b60015b610346573d80801561030e576040519150601f19603f3d011682016040523d82523d6000602084013e610313565b606091505b5073ffffffffffffffffffffffffffffffffffffffff841661033457600080555b61033d81610775565b9250505061034a565b5050505b95945050505050565b7f000000000000000000000000000000000000000000000000000000000000000081565b7f000000000000000000000000000000000000000000000000000000000000000081565b60005b60006103a984610697565b905060008060006103b98761069f565b9250925092506103cd838383896000610518565b95508315610173576103de876106d0565b96505050505061039e565b60008313806103f85750600082135b61040157600080fd5b600080600061040f8461069f565b9250925092506104417f0000000000000000000000000000000000000000000000000000000000000000848484610826565b506000806000808913610487578573ffffffffffffffffffffffffffffffffffffffff168573ffffffffffffffffffffffffffffffffffffffff1610888a6000036104bc565b8473ffffffffffffffffffffffffffffffffffffffff168673ffffffffffffffffffffffffffffffffffffffff161089896000035b92509250925082156104d357604051818152602081fd5b600054156104e95760005481146104e957600080fd5b604051828152602081fd5b7f000000000000000000000000000000000000000000000000000000000000000081565b600073ffffffffffffffffffffffffffffffffffffffff80861690871610610541878787610705565b73ffffffffffffffffffffffffffffffffffffffff1663128acb08308361056788610743565b73ffffffffffffffffffffffffffffffffffffffff88161561058957876105af565b856105a85773fffd8963efd1fc6a506488495d951d5263988d256105af565b6401000276a45b8c8b8d6040516020016105c493929190611055565b6040516020818303038152906040526040518663ffffffff1660e01b81526004016105f39594939291906110dc565b6040805180830381600087803b15801561060c57600080fd5b505af192505050801561065a575060408051601f3d9081017fffffffffffffffffffffffffffffffffffffffffffffffffffffffffffffffe016820190925261065791810190610f18565b60015b610346573d808015610688576040519150601f19603f3d011682016040523d82523d6000602084013e61068d565b606091505b5061033d81610775565b516042111590565b600080806106ad848261083c565b92506106ba84601461093c565b90506106c784601761083c565b91509193909250565b80516060906101889083906017907fffffffffffffffffffffffffffffffffffffffffffffffffffffffffffffffe901610a2c565b600061073b7f0000000000000000000000000000000000000000000000000000000000000000610736868686610c13565b610c90565b949350505050565b60007f8000000000000000000000000000000000000000000000000000000000000000821061077157600080fd5b5090565b60008151602014610812576044825110156107c5576040517f08c379a00000000000000000000000000000000000000000000000000000000081526004016107bc90611148565b60405180910390fd5b600482019150818060200190518101906107df9190610f89565b6040517f08c379a00000000000000000000000000000000000000000000000000000000081526004016107bc919061112e565b818060200190518101906101889190610ff3565b600061034a85610837868686610c13565b610dc6565b6000818260140110156108b057604080517f08c379a000000000000000000000000000000000000000000000000000000000815260206004820152601260248201527f746f416464726573735f6f766572666c6f770000000000000000000000000000604482015290519081900360640190fd5b816014018351101561092357604080517f08c379a000000000000000000000000000000000000000000000000000000000815260206004820152601560248201527f746f416464726573735f6f75744f66426f756e64730000000000000000000000604482015290519081900360640190fd5b5001602001516c01000000000000000000000000900490565b6000818260030110156109b057604080517f08c379a000000000000000000000000000000000000000000000000000000000815260206004820152601160248201527f746f55696e7432345f6f766572666c6f77000000000000000000000000000000604482015290519081900360640190fd5b8160030183511015610a2357604080517f08c379a000000000000000000000000000000000000000000000000000000000815260206004820152601460248201527f746f55696e7432345f6f75744f66426f756e6473000000000000000000000000604482015290519081900360640190fd5b50016003015190565b60608182601f011015610aa057604080517f08c379a000000000000000000000000000000000000000000000000000000000815260206004820152600e60248201527f736c6963655f6f766572666c6f77000000000000000000000000000000000000604482015290519081900360640190fd5b828284011015610b1157604080517f08c379a000000000000000000000000000000000000000000000000000000000815260206004820152600e60248201527f736c6963655f6f766572666c6f77000000000000000000000000000000000000604482015290519081900360640190fd5b81830184511015610b8357604080517f08c379a000000000000000000000000000000000000000000000000000000000815260206004820152601160248201527f736c6963655f6f75744f66426f756e6473000000000000000000000000000000604482015290519081900360640190fd5b606082158015610ba25760405191506000825260208201604052610c0a565b6040519150601f8416801560200281840101858101878315602002848b0101015b81831015610bdb578051835260209283019201610bc3565b5050858452601f017fffffffffffffffffffffffffffffffffffffffffffffffffffffffffffffffe016604052505b50949350505050565b610c1b610df6565b8273ffffffffffffffffffffffffffffffffffffffff168473ffffffffffffffffffffffffffffffffffffffff161115610c53579192915b506040805160608101825273ffffffffffffffffffffffffffffffffffffffff948516815292909316602083015262ffffff169181019190915290565b6000816020015173ffffffffffffffffffffffffffffffffffffffff16826000015173ffffffffffffffffffffffffffffffffffffffff1610610cd257600080fd5b508051602080830151604093840151845173ffffffffffffffffffffffffffffffffffffffff94851681850152939091168385015262ffffff166060808401919091528351808403820181526080840185528051908301207fff0000000000000000000000000000000000000000000000000000000000000060a085015294901b7fffffffffffffffffffffffffffffffffffffffff0000000000000000000000001660a183015260b58201939093527f0d28a143a55ec9a5c99aad68c5ddbec488f23663d53236879a8d8ea26f47ae7660d5808301919091528251808303909101815260f5909101909152805191012090565b6000610dd28383610c90565b90503373ffffffffffffffffffffffffffffffffffffffff82161461018857600080fd5b604080516060810182526000808252602082018190529181019190915290565b600082601f830112610e26578081fd5b8135610e39610e34826111ac565b611188565b818152846020838601011115610e4d578283fd5b816020850160208301379081016020019190915292915050565b600080600080600060a08688031215610e7e578081fd5b8535610e898161121c565b94506020860135610e998161121c565b9350604086013562ffffff81168114610eb0578182fd5b9250606086013591506080860135610ec78161121c565b809150509295509295909350565b60008060408385031215610ee7578182fd5b823567ffffffffffffffff811115610efd578283fd5b610f0985828601610e16565b95602094909401359450505050565b60008060408385031215610f2a578182fd5b505080516020909101519092909150565b600080600060608486031215610f4f578283fd5b8335925060208401359150604084013567ffffffffffffffff811115610f73578182fd5b610f7f86828701610e16565b9150509250925092565b600060208284031215610f9a578081fd5b815167ffffffffffffffff811115610fb0578182fd5b8201601f81018413610fc0578182fd5b8051610fce610e34826111ac565b818152856020838501011115610fe2578384fd5b61034a8260208301602086016111ec565b600060208284031215611004578081fd5b5051919050565b600081518084526110238160208601602086016111ec565b601f017fffffffffffffffffffffffffffffffffffffffffffffffffffffffffffffffe0169290920160200192915050565b606093841b7fffffffffffffffffffffffffffffffffffffffff000000000000000000000000908116825260e89390931b7fffffff0000000000000000000000000000000000000000000000000000000000166014820152921b166017820152602b0190565b73ffffffffffffffffffffffffffffffffffffffff91909116815260200190565b600073ffffffffffffffffffffffffffffffffffffffff8088168352861515602084015285604084015280851660608401525060a0608083015261112360a083018461100b565b979650505050505050565b600060208252611141602083018461100b565b9392505050565b60208082526010908201527f556e6578706563746564206572726f7200000000000000000000000000000000604082015260600190565b90815260200190565b60405181810167ffffffffffffffff811182821017156111a457fe5b604052919050565b600067ffffffffffffffff8211156111c057fe5b50601f017fffffffffffffffffffffffffffffffffffffffffffffffffffffffffffffffe01660200190565b60005b838110156112075781810151838201526020016111ef565b83811115611216576000848401525b50505050565b73ffffffffffffffffffffffffffffffffffffffff8116811461123e57600080fd5b5056fea164736f6c6343000706000a",
  "linkReferences": {},
  "deployedLinkReferences": {}
}