{"contracts/ctf.sol":{"FixedProductMarketMakerFactory":{"abi":[{"inputs":[],"payable":false,"stateMutability":"nonpayable","type":"constructor"},{"anonymous":false,"inputs":[{"indexed":true,"internalType":"address","name":"target","type":"address"},{"indexed":false,"internalType":"address","name":"clone","type":"address"}],"name":"CloneCreated","type":"event"},{"anonymous":false,"inputs":[{"indexed":true,"internalType":"address","name":"buyer","type":"address"},{"indexed":false,"internalType":"uint256","name":"investmentAmount","type":"uint256"},{"indexed":false,"internalType":"uint256","name":"feeAmount","type":"uint256"},{"indexed":true,"internalType":"uint256","name":"outcomeIndex","type":"uint256"},{"indexed":false,"internalType":"uint256","name":"outcomeTokensBought","type":"uint256"}],"name":"FPMMBuy","type":"event"},{"anonymous":false,"inputs":[{"indexed":true,"internalType":"address","name":"funder","type":"address"},{"indexed":false,"internalType":"uint256[]","name":"amountsAdded","type":"uint256[]"},{"indexed":false,"internalType":"uint256","name":"sharesMinted","type":"uint256"}],"name":"FPMMFundingAdded","type":"event"},{"anonymous":false,"inputs":[{"indexed":true,"internalType":"address","name":"funder","type":"address"},{"indexed":false,"internalType":"uint256[]","name":"amountsRemoved","type":"uint256[]"},{"indexed":false,"internalType":"uint256","name":"collateralRemovedFromFeePool","type":"uint256"},{"indexed":false,"internalType":"uint256","name":"sharesBurnt","type":"uint256"}],"name":"FPMMFundingRemoved","type":"event"},{"anonymous":false,"inputs":[{"indexed":true,"internalType":"address","name":"seller","type":"address"},{"indexed":false,"internalType":"uint256","name":"returnAmount","type":"uint256"},{"indexed":false,"internalType":"uint256","name":"feeAmount","type":"uint256"},{"indexed":true,"internalType":"uint256","name":"outcomeIndex","type":"uint256"},{"indexed":false,"internalType":"uint256","name":"outcomeTokensSold","type":"uint256"}],"name":"FPMMSell","type":"event"},{"anonymous":false,"inputs":[{"indexed":true,"internalType":"address","name":"creator","type":"address"},{"indexed":false,"internalType":"contract FixedProductMarketMaker","name":"fixedProductMarketMaker","type":"address"},{"indexed":true,"internalType":"contract ConditionalTokens","name":"conditionalTokens","type":"address"},{"indexed":true,"internalType":"contract IERC20","name":"collateralToken","type":"address"},{"indexed":false,"internalType":"bytes32[]","name":"conditionIds","type":"bytes32[]"},{"indexed":false,"internalType":"uint256","name":"fee","type":"uint256"}],"name":"FixedProductMarketMakerCreation","type":"event"},{"constant":false,"inputs":[{"internalType":"bytes","name":"consData","type":"bytes"}],"name":"cloneConstructor","outputs":[],"payable":false,"stateMutability":"nonpayable","type":"function"},{"constant":false,"inputs":[{"internalType":"contract ConditionalTokens","name":"conditionalTokens","type":"address"},{"internalType":"contract IERC20","name":"collateralToken","type":"address"},{"internalType":"bytes32[]","name":"conditionIds","type":"bytes32[]"},{"internalType":"uint256","name":"fee","type":"uint256"}],"name":"createFixedProductMarketMaker","outputs":[{"internalType":"contract FixedProductMarketMaker","name":"","type":"address"}],"payable":false,"stateMutability":"nonpayable","type":"function"},{"constant":true,"inputs":[],"name":"implementationMaster","outputs":[{"internalType":"contract FixedProductMarketMaker","name":"","type":"address"}],"payable":false,"stateMutability":"view","type":"function"}],"evm":{"bytecode":{"linkReferences":{},"object":"608060405234801561001057600080fd5b5060405161001d9061005f565b604051809103906000f080158015610039573d6000803e3d6000fd5b50600e80546001600160a01b0319166001600160a01b039290921691909117905561006c565b612ccb806115f983390190565b61157e8061007b6000396000f3fe608060405234801561001057600080fd5b50600436106100415760003560e01c806312b4d20c1461004657806323f66e471461006a57806352e831dd146100f3575b600080fd5b61004e610165565b604080516001600160a01b039092168252519081900360200190f35b61004e6004803603608081101561008057600080fd5b6001600160a01b0382358116926020810135909116918101906060810160408201356401000000008111156100b457600080fd5b8201836020820111156100c657600080fd5b803590602001918460208302840111640100000000831117156100e857600080fd5b919350915035610174565b6101636004803603602081101561010957600080fd5b81019060208101813564010000000081111561012457600080fd5b82018360208201111561013657600080fd5b8035906020019184600183028401116401000000008311171561015857600080fd5b5090925090506102cf565b005b600e546001600160a01b031681565b600080610220600e60009054906101000a90046001600160a01b0316888888888860405160200180866001600160a01b03166001600160a01b03168152602001856001600160a01b03166001600160a01b03168152602001806020018381526020018281038252858582818152602001925060200280828437600081840152601f19601f820116905080830192505050965050505050505060405160208183030381529060405261064a565b9050856001600160a01b0316876001600160a01b0316336001600160a01b03167f92e0912d3d7f3192cad5c7ae3b47fb97f9c465c1dd12a5c24fd901ddb3905f438489898960405180856001600160a01b03166001600160a01b03168152602001806020018381526020018281038252858582818152602001925060200280828437600083820152604051601f909101601f191690920182900397509095505050505050a49695505050505050565b60008060606000858560808110156102e657600080fd5b6001600160a01b03823581169260208101359091169181019060608101604082013564010000000081111561031a57600080fd5b82018360208201111561032c57600080fd5b8035906020019184602083028401116401000000008311171561034e57600080fd5b9190808060200260200160405190810160405280939291908181526020018383602002808284376000920182905250600360209081527f28b0ef64f7e82d3b26f3fd404bd0151552f792965f39c29ae82c0a78df67af9c805460ff199081166001908117909255630271189760e51b9093527f1b0a8c8743953bd832c9e1d6a5e52d4143b336fe3e4824afb8e5e7621b19f90b805490931617909155600480546001600160a01b03808d166001600160a01b03199283161790925560058054928c16929091169190911790558451999d50979b50929950509135965061043f95600695890194509250611402915050565b5060078190556006546040805182815260208084028201019091526001918015610473578160200160208202803883390190505b50805161048891600991602090910190611402565b5060005b60065481101561055157600454600680546000926001600160a01b03169163d42dc0c291859081106104ba57fe5b90600052602060002001546040518263ffffffff1660e01b81526004018082815260200191505060206040518083038186803b1580156104f957600080fd5b505afa15801561050d573d6000803e3d6000fd5b505050506040513d602081101561052357600080fd5b5051600980549482029491925082918490811061053c57fe5b6000918252602090912001555060010161048c565b50600181116105a7576040805162461bcd60e51b815260206004820152601860248201527f636f6e646974696f6e73206d7573742062652076616c69640000000000000000604482015290519081900360640190fd5b6006546040805182815260208084028201019091529080156105dd57816020015b60608152602001906001900390816105c85790505b5080516105f291600a9160209091019061144d565b50600654610601906000610819565b600b5481146106415760405162461bcd60e51b81526004018080602001828103825260228152602001806115286022913960400191505060405180910390fd5b50505050505050565b60006060826040516024018080602001828103825283818151815260200191508051906020019080838360005b8381101561068f578181015183820152602001610677565b50505050905090810190601f1680156106bc5780820380516001836020036101000a031916815260200191505b5060408051601f1981840381018252928252602080820180516001600160e01b03166352e831dd60e01b17905281518351606382018082526082909201909516850190910190925295506060945090925090508015610722576020820181803883390190505b507f3d3d606380380380913d393d73bebebebebebebebebebebebebebebebebebebe6020820152600160601b308102602d8301527f5af4602a57600080fd5b602d8060366000396000f3363d3d373d3d3d363d73be6041830152860260608201526e5af43d82803e903d91602b57fd5bf360881b6074820152905060005b82518110156107ee578281815181106107b557fe5b602001015160f81c60f81b8282606301815181106107cf57fe5b60200101906001600160f81b031916908160001a9053506001016107a0565b5080516020820181816000f0945050506001600160a01b03831661081157600080fd5b505092915050565b8161085257600554600b90610837906001600160a01b0316836108ea565b815460018101835560009283526020909220909101556108e6565b81806001900392505060006009838154811061086a57fe5b90600052602060002001549050600a838154811061088457fe5b600091825260208083209091018054600181018255908352908220018390555b818110156108e3576108db846108d685600688815481106108c157fe5b9060005260206000200154856001901b61092e565b610819565b6001016108a4565b50505b5050565b6040805160609390931b6bffffffffffffffffffffffff19166020808501919091526034808501939093528151808503909301835260549093019052805191012090565b6040805160208082018590528183018490528251808303840181526060909201909252805191012060009060ff81901c151582805b60008051602061150883398151915260018508935060008051602061150883398151915260036000805160206115088339815191528087880987090890506109aa81610c5d565b9150806000805160206115088339815191528384091415610963578280156109d3575060028206155b806109ea5750821580156109ea5750600282066001145b15610a0357816000805160206115088339815191520391505b878015610c3a5760fe81901c151593506001600160fe1b031660008051602061150883398151915260036000805160206115088339815191528084850984090891506000610a5083610c5d565b9050848015610a60575060028106155b80610a77575084158015610a775750600281066001145b15610a8d57600080516020611508833981519152035b8260008051602061150883398151915282830914610af2576040805162461bcd60e51b815260206004820152601c60248201527f696e76616c696420706172656e7420636f6c6c656374696f6e20494400000000604482015290519081900360640190fd5b6000606060066001600160a01b031688878686604051602001808581526020018481526020018381526020018281526020019450505050506040516020818303038152906040526040518082805190602001908083835b60208310610b685780518252601f199092019160209182019101610b49565b6001836020036101000a038019825116818451168082178552505050505050905001915050600060405180830381855afa9150503d8060008114610bc8576040519150601f19603f3d011682016040523d82523d6000602084013e610bcd565b606091505b509150915081610c13576040805162461bcd60e51b815260206004820152600c60248201526b1958d859190819985a5b195960a21b604482015290519081900360640190fd5b808060200190516040811015610c2857600080fd5b50805160209091015190985095505050505b6002830660011415610c5057600160fe1b851894505b5092979650505050505050565b6000600080516020611508833981519152808380099150808283098181820990508181840992508183850993508184840992508183840990508181820982818309905082818209905082818209905082818309915082828609945082858609915082828309915082828509935082848509915082828309915082828309915082828509915082828609945082858609915082828309915082828309915082828609915082828509935082848609945082858609915082828309915082828509935082848509915082828309905082818209905082818209905082818309915082828609945082858509935082848509915082828309915082828309915082828609945082858609915082828309915082828609915082828309915082828309915082828609915082828509935082848509915082828309905082818209905082818309905082818509905082818209905082818209905082818209905082818209905082818309915082828609945082858609915082828609915082828509935082848509915082828509915082828309915082828309905082818309905082818209838182099050838182099050838182099050838182099050838183099150508281830991508282860994508285850993508284850991508282860994508285850993508284860994508285850993508284860994508285860991508282860991508282830991508282850993508284850991508282830991508282860994508285850993508284850991508282850991508282860994508285850993508284860994508285850993508284850991508282830991508282850991508282860994508285860991508282860991508282850993508284860994508285850993508284860994508285850993508284850991508282850991508282830991508282860994508285850993508284850991508282850991508282830991508282860994508285860991508282830990508281820990508281830990508281860990508281820990508281820990508281820990508281820990508281830991508282850993508284860994508285850993508284860994508285860991508282860991508282830991508282830991508282830991508282860991508282850993508284850991508282850991508282830991508282860994508285860991508282860991508282850993508284860994508285860991508282830991508282850993508284860994508285860991508282850993508284860994508285850993508284850991508282850991508282860994508285850993508284850991508282850991508282830991508282830991508282860994508285860991508282830991508282830991508282860991508282850993508284860994508285860991508282860990508281820990508281820990508281830991508282850993508284850991508282860994508285850993508284860994508285850993508284860994508285850993508284850991508282850990508281850991508282830991508282830991508282820991505081818509935081848409925081838509935081848409925081838509935081848509905081818509905081818409925050808284099250808384099250808384099250808384099250808384099250808384099250808384099250808384099250808384099250808384099250808384099250808384099250808384099250808384099250808384099250808384099250808384099250808384099250808384099250808384099250808384099250808384099250808384099250808384099250808384099250808384099250808384099250808384099250808384099250808384099250808384099250808384099250808384099250808384099250808384099250808384099250808384099250808384099250808384099250808384099250808384099250808384099250808384099250808384099250808384099250808384099250808384099250808384099250808384099250808384099250808384099250808384099250808384099250808384099250808384099250808384099250808384099250808384099250808384099250808384099250808384099250808384099250808384099250808384099250808384099250808384099250808384099250808384099250808384099250808384099250808384099250808384099250808384099250808384099250808384099250808384099250808384099250808384099250808384099250808384099250808384099250808384099250808384099250808384099250808384099250808384099250808384099250808384099250808384099250808384099250808384099250808384099250808384099250808384099250808384099250808384099250808384099250808384099250808384099250808384099250808384099250808384099250808384099250808384099250808384099250808384099250808384099250808384099250808384099250808384099250808384099250808384099250808384099250808384099250808384099250808384099250808384099250808384099250808384099250808384099250808384099250808384099250808384099250808384099250808384099250808384099250808384099250808383099392505050565b82805482825590600052602060002090810192821561143d579160200282015b8281111561143d578251825591602001919060010190611422565b506114499291506114a6565b5090565b82805482825590600052602060002090810192821561149a579160200282015b8281111561149a578251805161148a918491602090910190611402565b509160200191906001019061146d565b506114499291506114c3565b6114c091905b8082111561144957600081556001016114ac565b90565b6114c091905b808211156114495760006114dd82826114e6565b506001016114c9565b508054600082559060005260206000209081019061150491906114a6565b5056fe30644e72e131a029b85045b68181585d97816a916871ca8d3c208c16d87cfd47706f736974696f6e2049447320636f6e737472756374696f6e206661696c6564213fa265627a7a723158208588dc56ef0cbbd9a70e647a3a7e03e7e59808c8a1836495e9739873b17cc63c64736f6c6343000511003260806040526200001f6301ffc9a760e01b6001600160e01b036200004016565b6200003a630271189760e51b6001600160e01b036200004016565b620000c5565b6001600160e01b03198082161415620000a0576040805162461bcd60e51b815260206004820152601c60248201527f4552433136353a20696e76616c696420696e7465726661636520696400000000604482015290519081900360640190fd5b6001600160e01b0319166000908152600360205260409020805460ff19166001179055565b612bf680620000d56000396000f3fe608060405234801561001057600080fd5b50600436106101585760003560e01c8063a457c2d7116100c3578063d8c55af71161007c578063d8c55af71461056e578063dd62ed3e1461058b578063ddca3f43146105b9578063e03031a6146105c1578063f23a6e61146105de578063f55c79d01461067157610158565b8063a457c2d71461032c578063a9059cbb14610358578063b2016bd414610384578063bc197c811461038c578063d3c9727c146104d0578063d5f15a46146104f957610158565b80633950935111610115578063395093511461026257806340993b261461028e5780634343116a146102b75780635bd9e299146102da57806370a08231146102fe5780639003adfe1461032457610158565b806301ffc9a71461015d578063095ea7b314610198578063164e68de146101c457806316dbd776146101ec57806318160ddd1461022457806323b872dd1461022c575b600080fd5b6101846004803603602081101561017357600080fd5b50356001600160e01b031916610694565b604080519115158252519081900360200190f35b610184600480360360408110156101ae57600080fd5b506001600160a01b0381351690602001356106b3565b6101ea600480360360208110156101da57600080fd5b50356001600160a01b03166106ca565b005b6102126004803603602081101561020257600080fd5b50356001600160a01b0316610838565b60408051918252519081900360200190f35b61021261088c565b6101846004803603606081101561024257600080fd5b506001600160a01b03813581169160208101359091169060400135610892565b6101846004803603604081101561027857600080fd5b506001600160a01b0381351690602001356108e9565b6101ea600480360360608110156102a457600080fd5b5080359060208101359060400135610925565b610212600480360360408110156102cd57600080fd5b5080359060200135610c8b565b6102e2610e62565b604080516001600160a01b039092168252519081900360200190f35b6102126004803603602081101561031457600080fd5b50356001600160a01b0316610e71565b610212610e8c565b6101846004803603604081101561034257600080fd5b506001600160a01b038135169060200135610eaa565b6101846004803603604081101561036e57600080fd5b506001600160a01b038135169060200135610ee6565b6102e2610ef3565b6104b3600480360360a08110156103a257600080fd5b6001600160a01b038235811692602081013590911691810190606081016040820135600160201b8111156103d557600080fd5b8201836020820111156103e757600080fd5b803590602001918460208302840111600160201b8311171561040857600080fd5b919390929091602081019035600160201b81111561042557600080fd5b82018360208201111561043757600080fd5b803590602001918460208302840111600160201b8311171561045857600080fd5b919390929091602081019035600160201b81111561047557600080fd5b82018360208201111561048757600080fd5b803590602001918460018302840111600160201b831117156104a857600080fd5b509092509050610f02565b604080516001600160e01b03199092168252519081900360200190f35b6101ea600480360360608110156104e657600080fd5b5080359060208101359060400135610f46565b6101ea6004803603604081101561050f57600080fd5b81359190810190604081016020820135600160201b81111561053057600080fd5b82018360208201111561054257600080fd5b803590602001918460208302840111600160201b8311171561056357600080fd5b5090925090506111e2565b6102126004803603602081101561058457600080fd5b5035611897565b610212600480360360408110156105a157600080fd5b506001600160a01b03813581169160200135166118b5565b6102126118e0565b6101ea600480360360208110156105d757600080fd5b50356118e6565b6104b3600480360360a08110156105f457600080fd5b6001600160a01b03823581169260208101359091169160408201359160608101359181019060a081016080820135600160201b81111561063357600080fd5b82018360208201111561064557600080fd5b803590602001918460018302840111600160201b8311171561066657600080fd5b509092509050611c3e565b6102126004803603604081101561068757600080fd5b5080359060200135611c6d565b6001600160e01b03191660009081526003602052604090205460ff1690565b60006106c0338484611e0a565b5060015b92915050565b60006106d461088c565b6106ef6106e084610e71565b6008549063ffffffff611ef616565b816106f657fe5b6001600160a01b0384166000908152600c60205260408120549290910492509061072790839063ffffffff611f4f16565b90508015610833576001600160a01b0383166000908152600c60205260409020829055600d5461075d908263ffffffff611f9116565b600d556005546040805163a9059cbb60e01b81526001600160a01b038681166004830152602482018590529151919092169163a9059cbb9160448083019260209291908290030181600087803b1580156107b657600080fd5b505af11580156107ca573d6000803e3d6000fd5b505050506040513d60208110156107e057600080fd5b5051610833576040805162461bcd60e51b815260206004820152601a60248201527f7769746864726177616c207472616e73666572206661696c6564000000000000604482015290519081900360640190fd5b505050565b60008061084361088c565b61084f6106e085610e71565b8161085657fe5b6001600160a01b0385166000908152600c6020526040902054919004915061088590829063ffffffff611f4f16565b9392505050565b60025490565b600061089f848484611feb565b6001600160a01b0384166000908152600160209081526040808320338085529252909120546108df9186916108da908663ffffffff611f4f16565b611e0a565b5060019392505050565b3360008181526001602090815260408083206001600160a01b038716845290915281205490916106c09185906108da908663ffffffff611f9116565b60006109318484611c6d565b905081811015610988576040805162461bcd60e51b815260206004820152601e60248201527f6d696e696d756d2062757920616d6f756e74206e6f7420726561636865640000604482015290519081900360640190fd5b600554604080516323b872dd60e01b81523360048201523060248201526044810187905290516001600160a01b03909216916323b872dd916064808201926020929091908290030181600087803b1580156109e257600080fd5b505af11580156109f6573d6000803e3d6000fd5b505050506040513d6020811015610a0c57600080fd5b5051610a56576040805162461bcd60e51b815260206004820152601460248201527318dbdcdd081d1c985b9cd9995c8819985a5b195960621b604482015290519081900360640190fd5b6000670de0b6b3a7640000610a7660075487611ef690919063ffffffff16565b81610a7d57fe5b049050610a9581600854611f9190919063ffffffff16565b6008556000610aaa868363ffffffff611f4f16565b600554600480546040805163095ea7b360e01b81526001600160a01b039283169381019390935260248301859052519394509091169163095ea7b3916044808201926020929091908290030181600087803b158015610b0857600080fd5b505af1158015610b1c573d6000803e3d6000fd5b505050506040513d6020811015610b3257600080fd5b5051610b85576040805162461bcd60e51b815260206004820152601a60248201527f617070726f76616c20666f722073706c697473206661696c6564000000000000604482015290519081900360640190fd5b610b8e81612138565b600454600b80546001600160a01b039092169163f242432a9130913391908a908110610bb657fe5b6000918252602082200154604080516001600160e01b031960e088901b1681526001600160a01b03958616600482015293909416602484015260448301526064820188905260a0608483015260a48201819052915160e4808301939282900301818387803b158015610c2757600080fd5b505af1158015610c3b573d6000803e3d6000fd5b5050604080518981526020810186905280820187905290518893503392507f4f62630f51608fc8a7603a9391a5101e58bd7c276139366fc107dc3b67c3dcf89181900360600190a3505050505050565b600b546000908210610cdc576040805162461bcd60e51b81526020600482015260156024820152740d2dcecc2d8d2c840deeae8c6dedaca40d2dcc8caf605b1b604482015290519081900360640190fd5b6060610ce66122c7565b90506000610d07600754670de0b6b3a7640000611f4f90919063ffffffff16565b610d1f86670de0b6b3a764000063ffffffff611ef616565b81610d2657fe5b0490506000828581518110610d3757fe5b602002602001015190506000610d5e670de0b6b3a764000083611ef690919063ffffffff16565b905060005b8451811015610dc957868114610dc1576000858281518110610d8157fe5b60200260200101519050610dbd610da18683611f4f90919063ffffffff16565b610db1858463ffffffff611ef616565b9063ffffffff6124d416565b9250505b600101610d63565b5060008111610e1f576040805162461bcd60e51b815260206004820152601b60248201527f6d7573742068617665206e6f6e2d7a65726f2062616c616e6365730000000000604482015290519081900360640190fd5b610e5782610e4b610e3e84670de0b6b3a764000063ffffffff6124d416565b869063ffffffff611f9116565b9063ffffffff611f4f16565b979650505050505050565b6004546001600160a01b031681565b6001600160a01b031660009081526020819052604090205490565b6000610ea5600d54600854611f4f90919063ffffffff16565b905090565b3360008181526001602090815260408083206001600160a01b038716845290915281205490916106c09185906108da908663ffffffff611f4f16565b60006106c0338484611feb565b6005546001600160a01b031681565b60006001600160a01b03891630148015610f2357506001600160a01b038816155b15610f36575063bc197c8160e01b610f3a565b5060005b98975050505050505050565b6000610f528484610c8b565b905081811115610fa9576040805162461bcd60e51b815260206004820152601c60248201527f6d6178696d756d2073656c6c20616d6f756e7420657863656564656400000000604482015290519081900360640190fd5b600454600b80546001600160a01b039092169163f242432a91339130919088908110610fd157fe5b6000918252602082200154604080516001600160e01b031960e088901b1681526001600160a01b03958616600482015293909416602484015260448301526064820186905260a0608483015260a48201819052915160e4808301939282900301818387803b15801561104257600080fd5b505af1158015611056573d6000803e3d6000fd5b505050506000611079600754670de0b6b3a7640000611f4f90919063ffffffff16565b60075461108d90879063ffffffff611ef616565b8161109457fe5b0490506110ac81600854611f9190919063ffffffff16565b60085560006110c1868363ffffffff611f9116565b90506110cc81612504565b6005546040805163a9059cbb60e01b81523360048201526024810189905290516001600160a01b039092169163a9059cbb916044808201926020929091908290030181600087803b15801561112057600080fd5b505af1158015611134573d6000803e3d6000fd5b505050506040513d602081101561114a57600080fd5b5051611196576040805162461bcd60e51b81526020600482015260166024820152751c995d1d5c9b881d1c985b9cd9995c8819985a5b195960521b604482015290519081900360640190fd5b60408051878152602081018490528082018590529051869133917fadcf2a240ed9300d681d9a3f5382b6c1beed1b7e46643e0c7b42cbe6e2d766b49181900360600190a3505050505050565b60008311611237576040805162461bcd60e51b815260206004820152601860248201527f66756e64696e67206d757374206265206e6f6e2d7a65726f0000000000000000604482015290519081900360640190fd5b600b546040805182815260208084028201019091526060918015611265578160200160208202803883390190505b509050600061127261088c565b9050600081156113925783156112b95760405162461bcd60e51b8152600401808060200182810382526032815260200180612b056032913960400191505060405180910390fd5b60606112c36122c7565b90506000805b82518110156112ff5760008382815181106112e057fe5b60200260200101519050808310156112f6578092505b506001016112c9565b5060005b825181101561136f5760008261133585848151811061131e57fe5b60200260200101518c611ef690919063ffffffff16565b8161133c57fe5b04905061134f8a8263ffffffff611f4f16565b87838151811061135b57fe5b602090810291909101015250600101611303565b5080611381898663ffffffff611ef616565b8161138857fe5b04925050506114e1565b83156114de57600b5484146113e0576040805162461bcd60e51b815260206004820152600f60248201526e3434b73a103632b733ba341037b33360891b604482015290519081900360640190fd5b6000805b858110156114185760008787838181106113fa57fe5b9050602002013590508083101561140f578092505b506001016113e4565b5060005b858110156114db5760008261144c89898581811061143657fe5b905060200201358b611ef690919063ffffffff16565b8161145357fe5b049050600081116114ab576040805162461bcd60e51b815260206004820152601e60248201527f6d7573742068696e7420612076616c696420646973747269627574696f6e0000604482015290519081900360640190fd5b6114bb898263ffffffff611f4f16565b8683815181106114c757fe5b60209081029190910101525060010161141c565b50505b50845b600554604080516323b872dd60e01b81523360048201523060248201526044810189905290516001600160a01b03909216916323b872dd916064808201926020929091908290030181600087803b15801561153b57600080fd5b505af115801561154f573d6000803e3d6000fd5b505050506040513d602081101561156557600080fd5b50516115b8576040805162461bcd60e51b815260206004820152601760248201527f66756e64696e67207472616e73666572206661696c6564000000000000000000604482015290519081900360640190fd5b600554600480546040805163095ea7b360e01b81526001600160a01b0392831693810193909352602483018a90525192169163095ea7b3916044808201926020929091908290030181600087803b15801561161257600080fd5b505af1158015611626573d6000803e3d6000fd5b505050506040513d602081101561163c57600080fd5b505161168f576040805162461bcd60e51b815260206004820152601a60248201527f617070726f76616c20666f722073706c697473206661696c6564000000000000604482015290519081900360640190fd5b61169886612138565b6116a2338261267b565b60048054604051631759616b60e11b815230928101838152336024830181905260a060448401908152600b805460a486018190526001600160a01b0390961696632eb2c2d6969095939491938b93916064820191608481019160c4909101908790801561172e57602002820191906000526020600020905b81548152602001906001019080831161171a575b50508481038352855181528551602091820191808801910280838360005b8381101561176457818101518382015260200161174c565b50505050905001848103825260008152602001602001975050505050505050600060405180830381600087803b15801561179d57600080fd5b505af11580156117b1573d6000803e3d6000fd5b506000925050505b8351811015611807576117e88482815181106117d157fe5b602002602001015188611f4f90919063ffffffff16565b8482815181106117f457fe5b60209081029190910101526001016117b9565b50336001600160a01b03167fec2dc3e5a3bb9aa0a1deb905d2bd23640d07f107e6ceb484024501aad964a95184836040518080602001838152602001828103825284818151815260200191508051906020019060200280838360005b8381101561187b578181015183820152602001611863565b50505050905001935050505060405180910390a2505050505050565b600681815481106118a457fe5b600091825260209091200154905081565b6001600160a01b03918216600090815260016020908152604080832093909416825291909152205490565b60075481565b60606118f06122c7565b90506060815160405190808252806020026020018201604052801561191f578160200160208202803883390190505b509050600061192c61088c565b905060005b835181101561198857816119618686848151811061194b57fe5b6020026020010151611ef690919063ffffffff16565b8161196857fe5b0483828151811061197557fe5b6020908102919091010152600101611931565b50600554604080516370a0823160e01b815230600482015290516000926001600160a01b0316916370a08231916024808301926020929190829003018186803b1580156119d457600080fd5b505afa1580156119e8573d6000803e3d6000fd5b505050506040513d60208110156119fe57600080fd5b50519050611a0c3386612777565b600554604080516370a0823160e01b81523060048201529051611a91926001600160a01b0316916370a08231916024808301926020929190829003018186803b158015611a5857600080fd5b505afa158015611a6c573d6000803e3d6000fd5b505050506040513d6020811015611a8257600080fd5b5051829063ffffffff611f4f16565b60048054604051631759616b60e11b815230928101838152336024830181905260a060448401908152600b805460a486018190529798506001600160a01b0390951696632eb2c2d69695929492938b939092916064820191608481019160c49091019087908015611b2157602002820191906000526020600020905b815481526020019060010190808311611b0d575b50508481038352855181528551602091820191808801910280838360005b83811015611b57578181015183820152602001611b3f565b50505050905001848103825260008152602001602001975050505050505050600060405180830381600087803b158015611b9057600080fd5b505af1158015611ba4573d6000803e3d6000fd5b50505050336001600160a01b03167f8b4b2c8ebd04c47fc8bce136a85df9b93fcb1f47c8aa296457d4391519d190e78483886040518080602001848152602001838152602001828103825285818151815260200191508051906020019060200280838360005b83811015611c22578181015183820152602001611c0a565b5050505090500194505050505060405180910390a25050505050565b60006001600160a01b038716301415611c5f575063f23a6e6160e01b611c63565b5060005b9695505050505050565b600b546000908210611cbe576040805162461bcd60e51b81526020600482015260156024820152740d2dcecc2d8d2c840deeae8c6dedaca40d2dcc8caf605b1b604482015290519081900360640190fd5b6060611cc86122c7565b90506000611d03670de0b6b3a7640000611ced60075488611ef690919063ffffffff16565b81611cf457fe5b8791900463ffffffff611f4f16565b90506000828581518110611d1357fe5b602002602001015190506000611d3a670de0b6b3a764000083611ef690919063ffffffff16565b905060005b8451811015611d8957868114611d81576000858281518110611d5d57fe5b60200260200101519050611d7d610da18683611f9190919063ffffffff16565b9250505b600101611d3f565b5060008111611ddf576040805162461bcd60e51b815260206004820152601b60248201527f6d7573742068617665206e6f6e2d7a65726f2062616c616e6365730000000000604482015290519081900360640190fd5b610e57611dfa82670de0b6b3a764000063ffffffff6124d416565b610e4b848663ffffffff611f9116565b6001600160a01b038316611e4f5760405162461bcd60e51b8152600401808060200182810382526024815260200180612b9e6024913960400191505060405180910390fd5b6001600160a01b038216611e945760405162461bcd60e51b8152600401808060200182810382526022815260200180612ae36022913960400191505060405180910390fd5b6001600160a01b03808416600081815260016020908152604080832094871680845294825291829020859055815185815291517f8c5be1e5ebec7d5bd14f71427d1e84f3dd0314c0f7b2291e5b200ac8c7c3b9259281900390910190a3505050565b600082611f05575060006106c4565b82820282848281611f1257fe5b04146108855760405162461bcd60e51b8152600401808060200182810382526021815260200180612b376021913960400191505060405180910390fd5b600061088583836040518060400160405280601e81526020017f536166654d6174683a207375627472616374696f6e206f766572666c6f770000815250612865565b600082820183811015610885576040805162461bcd60e51b815260206004820152601b60248201527f536166654d6174683a206164646974696f6e206f766572666c6f770000000000604482015290519081900360640190fd5b6001600160a01b0383166120305760405162461bcd60e51b8152600401808060200182810382526025815260200180612b796025913960400191505060405180910390fd5b6001600160a01b0382166120755760405162461bcd60e51b8152600401808060200182810382526023815260200180612ac06023913960400191505060405180910390fd5b6120808383836128fc565b6001600160a01b0383166000908152602081905260409020546120a9908263ffffffff611f4f16565b6001600160a01b0380851660009081526020819052604080822093909355908416815220546120de908263ffffffff611f9116565b6001600160a01b038084166000818152602081815260409182902094909455805185815290519193928716927fddf252ad1be2c89b69c2b068fc378daa952ba7f163c4a11628f55a4df523b3ef92918290030190a3505050565b600654600019015b600081126122c357606061216a6009838154811061215a57fe5b9060005260206000200154612a5b565b905060005b600a838154811061217c57fe5b6000918252602090912001548110156122b857600454600554600a80546001600160a01b03938416936372ce427593169190879081106121b857fe5b9060005260206000200184815481106121cd57fe5b9060005260206000200154600687815481106121e557fe5b906000526020600020015486896040518663ffffffff1660e01b815260040180866001600160a01b03166001600160a01b0316815260200185815260200184815260200180602001838152602001828103825284818151815260200191508051906020019060200280838360005b8381101561226b578181015183820152602001612253565b505050509050019650505050505050600060405180830381600087803b15801561229457600080fd5b505af11580156122a8573d6000803e3d6000fd5b50506001909201915061216f9050565b505060001901612140565b5050565b606080600b805490506040519080825280602002602001820160405280156122f9578160200160208202803883390190505b50905060005b600b54811015612336573082828151811061231657fe5b6001600160a01b03909216602092830291909101909101526001016122ff565b5060048054604080516313849cfd60e21b81529283019081528351604484015283516001600160a01b0390921692634e1273f4928592600b929091829160248101916064909101906020808801910280838360005b838110156123a357818101518382015260200161238b565b5050505090500183810382528481815481526020019150805480156123e757602002820191906000526020600020905b8154815260200190600101908083116123d3575b505094505050505060006040518083038186803b15801561240757600080fd5b505afa15801561241b573d6000803e3d6000fd5b505050506040513d6000823e601f3d908101601f19168201604052602081101561244457600080fd5b8101908080516040519392919084600160201b82111561246357600080fd5b90830190602082018581111561247857600080fd5b82518660208202830111600160201b8211171561249457600080fd5b82525081516020918201928201910280838360005b838110156124c15781810151838201526020016124a9565b5050505090500160405250505091505090565b600082156124f3578160018403816124e857fe5b0460010190506106c4565b8183816124fc57fe5b049392505050565b60005b6006548110156122c35760606125236009838154811061215a57fe5b905060005b600a838154811061253557fe5b60009182526020909120015481101561267157600454600554600a80546001600160a01b0393841693639e7212ad931691908790811061257157fe5b90600052602060002001848154811061258657fe5b90600052602060002001546006878154811061259e57fe5b906000526020600020015486896040518663ffffffff1660e01b815260040180866001600160a01b03166001600160a01b0316815260200185815260200184815260200180602001838152602001828103825284818151815260200191508051906020019060200280838360005b8381101561262457818101518382015260200161260c565b505050509050019650505050505050600060405180830381600087803b15801561264d57600080fd5b505af1158015612661573d6000803e3d6000fd5b5050600190920191506125289050565b5050600101612507565b6001600160a01b0382166126d6576040805162461bcd60e51b815260206004820152601f60248201527f45524332303a206d696e7420746f20746865207a65726f206164647265737300604482015290519081900360640190fd5b6126e2600083836128fc565b6002546126f5908263ffffffff611f9116565b6002556001600160a01b038216600090815260208190526040902054612721908263ffffffff611f9116565b6001600160a01b0383166000818152602081815260408083209490945583518581529351929391927fddf252ad1be2c89b69c2b068fc378daa952ba7f163c4a11628f55a4df523b3ef9281900390910190a35050565b6001600160a01b0382166127bc5760405162461bcd60e51b8152600401808060200182810382526021815260200180612b586021913960400191505060405180910390fd5b6127c8826000836128fc565b6001600160a01b0382166000908152602081905260409020546127f1908263ffffffff611f4f16565b6001600160a01b03831660009081526020819052604090205560025461281d908263ffffffff611f4f16565b6002556040805182815290516000916001600160a01b038516917fddf252ad1be2c89b69c2b068fc378daa952ba7f163c4a11628f55a4df523b3ef9181900360200190a35050565b600081848411156128f45760405162461bcd60e51b81526004018080602001828103825283818151815260200191508051906020019080838360005b838110156128b95781810151838201526020016128a1565b50505050905090810190601f1680156128e65780820380516001836020036101000a031916815260200191505b509250505060405180910390fd5b505050900390565b6001600160a01b0383161561291457612914836106ca565b600061291e61088c565b90506000811561294a57600854829061293d908563ffffffff611ef616565b8161294457fe5b0461294c565b825b90506001600160a01b038516156129ba576001600160a01b0385166000908152600c6020526040902054612986908263ffffffff611f4f16565b6001600160a01b0386166000908152600c6020526040902055600d546129b2908263ffffffff611f4f16565b600d556129d1565b6008546129cd908263ffffffff611f9116565b6008555b6001600160a01b03841615612a3d576001600160a01b0384166000908152600c6020526040902054612a09908263ffffffff611f9116565b6001600160a01b0385166000908152600c6020526040902055600d54612a35908263ffffffff611f9116565b600d55612a54565b600854612a50908263ffffffff611f4f16565b6008555b5050505050565b606081604051908082528060200260200182016040528015612a87578160200160208202803883390190505b50905060005b82811015612ab957806001901b828281518110612aa657fe5b6020908102919091010152600101612a8d565b5091905056fe45524332303a207472616e7366657220746f20746865207a65726f206164647265737345524332303a20617070726f766520746f20746865207a65726f206164647265737363616e6e6f742075736520646973747269627574696f6e2068696e7420616674657220696e697469616c2066756e64696e67536166654d6174683a206d756c7469706c69636174696f6e206f766572666c6f7745524332303a206275726e2066726f6d20746865207a65726f206164647265737345524332303a207472616e736665722066726f6d20746865207a65726f206164647265737345524332303a20617070726f76652066726f6d20746865207a65726f2061646472657373a265627a7a72315820e1698895c2ad89374cfd92af16bb47a76de5aa8dd8e88c02250453be37680bed64736f6c63430005110032","opcodes":"PUSH1 0x80 PUSH1 0x40 MSTORE CALLVALUE DUP1 ISZERO PUSH2 0x10 JUMPI PUSH1 0x0 DUP1 REVERT JUMPDEST POP PUSH1 0x40 MLOAD PUSH2 0x1D SWAP1 PUSH2 0x5F JUMP JUMPDEST PUSH1 0x40 MLOAD DUP1 SWAP2 SUB SWAP1 PUSH1 0x0 CREATE DUP1 ISZERO DUP1 ISZERO PUSH2 0x39 JUMPI RETURNDATASIZE PUSH1 0x0 DUP1 RETURNDATACOPY RETURNDATASIZE PUSH1 0x0 REVERT JUMPDEST POP PUSH1 0xE DUP1 SLOAD PUSH1 0x1 PUSH1 0x1 PUSH1 0xA0 SHL SUB NOT AND PUSH1 0x1 PUSH1 0x1 PUSH1 0xA0 SHL SUB SWAP3 SWAP1 SWAP3 AND SWAP2 SWAP1 SWAP2 OR SWAP1 SSTORE PUSH2 0x6C JUMP JUMPDEST PUSH2 0x2CCB DUP1 PUSH2 0x15F9 DUP4 CODECOPY ADD SWAP1 JUMP JUMPDEST PUSH2 0x157E DUP1 PUSH2 0x7B PUSH1 0x0 CODECOPY PUSH1 0x0 RETURN INVALID PUSH1 0x80 PUSH1 0x40 MSTORE CALLVALUE DUP1 ISZERO PUSH2 0x10 JUMPI PUSH1 0x0 DUP1 REVERT JUMPDEST POP PUSH1 0x4 CALLDATASIZE LT PUSH2 0x41 JUMPI PUSH1 0x0 CALLDATALOAD PUSH1 0xE0 SHR DUP1 PUSH4 0x12B4D20C EQ PUSH2 0x46 JUMPI DUP1 PUSH4 0x23F66E47 EQ PUSH2 0x6A JUMPI DUP1 PUSH4 0x52E831DD EQ PUSH2 0xF3 JUMPI JUMPDEST PUSH1 0x0 DUP1 REVERT JUMPDEST PUSH2 0x4E PUSH2 0x165 JUMP JUMPDEST PUSH1 0x40 DUP1 MLOAD PUSH1 0x1 PUSH1 0x1 PUSH1 0xA0 SHL SUB SWAP1 SWAP3 AND DUP3 MSTORE MLOAD SWAP1 DUP2 SWAP1 SUB PUSH1 0x20 ADD SWAP1 RETURN JUMPDEST PUSH2 0x4E PUSH1 0x4 DUP1 CALLDATASIZE SUB PUSH1 0x80 DUP2 LT ISZERO PUSH2 0x80 JUMPI PUSH1 0x0 DUP1 REVERT JUMPDEST PUSH1 0x1 PUSH1 0x1 PUSH1 0xA0 SHL SUB DUP3 CALLDATALOAD DUP2 AND SWAP3 PUSH1 0x20 DUP2 ADD CALLDATALOAD SWAP1 SWAP2 AND SWAP2 DUP2 ADD SWAP1 PUSH1 0x60 DUP2 ADD PUSH1 0x40 DUP3 ADD CALLDATALOAD PUSH5 0x100000000 DUP2 GT ISZERO PUSH2 0xB4 JUMPI PUSH1 0x0 DUP1 REVERT JUMPDEST DUP3 ADD DUP4 PUSH1 0x20 DUP3 ADD GT ISZERO PUSH2 0xC6 JUMPI PUSH1 0x0 DUP1 REVERT JUMPDEST DUP1 CALLDATALOAD SWAP1 PUSH1 0x20 ADD SWAP2 DUP5 PUSH1 0x20 DUP4 MUL DUP5 ADD GT PUSH5 0x100000000 DUP4 GT OR ISZERO PUSH2 0xE8 JUMPI PUSH1 0x0 DUP1 REVERT JUMPDEST SWAP2 SWAP4 POP SWAP2 POP CALLDATALOAD PUSH2 0x174 JUMP JUMPDEST PUSH2 0x163 PUSH1 0x4 DUP1 CALLDATASIZE SUB PUSH1 0x20 DUP2 LT ISZERO PUSH2 0x109 JUMPI PUSH1 0x0 DUP1 REVERT JUMPDEST DUP2 ADD SWAP1 PUSH1 0x20 DUP2 ADD DUP2 CALLDATALOAD PUSH5 0x100000000 DUP2 GT ISZERO PUSH2 0x124 JUMPI PUSH1 0x0 DUP1 REVERT JUMPDEST DUP3 ADD DUP4 PUSH1 0x20 DUP3 ADD GT ISZERO PUSH2 0x136 JUMPI PUSH1 0x0 DUP1 REVERT JUMPDEST DUP1 CALLDATALOAD SWAP1 PUSH1 0x20 ADD SWAP2 DUP5 PUSH1 0x1 DUP4 MUL DUP5 ADD GT PUSH5 0x100000000 DUP4 GT OR ISZERO PUSH2 0x158 JUMPI PUSH1 0x0 DUP1 REVERT JUMPDEST POP SWAP1 SWAP3 POP SWAP1 POP PUSH2 0x2CF JUMP JUMPDEST STOP JUMPDEST PUSH1 0xE SLOAD PUSH1 0x1 PUSH1 0x1 PUSH1 0xA0 SHL SUB AND DUP2 JUMP JUMPDEST PUSH1 0x0 DUP1 PUSH2 0x220 PUSH1 0xE PUSH1 0x0 SWAP1 SLOAD SWAP1 PUSH2 0x100 EXP SWAP1 DIV PUSH1 0x1 PUSH1 0x1 PUSH1 0xA0 SHL SUB AND DUP9 DUP9 DUP9 DUP9 DUP9 PUSH1 0x40 MLOAD PUSH1 0x20 ADD DUP1 DUP7 PUSH1 0x1 PUSH1 0x1 PUSH1 0xA0 SHL SUB AND PUSH1 0x1 PUSH1 0x1 PUSH1 0xA0 SHL SUB AND DUP2 MSTORE PUSH1 0x20 ADD DUP6 PUSH1 0x1 PUSH1 0x1 PUSH1 0xA0 SHL SUB AND PUSH1 0x1 PUSH1 0x1 PUSH1 0xA0 SHL SUB AND DUP2 MSTORE PUSH1 0x20 ADD DUP1 PUSH1 0x20 ADD DUP4 DUP2 MSTORE PUSH1 0x20 ADD DUP3 DUP2 SUB DUP3 MSTORE DUP6 DUP6 DUP3 DUP2 DUP2 MSTORE PUSH1 0x20 ADD SWAP3 POP PUSH1 0x20 MUL DUP1 DUP3 DUP5 CALLDATACOPY PUSH1 0x0 DUP2 DUP5 ADD MSTORE PUSH1 0x1F NOT PUSH1 0x1F DUP3 ADD AND SWAP1 POP DUP1 DUP4 ADD SWAP3 POP POP POP SWAP7 POP POP POP POP POP POP POP PUSH1 0x40 MLOAD PUSH1 0x20 DUP2 DUP4 SUB SUB DUP2 MSTORE SWAP1 PUSH1 0x40 MSTORE PUSH2 0x64A JUMP JUMPDEST SWAP1 POP DUP6 PUSH1 0x1 PUSH1 0x1 PUSH1 0xA0 SHL SUB AND DUP8 PUSH1 0x1 PUSH1 0x1 PUSH1 0xA0 SHL SUB AND CALLER PUSH1 0x1 PUSH1 0x1 PUSH1 0xA0 SHL SUB AND PUSH32 0x92E0912D3D7F3192CAD5C7AE3B47FB97F9C465C1DD12A5C24FD901DDB3905F43 DUP5 DUP10 DUP10 DUP10 PUSH1 0x40 MLOAD DUP1 DUP6 PUSH1 0x1 PUSH1 0x1 PUSH1 0xA0 SHL SUB AND PUSH1 0x1 PUSH1 0x1 PUSH1 0xA0 SHL SUB AND DUP2 MSTORE PUSH1 0x20 ADD DUP1 PUSH1 0x20 ADD DUP4 DUP2 MSTORE PUSH1 0x20 ADD DUP3 DUP2 SUB DUP3 MSTORE DUP6 DUP6 DUP3 DUP2 DUP2 MSTORE PUSH1 0x20 ADD SWAP3 POP PUSH1 0x20 MUL DUP1 DUP3 DUP5 CALLDATACOPY PUSH1 0x0 DUP4 DUP3 ADD MSTORE PUSH1 0x40 MLOAD PUSH1 0x1F SWAP1 SWAP2 ADD PUSH1 0x1F NOT AND SWAP1 SWAP3 ADD DUP3 SWAP1 SUB SWAP8 POP SWAP1 SWAP6 POP POP POP POP POP POP LOG4 SWAP7 SWAP6 POP POP POP POP POP POP JUMP JUMPDEST PUSH1 0x0 DUP1 PUSH1 0x60 PUSH1 0x0 DUP6 DUP6 PUSH1 0x80 DUP2 LT ISZERO PUSH2 0x2E6 JUMPI PUSH1 0x0 DUP1 REVERT JUMPDEST PUSH1 0x1 PUSH1 0x1 PUSH1 0xA0 SHL SUB DUP3 CALLDATALOAD DUP2 AND SWAP3 PUSH1 0x20 DUP2 ADD CALLDATALOAD SWAP1 SWAP2 AND SWAP2 DUP2 ADD SWAP1 PUSH1 0x60 DUP2 ADD PUSH1 0x40 DUP3 ADD CALLDATALOAD PUSH5 0x100000000 DUP2 GT ISZERO PUSH2 0x31A JUMPI PUSH1 0x0 DUP1 REVERT JUMPDEST DUP3 ADD DUP4 PUSH1 0x20 DUP3 ADD GT ISZERO PUSH2 0x32C JUMPI PUSH1 0x0 DUP1 REVERT JUMPDEST DUP1 CALLDATALOAD SWAP1 PUSH1 0x20 ADD SWAP2 DUP5 PUSH1 0x20 DUP4 MUL DUP5 ADD GT PUSH5 0x100000000 DUP4 GT OR ISZERO PUSH2 0x34E JUMPI PUSH1 0x0 DUP1 REVERT JUMPDEST SWAP2 SWAP1 DUP1 DUP1 PUSH1 0x20 MUL PUSH1 0x20 ADD PUSH1 0x40 MLOAD SWAP1 DUP2 ADD PUSH1 0x40 MSTORE DUP1 SWAP4 SWAP3 SWAP2 SWAP1 DUP2 DUP2 MSTORE PUSH1 0x20 ADD DUP4 DUP4 PUSH1 0x20 MUL DUP1 DUP3 DUP5 CALLDATACOPY PUSH1 0x0 SWAP3 ADD DUP3 SWAP1 MSTORE POP PUSH1 0x3 PUSH1 0x20 SWAP1 DUP2 MSTORE PUSH32 0x28B0EF64F7E82D3B26F3FD404BD0151552F792965F39C29AE82C0A78DF67AF9C DUP1 SLOAD PUSH1 0xFF NOT SWAP1 DUP2 AND PUSH1 0x1 SWAP1 DUP2 OR SWAP1 SWAP3 SSTORE PUSH4 0x2711897 PUSH1 0xE5 SHL SWAP1 SWAP4 MSTORE PUSH32 0x1B0A8C8743953BD832C9E1D6A5E52D4143B336FE3E4824AFB8E5E7621B19F90B DUP1 SLOAD SWAP1 SWAP4 AND OR SWAP1 SWAP2 SSTORE PUSH1 0x4 DUP1 SLOAD PUSH1 0x1 PUSH1 0x1 PUSH1 0xA0 SHL SUB DUP1 DUP14 AND PUSH1 0x1 PUSH1 0x1 PUSH1 0xA0 SHL SUB NOT SWAP3 DUP4 AND OR SWAP1 SWAP3 SSTORE PUSH1 0x5 DUP1 SLOAD SWAP3 DUP13 AND SWAP3 SWAP1 SWAP2 AND SWAP2 SWAP1 SWAP2 OR SWAP1 SSTORE DUP5 MLOAD SWAP10 SWAP14 POP SWAP8 SWAP12 POP SWAP3 SWAP10 POP POP SWAP2 CALLDATALOAD SWAP7 POP PUSH2 0x43F SWAP6 PUSH1 0x6 SWAP6 DUP10 ADD SWAP5 POP SWAP3 POP PUSH2 0x1402 SWAP2 POP POP JUMP JUMPDEST POP PUSH1 0x7 DUP2 SWAP1 SSTORE PUSH1 0x6 SLOAD PUSH1 0x40 DUP1 MLOAD DUP3 DUP2 MSTORE PUSH1 0x20 DUP1 DUP5 MUL DUP3 ADD ADD SWAP1 SWAP2 MSTORE PUSH1 0x1 SWAP2 DUP1 ISZERO PUSH2 0x473 JUMPI DUP2 PUSH1 0x20 ADD PUSH1 0x20 DUP3 MUL DUP1 CODESIZE DUP4 CODECOPY ADD SWAP1 POP JUMPDEST POP DUP1 MLOAD PUSH2 0x488 SWAP2 PUSH1 0x9 SWAP2 PUSH1 0x20 SWAP1 SWAP2 ADD SWAP1 PUSH2 0x1402 JUMP JUMPDEST POP PUSH1 0x0 JUMPDEST PUSH1 0x6 SLOAD DUP2 LT ISZERO PUSH2 0x551 JUMPI PUSH1 0x4 SLOAD PUSH1 0x6 DUP1 SLOAD PUSH1 0x0 SWAP3 PUSH1 0x1 PUSH1 0x1 PUSH1 0xA0 SHL SUB AND SWAP2 PUSH4 0xD42DC0C2 SWAP2 DUP6 SWAP1 DUP2 LT PUSH2 0x4BA JUMPI INVALID JUMPDEST SWAP1 PUSH1 0x0 MSTORE PUSH1 0x20 PUSH1 0x0 KECCAK256 ADD SLOAD PUSH1 0x40 MLOAD DUP3 PUSH4 0xFFFFFFFF AND PUSH1 0xE0 SHL DUP2 MSTORE PUSH1 0x4 ADD DUP1 DUP3 DUP2 MSTORE PUSH1 0x20 ADD SWAP2 POP POP PUSH1 0x20 PUSH1 0x40 MLOAD DUP1 DUP4 SUB DUP2 DUP7 DUP1 EXTCODESIZE ISZERO DUP1 ISZERO PUSH2 0x4F9 JUMPI PUSH1 0x0 DUP1 REVERT JUMPDEST POP GAS STATICCALL ISZERO DUP1 ISZERO PUSH2 0x50D JUMPI RETURNDATASIZE PUSH1 0x0 DUP1 RETURNDATACOPY RETURNDATASIZE PUSH1 0x0 REVERT JUMPDEST POP POP POP POP PUSH1 0x40 MLOAD RETURNDATASIZE PUSH1 0x20 DUP2 LT ISZERO PUSH2 0x523 JUMPI PUSH1 0x0 DUP1 REVERT JUMPDEST POP MLOAD PUSH1 0x9 DUP1 SLOAD SWAP5 DUP3 MUL SWAP5 SWAP2 SWAP3 POP DUP3 SWAP2 DUP5 SWAP1 DUP2 LT PUSH2 0x53C JUMPI INVALID JUMPDEST PUSH1 0x0 SWAP2 DUP3 MSTORE PUSH1 0x20 SWAP1 SWAP2 KECCAK256 ADD SSTORE POP PUSH1 0x1 ADD PUSH2 0x48C JUMP JUMPDEST POP PUSH1 0x1 DUP2 GT PUSH2 0x5A7 JUMPI PUSH1 0x40 DUP1 MLOAD PUSH3 0x461BCD PUSH1 0xE5 SHL DUP2 MSTORE PUSH1 0x20 PUSH1 0x4 DUP3 ADD MSTORE PUSH1 0x18 PUSH1 0x24 DUP3 ADD MSTORE PUSH32 0x636F6E646974696F6E73206D7573742062652076616C69640000000000000000 PUSH1 0x44 DUP3 ADD MSTORE SWAP1 MLOAD SWAP1 DUP2 SWAP1 SUB PUSH1 0x64 ADD SWAP1 REVERT JUMPDEST PUSH1 0x6 SLOAD PUSH1 0x40 DUP1 MLOAD DUP3 DUP2 MSTORE PUSH1 0x20 DUP1 DUP5 MUL DUP3 ADD ADD SWAP1 SWAP2 MSTORE SWAP1 DUP1 ISZERO PUSH2 0x5DD JUMPI DUP2 PUSH1 0x20 ADD JUMPDEST PUSH1 0x60 DUP2 MSTORE PUSH1 0x20 ADD SWAP1 PUSH1 0x1 SWAP1 SUB SWAP1 DUP2 PUSH2 0x5C8 JUMPI SWAP1 POP JUMPDEST POP DUP1 MLOAD PUSH2 0x5F2 SWAP2 PUSH1 0xA SWAP2 PUSH1 0x20 SWAP1 SWAP2 ADD SWAP1 PUSH2 0x144D JUMP JUMPDEST POP PUSH1 0x6 SLOAD PUSH2 0x601 SWAP1 PUSH1 0x0 PUSH2 0x819 JUMP JUMPDEST PUSH1 0xB SLOAD DUP2 EQ PUSH2 0x641 JUMPI PUSH1 0x40 MLOAD PUSH3 0x461BCD PUSH1 0xE5 SHL DUP2 MSTORE PUSH1 0x4 ADD DUP1 DUP1 PUSH1 0x20 ADD DUP3 DUP2 SUB DUP3 MSTORE PUSH1 0x22 DUP2 MSTORE PUSH1 0x20 ADD DUP1 PUSH2 0x1528 PUSH1 0x22 SWAP2 CODECOPY PUSH1 0x40 ADD SWAP2 POP POP PUSH1 0x40 MLOAD DUP1 SWAP2 SUB SWAP1 REVERT JUMPDEST POP POP POP POP POP POP POP JUMP JUMPDEST PUSH1 0x0 PUSH1 0x60 DUP3 PUSH1 0x40 MLOAD PUSH1 0x24 ADD DUP1 DUP1 PUSH1 0x20 ADD DUP3 DUP2 SUB DUP3 MSTORE DUP4 DUP2 DUP2 MLOAD DUP2 MSTORE PUSH1 0x20 ADD SWAP2 POP DUP1 MLOAD SWAP1 PUSH1 0x20 ADD SWAP1 DUP1 DUP4 DUP4 PUSH1 0x0 JUMPDEST DUP4 DUP2 LT ISZERO PUSH2 0x68F JUMPI DUP2 DUP2 ADD MLOAD DUP4 DUP3 ADD MSTORE PUSH1 0x20 ADD PUSH2 0x677 JUMP JUMPDEST POP POP POP POP SWAP1 POP SWAP1 DUP2 ADD SWAP1 PUSH1 0x1F AND DUP1 ISZERO PUSH2 0x6BC JUMPI DUP1 DUP3 SUB DUP1 MLOAD PUSH1 0x1 DUP4 PUSH1 0x20 SUB PUSH2 0x100 EXP SUB NOT AND DUP2 MSTORE PUSH1 0x20 ADD SWAP2 POP JUMPDEST POP PUSH1 0x40 DUP1 MLOAD PUSH1 0x1F NOT DUP2 DUP5 SUB DUP2 ADD DUP3 MSTORE SWAP3 DUP3 MSTORE PUSH1 0x20 DUP1 DUP3 ADD DUP1 MLOAD PUSH1 0x1 PUSH1 0x1 PUSH1 0xE0 SHL SUB AND PUSH4 0x52E831DD PUSH1 0xE0 SHL OR SWAP1 MSTORE DUP2 MLOAD DUP4 MLOAD PUSH1 0x63 DUP3 ADD DUP1 DUP3 MSTORE PUSH1 0x82 SWAP1 SWAP3 ADD SWAP1 SWAP6 AND DUP6 ADD SWAP1 SWAP2 ADD SWAP1 SWAP3 MSTORE SWAP6 POP PUSH1 0x60 SWAP5 POP SWAP1 SWAP3 POP SWAP1 POP DUP1 ISZERO PUSH2 0x722 JUMPI PUSH1 0x20 DUP3 ADD DUP2 DUP1 CODESIZE DUP4 CODECOPY ADD SWAP1 POP JUMPDEST POP PUSH32 0x3D3D606380380380913D393D73BEBEBEBEBEBEBEBEBEBEBEBEBEBEBEBEBEBEBE PUSH1 0x20 DUP3 ADD MSTORE PUSH1 0x1 PUSH1 0x60 SHL ADDRESS DUP2 MUL PUSH1 0x2D DUP4 ADD MSTORE PUSH32 0x5AF4602A57600080FD5B602D8060366000396000F3363D3D373D3D3D363D73BE PUSH1 0x41 DUP4 ADD MSTORE DUP7 MUL PUSH1 0x60 DUP3 ADD MSTORE PUSH15 0x5AF43D82803E903D91602B57FD5BF3 PUSH1 0x88 SHL PUSH1 0x74 DUP3 ADD MSTORE SWAP1 POP PUSH1 0x0 JUMPDEST DUP3 MLOAD DUP2 LT ISZERO PUSH2 0x7EE JUMPI DUP3 DUP2 DUP2 MLOAD DUP2 LT PUSH2 0x7B5 JUMPI INVALID JUMPDEST PUSH1 0x20 ADD ADD MLOAD PUSH1 0xF8 SHR PUSH1 0xF8 SHL DUP3 DUP3 PUSH1 0x63 ADD DUP2 MLOAD DUP2 LT PUSH2 0x7CF JUMPI INVALID JUMPDEST PUSH1 0x20 ADD ADD SWAP1 PUSH1 0x1 PUSH1 0x1 PUSH1 0xF8 SHL SUB NOT AND SWAP1 DUP2 PUSH1 0x0 BYTE SWAP1 MSTORE8 POP PUSH1 0x1 ADD PUSH2 0x7A0 JUMP JUMPDEST POP DUP1 MLOAD PUSH1 0x20 DUP3 ADD DUP2 DUP2 PUSH1 0x0 CREATE SWAP5 POP POP POP PUSH1 0x1 PUSH1 0x1 PUSH1 0xA0 SHL SUB DUP4 AND PUSH2 0x811 JUMPI PUSH1 0x0 DUP1 REVERT JUMPDEST POP POP SWAP3 SWAP2 POP POP JUMP JUMPDEST DUP2 PUSH2 0x852 JUMPI PUSH1 0x5 SLOAD PUSH1 0xB SWAP1 PUSH2 0x837 SWAP1 PUSH1 0x1 PUSH1 0x1 PUSH1 0xA0 SHL SUB AND DUP4 PUSH2 0x8EA JUMP JUMPDEST DUP2 SLOAD PUSH1 0x1 DUP2 ADD DUP4 SSTORE PUSH1 0x0 SWAP3 DUP4 MSTORE PUSH1 0x20 SWAP1 SWAP3 KECCAK256 SWAP1 SWAP2 ADD SSTORE PUSH2 0x8E6 JUMP JUMPDEST DUP2 DUP1 PUSH1 0x1 SWAP1 SUB SWAP3 POP POP PUSH1 0x0 PUSH1 0x9 DUP4 DUP2 SLOAD DUP2 LT PUSH2 0x86A JUMPI INVALID JUMPDEST SWAP1 PUSH1 0x0 MSTORE PUSH1 0x20 PUSH1 0x0 KECCAK256 ADD SLOAD SWAP1 POP PUSH1 0xA DUP4 DUP2 SLOAD DUP2 LT PUSH2 0x884 JUMPI INVALID JUMPDEST PUSH1 0x0 SWAP2 DUP3 MSTORE PUSH1 0x20 DUP1 DUP4 KECCAK256 SWAP1 SWAP2 ADD DUP1 SLOAD PUSH1 0x1 DUP2 ADD DUP3 SSTORE SWAP1 DUP4 MSTORE SWAP1 DUP3 KECCAK256 ADD DUP4 SWAP1 SSTORE JUMPDEST DUP2 DUP2 LT ISZERO PUSH2 0x8E3 JUMPI PUSH2 0x8DB DUP5 PUSH2 0x8D6 DUP6 PUSH1 0x6 DUP9 DUP2 SLOAD DUP2 LT PUSH2 0x8C1 JUMPI INVALID JUMPDEST SWAP1 PUSH1 0x0 MSTORE PUSH1 0x20 PUSH1 0x0 KECCAK256 ADD SLOAD DUP6 PUSH1 0x1 SWAP1 SHL PUSH2 0x92E JUMP JUMPDEST PUSH2 0x819 JUMP JUMPDEST PUSH1 0x1 ADD PUSH2 0x8A4 JUMP JUMPDEST POP POP JUMPDEST POP POP JUMP JUMPDEST PUSH1 0x40 DUP1 MLOAD PUSH1 0x60 SWAP4 SWAP1 SWAP4 SHL PUSH12 0xFFFFFFFFFFFFFFFFFFFFFFFF NOT AND PUSH1 0x20 DUP1 DUP6 ADD SWAP2 SWAP1 SWAP2 MSTORE PUSH1 0x34 DUP1 DUP6 ADD SWAP4 SWAP1 SWAP4 MSTORE DUP2 MLOAD DUP1 DUP6 SUB SWAP1 SWAP4 ADD DUP4 MSTORE PUSH1 0x54 SWAP1 SWAP4 ADD SWAP1 MSTORE DUP1 MLOAD SWAP2 ADD KECCAK256 SWAP1 JUMP JUMPDEST PUSH1 0x40 DUP1 MLOAD PUSH1 0x20 DUP1 DUP3 ADD DUP6 SWAP1 MSTORE DUP2 DUP4 ADD DUP5 SWAP1 MSTORE DUP3 MLOAD DUP1 DUP4 SUB DUP5 ADD DUP2 MSTORE PUSH1 0x60 SWAP1 SWAP3 ADD SWAP1 SWAP3 MSTORE DUP1 MLOAD SWAP2 ADD KECCAK256 PUSH1 0x0 SWAP1 PUSH1 0xFF DUP2 SWAP1 SHR ISZERO ISZERO DUP3 DUP1 JUMPDEST PUSH1 0x0 DUP1 MLOAD PUSH1 0x20 PUSH2 0x1508 DUP4 CODECOPY DUP2 MLOAD SWAP2 MSTORE PUSH1 0x1 DUP6 ADDMOD SWAP4 POP PUSH1 0x0 DUP1 MLOAD PUSH1 0x20 PUSH2 0x1508 DUP4 CODECOPY DUP2 MLOAD SWAP2 MSTORE PUSH1 0x3 PUSH1 0x0 DUP1 MLOAD PUSH1 0x20 PUSH2 0x1508 DUP4 CODECOPY DUP2 MLOAD SWAP2 MSTORE DUP1 DUP8 DUP9 MULMOD DUP8 MULMOD ADDMOD SWAP1 POP PUSH2 0x9AA DUP2 PUSH2 0xC5D JUMP JUMPDEST SWAP2 POP DUP1 PUSH1 0x0 DUP1 MLOAD PUSH1 0x20 PUSH2 0x1508 DUP4 CODECOPY DUP2 MLOAD SWAP2 MSTORE DUP4 DUP5 MULMOD EQ ISZERO PUSH2 0x963 JUMPI DUP3 DUP1 ISZERO PUSH2 0x9D3 JUMPI POP PUSH1 0x2 DUP3 MOD ISZERO JUMPDEST DUP1 PUSH2 0x9EA JUMPI POP DUP3 ISZERO DUP1 ISZERO PUSH2 0x9EA JUMPI POP PUSH1 0x2 DUP3 MOD PUSH1 0x1 EQ JUMPDEST ISZERO PUSH2 0xA03 JUMPI DUP2 PUSH1 0x0 DUP1 MLOAD PUSH1 0x20 PUSH2 0x1508 DUP4 CODECOPY DUP2 MLOAD SWAP2 MSTORE SUB SWAP2 POP JUMPDEST DUP8 DUP1 ISZERO PUSH2 0xC3A JUMPI PUSH1 0xFE DUP2 SWAP1 SHR ISZERO ISZERO SWAP4 POP PUSH1 0x1 PUSH1 0x1 PUSH1 0xFE SHL SUB AND PUSH1 0x0 DUP1 MLOAD PUSH1 0x20 PUSH2 0x1508 DUP4 CODECOPY DUP2 MLOAD SWAP2 MSTORE PUSH1 0x3 PUSH1 0x0 DUP1 MLOAD PUSH1 0x20 PUSH2 0x1508 DUP4 CODECOPY DUP2 MLOAD SWAP2 MSTORE DUP1 DUP5 DUP6 MULMOD DUP5 MULMOD ADDMOD SWAP2 POP PUSH1 0x0 PUSH2 0xA50 DUP4 PUSH2 0xC5D JUMP JUMPDEST SWAP1 POP DUP5 DUP1 ISZERO PUSH2 0xA60 JUMPI POP PUSH1 0x2 DUP2 MOD ISZERO JUMPDEST DUP1 PUSH2 0xA77 JUMPI POP DUP5 ISZERO DUP1 ISZERO PUSH2 0xA77 JUMPI POP PUSH1 0x2 DUP2 MOD PUSH1 0x1 EQ JUMPDEST ISZERO PUSH2 0xA8D JUMPI PUSH1 0x0 DUP1 MLOAD PUSH1 0x20 PUSH2 0x1508 DUP4 CODECOPY DUP2 MLOAD SWAP2 MSTORE SUB JUMPDEST DUP3 PUSH1 0x0 DUP1 MLOAD PUSH1 0x20 PUSH2 0x1508 DUP4 CODECOPY DUP2 MLOAD SWAP2 MSTORE DUP3 DUP4 MULMOD EQ PUSH2 0xAF2 JUMPI PUSH1 0x40 DUP1 MLOAD PUSH3 0x461BCD PUSH1 0xE5 SHL DUP2 MSTORE PUSH1 0x20 PUSH1 0x4 DUP3 ADD MSTORE PUSH1 0x1C PUSH1 0x24 DUP3 ADD MSTORE PUSH32 0x696E76616C696420706172656E7420636F6C6C656374696F6E20494400000000 PUSH1 0x44 DUP3 ADD MSTORE SWAP1 MLOAD SWAP1 DUP2 SWAP1 SUB PUSH1 0x64 ADD SWAP1 REVERT JUMPDEST PUSH1 0x0 PUSH1 0x60 PUSH1 0x6 PUSH1 0x1 PUSH1 0x1 PUSH1 0xA0 SHL SUB AND DUP9 DUP8 DUP7 DUP7 PUSH1 0x40 MLOAD PUSH1 0x20 ADD DUP1 DUP6 DUP2 MSTORE PUSH1 0x20 ADD DUP5 DUP2 MSTORE PUSH1 0x20 ADD DUP4 DUP2 MSTORE PUSH1 0x20 ADD DUP3 DUP2 MSTORE PUSH1 0x20 ADD SWAP5 POP POP POP POP POP PUSH1 0x40 MLOAD PUSH1 0x20 DUP2 DUP4 SUB SUB DUP2 MSTORE SWAP1 PUSH1 0x40 MSTORE PUSH1 0x40 MLOAD DUP1 DUP3 DUP1 MLOAD SWAP1 PUSH1 0x20 ADD SWAP1 DUP1 DUP4 DUP4 JUMPDEST PUSH1 0x20 DUP4 LT PUSH2 0xB68 JUMPI DUP1 MLOAD DUP3 MSTORE PUSH1 0x1F NOT SWAP1 SWAP3 ADD SWAP2 PUSH1 0x20 SWAP2 DUP3 ADD SWAP2 ADD PUSH2 0xB49 JUMP JUMPDEST PUSH1 0x1 DUP4 PUSH1 0x20 SUB PUSH2 0x100 EXP SUB DUP1 NOT DUP3 MLOAD AND DUP2 DUP5 MLOAD AND DUP1 DUP3 OR DUP6 MSTORE POP POP POP POP POP POP SWAP1 POP ADD SWAP2 POP POP PUSH1 0x0 PUSH1 0x40 MLOAD DUP1 DUP4 SUB DUP2 DUP6 GAS STATICCALL SWAP2 POP POP RETURNDATASIZE DUP1 PUSH1 0x0 DUP2 EQ PUSH2 0xBC8 JUMPI PUSH1 0x40 MLOAD SWAP2 POP PUSH1 0x1F NOT PUSH1 0x3F RETURNDATASIZE ADD AND DUP3 ADD PUSH1 0x40 MSTORE RETURNDATASIZE DUP3 MSTORE RETURNDATASIZE PUSH1 0x0 PUSH1 0x20 DUP5 ADD RETURNDATACOPY PUSH2 0xBCD JUMP JUMPDEST PUSH1 0x60 SWAP2 POP JUMPDEST POP SWAP2 POP SWAP2 POP DUP2 PUSH2 0xC13 JUMPI PUSH1 0x40 DUP1 MLOAD PUSH3 0x461BCD PUSH1 0xE5 SHL DUP2 MSTORE PUSH1 0x20 PUSH1 0x4 DUP3 ADD MSTORE PUSH1 0xC PUSH1 0x24 DUP3 ADD MSTORE PUSH12 0x1958D859190819985A5B1959 PUSH1 0xA2 SHL PUSH1 0x44 DUP3 ADD MSTORE SWAP1 MLOAD SWAP1 DUP2 SWAP1 SUB PUSH1 0x64 ADD SWAP1 REVERT JUMPDEST DUP1 DUP1 PUSH1 0x20 ADD SWAP1 MLOAD PUSH1 0x40 DUP2 LT ISZERO PUSH2 0xC28 JUMPI PUSH1 0x0 DUP1 REVERT JUMPDEST POP DUP1 MLOAD PUSH1 0x20 SWAP1 SWAP2 ADD MLOAD SWAP1 SWAP9 POP SWAP6 POP POP POP POP JUMPDEST PUSH1 0x2 DUP4 MOD PUSH1 0x1 EQ ISZERO PUSH2 0xC50 JUMPI PUSH1 0x1 PUSH1 0xFE SHL DUP6 XOR SWAP5 POP JUMPDEST POP SWAP3 SWAP8 SWAP7 POP POP POP POP POP POP POP JUMP JUMPDEST PUSH1 0x0 PUSH1 0x0 DUP1 MLOAD PUSH1 0x20 PUSH2 0x1508 DUP4 CODECOPY DUP2 MLOAD SWAP2 MSTORE DUP1 DUP4 DUP1 MULMOD SWAP2 POP DUP1 DUP3 DUP4 MULMOD DUP2 DUP2 DUP3 MULMOD SWAP1 POP DUP2 DUP2 DUP5 MULMOD SWAP3 POP DUP2 DUP4 DUP6 MULMOD SWAP4 POP DUP2 DUP5 DUP5 MULMOD SWAP3 POP DUP2 DUP4 DUP5 MULMOD SWAP1 POP DUP2 DUP2 DUP3 MULMOD DUP3 DUP2 DUP4 MULMOD SWAP1 POP DUP3 DUP2 DUP3 MULMOD SWAP1 POP DUP3 DUP2 DUP3 MULMOD SWAP1 POP DUP3 DUP2 DUP4 MULMOD SWAP2 POP DUP3 DUP3 DUP7 MULMOD SWAP5 POP DUP3 DUP6 DUP7 MULMOD SWAP2 POP DUP3 DUP3 DUP4 MULMOD SWAP2 POP DUP3 DUP3 DUP6 MULMOD SWAP4 POP DUP3 DUP5 DUP6 MULMOD SWAP2 POP DUP3 DUP3 DUP4 MULMOD SWAP2 POP DUP3 DUP3 DUP4 MULMOD SWAP2 POP DUP3 DUP3 DUP6 MULMOD SWAP2 POP DUP3 DUP3 DUP7 MULMOD SWAP5 POP DUP3 DUP6 DUP7 MULMOD SWAP2 POP DUP3 DUP3 DUP4 MULMOD SWAP2 POP DUP3 DUP3 DUP4 MULMOD SWAP2 POP DUP3 DUP3 DUP7 MULMOD SWAP2 POP DUP3 DUP3 DUP6 MULMOD SWAP4 POP DUP3 DUP5 DUP7 MULMOD SWAP5 POP DUP3 DUP6 DUP7 MULMOD SWAP2 POP DUP3 DUP3 DUP4 MULMOD SWAP2 POP DUP3 DUP3 DUP6 MULMOD SWAP4 POP DUP3 DUP5 DUP6 MULMOD SWAP2 POP DUP3 DUP3 DUP4 MULMOD SWAP1 POP DUP3 DUP2 DUP3 MULMOD SWAP1 POP DUP3 DUP2 DUP3 MULMOD SWAP1 POP DUP3 DUP2 DUP4 MULMOD SWAP2 POP DUP3 DUP3 DUP7 MULMOD SWAP5 POP DUP3 DUP6 DUP6 MULMOD SWAP4 POP DUP3 DUP5 DUP6 MULMOD SWAP2 POP DUP3 DUP3 DUP4 MULMOD SWAP2 POP DUP3 DUP3 DUP4 MULMOD SWAP2 POP DUP3 DUP3 DUP7 MULMOD SWAP5 POP DUP3 DUP6 DUP7 MULMOD SWAP2 POP DUP3 DUP3 DUP4 MULMOD SWAP2 POP DUP3 DUP3 DUP7 MULMOD SWAP2 POP DUP3 DUP3 DUP4 MULMOD SWAP2 POP DUP3 DUP3 DUP4 MULMOD SWAP2 POP DUP3 DUP3 DUP7 MULMOD SWAP2 POP DUP3 DUP3 DUP6 MULMOD SWAP4 POP DUP3 DUP5 DUP6 MULMOD SWAP2 POP DUP3 DUP3 DUP4 MULMOD SWAP1 POP DUP3 DUP2 DUP3 MULMOD SWAP1 POP DUP3 DUP2 DUP4 MULMOD SWAP1 POP DUP3 DUP2 DUP6 MULMOD SWAP1 POP DUP3 DUP2 DUP3 MULMOD SWAP1 POP DUP3 DUP2 DUP3 MULMOD SWAP1 POP DUP3 DUP2 DUP3 MULMOD SWAP1 POP DUP3 DUP2 DUP3 MULMOD SWAP1 POP DUP3 DUP2 DUP4 MULMOD SWAP2 POP DUP3 DUP3 DUP7 MULMOD SWAP5 POP DUP3 DUP6 DUP7 MULMOD SWAP2 POP DUP3 DUP3 DUP7 MULMOD SWAP2 POP DUP3 DUP3 DUP6 MULMOD SWAP4 POP DUP3 DUP5 DUP6 MULMOD SWAP2 POP DUP3 DUP3 DUP6 MULMOD SWAP2 POP DUP3 DUP3 DUP4 MULMOD SWAP2 POP DUP3 DUP3 DUP4 MULMOD SWAP1 POP DUP3 DUP2 DUP4 MULMOD SWAP1 POP DUP3 DUP2 DUP3 MULMOD DUP4 DUP2 DUP3 MULMOD SWAP1 POP DUP4 DUP2 DUP3 MULMOD SWAP1 POP DUP4 DUP2 DUP3 MULMOD SWAP1 POP DUP4 DUP2 DUP3 MULMOD SWAP1 POP DUP4 DUP2 DUP4 MULMOD SWAP2 POP POP DUP3 DUP2 DUP4 MULMOD SWAP2 POP DUP3 DUP3 DUP7 MULMOD SWAP5 POP DUP3 DUP6 DUP6 MULMOD SWAP4 POP DUP3 DUP5 DUP6 MULMOD SWAP2 POP DUP3 DUP3 DUP7 MULMOD SWAP5 POP DUP3 DUP6 DUP6 MULMOD SWAP4 POP DUP3 DUP5 DUP7 MULMOD SWAP5 POP DUP3 DUP6 DUP6 MULMOD SWAP4 POP DUP3 DUP5 DUP7 MULMOD SWAP5 POP DUP3 DUP6 DUP7 MULMOD SWAP2 POP DUP3 DUP3 DUP7 MULMOD SWAP2 POP DUP3 DUP3 DUP4 MULMOD SWAP2 POP DUP3 DUP3 DUP6 MULMOD SWAP4 POP DUP3 DUP5 DUP6 MULMOD SWAP2 POP DUP3 DUP3 DUP4 MULMOD SWAP2 POP DUP3 DUP3 DUP7 MULMOD SWAP5 POP DUP3 DUP6 DUP6 MULMOD SWAP4 POP DUP3 DUP5 DUP6 MULMOD SWAP2 POP DUP3 DUP3 DUP6 MULMOD SWAP2 POP DUP3 DUP3 DUP7 MULMOD SWAP5 POP DUP3 DUP6 DUP6 MULMOD SWAP4 POP DUP3 DUP5 DUP7 MULMOD SWAP5 POP DUP3 DUP6 DUP6 MULMOD SWAP4 POP DUP3 DUP5 DUP6 MULMOD SWAP2 POP DUP3 DUP3 DUP4 MULMOD SWAP2 POP DUP3 DUP3 DUP6 MULMOD SWAP2 POP DUP3 DUP3 DUP7 MULMOD SWAP5 POP DUP3 DUP6 DUP7 MULMOD SWAP2 POP DUP3 DUP3 DUP7 MULMOD SWAP2 POP DUP3 DUP3 DUP6 MULMOD SWAP4 POP DUP3 DUP5 DUP7 MULMOD SWAP5 POP DUP3 DUP6 DUP6 MULMOD SWAP4 POP DUP3 DUP5 DUP7 MULMOD SWAP5 POP DUP3 DUP6 DUP6 MULMOD SWAP4 POP DUP3 DUP5 DUP6 MULMOD SWAP2 POP DUP3 DUP3 DUP6 MULMOD SWAP2 POP DUP3 DUP3 DUP4 MULMOD SWAP2 POP DUP3 DUP3 DUP7 MULMOD SWAP5 POP DUP3 DUP6 DUP6 MULMOD SWAP4 POP DUP3 DUP5 DUP6 MULMOD SWAP2 POP DUP3 DUP3 DUP6 MULMOD SWAP2 POP DUP3 DUP3 DUP4 MULMOD SWAP2 POP DUP3 DUP3 DUP7 MULMOD SWAP5 POP DUP3 DUP6 DUP7 MULMOD SWAP2 POP DUP3 DUP3 DUP4 MULMOD SWAP1 POP DUP3 DUP2 DUP3 MULMOD SWAP1 POP DUP3 DUP2 DUP4 MULMOD SWAP1 POP DUP3 DUP2 DUP7 MULMOD SWAP1 POP DUP3 DUP2 DUP3 MULMOD SWAP1 POP DUP3 DUP2 DUP3 MULMOD SWAP1 POP DUP3 DUP2 DUP3 MULMOD SWAP1 POP DUP3 DUP2 DUP3 MULMOD SWAP1 POP DUP3 DUP2 DUP4 MULMOD SWAP2 POP DUP3 DUP3 DUP6 MULMOD SWAP4 POP DUP3 DUP5 DUP7 MULMOD SWAP5 POP DUP3 DUP6 DUP6 MULMOD SWAP4 POP DUP3 DUP5 DUP7 MULMOD SWAP5 POP DUP3 DUP6 DUP7 MULMOD SWAP2 POP DUP3 DUP3 DUP7 MULMOD SWAP2 POP DUP3 DUP3 DUP4 MULMOD SWAP2 POP DUP3 DUP3 DUP4 MULMOD SWAP2 POP DUP3 DUP3 DUP4 MULMOD SWAP2 POP DUP3 DUP3 DUP7 MULMOD SWAP2 POP DUP3 DUP3 DUP6 MULMOD SWAP4 POP DUP3 DUP5 DUP6 MULMOD SWAP2 POP DUP3 DUP3 DUP6 MULMOD SWAP2 POP DUP3 DUP3 DUP4 MULMOD SWAP2 POP DUP3 DUP3 DUP7 MULMOD SWAP5 POP DUP3 DUP6 DUP7 MULMOD SWAP2 POP DUP3 DUP3 DUP7 MULMOD SWAP2 POP DUP3 DUP3 DUP6 MULMOD SWAP4 POP DUP3 DUP5 DUP7 MULMOD SWAP5 POP DUP3 DUP6 DUP7 MULMOD SWAP2 POP DUP3 DUP3 DUP4 MULMOD SWAP2 POP DUP3 DUP3 DUP6 MULMOD SWAP4 POP DUP3 DUP5 DUP7 MULMOD SWAP5 POP DUP3 DUP6 DUP7 MULMOD SWAP2 POP DUP3 DUP3 DUP6 MULMOD SWAP4 POP DUP3 DUP5 DUP7 MULMOD SWAP5 POP DUP3 DUP6 DUP6 MULMOD SWAP4 POP DUP3 DUP5 DUP6 MULMOD SWAP2 POP DUP3 DUP3 DUP6 MULMOD SWAP2 POP DUP3 DUP3 DUP7 MULMOD SWAP5 POP DUP3 DUP6 DUP6 MULMOD SWAP4 POP DUP3 DUP5 DUP6 MULMOD SWAP2 POP DUP3 DUP3 DUP6 MULMOD SWAP2 POP DUP3 DUP3 DUP4 MULMOD SWAP2 POP DUP3 DUP3 DUP4 MULMOD SWAP2 POP DUP3 DUP3 DUP7 MULMOD SWAP5 POP DUP3 DUP6 DUP7 MULMOD SWAP2 POP DUP3 DUP3 DUP4 MULMOD SWAP2 POP DUP3 DUP3 DUP4 MULMOD SWAP2 POP DUP3 DUP3 DUP7 MULMOD SWAP2 POP DUP3 DUP3 DUP6 MULMOD SWAP4 POP DUP3 DUP5 DUP7 MULMOD SWAP5 POP DUP3 DUP6 DUP7 MULMOD SWAP2 POP DUP3 DUP3 DUP7 MULMOD SWAP1 POP DUP3 DUP2 DUP3 MULMOD SWAP1 POP DUP3 DUP2 DUP3 MULMOD SWAP1 POP DUP3 DUP2 DUP4 MULMOD SWAP2 POP DUP3 DUP3 DUP6 MULMOD SWAP4 POP DUP3 DUP5 DUP6 MULMOD SWAP2 POP DUP3 DUP3 DUP7 MULMOD SWAP5 POP DUP3 DUP6 DUP6 MULMOD SWAP4 POP DUP3 DUP5 DUP7 MULMOD SWAP5 POP DUP3 DUP6 DUP6 MULMOD SWAP4 POP DUP3 DUP5 DUP7 MULMOD SWAP5 POP DUP3 DUP6 DUP6 MULMOD SWAP4 POP DUP3 DUP5 DUP6 MULMOD SWAP2 POP DUP3 DUP3 DUP6 MULMOD SWAP1 POP DUP3 DUP2 DUP6 MULMOD SWAP2 POP DUP3 DUP3 DUP4 MULMOD SWAP2 POP DUP3 DUP3 DUP4 MULMOD SWAP2 POP DUP3 DUP3 DUP3 MULMOD SWAP2 POP POP DUP2 DUP2 DUP6 MULMOD SWAP4 POP DUP2 DUP5 DUP5 MULMOD SWAP3 POP DUP2 DUP4 DUP6 MULMOD SWAP4 POP DUP2 DUP5 DUP5 MULMOD SWAP3 POP DUP2 DUP4 DUP6 MULMOD SWAP4 POP DUP2 DUP5 DUP6 MULMOD SWAP1 POP DUP2 DUP2 DUP6 MULMOD SWAP1 POP DUP2 DUP2 DUP5 MULMOD SWAP3 POP POP DUP1 DUP3 DUP5 MULMOD SWAP3 POP DUP1 DUP4 DUP5 MULMOD SWAP3 POP DUP1 DUP4 DUP5 MULMOD SWAP3 POP DUP1 DUP4 DUP5 MULMOD SWAP3 POP DUP1 DUP4 DUP5 MULMOD SWAP3 POP DUP1 DUP4 DUP5 MULMOD SWAP3 POP DUP1 DUP4 DUP5 MULMOD SWAP3 POP DUP1 DUP4 DUP5 MULMOD SWAP3 POP DUP1 DUP4 DUP5 MULMOD SWAP3 POP DUP1 DUP4 DUP5 MULMOD SWAP3 POP DUP1 DUP4 DUP5 MULMOD SWAP3 POP DUP1 DUP4 DUP5 MULMOD SWAP3 POP DUP1 DUP4 DUP5 MULMOD SWAP3 POP DUP1 DUP4 DUP5 MULMOD SWAP3 POP DUP1 DUP4 DUP5 MULMOD SWAP3 POP DUP1 DUP4 DUP5 MULMOD SWAP3 POP DUP1 DUP4 DUP5 MULMOD SWAP3 POP DUP1 DUP4 DUP5 MULMOD SWAP3 POP DUP1 DUP4 DUP5 MULMOD SWAP3 POP DUP1 DUP4 DUP5 MULMOD SWAP3 POP DUP1 DUP4 DUP5 MULMOD SWAP3 POP DUP1 DUP4 DUP5 MULMOD SWAP3 POP DUP1 DUP4 DUP5 MULMOD SWAP3 POP DUP1 DUP4 DUP5 MULMOD SWAP3 POP DUP1 DUP4 DUP5 MULMOD SWAP3 POP DUP1 DUP4 DUP5 MULMOD SWAP3 POP DUP1 DUP4 DUP5 MULMOD SWAP3 POP DUP1 DUP4 DUP5 MULMOD SWAP3 POP DUP1 DUP4 DUP5 MULMOD SWAP3 POP DUP1 DUP4 DUP5 MULMOD SWAP3 POP DUP1 DUP4 DUP5 MULMOD SWAP3 POP DUP1 DUP4 DUP5 MULMOD SWAP3 POP DUP1 DUP4 DUP5 MULMOD SWAP3 POP DUP1 DUP4 DUP5 MULMOD SWAP3 POP DUP1 DUP4 DUP5 MULMOD SWAP3 POP DUP1 DUP4 DUP5 MULMOD SWAP3 POP DUP1 DUP4 DUP5 MULMOD SWAP3 POP DUP1 DUP4 DUP5 MULMOD SWAP3 POP DUP1 DUP4 DUP5 MULMOD SWAP3 POP DUP1 DUP4 DUP5 MULMOD SWAP3 POP DUP1 DUP4 DUP5 MULMOD SWAP3 POP DUP1 DUP4 DUP5 MULMOD SWAP3 POP DUP1 DUP4 DUP5 MULMOD SWAP3 POP DUP1 DUP4 DUP5 MULMOD SWAP3 POP DUP1 DUP4 DUP5 MULMOD SWAP3 POP DUP1 DUP4 DUP5 MULMOD SWAP3 POP DUP1 DUP4 DUP5 MULMOD SWAP3 POP DUP1 DUP4 DUP5 MULMOD SWAP3 POP DUP1 DUP4 DUP5 MULMOD SWAP3 POP DUP1 DUP4 DUP5 MULMOD SWAP3 POP DUP1 DUP4 DUP5 MULMOD SWAP3 POP DUP1 DUP4 DUP5 MULMOD SWAP3 POP DUP1 DUP4 DUP5 MULMOD SWAP3 POP DUP1 DUP4 DUP5 MULMOD SWAP3 POP DUP1 DUP4 DUP5 MULMOD SWAP3 POP DUP1 DUP4 DUP5 MULMOD SWAP3 POP DUP1 DUP4 DUP5 MULMOD SWAP3 POP DUP1 DUP4 DUP5 MULMOD SWAP3 POP DUP1 DUP4 DUP5 MULMOD SWAP3 POP DUP1 DUP4 DUP5 MULMOD SWAP3 POP DUP1 DUP4 DUP5 MULMOD SWAP3 POP DUP1 DUP4 DUP5 MULMOD SWAP3 POP DUP1 DUP4 DUP5 MULMOD SWAP3 POP DUP1 DUP4 DUP5 MULMOD SWAP3 POP DUP1 DUP4 DUP5 MULMOD SWAP3 POP DUP1 DUP4 DUP5 MULMOD SWAP3 POP DUP1 DUP4 DUP5 MULMOD SWAP3 POP DUP1 DUP4 DUP5 MULMOD SWAP3 POP DUP1 DUP4 DUP5 MULMOD SWAP3 POP DUP1 DUP4 DUP5 MULMOD SWAP3 POP DUP1 DUP4 DUP5 MULMOD SWAP3 POP DUP1 DUP4 DUP5 MULMOD SWAP3 POP DUP1 DUP4 DUP5 MULMOD SWAP3 POP DUP1 DUP4 DUP5 MULMOD SWAP3 POP DUP1 DUP4 DUP5 MULMOD SWAP3 POP DUP1 DUP4 DUP5 MULMOD SWAP3 POP DUP1 DUP4 DUP5 MULMOD SWAP3 POP DUP1 DUP4 DUP5 MULMOD SWAP3 POP DUP1 DUP4 DUP5 MULMOD SWAP3 POP DUP1 DUP4 DUP5 MULMOD SWAP3 POP DUP1 DUP4 DUP5 MULMOD SWAP3 POP DUP1 DUP4 DUP5 MULMOD SWAP3 POP DUP1 DUP4 DUP5 MULMOD SWAP3 POP DUP1 DUP4 DUP5 MULMOD SWAP3 POP DUP1 DUP4 DUP5 MULMOD SWAP3 POP DUP1 DUP4 DUP5 MULMOD SWAP3 POP DUP1 DUP4 DUP5 MULMOD SWAP3 POP DUP1 DUP4 DUP5 MULMOD SWAP3 POP DUP1 DUP4 DUP5 MULMOD SWAP3 POP DUP1 DUP4 DUP5 MULMOD SWAP3 POP DUP1 DUP4 DUP5 MULMOD SWAP3 POP DUP1 DUP4 DUP5 MULMOD SWAP3 POP DUP1 DUP4 DUP5 MULMOD SWAP3 POP DUP1 DUP4 DUP5 MULMOD SWAP3 POP DUP1 DUP4 DUP5 MULMOD SWAP3 POP DUP1 DUP4 DUP5 MULMOD SWAP3 POP DUP1 DUP4 DUP5 MULMOD SWAP3 POP DUP1 DUP4 DUP5 MULMOD SWAP3 POP DUP1 DUP4 DUP5 MULMOD SWAP3 POP DUP1 DUP4 DUP5 MULMOD SWAP3 POP DUP1 DUP4 DUP5 MULMOD SWAP3 POP DUP1 DUP4 DUP5 MULMOD SWAP3 POP DUP1 DUP4 DUP5 MULMOD SWAP3 POP DUP1 DUP4 DUP5 MULMOD SWAP3 POP DUP1 DUP4 DUP5 MULMOD SWAP3 POP DUP1 DUP4 DUP5 MULMOD SWAP3 POP DUP1 DUP4 DUP5 MULMOD SWAP3 POP DUP1 DUP4 DUP5 MULMOD SWAP3 POP DUP1 DUP4 DUP5 MULMOD SWAP3 POP DUP1 DUP4 DUP5 MULMOD SWAP3 POP DUP1 DUP4 DUP5 MULMOD SWAP3 POP DUP1 DUP4 DUP5 MULMOD SWAP3 POP DUP1 DUP4 DUP5 MULMOD SWAP3 POP DUP1 DUP4 DUP5 MULMOD SWAP3 POP DUP1 DUP4 DUP5 MULMOD SWAP3 POP DUP1 DUP4 DUP5 MULMOD SWAP3 POP DUP1 DUP4 DUP5 MULMOD SWAP3 POP DUP1 DUP4 DUP5 MULMOD SWAP3 POP DUP1 DUP4 DUP5 MULMOD SWAP3 POP DUP1 DUP4 DUP5 MULMOD SWAP3 POP DUP1 DUP4 DUP5 MULMOD SWAP3 POP DUP1 DUP4 DUP5 MULMOD SWAP3 POP DUP1 DUP4 DUP5 MULMOD SWAP3 POP DUP1 DUP4 DUP5 MULMOD SWAP3 POP DUP1 DUP4 DUP5 MULMOD SWAP3 POP DUP1 DUP4 DUP5 MULMOD SWAP3 POP DUP1 DUP4 DUP5 MULMOD SWAP3 POP DUP1 DUP4 DUP4 MULMOD SWAP4 SWAP3 POP POP POP JUMP JUMPDEST DUP3 DUP1 SLOAD DUP3 DUP3 SSTORE SWAP1 PUSH1 0x0 MSTORE PUSH1 0x20 PUSH1 0x0 KECCAK256 SWAP1 DUP2 ADD SWAP3 DUP3 ISZERO PUSH2 0x143D JUMPI SWAP2 PUSH1 0x20 MUL DUP3 ADD JUMPDEST DUP3 DUP2 GT ISZERO PUSH2 0x143D JUMPI DUP3 MLOAD DUP3 SSTORE SWAP2 PUSH1 0x20 ADD SWAP2 SWAP1 PUSH1 0x1 ADD SWAP1 PUSH2 0x1422 JUMP JUMPDEST POP PUSH2 0x1449 SWAP3 SWAP2 POP PUSH2 0x14A6 JUMP JUMPDEST POP SWAP1 JUMP JUMPDEST DUP3 DUP1 SLOAD DUP3 DUP3 SSTORE SWAP1 PUSH1 0x0 MSTORE PUSH1 0x20 PUSH1 0x0 KECCAK256 SWAP1 DUP2 ADD SWAP3 DUP3 ISZERO PUSH2 0x149A JUMPI SWAP2 PUSH1 0x20 MUL DUP3 ADD JUMPDEST DUP3 DUP2 GT ISZERO PUSH2 0x149A JUMPI DUP3 MLOAD DUP1 MLOAD PUSH2 0x148A SWAP2 DUP5 SWAP2 PUSH1 0x20 SWAP1 SWAP2 ADD SWAP1 PUSH2 0x1402 JUMP JUMPDEST POP SWAP2 PUSH1 0x20 ADD SWAP2 SWAP1 PUSH1 0x1 ADD SWAP1 PUSH2 0x146D JUMP JUMPDEST POP PUSH2 0x1449 SWAP3 SWAP2 POP PUSH2 0x14C3 JUMP JUMPDEST PUSH2 0x14C0 SWAP2 SWAP1 JUMPDEST DUP1 DUP3 GT ISZERO PUSH2 0x1449 JUMPI PUSH1 0x0 DUP2 SSTORE PUSH1 0x1 ADD PUSH2 0x14AC JUMP JUMPDEST SWAP1 JUMP JUMPDEST PUSH2 0x14C0 SWAP2 SWAP1 JUMPDEST DUP1 DUP3 GT ISZERO PUSH2 0x1449 JUMPI PUSH1 0x0 PUSH2 0x14DD DUP3 DUP3 PUSH2 0x14E6 JUMP JUMPDEST POP PUSH1 0x1 ADD PUSH2 0x14C9 JUMP JUMPDEST POP DUP1 SLOAD PUSH1 0x0 DUP3 SSTORE SWAP1 PUSH1 0x0 MSTORE PUSH1 0x20 PUSH1 0x0 KECCAK256 SWAP1 DUP2 ADD SWAP1 PUSH2 0x1504 SWAP2 SWAP1 PUSH2 0x14A6 JUMP JUMPDEST POP JUMP INVALID ADDRESS PUSH5 0x4E72E131A0 0x29 0xB8 POP GASLIMIT 0xB6 DUP2 DUP2 PC 0x5D SWAP8 DUP2 PUSH11 0x916871CA8D3C208C16D87C REVERT SELFBALANCE PUSH17 0x6F736974696F6E2049447320636F6E7374 PUSH19 0x756374696F6E206661696C6564213FA265627A PUSH27 0x723158208588DC56EF0CBBD9A70E647A3A7E03E7E59808C8A18364 SWAP6 0xE9 PUSH20 0x9873B17CC63C64736F6C63430005110032608060 BLOCKHASH MSTORE PUSH3 0x1F PUSH4 0x1FFC9A7 PUSH1 0xE0 SHL PUSH1 0x1 PUSH1 0x1 PUSH1 0xE0 SHL SUB PUSH3 0x40 AND JUMP JUMPDEST PUSH3 0x3A PUSH4 0x2711897 PUSH1 0xE5 SHL PUSH1 0x1 PUSH1 0x1 PUSH1 0xE0 SHL SUB PUSH3 0x40 AND JUMP JUMPDEST PUSH3 0xC5 JUMP JUMPDEST PUSH1 0x1 PUSH1 0x1 PUSH1 0xE0 SHL SUB NOT DUP1 DUP3 AND EQ ISZERO PUSH3 0xA0 JUMPI PUSH1 0x40 DUP1 MLOAD PUSH3 0x461BCD PUSH1 0xE5 SHL DUP2 MSTORE PUSH1 0x20 PUSH1 0x4 DUP3 ADD MSTORE PUSH1 0x1C PUSH1 0x24 DUP3 ADD MSTORE PUSH32 0x4552433136353A20696E76616C696420696E7465726661636520696400000000 PUSH1 0x44 DUP3 ADD MSTORE SWAP1 MLOAD SWAP1 DUP2 SWAP1 SUB PUSH1 0x64 ADD SWAP1 REVERT JUMPDEST PUSH1 0x1 PUSH1 0x1 PUSH1 0xE0 SHL SUB NOT AND PUSH1 0x0 SWAP1 DUP2 MSTORE PUSH1 0x3 PUSH1 0x20 MSTORE PUSH1 0x40 SWAP1 KECCAK256 DUP1 SLOAD PUSH1 0xFF NOT AND PUSH1 0x1 OR SWAP1 SSTORE JUMP JUMPDEST PUSH2 0x2BF6 DUP1 PUSH3 0xD5 PUSH1 0x0 CODECOPY PUSH1 0x0 RETURN INVALID PUSH1 0x80 PUSH1 0x40 MSTORE CALLVALUE DUP1 ISZERO PUSH2 0x10 JUMPI PUSH1 0x0 DUP1 REVERT JUMPDEST POP PUSH1 0x4 CALLDATASIZE LT PUSH2 0x158 JUMPI PUSH1 0x0 CALLDATALOAD PUSH1 0xE0 SHR DUP1 PUSH4 0xA457C2D7 GT PUSH2 0xC3 JUMPI DUP1 PUSH4 0xD8C55AF7 GT PUSH2 0x7C JUMPI DUP1 PUSH4 0xD8C55AF7 EQ PUSH2 0x56E JUMPI DUP1 PUSH4 0xDD62ED3E EQ PUSH2 0x58B JUMPI DUP1 PUSH4 0xDDCA3F43 EQ PUSH2 0x5B9 JUMPI DUP1 PUSH4 0xE03031A6 EQ PUSH2 0x5C1 JUMPI DUP1 PUSH4 0xF23A6E61 EQ PUSH2 0x5DE JUMPI DUP1 PUSH4 0xF55C79D0 EQ PUSH2 0x671 JUMPI PUSH2 0x158 JUMP JUMPDEST DUP1 PUSH4 0xA457C2D7 EQ PUSH2 0x32C JUMPI DUP1 PUSH4 0xA9059CBB EQ PUSH2 0x358 JUMPI DUP1 PUSH4 0xB2016BD4 EQ PUSH2 0x384 JUMPI DUP1 PUSH4 0xBC197C81 EQ PUSH2 0x38C JUMPI DUP1 PUSH4 0xD3C9727C EQ PUSH2 0x4D0 JUMPI DUP1 PUSH4 0xD5F15A46 EQ PUSH2 0x4F9 JUMPI PUSH2 0x158 JUMP JUMPDEST DUP1 PUSH4 0x39509351 GT PUSH2 0x115 JUMPI DUP1 PUSH4 0x39509351 EQ PUSH2 0x262 JUMPI DUP1 PUSH4 0x40993B26 EQ PUSH2 0x28E JUMPI DUP1 PUSH4 0x4343116A EQ PUSH2 0x2B7 JUMPI DUP1 PUSH4 0x5BD9E299 EQ PUSH2 0x2DA JUMPI DUP1 PUSH4 0x70A08231 EQ PUSH2 0x2FE JUMPI DUP1 PUSH4 0x9003ADFE EQ PUSH2 0x324 JUMPI PUSH2 0x158 JUMP JUMPDEST DUP1 PUSH4 0x1FFC9A7 EQ PUSH2 0x15D JUMPI DUP1 PUSH4 0x95EA7B3 EQ PUSH2 0x198 JUMPI DUP1 PUSH4 0x164E68DE EQ PUSH2 0x1C4 JUMPI DUP1 PUSH4 0x16DBD776 EQ PUSH2 0x1EC JUMPI DUP1 PUSH4 0x18160DDD EQ PUSH2 0x224 JUMPI DUP1 PUSH4 0x23B872DD EQ PUSH2 0x22C JUMPI JUMPDEST PUSH1 0x0 DUP1 REVERT JUMPDEST PUSH2 0x184 PUSH1 0x4 DUP1 CALLDATASIZE SUB PUSH1 0x20 DUP2 LT ISZERO PUSH2 0x173 JUMPI PUSH1 0x0 DUP1 REVERT JUMPDEST POP CALLDATALOAD PUSH1 0x1 PUSH1 0x1 PUSH1 0xE0 SHL SUB NOT AND PUSH2 0x694 JUMP JUMPDEST PUSH1 0x40 DUP1 MLOAD SWAP2 ISZERO ISZERO DUP3 MSTORE MLOAD SWAP1 DUP2 SWAP1 SUB PUSH1 0x20 ADD SWAP1 RETURN JUMPDEST PUSH2 0x184 PUSH1 0x4 DUP1 CALLDATASIZE SUB PUSH1 0x40 DUP2 LT ISZERO PUSH2 0x1AE JUMPI PUSH1 0x0 DUP1 REVERT JUMPDEST POP PUSH1 0x1 PUSH1 0x1 PUSH1 0xA0 SHL SUB DUP2 CALLDATALOAD AND SWAP1 PUSH1 0x20 ADD CALLDATALOAD PUSH2 0x6B3 JUMP JUMPDEST PUSH2 0x1EA PUSH1 0x4 DUP1 CALLDATASIZE SUB PUSH1 0x20 DUP2 LT ISZERO PUSH2 0x1DA JUMPI PUSH1 0x0 DUP1 REVERT JUMPDEST POP CALLDATALOAD PUSH1 0x1 PUSH1 0x1 PUSH1 0xA0 SHL SUB AND PUSH2 0x6CA JUMP JUMPDEST STOP JUMPDEST PUSH2 0x212 PUSH1 0x4 DUP1 CALLDATASIZE SUB PUSH1 0x20 DUP2 LT ISZERO PUSH2 0x202 JUMPI PUSH1 0x0 DUP1 REVERT JUMPDEST POP CALLDATALOAD PUSH1 0x1 PUSH1 0x1 PUSH1 0xA0 SHL SUB AND PUSH2 0x838 JUMP JUMPDEST PUSH1 0x40 DUP1 MLOAD SWAP2 DUP3 MSTORE MLOAD SWAP1 DUP2 SWAP1 SUB PUSH1 0x20 ADD SWAP1 RETURN JUMPDEST PUSH2 0x212 PUSH2 0x88C JUMP JUMPDEST PUSH2 0x184 PUSH1 0x4 DUP1 CALLDATASIZE SUB PUSH1 0x60 DUP2 LT ISZERO PUSH2 0x242 JUMPI PUSH1 0x0 DUP1 REVERT JUMPDEST POP PUSH1 0x1 PUSH1 0x1 PUSH1 0xA0 SHL SUB DUP2 CALLDATALOAD DUP2 AND SWAP2 PUSH1 0x20 DUP2 ADD CALLDATALOAD SWAP1 SWAP2 AND SWAP1 PUSH1 0x40 ADD CALLDATALOAD PUSH2 0x892 JUMP JUMPDEST PUSH2 0x184 PUSH1 0x4 DUP1 CALLDATASIZE SUB PUSH1 0x40 DUP2 LT ISZERO PUSH2 0x278 JUMPI PUSH1 0x0 DUP1 REVERT JUMPDEST POP PUSH1 0x1 PUSH1 0x1 PUSH1 0xA0 SHL SUB DUP2 CALLDATALOAD AND SWAP1 PUSH1 0x20 ADD CALLDATALOAD PUSH2 0x8E9 JUMP JUMPDEST PUSH2 0x1EA PUSH1 0x4 DUP1 CALLDATASIZE SUB PUSH1 0x60 DUP2 LT ISZERO PUSH2 0x2A4 JUMPI PUSH1 0x0 DUP1 REVERT JUMPDEST POP DUP1 CALLDATALOAD SWAP1 PUSH1 0x20 DUP2 ADD CALLDATALOAD SWAP1 PUSH1 0x40 ADD CALLDATALOAD PUSH2 0x925 JUMP JUMPDEST PUSH2 0x212 PUSH1 0x4 DUP1 CALLDATASIZE SUB PUSH1 0x40 DUP2 LT ISZERO PUSH2 0x2CD JUMPI PUSH1 0x0 DUP1 REVERT JUMPDEST POP DUP1 CALLDATALOAD SWAP1 PUSH1 0x20 ADD CALLDATALOAD PUSH2 0xC8B JUMP JUMPDEST PUSH2 0x2E2 PUSH2 0xE62 JUMP JUMPDEST PUSH1 0x40 DUP1 MLOAD PUSH1 0x1 PUSH1 0x1 PUSH1 0xA0 SHL SUB SWAP1 SWAP3 AND DUP3 MSTORE MLOAD SWAP1 DUP2 SWAP1 SUB PUSH1 0x20 ADD SWAP1 RETURN JUMPDEST PUSH2 0x212 PUSH1 0x4 DUP1 CALLDATASIZE SUB PUSH1 0x20 DUP2 LT ISZERO PUSH2 0x314 JUMPI PUSH1 0x0 DUP1 REVERT JUMPDEST POP CALLDATALOAD PUSH1 0x1 PUSH1 0x1 PUSH1 0xA0 SHL SUB AND PUSH2 0xE71 JUMP JUMPDEST PUSH2 0x212 PUSH2 0xE8C JUMP JUMPDEST PUSH2 0x184 PUSH1 0x4 DUP1 CALLDATASIZE SUB PUSH1 0x40 DUP2 LT ISZERO PUSH2 0x342 JUMPI PUSH1 0x0 DUP1 REVERT JUMPDEST POP PUSH1 0x1 PUSH1 0x1 PUSH1 0xA0 SHL SUB DUP2 CALLDATALOAD AND SWAP1 PUSH1 0x20 ADD CALLDATALOAD PUSH2 0xEAA JUMP JUMPDEST PUSH2 0x184 PUSH1 0x4 DUP1 CALLDATASIZE SUB PUSH1 0x40 DUP2 LT ISZERO PUSH2 0x36E JUMPI PUSH1 0x0 DUP1 REVERT JUMPDEST POP PUSH1 0x1 PUSH1 0x1 PUSH1 0xA0 SHL SUB DUP2 CALLDATALOAD AND SWAP1 PUSH1 0x20 ADD CALLDATALOAD PUSH2 0xEE6 JUMP JUMPDEST PUSH2 0x2E2 PUSH2 0xEF3 JUMP JUMPDEST PUSH2 0x4B3 PUSH1 0x4 DUP1 CALLDATASIZE SUB PUSH1 0xA0 DUP2 LT ISZERO PUSH2 0x3A2 JUMPI PUSH1 0x0 DUP1 REVERT JUMPDEST PUSH1 0x1 PUSH1 0x1 PUSH1 0xA0 SHL SUB DUP3 CALLDATALOAD DUP2 AND SWAP3 PUSH1 0x20 DUP2 ADD CALLDATALOAD SWAP1 SWAP2 AND SWAP2 DUP2 ADD SWAP1 PUSH1 0x60 DUP2 ADD PUSH1 0x40 DUP3 ADD CALLDATALOAD PUSH1 0x1 PUSH1 0x20 SHL DUP2 GT ISZERO PUSH2 0x3D5 JUMPI PUSH1 0x0 DUP1 REVERT JUMPDEST DUP3 ADD DUP4 PUSH1 0x20 DUP3 ADD GT ISZERO PUSH2 0x3E7 JUMPI PUSH1 0x0 DUP1 REVERT JUMPDEST DUP1 CALLDATALOAD SWAP1 PUSH1 0x20 ADD SWAP2 DUP5 PUSH1 0x20 DUP4 MUL DUP5 ADD GT PUSH1 0x1 PUSH1 0x20 SHL DUP4 GT OR ISZERO PUSH2 0x408 JUMPI PUSH1 0x0 DUP1 REVERT JUMPDEST SWAP2 SWAP4 SWAP1 SWAP3 SWAP1 SWAP2 PUSH1 0x20 DUP2 ADD SWAP1 CALLDATALOAD PUSH1 0x1 PUSH1 0x20 SHL DUP2 GT ISZERO PUSH2 0x425 JUMPI PUSH1 0x0 DUP1 REVERT JUMPDEST DUP3 ADD DUP4 PUSH1 0x20 DUP3 ADD GT ISZERO PUSH2 0x437 JUMPI PUSH1 0x0 DUP1 REVERT JUMPDEST DUP1 CALLDATALOAD SWAP1 PUSH1 0x20 ADD SWAP2 DUP5 PUSH1 0x20 DUP4 MUL DUP5 ADD GT PUSH1 0x1 PUSH1 0x20 SHL DUP4 GT OR ISZERO PUSH2 0x458 JUMPI PUSH1 0x0 DUP1 REVERT JUMPDEST SWAP2 SWAP4 SWAP1 SWAP3 SWAP1 SWAP2 PUSH1 0x20 DUP2 ADD SWAP1 CALLDATALOAD PUSH1 0x1 PUSH1 0x20 SHL DUP2 GT ISZERO PUSH2 0x475 JUMPI PUSH1 0x0 DUP1 REVERT JUMPDEST DUP3 ADD DUP4 PUSH1 0x20 DUP3 ADD GT ISZERO PUSH2 0x487 JUMPI PUSH1 0x0 DUP1 REVERT JUMPDEST DUP1 CALLDATALOAD SWAP1 PUSH1 0x20 ADD SWAP2 DUP5 PUSH1 0x1 DUP4 MUL DUP5 ADD GT PUSH1 0x1 PUSH1 0x20 SHL DUP4 GT OR ISZERO PUSH2 0x4A8 JUMPI PUSH1 0x0 DUP1 REVERT JUMPDEST POP SWAP1 SWAP3 POP SWAP1 POP PUSH2 0xF02 JUMP JUMPDEST PUSH1 0x40 DUP1 MLOAD PUSH1 0x1 PUSH1 0x1 PUSH1 0xE0 SHL SUB NOT SWAP1 SWAP3 AND DUP3 MSTORE MLOAD SWAP1 DUP2 SWAP1 SUB PUSH1 0x20 ADD SWAP1 RETURN JUMPDEST PUSH2 0x1EA PUSH1 0x4 DUP1 CALLDATASIZE SUB PUSH1 0x60 DUP2 LT ISZERO PUSH2 0x4E6 JUMPI PUSH1 0x0 DUP1 REVERT JUMPDEST POP DUP1 CALLDATALOAD SWAP1 PUSH1 0x20 DUP2 ADD CALLDATALOAD SWAP1 PUSH1 0x40 ADD CALLDATALOAD PUSH2 0xF46 JUMP JUMPDEST PUSH2 0x1EA PUSH1 0x4 DUP1 CALLDATASIZE SUB PUSH1 0x40 DUP2 LT ISZERO PUSH2 0x50F JUMPI PUSH1 0x0 DUP1 REVERT JUMPDEST DUP2 CALLDATALOAD SWAP2 SWAP1 DUP2 ADD SWAP1 PUSH1 0x40 DUP2 ADD PUSH1 0x20 DUP3 ADD CALLDATALOAD PUSH1 0x1 PUSH1 0x20 SHL DUP2 GT ISZERO PUSH2 0x530 JUMPI PUSH1 0x0 DUP1 REVERT JUMPDEST DUP3 ADD DUP4 PUSH1 0x20 DUP3 ADD GT ISZERO PUSH2 0x542 JUMPI PUSH1 0x0 DUP1 REVERT JUMPDEST DUP1 CALLDATALOAD SWAP1 PUSH1 0x20 ADD SWAP2 DUP5 PUSH1 0x20 DUP4 MUL DUP5 ADD GT PUSH1 0x1 PUSH1 0x20 SHL DUP4 GT OR ISZERO PUSH2 0x563 JUMPI PUSH1 0x0 DUP1 REVERT JUMPDEST POP SWAP1 SWAP3 POP SWAP1 POP PUSH2 0x11E2 JUMP JUMPDEST PUSH2 0x212 PUSH1 0x4 DUP1 CALLDATASIZE SUB PUSH1 0x20 DUP2 LT ISZERO PUSH2 0x584 JUMPI PUSH1 0x0 DUP1 REVERT JUMPDEST POP CALLDATALOAD PUSH2 0x1897 JUMP JUMPDEST PUSH2 0x212 PUSH1 0x4 DUP1 CALLDATASIZE SUB PUSH1 0x40 DUP2 LT ISZERO PUSH2 0x5A1 JUMPI PUSH1 0x0 DUP1 REVERT JUMPDEST POP PUSH1 0x1 PUSH1 0x1 PUSH1 0xA0 SHL SUB DUP2 CALLDATALOAD DUP2 AND SWAP2 PUSH1 0x20 ADD CALLDATALOAD AND PUSH2 0x18B5 JUMP JUMPDEST PUSH2 0x212 PUSH2 0x18E0 JUMP JUMPDEST PUSH2 0x1EA PUSH1 0x4 DUP1 CALLDATASIZE SUB PUSH1 0x20 DUP2 LT ISZERO PUSH2 0x5D7 JUMPI PUSH1 0x0 DUP1 REVERT JUMPDEST POP CALLDATALOAD PUSH2 0x18E6 JUMP JUMPDEST PUSH2 0x4B3 PUSH1 0x4 DUP1 CALLDATASIZE SUB PUSH1 0xA0 DUP2 LT ISZERO PUSH2 0x5F4 JUMPI PUSH1 0x0 DUP1 REVERT JUMPDEST PUSH1 0x1 PUSH1 0x1 PUSH1 0xA0 SHL SUB DUP3 CALLDATALOAD DUP2 AND SWAP3 PUSH1 0x20 DUP2 ADD CALLDATALOAD SWAP1 SWAP2 AND SWAP2 PUSH1 0x40 DUP3 ADD CALLDATALOAD SWAP2 PUSH1 0x60 DUP2 ADD CALLDATALOAD SWAP2 DUP2 ADD SWAP1 PUSH1 0xA0 DUP2 ADD PUSH1 0x80 DUP3 ADD CALLDATALOAD PUSH1 0x1 PUSH1 0x20 SHL DUP2 GT ISZERO PUSH2 0x633 JUMPI PUSH1 0x0 DUP1 REVERT JUMPDEST DUP3 ADD DUP4 PUSH1 0x20 DUP3 ADD GT ISZERO PUSH2 0x645 JUMPI PUSH1 0x0 DUP1 REVERT JUMPDEST DUP1 CALLDATALOAD SWAP1 PUSH1 0x20 ADD SWAP2 DUP5 PUSH1 0x1 DUP4 MUL DUP5 ADD GT PUSH1 0x1 PUSH1 0x20 SHL DUP4 GT OR ISZERO PUSH2 0x666 JUMPI PUSH1 0x0 DUP1 REVERT JUMPDEST POP SWAP1 SWAP3 POP SWAP1 POP PUSH2 0x1C3E JUMP JUMPDEST PUSH2 0x212 PUSH1 0x4 DUP1 CALLDATASIZE SUB PUSH1 0x40 DUP2 LT ISZERO PUSH2 0x687 JUMPI PUSH1 0x0 DUP1 REVERT JUMPDEST POP DUP1 CALLDATALOAD SWAP1 PUSH1 0x20 ADD CALLDATALOAD PUSH2 0x1C6D JUMP JUMPDEST PUSH1 0x1 PUSH1 0x1 PUSH1 0xE0 SHL SUB NOT AND PUSH1 0x0 SWAP1 DUP2 MSTORE PUSH1 0x3 PUSH1 0x20 MSTORE PUSH1 0x40 SWAP1 KECCAK256 SLOAD PUSH1 0xFF AND SWAP1 JUMP JUMPDEST PUSH1 0x0 PUSH2 0x6C0 CALLER DUP5 DUP5 PUSH2 0x1E0A JUMP JUMPDEST POP PUSH1 0x1 JUMPDEST SWAP3 SWAP2 POP POP JUMP JUMPDEST PUSH1 0x0 PUSH2 0x6D4 PUSH2 0x88C JUMP JUMPDEST PUSH2 0x6EF PUSH2 0x6E0 DUP5 PUSH2 0xE71 JUMP JUMPDEST PUSH1 0x8 SLOAD SWAP1 PUSH4 0xFFFFFFFF PUSH2 0x1EF6 AND JUMP JUMPDEST DUP2 PUSH2 0x6F6 JUMPI INVALID JUMPDEST PUSH1 0x1 PUSH1 0x1 PUSH1 0xA0 SHL SUB DUP5 AND PUSH1 0x0 SWAP1 DUP2 MSTORE PUSH1 0xC PUSH1 0x20 MSTORE PUSH1 0x40 DUP2 KECCAK256 SLOAD SWAP3 SWAP1 SWAP2 DIV SWAP3 POP SWAP1 PUSH2 0x727 SWAP1 DUP4 SWAP1 PUSH4 0xFFFFFFFF PUSH2 0x1F4F AND JUMP JUMPDEST SWAP1 POP DUP1 ISZERO PUSH2 0x833 JUMPI PUSH1 0x1 PUSH1 0x1 PUSH1 0xA0 SHL SUB DUP4 AND PUSH1 0x0 SWAP1 DUP2 MSTORE PUSH1 0xC PUSH1 0x20 MSTORE PUSH1 0x40 SWAP1 KECCAK256 DUP3 SWAP1 SSTORE PUSH1 0xD SLOAD PUSH2 0x75D SWAP1 DUP3 PUSH4 0xFFFFFFFF PUSH2 0x1F91 AND JUMP JUMPDEST PUSH1 0xD SSTORE PUSH1 0x5 SLOAD PUSH1 0x40 DUP1 MLOAD PUSH4 0xA9059CBB PUSH1 0xE0 SHL DUP2 MSTORE PUSH1 0x1 PUSH1 0x1 PUSH1 0xA0 SHL SUB DUP7 DUP2 AND PUSH1 0x4 DUP4 ADD MSTORE PUSH1 0x24 DUP3 ADD DUP6 SWAP1 MSTORE SWAP2 MLOAD SWAP2 SWAP1 SWAP3 AND SWAP2 PUSH4 0xA9059CBB SWAP2 PUSH1 0x44 DUP1 DUP4 ADD SWAP3 PUSH1 0x20 SWAP3 SWAP2 SWAP1 DUP3 SWAP1 SUB ADD DUP2 PUSH1 0x0 DUP8 DUP1 EXTCODESIZE ISZERO DUP1 ISZERO PUSH2 0x7B6 JUMPI PUSH1 0x0 DUP1 REVERT JUMPDEST POP GAS CALL ISZERO DUP1 ISZERO PUSH2 0x7CA JUMPI RETURNDATASIZE PUSH1 0x0 DUP1 RETURNDATACOPY RETURNDATASIZE PUSH1 0x0 REVERT JUMPDEST POP POP POP POP PUSH1 0x40 MLOAD RETURNDATASIZE PUSH1 0x20 DUP2 LT ISZERO PUSH2 0x7E0 JUMPI PUSH1 0x0 DUP1 REVERT JUMPDEST POP MLOAD PUSH2 0x833 JUMPI PUSH1 0x40 DUP1 MLOAD PUSH3 0x461BCD PUSH1 0xE5 SHL DUP2 MSTORE PUSH1 0x20 PUSH1 0x4 DUP3 ADD MSTORE PUSH1 0x1A PUSH1 0x24 DUP3 ADD MSTORE PUSH32 0x7769746864726177616C207472616E73666572206661696C6564000000000000 PUSH1 0x44 DUP3 ADD MSTORE SWAP1 MLOAD SWAP1 DUP2 SWAP1 SUB PUSH1 0x64 ADD SWAP1 REVERT JUMPDEST POP POP POP JUMP JUMPDEST PUSH1 0x0 DUP1 PUSH2 0x843 PUSH2 0x88C JUMP JUMPDEST PUSH2 0x84F PUSH2 0x6E0 DUP6 PUSH2 0xE71 JUMP JUMPDEST DUP2 PUSH2 0x856 JUMPI INVALID JUMPDEST PUSH1 0x1 PUSH1 0x1 PUSH1 0xA0 SHL SUB DUP6 AND PUSH1 0x0 SWAP1 DUP2 MSTORE PUSH1 0xC PUSH1 0x20 MSTORE PUSH1 0x40 SWAP1 KECCAK256 SLOAD SWAP2 SWAP1 DIV SWAP2 POP PUSH2 0x885 SWAP1 DUP3 SWAP1 PUSH4 0xFFFFFFFF PUSH2 0x1F4F AND JUMP JUMPDEST SWAP4 SWAP3 POP POP POP JUMP JUMPDEST PUSH1 0x2 SLOAD SWAP1 JUMP JUMPDEST PUSH1 0x0 PUSH2 0x89F DUP5 DUP5 DUP5 PUSH2 0x1FEB JUMP JUMPDEST PUSH1 0x1 PUSH1 0x1 PUSH1 0xA0 SHL SUB DUP5 AND PUSH1 0x0 SWAP1 DUP2 MSTORE PUSH1 0x1 PUSH1 0x20 SWAP1 DUP2 MSTORE PUSH1 0x40 DUP1 DUP4 KECCAK256 CALLER DUP1 DUP6 MSTORE SWAP3 MSTORE SWAP1 SWAP2 KECCAK256 SLOAD PUSH2 0x8DF SWAP2 DUP7 SWAP2 PUSH2 0x8DA SWAP1 DUP7 PUSH4 0xFFFFFFFF PUSH2 0x1F4F AND JUMP JUMPDEST PUSH2 0x1E0A JUMP JUMPDEST POP PUSH1 0x1 SWAP4 SWAP3 POP POP POP JUMP JUMPDEST CALLER PUSH1 0x0 DUP2 DUP2 MSTORE PUSH1 0x1 PUSH1 0x20 SWAP1 DUP2 MSTORE PUSH1 0x40 DUP1 DUP4 KECCAK256 PUSH1 0x1 PUSH1 0x1 PUSH1 0xA0 SHL SUB DUP8 AND DUP5 MSTORE SWAP1 SWAP2 MSTORE DUP2 KECCAK256 SLOAD SWAP1 SWAP2 PUSH2 0x6C0 SWAP2 DUP6 SWAP1 PUSH2 0x8DA SWAP1 DUP7 PUSH4 0xFFFFFFFF PUSH2 0x1F91 AND JUMP JUMPDEST PUSH1 0x0 PUSH2 0x931 DUP5 DUP5 PUSH2 0x1C6D JUMP JUMPDEST SWAP1 POP DUP2 DUP2 LT ISZERO PUSH2 0x988 JUMPI PUSH1 0x40 DUP1 MLOAD PUSH3 0x461BCD PUSH1 0xE5 SHL DUP2 MSTORE PUSH1 0x20 PUSH1 0x4 DUP3 ADD MSTORE PUSH1 0x1E PUSH1 0x24 DUP3 ADD MSTORE PUSH32 0x6D696E696D756D2062757920616D6F756E74206E6F7420726561636865640000 PUSH1 0x44 DUP3 ADD MSTORE SWAP1 MLOAD SWAP1 DUP2 SWAP1 SUB PUSH1 0x64 ADD SWAP1 REVERT JUMPDEST PUSH1 0x5 SLOAD PUSH1 0x40 DUP1 MLOAD PUSH4 0x23B872DD PUSH1 0xE0 SHL DUP2 MSTORE CALLER PUSH1 0x4 DUP3 ADD MSTORE ADDRESS PUSH1 0x24 DUP3 ADD MSTORE PUSH1 0x44 DUP2 ADD DUP8 SWAP1 MSTORE SWAP1 MLOAD PUSH1 0x1 PUSH1 0x1 PUSH1 0xA0 SHL SUB SWAP1 SWAP3 AND SWAP2 PUSH4 0x23B872DD SWAP2 PUSH1 0x64 DUP1 DUP3 ADD SWAP3 PUSH1 0x20 SWAP3 SWAP1 SWAP2 SWAP1 DUP3 SWAP1 SUB ADD DUP2 PUSH1 0x0 DUP8 DUP1 EXTCODESIZE ISZERO DUP1 ISZERO PUSH2 0x9E2 JUMPI PUSH1 0x0 DUP1 REVERT JUMPDEST POP GAS CALL ISZERO DUP1 ISZERO PUSH2 0x9F6 JUMPI RETURNDATASIZE PUSH1 0x0 DUP1 RETURNDATACOPY RETURNDATASIZE PUSH1 0x0 REVERT JUMPDEST POP POP POP POP PUSH1 0x40 MLOAD RETURNDATASIZE PUSH1 0x20 DUP2 LT ISZERO PUSH2 0xA0C JUMPI PUSH1 0x0 DUP1 REVERT JUMPDEST POP MLOAD PUSH2 0xA56 JUMPI PUSH1 0x40 DUP1 MLOAD PUSH3 0x461BCD PUSH1 0xE5 SHL DUP2 MSTORE PUSH1 0x20 PUSH1 0x4 DUP3 ADD MSTORE PUSH1 0x14 PUSH1 0x24 DUP3 ADD MSTORE PUSH20 0x18DBDCDD081D1C985B9CD9995C8819985A5B1959 PUSH1 0x62 SHL PUSH1 0x44 DUP3 ADD MSTORE SWAP1 MLOAD SWAP1 DUP2 SWAP1 SUB PUSH1 0x64 ADD SWAP1 REVERT JUMPDEST PUSH1 0x0 PUSH8 0xDE0B6B3A7640000 PUSH2 0xA76 PUSH1 0x7 SLOAD DUP8 PUSH2 0x1EF6 SWAP1 SWAP2 SWAP1 PUSH4 0xFFFFFFFF AND JUMP JUMPDEST DUP2 PUSH2 0xA7D JUMPI INVALID JUMPDEST DIV SWAP1 POP PUSH2 0xA95 DUP2 PUSH1 0x8 SLOAD PUSH2 0x1F91 SWAP1 SWAP2 SWAP1 PUSH4 0xFFFFFFFF AND JUMP JUMPDEST PUSH1 0x8 SSTORE PUSH1 0x0 PUSH2 0xAAA DUP7 DUP4 PUSH4 0xFFFFFFFF PUSH2 0x1F4F AND JUMP JUMPDEST PUSH1 0x5 SLOAD PUSH1 0x4 DUP1 SLOAD PUSH1 0x40 DUP1 MLOAD PUSH4 0x95EA7B3 PUSH1 0xE0 SHL DUP2 MSTORE PUSH1 0x1 PUSH1 0x1 PUSH1 0xA0 SHL SUB SWAP3 DUP4 AND SWAP4 DUP2 ADD SWAP4 SWAP1 SWAP4 MSTORE PUSH1 0x24 DUP4 ADD DUP6 SWAP1 MSTORE MLOAD SWAP4 SWAP5 POP SWAP1 SWAP2 AND SWAP2 PUSH4 0x95EA7B3 SWAP2 PUSH1 0x44 DUP1 DUP3 ADD SWAP3 PUSH1 0x20 SWAP3 SWAP1 SWAP2 SWAP1 DUP3 SWAP1 SUB ADD DUP2 PUSH1 0x0 DUP8 DUP1 EXTCODESIZE ISZERO DUP1 ISZERO PUSH2 0xB08 JUMPI PUSH1 0x0 DUP1 REVERT JUMPDEST POP GAS CALL ISZERO DUP1 ISZERO PUSH2 0xB1C JUMPI RETURNDATASIZE PUSH1 0x0 DUP1 RETURNDATACOPY RETURNDATASIZE PUSH1 0x0 REVERT JUMPDEST POP POP POP POP PUSH1 0x40 MLOAD RETURNDATASIZE PUSH1 0x20 DUP2 LT ISZERO PUSH2 0xB32 JUMPI PUSH1 0x0 DUP1 REVERT JUMPDEST POP MLOAD PUSH2 0xB85 JUMPI PUSH1 0x40 DUP1 MLOAD PUSH3 0x461BCD PUSH1 0xE5 SHL DUP2 MSTORE PUSH1 0x20 PUSH1 0x4 DUP3 ADD MSTORE PUSH1 0x1A PUSH1 0x24 DUP3 ADD MSTORE PUSH32 0x617070726F76616C20666F722073706C697473206661696C6564000000000000 PUSH1 0x44 DUP3 ADD MSTORE SWAP1 MLOAD SWAP1 DUP2 SWAP1 SUB PUSH1 0x64 ADD SWAP1 REVERT JUMPDEST PUSH2 0xB8E DUP2 PUSH2 0x2138 JUMP JUMPDEST PUSH1 0x4 SLOAD PUSH1 0xB DUP1 SLOAD PUSH1 0x1 PUSH1 0x1 PUSH1 0xA0 SHL SUB SWAP1 SWAP3 AND SWAP2 PUSH4 0xF242432A SWAP2 ADDRESS SWAP2 CALLER SWAP2 SWAP1 DUP11 SWAP1 DUP2 LT PUSH2 0xBB6 JUMPI INVALID JUMPDEST PUSH1 0x0 SWAP2 DUP3 MSTORE PUSH1 0x20 DUP3 KECCAK256 ADD SLOAD PUSH1 0x40 DUP1 MLOAD PUSH1 0x1 PUSH1 0x1 PUSH1 0xE0 SHL SUB NOT PUSH1 0xE0 DUP9 SWAP1 SHL AND DUP2 MSTORE PUSH1 0x1 PUSH1 0x1 PUSH1 0xA0 SHL SUB SWAP6 DUP7 AND PUSH1 0x4 DUP3 ADD MSTORE SWAP4 SWAP1 SWAP5 AND PUSH1 0x24 DUP5 ADD MSTORE PUSH1 0x44 DUP4 ADD MSTORE PUSH1 0x64 DUP3 ADD DUP9 SWAP1 MSTORE PUSH1 0xA0 PUSH1 0x84 DUP4 ADD MSTORE PUSH1 0xA4 DUP3 ADD DUP2 SWAP1 MSTORE SWAP2 MLOAD PUSH1 0xE4 DUP1 DUP4 ADD SWAP4 SWAP3 DUP3 SWAP1 SUB ADD DUP2 DUP4 DUP8 DUP1 EXTCODESIZE ISZERO DUP1 ISZERO PUSH2 0xC27 JUMPI PUSH1 0x0 DUP1 REVERT JUMPDEST POP GAS CALL ISZERO DUP1 ISZERO PUSH2 0xC3B JUMPI RETURNDATASIZE PUSH1 0x0 DUP1 RETURNDATACOPY RETURNDATASIZE PUSH1 0x0 REVERT JUMPDEST POP POP PUSH1 0x40 DUP1 MLOAD DUP10 DUP2 MSTORE PUSH1 0x20 DUP2 ADD DUP7 SWAP1 MSTORE DUP1 DUP3 ADD DUP8 SWAP1 MSTORE SWAP1 MLOAD DUP9 SWAP4 POP CALLER SWAP3 POP PUSH32 0x4F62630F51608FC8A7603A9391A5101E58BD7C276139366FC107DC3B67C3DCF8 SWAP2 DUP2 SWAP1 SUB PUSH1 0x60 ADD SWAP1 LOG3 POP POP POP POP POP POP JUMP JUMPDEST PUSH1 0xB SLOAD PUSH1 0x0 SWAP1 DUP3 LT PUSH2 0xCDC JUMPI PUSH1 0x40 DUP1 MLOAD PUSH3 0x461BCD PUSH1 0xE5 SHL DUP2 MSTORE PUSH1 0x20 PUSH1 0x4 DUP3 ADD MSTORE PUSH1 0x15 PUSH1 0x24 DUP3 ADD MSTORE PUSH21 0xD2DCECC2D8D2C840DEEAE8C6DEDACA40D2DCC8CAF PUSH1 0x5B SHL PUSH1 0x44 DUP3 ADD MSTORE SWAP1 MLOAD SWAP1 DUP2 SWAP1 SUB PUSH1 0x64 ADD SWAP1 REVERT JUMPDEST PUSH1 0x60 PUSH2 0xCE6 PUSH2 0x22C7 JUMP JUMPDEST SWAP1 POP PUSH1 0x0 PUSH2 0xD07 PUSH1 0x7 SLOAD PUSH8 0xDE0B6B3A7640000 PUSH2 0x1F4F SWAP1 SWAP2 SWAP1 PUSH4 0xFFFFFFFF AND JUMP JUMPDEST PUSH2 0xD1F DUP7 PUSH8 0xDE0B6B3A7640000 PUSH4 0xFFFFFFFF PUSH2 0x1EF6 AND JUMP JUMPDEST DUP2 PUSH2 0xD26 JUMPI INVALID JUMPDEST DIV SWAP1 POP PUSH1 0x0 DUP3 DUP6 DUP2 MLOAD DUP2 LT PUSH2 0xD37 JUMPI INVALID JUMPDEST PUSH1 0x20 MUL PUSH1 0x20 ADD ADD MLOAD SWAP1 POP PUSH1 0x0 PUSH2 0xD5E PUSH8 0xDE0B6B3A7640000 DUP4 PUSH2 0x1EF6 SWAP1 SWAP2 SWAP1 PUSH4 0xFFFFFFFF AND JUMP JUMPDEST SWAP1 POP PUSH1 0x0 JUMPDEST DUP5 MLOAD DUP2 LT ISZERO PUSH2 0xDC9 JUMPI DUP7 DUP2 EQ PUSH2 0xDC1 JUMPI PUSH1 0x0 DUP6 DUP3 DUP2 MLOAD DUP2 LT PUSH2 0xD81 JUMPI INVALID JUMPDEST PUSH1 0x20 MUL PUSH1 0x20 ADD ADD MLOAD SWAP1 POP PUSH2 0xDBD PUSH2 0xDA1 DUP7 DUP4 PUSH2 0x1F4F SWAP1 SWAP2 SWAP1 PUSH4 0xFFFFFFFF AND JUMP JUMPDEST PUSH2 0xDB1 DUP6 DUP5 PUSH4 0xFFFFFFFF PUSH2 0x1EF6 AND JUMP JUMPDEST SWAP1 PUSH4 0xFFFFFFFF PUSH2 0x24D4 AND JUMP JUMPDEST SWAP3 POP POP JUMPDEST PUSH1 0x1 ADD PUSH2 0xD63 JUMP JUMPDEST POP PUSH1 0x0 DUP2 GT PUSH2 0xE1F JUMPI PUSH1 0x40 DUP1 MLOAD PUSH3 0x461BCD PUSH1 0xE5 SHL DUP2 MSTORE PUSH1 0x20 PUSH1 0x4 DUP3 ADD MSTORE PUSH1 0x1B PUSH1 0x24 DUP3 ADD MSTORE PUSH32 0x6D7573742068617665206E6F6E2D7A65726F2062616C616E6365730000000000 PUSH1 0x44 DUP3 ADD MSTORE SWAP1 MLOAD SWAP1 DUP2 SWAP1 SUB PUSH1 0x64 ADD SWAP1 REVERT JUMPDEST PUSH2 0xE57 DUP3 PUSH2 0xE4B PUSH2 0xE3E DUP5 PUSH8 0xDE0B6B3A7640000 PUSH4 0xFFFFFFFF PUSH2 0x24D4 AND JUMP JUMPDEST DUP7 SWAP1 PUSH4 0xFFFFFFFF PUSH2 0x1F91 AND JUMP JUMPDEST SWAP1 PUSH4 0xFFFFFFFF PUSH2 0x1F4F AND JUMP JUMPDEST SWAP8 SWAP7 POP POP POP POP POP POP POP JUMP JUMPDEST PUSH1 0x4 SLOAD PUSH1 0x1 PUSH1 0x1 PUSH1 0xA0 SHL SUB AND DUP2 JUMP JUMPDEST PUSH1 0x1 PUSH1 0x1 PUSH1 0xA0 SHL SUB AND PUSH1 0x0 SWAP1 DUP2 MSTORE PUSH1 0x20 DUP2 SWAP1 MSTORE PUSH1 0x40 SWAP1 KECCAK256 SLOAD SWAP1 JUMP JUMPDEST PUSH1 0x0 PUSH2 0xEA5 PUSH1 0xD SLOAD PUSH1 0x8 SLOAD PUSH2 0x1F4F SWAP1 SWAP2 SWAP1 PUSH4 0xFFFFFFFF AND JUMP JUMPDEST SWAP1 POP SWAP1 JUMP JUMPDEST CALLER PUSH1 0x0 DUP2 DUP2 MSTORE PUSH1 0x1 PUSH1 0x20 SWAP1 DUP2 MSTORE PUSH1 0x40 DUP1 DUP4 KECCAK256 PUSH1 0x1 PUSH1 0x1 PUSH1 0xA0 SHL SUB DUP8 AND DUP5 MSTORE SWAP1 SWAP2 MSTORE DUP2 KECCAK256 SLOAD SWAP1 SWAP2 PUSH2 0x6C0 SWAP2 DUP6 SWAP1 PUSH2 0x8DA SWAP1 DUP7 PUSH4 0xFFFFFFFF PUSH2 0x1F4F AND JUMP JUMPDEST PUSH1 0x0 PUSH2 0x6C0 CALLER DUP5 DUP5 PUSH2 0x1FEB JUMP JUMPDEST PUSH1 0x5 SLOAD PUSH1 0x1 PUSH1 0x1 PUSH1 0xA0 SHL SUB AND DUP2 JUMP JUMPDEST PUSH1 0x0 PUSH1 0x1 PUSH1 0x1 PUSH1 0xA0 SHL SUB DUP10 AND ADDRESS EQ DUP1 ISZERO PUSH2 0xF23 JUMPI POP PUSH1 0x1 PUSH1 0x1 PUSH1 0xA0 SHL SUB DUP9 AND ISZERO JUMPDEST ISZERO PUSH2 0xF36 JUMPI POP PUSH4 0xBC197C81 PUSH1 0xE0 SHL PUSH2 0xF3A JUMP JUMPDEST POP PUSH1 0x0 JUMPDEST SWAP9 SWAP8 POP POP POP POP POP POP POP POP JUMP JUMPDEST PUSH1 0x0 PUSH2 0xF52 DUP5 DUP5 PUSH2 0xC8B JUMP JUMPDEST SWAP1 POP DUP2 DUP2 GT ISZERO PUSH2 0xFA9 JUMPI PUSH1 0x40 DUP1 MLOAD PUSH3 0x461BCD PUSH1 0xE5 SHL DUP2 MSTORE PUSH1 0x20 PUSH1 0x4 DUP3 ADD MSTORE PUSH1 0x1C PUSH1 0x24 DUP3 ADD MSTORE PUSH32 0x6D6178696D756D2073656C6C20616D6F756E7420657863656564656400000000 PUSH1 0x44 DUP3 ADD MSTORE SWAP1 MLOAD SWAP1 DUP2 SWAP1 SUB PUSH1 0x64 ADD SWAP1 REVERT JUMPDEST PUSH1 0x4 SLOAD PUSH1 0xB DUP1 SLOAD PUSH1 0x1 PUSH1 0x1 PUSH1 0xA0 SHL SUB SWAP1 SWAP3 AND SWAP2 PUSH4 0xF242432A SWAP2 CALLER SWAP2 ADDRESS SWAP2 SWAP1 DUP9 SWAP1 DUP2 LT PUSH2 0xFD1 JUMPI INVALID JUMPDEST PUSH1 0x0 SWAP2 DUP3 MSTORE PUSH1 0x20 DUP3 KECCAK256 ADD SLOAD PUSH1 0x40 DUP1 MLOAD PUSH1 0x1 PUSH1 0x1 PUSH1 0xE0 SHL SUB NOT PUSH1 0xE0 DUP9 SWAP1 SHL AND DUP2 MSTORE PUSH1 0x1 PUSH1 0x1 PUSH1 0xA0 SHL SUB SWAP6 DUP7 AND PUSH1 0x4 DUP3 ADD MSTORE SWAP4 SWAP1 SWAP5 AND PUSH1 0x24 DUP5 ADD MSTORE PUSH1 0x44 DUP4 ADD MSTORE PUSH1 0x64 DUP3 ADD DUP7 SWAP1 MSTORE PUSH1 0xA0 PUSH1 0x84 DUP4 ADD MSTORE PUSH1 0xA4 DUP3 ADD DUP2 SWAP1 MSTORE SWAP2 MLOAD PUSH1 0xE4 DUP1 DUP4 ADD SWAP4 SWAP3 DUP3 SWAP1 SUB ADD DUP2 DUP4 DUP8 DUP1 EXTCODESIZE ISZERO DUP1 ISZERO PUSH2 0x1042 JUMPI PUSH1 0x0 DUP1 REVERT JUMPDEST POP GAS CALL ISZERO DUP1 ISZERO PUSH2 0x1056 JUMPI RETURNDATASIZE PUSH1 0x0 DUP1 RETURNDATACOPY RETURNDATASIZE PUSH1 0x0 REVERT JUMPDEST POP POP POP POP PUSH1 0x0 PUSH2 0x1079 PUSH1 0x7 SLOAD PUSH8 0xDE0B6B3A7640000 PUSH2 0x1F4F SWAP1 SWAP2 SWAP1 PUSH4 0xFFFFFFFF AND JUMP JUMPDEST PUSH1 0x7 SLOAD PUSH2 0x108D SWAP1 DUP8 SWAP1 PUSH4 0xFFFFFFFF PUSH2 0x1EF6 AND JUMP JUMPDEST DUP2 PUSH2 0x1094 JUMPI INVALID JUMPDEST DIV SWAP1 POP PUSH2 0x10AC DUP2 PUSH1 0x8 SLOAD PUSH2 0x1F91 SWAP1 SWAP2 SWAP1 PUSH4 0xFFFFFFFF AND JUMP JUMPDEST PUSH1 0x8 SSTORE PUSH1 0x0 PUSH2 0x10C1 DUP7 DUP4 PUSH4 0xFFFFFFFF PUSH2 0x1F91 AND JUMP JUMPDEST SWAP1 POP PUSH2 0x10CC DUP2 PUSH2 0x2504 JUMP JUMPDEST PUSH1 0x5 SLOAD PUSH1 0x40 DUP1 MLOAD PUSH4 0xA9059CBB PUSH1 0xE0 SHL DUP2 MSTORE CALLER PUSH1 0x4 DUP3 ADD MSTORE PUSH1 0x24 DUP2 ADD DUP10 SWAP1 MSTORE SWAP1 MLOAD PUSH1 0x1 PUSH1 0x1 PUSH1 0xA0 SHL SUB SWAP1 SWAP3 AND SWAP2 PUSH4 0xA9059CBB SWAP2 PUSH1 0x44 DUP1 DUP3 ADD SWAP3 PUSH1 0x20 SWAP3 SWAP1 SWAP2 SWAP1 DUP3 SWAP1 SUB ADD DUP2 PUSH1 0x0 DUP8 DUP1 EXTCODESIZE ISZERO DUP1 ISZERO PUSH2 0x1120 JUMPI PUSH1 0x0 DUP1 REVERT JUMPDEST POP GAS CALL ISZERO DUP1 ISZERO PUSH2 0x1134 JUMPI RETURNDATASIZE PUSH1 0x0 DUP1 RETURNDATACOPY RETURNDATASIZE PUSH1 0x0 REVERT JUMPDEST POP POP POP POP PUSH1 0x40 MLOAD RETURNDATASIZE PUSH1 0x20 DUP2 LT ISZERO PUSH2 0x114A JUMPI PUSH1 0x0 DUP1 REVERT JUMPDEST POP MLOAD PUSH2 0x1196 JUMPI PUSH1 0x40 DUP1 MLOAD PUSH3 0x461BCD PUSH1 0xE5 SHL DUP2 MSTORE PUSH1 0x20 PUSH1 0x4 DUP3 ADD MSTORE PUSH1 0x16 PUSH1 0x24 DUP3 ADD MSTORE PUSH22 0x1C995D1D5C9B881D1C985B9CD9995C8819985A5B1959 PUSH1 0x52 SHL PUSH1 0x44 DUP3 ADD MSTORE SWAP1 MLOAD SWAP1 DUP2 SWAP1 SUB PUSH1 0x64 ADD SWAP1 REVERT JUMPDEST PUSH1 0x40 DUP1 MLOAD DUP8 DUP2 MSTORE PUSH1 0x20 DUP2 ADD DUP5 SWAP1 MSTORE DUP1 DUP3 ADD DUP6 SWAP1 MSTORE SWAP1 MLOAD DUP7 SWAP2 CALLER SWAP2 PUSH32 0xADCF2A240ED9300D681D9A3F5382B6C1BEED1B7E46643E0C7B42CBE6E2D766B4 SWAP2 DUP2 SWAP1 SUB PUSH1 0x60 ADD SWAP1 LOG3 POP POP POP POP POP POP JUMP JUMPDEST PUSH1 0x0 DUP4 GT PUSH2 0x1237 JUMPI PUSH1 0x40 DUP1 MLOAD PUSH3 0x461BCD PUSH1 0xE5 SHL DUP2 MSTORE PUSH1 0x20 PUSH1 0x4 DUP3 ADD MSTORE PUSH1 0x18 PUSH1 0x24 DUP3 ADD MSTORE PUSH32 0x66756E64696E67206D757374206265206E6F6E2D7A65726F0000000000000000 PUSH1 0x44 DUP3 ADD MSTORE SWAP1 MLOAD SWAP1 DUP2 SWAP1 SUB PUSH1 0x64 ADD SWAP1 REVERT JUMPDEST PUSH1 0xB SLOAD PUSH1 0x40 DUP1 MLOAD DUP3 DUP2 MSTORE PUSH1 0x20 DUP1 DUP5 MUL DUP3 ADD ADD SWAP1 SWAP2 MSTORE PUSH1 0x60 SWAP2 DUP1 ISZERO PUSH2 0x1265 JUMPI DUP2 PUSH1 0x20 ADD PUSH1 0x20 DUP3 MUL DUP1 CODESIZE DUP4 CODECOPY ADD SWAP1 POP JUMPDEST POP SWAP1 POP PUSH1 0x0 PUSH2 0x1272 PUSH2 0x88C JUMP JUMPDEST SWAP1 POP PUSH1 0x0 DUP2 ISZERO PUSH2 0x1392 JUMPI DUP4 ISZERO PUSH2 0x12B9 JUMPI PUSH1 0x40 MLOAD PUSH3 0x461BCD PUSH1 0xE5 SHL DUP2 MSTORE PUSH1 0x4 ADD DUP1 DUP1 PUSH1 0x20 ADD DUP3 DUP2 SUB DUP3 MSTORE PUSH1 0x32 DUP2 MSTORE PUSH1 0x20 ADD DUP1 PUSH2 0x2B05 PUSH1 0x32 SWAP2 CODECOPY PUSH1 0x40 ADD SWAP2 POP POP PUSH1 0x40 MLOAD DUP1 SWAP2 SUB SWAP1 REVERT JUMPDEST PUSH1 0x60 PUSH2 0x12C3 PUSH2 0x22C7 JUMP JUMPDEST SWAP1 POP PUSH1 0x0 DUP1 JUMPDEST DUP3 MLOAD DUP2 LT ISZERO PUSH2 0x12FF JUMPI PUSH1 0x0 DUP4 DUP3 DUP2 MLOAD DUP2 LT PUSH2 0x12E0 JUMPI INVALID JUMPDEST PUSH1 0x20 MUL PUSH1 0x20 ADD ADD MLOAD SWAP1 POP DUP1 DUP4 LT ISZERO PUSH2 0x12F6 JUMPI DUP1 SWAP3 POP JUMPDEST POP PUSH1 0x1 ADD PUSH2 0x12C9 JUMP JUMPDEST POP PUSH1 0x0 JUMPDEST DUP3 MLOAD DUP2 LT ISZERO PUSH2 0x136F JUMPI PUSH1 0x0 DUP3 PUSH2 0x1335 DUP6 DUP5 DUP2 MLOAD DUP2 LT PUSH2 0x131E JUMPI INVALID JUMPDEST PUSH1 0x20 MUL PUSH1 0x20 ADD ADD MLOAD DUP13 PUSH2 0x1EF6 SWAP1 SWAP2 SWAP1 PUSH4 0xFFFFFFFF AND JUMP JUMPDEST DUP2 PUSH2 0x133C JUMPI INVALID JUMPDEST DIV SWAP1 POP PUSH2 0x134F DUP11 DUP3 PUSH4 0xFFFFFFFF PUSH2 0x1F4F AND JUMP JUMPDEST DUP8 DUP4 DUP2 MLOAD DUP2 LT PUSH2 0x135B JUMPI INVALID JUMPDEST PUSH1 0x20 SWAP1 DUP2 MUL SWAP2 SWAP1 SWAP2 ADD ADD MSTORE POP PUSH1 0x1 ADD PUSH2 0x1303 JUMP JUMPDEST POP DUP1 PUSH2 0x1381 DUP10 DUP7 PUSH4 0xFFFFFFFF PUSH2 0x1EF6 AND JUMP JUMPDEST DUP2 PUSH2 0x1388 JUMPI INVALID JUMPDEST DIV SWAP3 POP POP POP PUSH2 0x14E1 JUMP JUMPDEST DUP4 ISZERO PUSH2 0x14DE JUMPI PUSH1 0xB SLOAD DUP5 EQ PUSH2 0x13E0 JUMPI PUSH1 0x40 DUP1 MLOAD PUSH3 0x461BCD PUSH1 0xE5 SHL DUP2 MSTORE PUSH1 0x20 PUSH1 0x4 DUP3 ADD MSTORE PUSH1 0xF PUSH1 0x24 DUP3 ADD MSTORE PUSH15 0x3434B73A103632B733BA341037B333 PUSH1 0x89 SHL PUSH1 0x44 DUP3 ADD MSTORE SWAP1 MLOAD SWAP1 DUP2 SWAP1 SUB PUSH1 0x64 ADD SWAP1 REVERT JUMPDEST PUSH1 0x0 DUP1 JUMPDEST DUP6 DUP2 LT ISZERO PUSH2 0x1418 JUMPI PUSH1 0x0 DUP8 DUP8 DUP4 DUP2 DUP2 LT PUSH2 0x13FA JUMPI INVALID JUMPDEST SWAP1 POP PUSH1 0x20 MUL ADD CALLDATALOAD SWAP1 POP DUP1 DUP4 LT ISZERO PUSH2 0x140F JUMPI DUP1 SWAP3 POP JUMPDEST POP PUSH1 0x1 ADD PUSH2 0x13E4 JUMP JUMPDEST POP PUSH1 0x0 JUMPDEST DUP6 DUP2 LT ISZERO PUSH2 0x14DB JUMPI PUSH1 0x0 DUP3 PUSH2 0x144C DUP10 DUP10 DUP6 DUP2 DUP2 LT PUSH2 0x1436 JUMPI INVALID JUMPDEST SWAP1 POP PUSH1 0x20 MUL ADD CALLDATALOAD DUP12 PUSH2 0x1EF6 SWAP1 SWAP2 SWAP1 PUSH4 0xFFFFFFFF AND JUMP JUMPDEST DUP2 PUSH2 0x1453 JUMPI INVALID JUMPDEST DIV SWAP1 POP PUSH1 0x0 DUP2 GT PUSH2 0x14AB JUMPI PUSH1 0x40 DUP1 MLOAD PUSH3 0x461BCD PUSH1 0xE5 SHL DUP2 MSTORE PUSH1 0x20 PUSH1 0x4 DUP3 ADD MSTORE PUSH1 0x1E PUSH1 0x24 DUP3 ADD MSTORE PUSH32 0x6D7573742068696E7420612076616C696420646973747269627574696F6E0000 PUSH1 0x44 DUP3 ADD MSTORE SWAP1 MLOAD SWAP1 DUP2 SWAP1 SUB PUSH1 0x64 ADD SWAP1 REVERT JUMPDEST PUSH2 0x14BB DUP10 DUP3 PUSH4 0xFFFFFFFF PUSH2 0x1F4F AND JUMP JUMPDEST DUP7 DUP4 DUP2 MLOAD DUP2 LT PUSH2 0x14C7 JUMPI INVALID JUMPDEST PUSH1 0x20 SWAP1 DUP2 MUL SWAP2 SWAP1 SWAP2 ADD ADD MSTORE POP PUSH1 0x1 ADD PUSH2 0x141C JUMP JUMPDEST POP POP JUMPDEST POP DUP5 JUMPDEST PUSH1 0x5 SLOAD PUSH1 0x40 DUP1 MLOAD PUSH4 0x23B872DD PUSH1 0xE0 SHL DUP2 MSTORE CALLER PUSH1 0x4 DUP3 ADD MSTORE ADDRESS PUSH1 0x24 DUP3 ADD MSTORE PUSH1 0x44 DUP2 ADD DUP10 SWAP1 MSTORE SWAP1 MLOAD PUSH1 0x1 PUSH1 0x1 PUSH1 0xA0 SHL SUB SWAP1 SWAP3 AND SWAP2 PUSH4 0x23B872DD SWAP2 PUSH1 0x64 DUP1 DUP3 ADD SWAP3 PUSH1 0x20 SWAP3 SWAP1 SWAP2 SWAP1 DUP3 SWAP1 SUB ADD DUP2 PUSH1 0x0 DUP8 DUP1 EXTCODESIZE ISZERO DUP1 ISZERO PUSH2 0x153B JUMPI PUSH1 0x0 DUP1 REVERT JUMPDEST POP GAS CALL ISZERO DUP1 ISZERO PUSH2 0x154F JUMPI RETURNDATASIZE PUSH1 0x0 DUP1 RETURNDATACOPY RETURNDATASIZE PUSH1 0x0 REVERT JUMPDEST POP POP POP POP PUSH1 0x40 MLOAD RETURNDATASIZE PUSH1 0x20 DUP2 LT ISZERO PUSH2 0x1565 JUMPI PUSH1 0x0 DUP1 REVERT JUMPDEST POP MLOAD PUSH2 0x15B8 JUMPI PUSH1 0x40 DUP1 MLOAD PUSH3 0x461BCD PUSH1 0xE5 SHL DUP2 MSTORE PUSH1 0x20 PUSH1 0x4 DUP3 ADD MSTORE PUSH1 0x17 PUSH1 0x24 DUP3 ADD MSTORE PUSH32 0x66756E64696E67207472616E73666572206661696C6564000000000000000000 PUSH1 0x44 DUP3 ADD MSTORE SWAP1 MLOAD SWAP1 DUP2 SWAP1 SUB PUSH1 0x64 ADD SWAP1 REVERT JUMPDEST PUSH1 0x5 SLOAD PUSH1 0x4 DUP1 SLOAD PUSH1 0x40 DUP1 MLOAD PUSH4 0x95EA7B3 PUSH1 0xE0 SHL DUP2 MSTORE PUSH1 0x1 PUSH1 0x1 PUSH1 0xA0 SHL SUB SWAP3 DUP4 AND SWAP4 DUP2 ADD SWAP4 SWAP1 SWAP4 MSTORE PUSH1 0x24 DUP4 ADD DUP11 SWAP1 MSTORE MLOAD SWAP3 AND SWAP2 PUSH4 0x95EA7B3 SWAP2 PUSH1 0x44 DUP1 DUP3 ADD SWAP3 PUSH1 0x20 SWAP3 SWAP1 SWAP2 SWAP1 DUP3 SWAP1 SUB ADD DUP2 PUSH1 0x0 DUP8 DUP1 EXTCODESIZE ISZERO DUP1 ISZERO PUSH2 0x1612 JUMPI PUSH1 0x0 DUP1 REVERT JUMPDEST POP GAS CALL ISZERO DUP1 ISZERO PUSH2 0x1626 JUMPI RETURNDATASIZE PUSH1 0x0 DUP1 RETURNDATACOPY RETURNDATASIZE PUSH1 0x0 REVERT JUMPDEST POP POP POP POP PUSH1 0x40 MLOAD RETURNDATASIZE PUSH1 0x20 DUP2 LT ISZERO PUSH2 0x163C JUMPI PUSH1 0x0 DUP1 REVERT JUMPDEST POP MLOAD PUSH2 0x168F JUMPI PUSH1 0x40 DUP1 MLOAD PUSH3 0x461BCD PUSH1 0xE5 SHL DUP2 MSTORE PUSH1 0x20 PUSH1 0x4 DUP3 ADD MSTORE PUSH1 0x1A PUSH1 0x24 DUP3 ADD MSTORE PUSH32 0x617070726F76616C20666F722073706C697473206661696C6564000000000000 PUSH1 0x44 DUP3 ADD MSTORE SWAP1 MLOAD SWAP1 DUP2 SWAP1 SUB PUSH1 0x64 ADD SWAP1 REVERT JUMPDEST PUSH2 0x1698 DUP7 PUSH2 0x2138 JUMP JUMPDEST PUSH2 0x16A2 CALLER DUP3 PUSH2 0x267B JUMP JUMPDEST PUSH1 0x4 DUP1 SLOAD PUSH1 0x40 MLOAD PUSH4 0x1759616B PUSH1 0xE1 SHL DUP2 MSTORE ADDRESS SWAP3 DUP2 ADD DUP4 DUP2 MSTORE CALLER PUSH1 0x24 DUP4 ADD DUP2 SWAP1 MSTORE PUSH1 0xA0 PUSH1 0x44 DUP5 ADD SWAP1 DUP2 MSTORE PUSH1 0xB DUP1 SLOAD PUSH1 0xA4 DUP7 ADD DUP2 SWAP1 MSTORE PUSH1 0x1 PUSH1 0x1 PUSH1 0xA0 SHL SUB SWAP1 SWAP7 AND SWAP7 PUSH4 0x2EB2C2D6 SWAP7 SWAP1 SWAP6 SWAP4 SWAP5 SWAP2 SWAP4 DUP12 SWAP4 SWAP2 PUSH1 0x64 DUP3 ADD SWAP2 PUSH1 0x84 DUP2 ADD SWAP2 PUSH1 0xC4 SWAP1 SWAP2 ADD SWAP1 DUP8 SWAP1 DUP1 ISZERO PUSH2 0x172E JUMPI PUSH1 0x20 MUL DUP3 ADD SWAP2 SWAP1 PUSH1 0x0 MSTORE PUSH1 0x20 PUSH1 0x0 KECCAK256 SWAP1 JUMPDEST DUP2 SLOAD DUP2 MSTORE PUSH1 0x20 ADD SWAP1 PUSH1 0x1 ADD SWAP1 DUP1 DUP4 GT PUSH2 0x171A JUMPI JUMPDEST POP POP DUP5 DUP2 SUB DUP4 MSTORE DUP6 MLOAD DUP2 MSTORE DUP6 MLOAD PUSH1 0x20 SWAP2 DUP3 ADD SWAP2 DUP1 DUP9 ADD SWAP2 MUL DUP1 DUP4 DUP4 PUSH1 0x0 JUMPDEST DUP4 DUP2 LT ISZERO PUSH2 0x1764 JUMPI DUP2 DUP2 ADD MLOAD DUP4 DUP3 ADD MSTORE PUSH1 0x20 ADD PUSH2 0x174C JUMP JUMPDEST POP POP POP POP SWAP1 POP ADD DUP5 DUP2 SUB DUP3 MSTORE PUSH1 0x0 DUP2 MSTORE PUSH1 0x20 ADD PUSH1 0x20 ADD SWAP8 POP POP POP POP POP POP POP POP PUSH1 0x0 PUSH1 0x40 MLOAD DUP1 DUP4 SUB DUP2 PUSH1 0x0 DUP8 DUP1 EXTCODESIZE ISZERO DUP1 ISZERO PUSH2 0x179D JUMPI PUSH1 0x0 DUP1 REVERT JUMPDEST POP GAS CALL ISZERO DUP1 ISZERO PUSH2 0x17B1 JUMPI RETURNDATASIZE PUSH1 0x0 DUP1 RETURNDATACOPY RETURNDATASIZE PUSH1 0x0 REVERT JUMPDEST POP PUSH1 0x0 SWAP3 POP POP POP JUMPDEST DUP4 MLOAD DUP2 LT ISZERO PUSH2 0x1807 JUMPI PUSH2 0x17E8 DUP5 DUP3 DUP2 MLOAD DUP2 LT PUSH2 0x17D1 JUMPI INVALID JUMPDEST PUSH1 0x20 MUL PUSH1 0x20 ADD ADD MLOAD DUP9 PUSH2 0x1F4F SWAP1 SWAP2 SWAP1 PUSH4 0xFFFFFFFF AND JUMP JUMPDEST DUP5 DUP3 DUP2 MLOAD DUP2 LT PUSH2 0x17F4 JUMPI INVALID JUMPDEST PUSH1 0x20 SWAP1 DUP2 MUL SWAP2 SWAP1 SWAP2 ADD ADD MSTORE PUSH1 0x1 ADD PUSH2 0x17B9 JUMP JUMPDEST POP CALLER PUSH1 0x1 PUSH1 0x1 PUSH1 0xA0 SHL SUB AND PUSH32 0xEC2DC3E5A3BB9AA0A1DEB905D2BD23640D07F107E6CEB484024501AAD964A951 DUP5 DUP4 PUSH1 0x40 MLOAD DUP1 DUP1 PUSH1 0x20 ADD DUP4 DUP2 MSTORE PUSH1 0x20 ADD DUP3 DUP2 SUB DUP3 MSTORE DUP5 DUP2 DUP2 MLOAD DUP2 MSTORE PUSH1 0x20 ADD SWAP2 POP DUP1 MLOAD SWAP1 PUSH1 0x20 ADD SWAP1 PUSH1 0x20 MUL DUP1 DUP4 DUP4 PUSH1 0x0 JUMPDEST DUP4 DUP2 LT ISZERO PUSH2 0x187B JUMPI DUP2 DUP2 ADD MLOAD DUP4 DUP3 ADD MSTORE PUSH1 0x20 ADD PUSH2 0x1863 JUMP JUMPDEST POP POP POP POP SWAP1 POP ADD SWAP4 POP POP POP POP PUSH1 0x40 MLOAD DUP1 SWAP2 SUB SWAP1 LOG2 POP POP POP POP POP POP JUMP JUMPDEST PUSH1 0x6 DUP2 DUP2 SLOAD DUP2 LT PUSH2 0x18A4 JUMPI INVALID JUMPDEST PUSH1 0x0 SWAP2 DUP3 MSTORE PUSH1 0x20 SWAP1 SWAP2 KECCAK256 ADD SLOAD SWAP1 POP DUP2 JUMP JUMPDEST PUSH1 0x1 PUSH1 0x1 PUSH1 0xA0 SHL SUB SWAP2 DUP3 AND PUSH1 0x0 SWAP1 DUP2 MSTORE PUSH1 0x1 PUSH1 0x20 SWAP1 DUP2 MSTORE PUSH1 0x40 DUP1 DUP4 KECCAK256 SWAP4 SWAP1 SWAP5 AND DUP3 MSTORE SWAP2 SWAP1 SWAP2 MSTORE KECCAK256 SLOAD SWAP1 JUMP JUMPDEST PUSH1 0x7 SLOAD DUP2 JUMP JUMPDEST PUSH1 0x60 PUSH2 0x18F0 PUSH2 0x22C7 JUMP JUMPDEST SWAP1 POP PUSH1 0x60 DUP2 MLOAD PUSH1 0x40 MLOAD SWAP1 DUP1 DUP3 MSTORE DUP1 PUSH1 0x20 MUL PUSH1 0x20 ADD DUP3 ADD PUSH1 0x40 MSTORE DUP1 ISZERO PUSH2 0x191F JUMPI DUP2 PUSH1 0x20 ADD PUSH1 0x20 DUP3 MUL DUP1 CODESIZE DUP4 CODECOPY ADD SWAP1 POP JUMPDEST POP SWAP1 POP PUSH1 0x0 PUSH2 0x192C PUSH2 0x88C JUMP JUMPDEST SWAP1 POP PUSH1 0x0 JUMPDEST DUP4 MLOAD DUP2 LT ISZERO PUSH2 0x1988 JUMPI DUP2 PUSH2 0x1961 DUP7 DUP7 DUP5 DUP2 MLOAD DUP2 LT PUSH2 0x194B JUMPI INVALID JUMPDEST PUSH1 0x20 MUL PUSH1 0x20 ADD ADD MLOAD PUSH2 0x1EF6 SWAP1 SWAP2 SWAP1 PUSH4 0xFFFFFFFF AND JUMP JUMPDEST DUP2 PUSH2 0x1968 JUMPI INVALID JUMPDEST DIV DUP4 DUP3 DUP2 MLOAD DUP2 LT PUSH2 0x1975 JUMPI INVALID JUMPDEST PUSH1 0x20 SWAP1 DUP2 MUL SWAP2 SWAP1 SWAP2 ADD ADD MSTORE PUSH1 0x1 ADD PUSH2 0x1931 JUMP JUMPDEST POP PUSH1 0x5 SLOAD PUSH1 0x40 DUP1 MLOAD PUSH4 0x70A08231 PUSH1 0xE0 SHL DUP2 MSTORE ADDRESS PUSH1 0x4 DUP3 ADD MSTORE SWAP1 MLOAD PUSH1 0x0 SWAP3 PUSH1 0x1 PUSH1 0x1 PUSH1 0xA0 SHL SUB AND SWAP2 PUSH4 0x70A08231 SWAP2 PUSH1 0x24 DUP1 DUP4 ADD SWAP3 PUSH1 0x20 SWAP3 SWAP2 SWAP1 DUP3 SWAP1 SUB ADD DUP2 DUP7 DUP1 EXTCODESIZE ISZERO DUP1 ISZERO PUSH2 0x19D4 JUMPI PUSH1 0x0 DUP1 REVERT JUMPDEST POP GAS STATICCALL ISZERO DUP1 ISZERO PUSH2 0x19E8 JUMPI RETURNDATASIZE PUSH1 0x0 DUP1 RETURNDATACOPY RETURNDATASIZE PUSH1 0x0 REVERT JUMPDEST POP POP POP POP PUSH1 0x40 MLOAD RETURNDATASIZE PUSH1 0x20 DUP2 LT ISZERO PUSH2 0x19FE JUMPI PUSH1 0x0 DUP1 REVERT JUMPDEST POP MLOAD SWAP1 POP PUSH2 0x1A0C CALLER DUP7 PUSH2 0x2777 JUMP JUMPDEST PUSH1 0x5 SLOAD PUSH1 0x40 DUP1 MLOAD PUSH4 0x70A08231 PUSH1 0xE0 SHL DUP2 MSTORE ADDRESS PUSH1 0x4 DUP3 ADD MSTORE SWAP1 MLOAD PUSH2 0x1A91 SWAP3 PUSH1 0x1 PUSH1 0x1 PUSH1 0xA0 SHL SUB AND SWAP2 PUSH4 0x70A08231 SWAP2 PUSH1 0x24 DUP1 DUP4 ADD SWAP3 PUSH1 0x20 SWAP3 SWAP2 SWAP1 DUP3 SWAP1 SUB ADD DUP2 DUP7 DUP1 EXTCODESIZE ISZERO DUP1 ISZERO PUSH2 0x1A58 JUMPI PUSH1 0x0 DUP1 REVERT JUMPDEST POP GAS STATICCALL ISZERO DUP1 ISZERO PUSH2 0x1A6C JUMPI RETURNDATASIZE PUSH1 0x0 DUP1 RETURNDATACOPY RETURNDATASIZE PUSH1 0x0 REVERT JUMPDEST POP POP POP POP PUSH1 0x40 MLOAD RETURNDATASIZE PUSH1 0x20 DUP2 LT ISZERO PUSH2 0x1A82 JUMPI PUSH1 0x0 DUP1 REVERT JUMPDEST POP MLOAD DUP3 SWAP1 PUSH4 0xFFFFFFFF PUSH2 0x1F4F AND JUMP JUMPDEST PUSH1 0x4 DUP1 SLOAD PUSH1 0x40 MLOAD PUSH4 0x1759616B PUSH1 0xE1 SHL DUP2 MSTORE ADDRESS SWAP3 DUP2 ADD DUP4 DUP2 MSTORE CALLER PUSH1 0x24 DUP4 ADD DUP2 SWAP1 MSTORE PUSH1 0xA0 PUSH1 0x44 DUP5 ADD SWAP1 DUP2 MSTORE PUSH1 0xB DUP1 SLOAD PUSH1 0xA4 DUP7 ADD DUP2 SWAP1 MSTORE SWAP8 SWAP9 POP PUSH1 0x1 PUSH1 0x1 PUSH1 0xA0 SHL SUB SWAP1 SWAP6 AND SWAP7 PUSH4 0x2EB2C2D6 SWAP7 SWAP6 SWAP3 SWAP5 SWAP3 SWAP4 DUP12 SWAP4 SWAP1 SWAP3 SWAP2 PUSH1 0x64 DUP3 ADD SWAP2 PUSH1 0x84 DUP2 ADD SWAP2 PUSH1 0xC4 SWAP1 SWAP2 ADD SWAP1 DUP8 SWAP1 DUP1 ISZERO PUSH2 0x1B21 JUMPI PUSH1 0x20 MUL DUP3 ADD SWAP2 SWAP1 PUSH1 0x0 MSTORE PUSH1 0x20 PUSH1 0x0 KECCAK256 SWAP1 JUMPDEST DUP2 SLOAD DUP2 MSTORE PUSH1 0x20 ADD SWAP1 PUSH1 0x1 ADD SWAP1 DUP1 DUP4 GT PUSH2 0x1B0D JUMPI JUMPDEST POP POP DUP5 DUP2 SUB DUP4 MSTORE DUP6 MLOAD DUP2 MSTORE DUP6 MLOAD PUSH1 0x20 SWAP2 DUP3 ADD SWAP2 DUP1 DUP9 ADD SWAP2 MUL DUP1 DUP4 DUP4 PUSH1 0x0 JUMPDEST DUP4 DUP2 LT ISZERO PUSH2 0x1B57 JUMPI DUP2 DUP2 ADD MLOAD DUP4 DUP3 ADD MSTORE PUSH1 0x20 ADD PUSH2 0x1B3F JUMP JUMPDEST POP POP POP POP SWAP1 POP ADD DUP5 DUP2 SUB DUP3 MSTORE PUSH1 0x0 DUP2 MSTORE PUSH1 0x20 ADD PUSH1 0x20 ADD SWAP8 POP POP POP POP POP POP POP POP PUSH1 0x0 PUSH1 0x40 MLOAD DUP1 DUP4 SUB DUP2 PUSH1 0x0 DUP8 DUP1 EXTCODESIZE ISZERO DUP1 ISZERO PUSH2 0x1B90 JUMPI PUSH1 0x0 DUP1 REVERT JUMPDEST POP GAS CALL ISZERO DUP1 ISZERO PUSH2 0x1BA4 JUMPI RETURNDATASIZE PUSH1 0x0 DUP1 RETURNDATACOPY RETURNDATASIZE PUSH1 0x0 REVERT JUMPDEST POP POP POP POP CALLER PUSH1 0x1 PUSH1 0x1 PUSH1 0xA0 SHL SUB AND PUSH32 0x8B4B2C8EBD04C47FC8BCE136A85DF9B93FCB1F47C8AA296457D4391519D190E7 DUP5 DUP4 DUP9 PUSH1 0x40 MLOAD DUP1 DUP1 PUSH1 0x20 ADD DUP5 DUP2 MSTORE PUSH1 0x20 ADD DUP4 DUP2 MSTORE PUSH1 0x20 ADD DUP3 DUP2 SUB DUP3 MSTORE DUP6 DUP2 DUP2 MLOAD DUP2 MSTORE PUSH1 0x20 ADD SWAP2 POP DUP1 MLOAD SWAP1 PUSH1 0x20 ADD SWAP1 PUSH1 0x20 MUL DUP1 DUP4 DUP4 PUSH1 0x0 JUMPDEST DUP4 DUP2 LT ISZERO PUSH2 0x1C22 JUMPI DUP2 DUP2 ADD MLOAD DUP4 DUP3 ADD MSTORE PUSH1 0x20 ADD PUSH2 0x1C0A JUMP JUMPDEST POP POP POP POP SWAP1 POP ADD SWAP5 POP POP POP POP POP PUSH1 0x40 MLOAD DUP1 SWAP2 SUB SWAP1 LOG2 POP POP POP POP POP JUMP JUMPDEST PUSH1 0x0 PUSH1 0x1 PUSH1 0x1 PUSH1 0xA0 SHL SUB DUP8 AND ADDRESS EQ ISZERO PUSH2 0x1C5F JUMPI POP PUSH4 0xF23A6E61 PUSH1 0xE0 SHL PUSH2 0x1C63 JUMP JUMPDEST POP PUSH1 0x0 JUMPDEST SWAP7 SWAP6 POP POP POP POP POP POP JUMP JUMPDEST PUSH1 0xB SLOAD PUSH1 0x0 SWAP1 DUP3 LT PUSH2 0x1CBE JUMPI PUSH1 0x40 DUP1 MLOAD PUSH3 0x461BCD PUSH1 0xE5 SHL DUP2 MSTORE PUSH1 0x20 PUSH1 0x4 DUP3 ADD MSTORE PUSH1 0x15 PUSH1 0x24 DUP3 ADD MSTORE PUSH21 0xD2DCECC2D8D2C840DEEAE8C6DEDACA40D2DCC8CAF PUSH1 0x5B SHL PUSH1 0x44 DUP3 ADD MSTORE SWAP1 MLOAD SWAP1 DUP2 SWAP1 SUB PUSH1 0x64 ADD SWAP1 REVERT JUMPDEST PUSH1 0x60 PUSH2 0x1CC8 PUSH2 0x22C7 JUMP JUMPDEST SWAP1 POP PUSH1 0x0 PUSH2 0x1D03 PUSH8 0xDE0B6B3A7640000 PUSH2 0x1CED PUSH1 0x7 SLOAD DUP9 PUSH2 0x1EF6 SWAP1 SWAP2 SWAP1 PUSH4 0xFFFFFFFF AND JUMP JUMPDEST DUP2 PUSH2 0x1CF4 JUMPI INVALID JUMPDEST DUP8 SWAP2 SWAP1 DIV PUSH4 0xFFFFFFFF PUSH2 0x1F4F AND JUMP JUMPDEST SWAP1 POP PUSH1 0x0 DUP3 DUP6 DUP2 MLOAD DUP2 LT PUSH2 0x1D13 JUMPI INVALID JUMPDEST PUSH1 0x20 MUL PUSH1 0x20 ADD ADD MLOAD SWAP1 POP PUSH1 0x0 PUSH2 0x1D3A PUSH8 0xDE0B6B3A7640000 DUP4 PUSH2 0x1EF6 SWAP1 SWAP2 SWAP1 PUSH4 0xFFFFFFFF AND JUMP JUMPDEST SWAP1 POP PUSH1 0x0 JUMPDEST DUP5 MLOAD DUP2 LT ISZERO PUSH2 0x1D89 JUMPI DUP7 DUP2 EQ PUSH2 0x1D81 JUMPI PUSH1 0x0 DUP6 DUP3 DUP2 MLOAD DUP2 LT PUSH2 0x1D5D JUMPI INVALID JUMPDEST PUSH1 0x20 MUL PUSH1 0x20 ADD ADD MLOAD SWAP1 POP PUSH2 0x1D7D PUSH2 0xDA1 DUP7 DUP4 PUSH2 0x1F91 SWAP1 SWAP2 SWAP1 PUSH4 0xFFFFFFFF AND JUMP JUMPDEST SWAP3 POP POP JUMPDEST PUSH1 0x1 ADD PUSH2 0x1D3F JUMP JUMPDEST POP PUSH1 0x0 DUP2 GT PUSH2 0x1DDF JUMPI PUSH1 0x40 DUP1 MLOAD PUSH3 0x461BCD PUSH1 0xE5 SHL DUP2 MSTORE PUSH1 0x20 PUSH1 0x4 DUP3 ADD MSTORE PUSH1 0x1B PUSH1 0x24 DUP3 ADD MSTORE PUSH32 0x6D7573742068617665206E6F6E2D7A65726F2062616C616E6365730000000000 PUSH1 0x44 DUP3 ADD MSTORE SWAP1 MLOAD SWAP1 DUP2 SWAP1 SUB PUSH1 0x64 ADD SWAP1 REVERT JUMPDEST PUSH2 0xE57 PUSH2 0x1DFA DUP3 PUSH8 0xDE0B6B3A7640000 PUSH4 0xFFFFFFFF PUSH2 0x24D4 AND JUMP JUMPDEST PUSH2 0xE4B DUP5 DUP7 PUSH4 0xFFFFFFFF PUSH2 0x1F91 AND JUMP JUMPDEST PUSH1 0x1 PUSH1 0x1 PUSH1 0xA0 SHL SUB DUP4 AND PUSH2 0x1E4F JUMPI PUSH1 0x40 MLOAD PUSH3 0x461BCD PUSH1 0xE5 SHL DUP2 MSTORE PUSH1 0x4 ADD DUP1 DUP1 PUSH1 0x20 ADD DUP3 DUP2 SUB DUP3 MSTORE PUSH1 0x24 DUP2 MSTORE PUSH1 0x20 ADD DUP1 PUSH2 0x2B9E PUSH1 0x24 SWAP2 CODECOPY PUSH1 0x40 ADD SWAP2 POP POP PUSH1 0x40 MLOAD DUP1 SWAP2 SUB SWAP1 REVERT JUMPDEST PUSH1 0x1 PUSH1 0x1 PUSH1 0xA0 SHL SUB DUP3 AND PUSH2 0x1E94 JUMPI PUSH1 0x40 MLOAD PUSH3 0x461BCD PUSH1 0xE5 SHL DUP2 MSTORE PUSH1 0x4 ADD DUP1 DUP1 PUSH1 0x20 ADD DUP3 DUP2 SUB DUP3 MSTORE PUSH1 0x22 DUP2 MSTORE PUSH1 0x20 ADD DUP1 PUSH2 0x2AE3 PUSH1 0x22 SWAP2 CODECOPY PUSH1 0x40 ADD SWAP2 POP POP PUSH1 0x40 MLOAD DUP1 SWAP2 SUB SWAP1 REVERT JUMPDEST PUSH1 0x1 PUSH1 0x1 PUSH1 0xA0 SHL SUB DUP1 DUP5 AND PUSH1 0x0 DUP2 DUP2 MSTORE PUSH1 0x1 PUSH1 0x20 SWAP1 DUP2 MSTORE PUSH1 0x40 DUP1 DUP4 KECCAK256 SWAP5 DUP8 AND DUP1 DUP5 MSTORE SWAP5 DUP3 MSTORE SWAP2 DUP3 SWAP1 KECCAK256 DUP6 SWAP1 SSTORE DUP2 MLOAD DUP6 DUP2 MSTORE SWAP2 MLOAD PUSH32 0x8C5BE1E5EBEC7D5BD14F71427D1E84F3DD0314C0F7B2291E5B200AC8C7C3B925 SWAP3 DUP2 SWAP1 SUB SWAP1 SWAP2 ADD SWAP1 LOG3 POP POP POP JUMP JUMPDEST PUSH1 0x0 DUP3 PUSH2 0x1F05 JUMPI POP PUSH1 0x0 PUSH2 0x6C4 JUMP JUMPDEST DUP3 DUP3 MUL DUP3 DUP5 DUP3 DUP2 PUSH2 0x1F12 JUMPI INVALID JUMPDEST DIV EQ PUSH2 0x885 JUMPI PUSH1 0x40 MLOAD PUSH3 0x461BCD PUSH1 0xE5 SHL DUP2 MSTORE PUSH1 0x4 ADD DUP1 DUP1 PUSH1 0x20 ADD DUP3 DUP2 SUB DUP3 MSTORE PUSH1 0x21 DUP2 MSTORE PUSH1 0x20 ADD DUP1 PUSH2 0x2B37 PUSH1 0x21 SWAP2 CODECOPY PUSH1 0x40 ADD SWAP2 POP POP PUSH1 0x40 MLOAD DUP1 SWAP2 SUB SWAP1 REVERT JUMPDEST PUSH1 0x0 PUSH2 0x885 DUP4 DUP4 PUSH1 0x40 MLOAD DUP1 PUSH1 0x40 ADD PUSH1 0x40 MSTORE DUP1 PUSH1 0x1E DUP2 MSTORE PUSH1 0x20 ADD PUSH32 0x536166654D6174683A207375627472616374696F6E206F766572666C6F770000 DUP2 MSTORE POP PUSH2 0x2865 JUMP JUMPDEST PUSH1 0x0 DUP3 DUP3 ADD DUP4 DUP2 LT ISZERO PUSH2 0x885 JUMPI PUSH1 0x40 DUP1 MLOAD PUSH3 0x461BCD PUSH1 0xE5 SHL DUP2 MSTORE PUSH1 0x20 PUSH1 0x4 DUP3 ADD MSTORE PUSH1 0x1B PUSH1 0x24 DUP3 ADD MSTORE PUSH32 0x536166654D6174683A206164646974696F6E206F766572666C6F770000000000 PUSH1 0x44 DUP3 ADD MSTORE SWAP1 MLOAD SWAP1 DUP2 SWAP1 SUB PUSH1 0x64 ADD SWAP1 REVERT JUMPDEST PUSH1 0x1 PUSH1 0x1 PUSH1 0xA0 SHL SUB DUP4 AND PUSH2 0x2030 JUMPI PUSH1 0x40 MLOAD PUSH3 0x461BCD PUSH1 0xE5 SHL DUP2 MSTORE PUSH1 0x4 ADD DUP1 DUP1 PUSH1 0x20 ADD DUP3 DUP2 SUB DUP3 MSTORE PUSH1 0x25 DUP2 MSTORE PUSH1 0x20 ADD DUP1 PUSH2 0x2B79 PUSH1 0x25 SWAP2 CODECOPY PUSH1 0x40 ADD SWAP2 POP POP PUSH1 0x40 MLOAD DUP1 SWAP2 SUB SWAP1 REVERT JUMPDEST PUSH1 0x1 PUSH1 0x1 PUSH1 0xA0 SHL SUB DUP3 AND PUSH2 0x2075 JUMPI PUSH1 0x40 MLOAD PUSH3 0x461BCD PUSH1 0xE5 SHL DUP2 MSTORE PUSH1 0x4 ADD DUP1 DUP1 PUSH1 0x20 ADD DUP3 DUP2 SUB DUP3 MSTORE PUSH1 0x23 DUP2 MSTORE PUSH1 0x20 ADD DUP1 PUSH2 0x2AC0 PUSH1 0x23 SWAP2 CODECOPY PUSH1 0x40 ADD SWAP2 POP POP PUSH1 0x40 MLOAD DUP1 SWAP2 SUB SWAP1 REVERT JUMPDEST PUSH2 0x2080 DUP4 DUP4 DUP4 PUSH2 0x28FC JUMP JUMPDEST PUSH1 0x1 PUSH1 0x1 PUSH1 0xA0 SHL SUB DUP4 AND PUSH1 0x0 SWAP1 DUP2 MSTORE PUSH1 0x20 DUP2 SWAP1 MSTORE PUSH1 0x40 SWAP1 KECCAK256 SLOAD PUSH2 0x20A9 SWAP1 DUP3 PUSH4 0xFFFFFFFF PUSH2 0x1F4F AND JUMP JUMPDEST PUSH1 0x1 PUSH1 0x1 PUSH1 0xA0 SHL SUB DUP1 DUP6 AND PUSH1 0x0 SWAP1 DUP2 MSTORE PUSH1 0x20 DUP2 SWAP1 MSTORE PUSH1 0x40 DUP1 DUP3 KECCAK256 SWAP4 SWAP1 SWAP4 SSTORE SWAP1 DUP5 AND DUP2 MSTORE KECCAK256 SLOAD PUSH2 0x20DE SWAP1 DUP3 PUSH4 0xFFFFFFFF PUSH2 0x1F91 AND JUMP JUMPDEST PUSH1 0x1 PUSH1 0x1 PUSH1 0xA0 SHL SUB DUP1 DUP5 AND PUSH1 0x0 DUP2 DUP2 MSTORE PUSH1 0x20 DUP2 DUP2 MSTORE PUSH1 0x40 SWAP2 DUP3 SWAP1 KECCAK256 SWAP5 SWAP1 SWAP5 SSTORE DUP1 MLOAD DUP6 DUP2 MSTORE SWAP1 MLOAD SWAP2 SWAP4 SWAP3 DUP8 AND SWAP3 PUSH32 0xDDF252AD1BE2C89B69C2B068FC378DAA952BA7F163C4A11628F55A4DF523B3EF SWAP3 SWAP2 DUP3 SWAP1 SUB ADD SWAP1 LOG3 POP POP POP JUMP JUMPDEST PUSH1 0x6 SLOAD PUSH1 0x0 NOT ADD JUMPDEST PUSH1 0x0 DUP2 SLT PUSH2 0x22C3 JUMPI PUSH1 0x60 PUSH2 0x216A PUSH1 0x9 DUP4 DUP2 SLOAD DUP2 LT PUSH2 0x215A JUMPI INVALID JUMPDEST SWAP1 PUSH1 0x0 MSTORE PUSH1 0x20 PUSH1 0x0 KECCAK256 ADD SLOAD PUSH2 0x2A5B JUMP JUMPDEST SWAP1 POP PUSH1 0x0 JUMPDEST PUSH1 0xA DUP4 DUP2 SLOAD DUP2 LT PUSH2 0x217C JUMPI INVALID JUMPDEST PUSH1 0x0 SWAP2 DUP3 MSTORE PUSH1 0x20 SWAP1 SWAP2 KECCAK256 ADD SLOAD DUP2 LT ISZERO PUSH2 0x22B8 JUMPI PUSH1 0x4 SLOAD PUSH1 0x5 SLOAD PUSH1 0xA DUP1 SLOAD PUSH1 0x1 PUSH1 0x1 PUSH1 0xA0 SHL SUB SWAP4 DUP5 AND SWAP4 PUSH4 0x72CE4275 SWAP4 AND SWAP2 SWAP1 DUP8 SWAP1 DUP2 LT PUSH2 0x21B8 JUMPI INVALID JUMPDEST SWAP1 PUSH1 0x0 MSTORE PUSH1 0x20 PUSH1 0x0 KECCAK256 ADD DUP5 DUP2 SLOAD DUP2 LT PUSH2 0x21CD JUMPI INVALID JUMPDEST SWAP1 PUSH1 0x0 MSTORE PUSH1 0x20 PUSH1 0x0 KECCAK256 ADD SLOAD PUSH1 0x6 DUP8 DUP2 SLOAD DUP2 LT PUSH2 0x21E5 JUMPI INVALID JUMPDEST SWAP1 PUSH1 0x0 MSTORE PUSH1 0x20 PUSH1 0x0 KECCAK256 ADD SLOAD DUP7 DUP10 PUSH1 0x40 MLOAD DUP7 PUSH4 0xFFFFFFFF AND PUSH1 0xE0 SHL DUP2 MSTORE PUSH1 0x4 ADD DUP1 DUP7 PUSH1 0x1 PUSH1 0x1 PUSH1 0xA0 SHL SUB AND PUSH1 0x1 PUSH1 0x1 PUSH1 0xA0 SHL SUB AND DUP2 MSTORE PUSH1 0x20 ADD DUP6 DUP2 MSTORE PUSH1 0x20 ADD DUP5 DUP2 MSTORE PUSH1 0x20 ADD DUP1 PUSH1 0x20 ADD DUP4 DUP2 MSTORE PUSH1 0x20 ADD DUP3 DUP2 SUB DUP3 MSTORE DUP5 DUP2 DUP2 MLOAD DUP2 MSTORE PUSH1 0x20 ADD SWAP2 POP DUP1 MLOAD SWAP1 PUSH1 0x20 ADD SWAP1 PUSH1 0x20 MUL DUP1 DUP4 DUP4 PUSH1 0x0 JUMPDEST DUP4 DUP2 LT ISZERO PUSH2 0x226B JUMPI DUP2 DUP2 ADD MLOAD DUP4 DUP3 ADD MSTORE PUSH1 0x20 ADD PUSH2 0x2253 JUMP JUMPDEST POP POP POP POP SWAP1 POP ADD SWAP7 POP POP POP POP POP POP POP PUSH1 0x0 PUSH1 0x40 MLOAD DUP1 DUP4 SUB DUP2 PUSH1 0x0 DUP8 DUP1 EXTCODESIZE ISZERO DUP1 ISZERO PUSH2 0x2294 JUMPI PUSH1 0x0 DUP1 REVERT JUMPDEST POP GAS CALL ISZERO DUP1 ISZERO PUSH2 0x22A8 JUMPI RETURNDATASIZE PUSH1 0x0 DUP1 RETURNDATACOPY RETURNDATASIZE PUSH1 0x0 REVERT JUMPDEST POP POP PUSH1 0x1 SWAP1 SWAP3 ADD SWAP2 POP PUSH2 0x216F SWAP1 POP JUMP JUMPDEST POP POP PUSH1 0x0 NOT ADD PUSH2 0x2140 JUMP JUMPDEST POP POP JUMP JUMPDEST PUSH1 0x60 DUP1 PUSH1 0xB DUP1 SLOAD SWAP1 POP PUSH1 0x40 MLOAD SWAP1 DUP1 DUP3 MSTORE DUP1 PUSH1 0x20 MUL PUSH1 0x20 ADD DUP3 ADD PUSH1 0x40 MSTORE DUP1 ISZERO PUSH2 0x22F9 JUMPI DUP2 PUSH1 0x20 ADD PUSH1 0x20 DUP3 MUL DUP1 CODESIZE DUP4 CODECOPY ADD SWAP1 POP JUMPDEST POP SWAP1 POP PUSH1 0x0 JUMPDEST PUSH1 0xB SLOAD DUP2 LT ISZERO PUSH2 0x2336 JUMPI ADDRESS DUP3 DUP3 DUP2 MLOAD DUP2 LT PUSH2 0x2316 JUMPI INVALID JUMPDEST PUSH1 0x1 PUSH1 0x1 PUSH1 0xA0 SHL SUB SWAP1 SWAP3 AND PUSH1 0x20 SWAP3 DUP4 MUL SWAP2 SWAP1 SWAP2 ADD SWAP1 SWAP2 ADD MSTORE PUSH1 0x1 ADD PUSH2 0x22FF JUMP JUMPDEST POP PUSH1 0x4 DUP1 SLOAD PUSH1 0x40 DUP1 MLOAD PUSH4 0x13849CFD PUSH1 0xE2 SHL DUP2 MSTORE SWAP3 DUP4 ADD SWAP1 DUP2 MSTORE DUP4 MLOAD PUSH1 0x44 DUP5 ADD MSTORE DUP4 MLOAD PUSH1 0x1 PUSH1 0x1 PUSH1 0xA0 SHL SUB SWAP1 SWAP3 AND SWAP3 PUSH4 0x4E1273F4 SWAP3 DUP6 SWAP3 PUSH1 0xB SWAP3 SWAP1 SWAP2 DUP3 SWAP2 PUSH1 0x24 DUP2 ADD SWAP2 PUSH1 0x64 SWAP1 SWAP2 ADD SWAP1 PUSH1 0x20 DUP1 DUP9 ADD SWAP2 MUL DUP1 DUP4 DUP4 PUSH1 0x0 JUMPDEST DUP4 DUP2 LT ISZERO PUSH2 0x23A3 JUMPI DUP2 DUP2 ADD MLOAD DUP4 DUP3 ADD MSTORE PUSH1 0x20 ADD PUSH2 0x238B JUMP JUMPDEST POP POP POP POP SWAP1 POP ADD DUP4 DUP2 SUB DUP3 MSTORE DUP5 DUP2 DUP2 SLOAD DUP2 MSTORE PUSH1 0x20 ADD SWAP2 POP DUP1 SLOAD DUP1 ISZERO PUSH2 0x23E7 JUMPI PUSH1 0x20 MUL DUP3 ADD SWAP2 SWAP1 PUSH1 0x0 MSTORE PUSH1 0x20 PUSH1 0x0 KECCAK256 SWAP1 JUMPDEST DUP2 SLOAD DUP2 MSTORE PUSH1 0x20 ADD SWAP1 PUSH1 0x1 ADD SWAP1 DUP1 DUP4 GT PUSH2 0x23D3 JUMPI JUMPDEST POP POP SWAP5 POP POP POP POP POP PUSH1 0x0 PUSH1 0x40 MLOAD DUP1 DUP4 SUB DUP2 DUP7 DUP1 EXTCODESIZE ISZERO DUP1 ISZERO PUSH2 0x2407 JUMPI PUSH1 0x0 DUP1 REVERT JUMPDEST POP GAS STATICCALL ISZERO DUP1 ISZERO PUSH2 0x241B JUMPI RETURNDATASIZE PUSH1 0x0 DUP1 RETURNDATACOPY RETURNDATASIZE PUSH1 0x0 REVERT JUMPDEST POP POP POP POP PUSH1 0x40 MLOAD RETURNDATASIZE PUSH1 0x0 DUP3 RETURNDATACOPY PUSH1 0x1F RETURNDATASIZE SWAP1 DUP2 ADD PUSH1 0x1F NOT AND DUP3 ADD PUSH1 0x40 MSTORE PUSH1 0x20 DUP2 LT ISZERO PUSH2 0x2444 JUMPI PUSH1 0x0 DUP1 REVERT JUMPDEST DUP2 ADD SWAP1 DUP1 DUP1 MLOAD PUSH1 0x40 MLOAD SWAP4 SWAP3 SWAP2 SWAP1 DUP5 PUSH1 0x1 PUSH1 0x20 SHL DUP3 GT ISZERO PUSH2 0x2463 JUMPI PUSH1 0x0 DUP1 REVERT JUMPDEST SWAP1 DUP4 ADD SWAP1 PUSH1 0x20 DUP3 ADD DUP6 DUP2 GT ISZERO PUSH2 0x2478 JUMPI PUSH1 0x0 DUP1 REVERT JUMPDEST DUP3 MLOAD DUP7 PUSH1 0x20 DUP3 MUL DUP4 ADD GT PUSH1 0x1 PUSH1 0x20 SHL DUP3 GT OR ISZERO PUSH2 0x2494 JUMPI PUSH1 0x0 DUP1 REVERT JUMPDEST DUP3 MSTORE POP DUP2 MLOAD PUSH1 0x20 SWAP2 DUP3 ADD SWAP3 DUP3 ADD SWAP2 MUL DUP1 DUP4 DUP4 PUSH1 0x0 JUMPDEST DUP4 DUP2 LT ISZERO PUSH2 0x24C1 JUMPI DUP2 DUP2 ADD MLOAD DUP4 DUP3 ADD MSTORE PUSH1 0x20 ADD PUSH2 0x24A9 JUMP JUMPDEST POP POP POP POP SWAP1 POP ADD PUSH1 0x40 MSTORE POP POP POP SWAP2 POP POP SWAP1 JUMP JUMPDEST PUSH1 0x0 DUP3 ISZERO PUSH2 0x24F3 JUMPI DUP2 PUSH1 0x1 DUP5 SUB DUP2 PUSH2 0x24E8 JUMPI INVALID JUMPDEST DIV PUSH1 0x1 ADD SWAP1 POP PUSH2 0x6C4 JUMP JUMPDEST DUP2 DUP4 DUP2 PUSH2 0x24FC JUMPI INVALID JUMPDEST DIV SWAP4 SWAP3 POP POP POP JUMP JUMPDEST PUSH1 0x0 JUMPDEST PUSH1 0x6 SLOAD DUP2 LT ISZERO PUSH2 0x22C3 JUMPI PUSH1 0x60 PUSH2 0x2523 PUSH1 0x9 DUP4 DUP2 SLOAD DUP2 LT PUSH2 0x215A JUMPI INVALID JUMPDEST SWAP1 POP PUSH1 0x0 JUMPDEST PUSH1 0xA DUP4 DUP2 SLOAD DUP2 LT PUSH2 0x2535 JUMPI INVALID JUMPDEST PUSH1 0x0 SWAP2 DUP3 MSTORE PUSH1 0x20 SWAP1 SWAP2 KECCAK256 ADD SLOAD DUP2 LT ISZERO PUSH2 0x2671 JUMPI PUSH1 0x4 SLOAD PUSH1 0x5 SLOAD PUSH1 0xA DUP1 SLOAD PUSH1 0x1 PUSH1 0x1 PUSH1 0xA0 SHL SUB SWAP4 DUP5 AND SWAP4 PUSH4 0x9E7212AD SWAP4 AND SWAP2 SWAP1 DUP8 SWAP1 DUP2 LT PUSH2 0x2571 JUMPI INVALID JUMPDEST SWAP1 PUSH1 0x0 MSTORE PUSH1 0x20 PUSH1 0x0 KECCAK256 ADD DUP5 DUP2 SLOAD DUP2 LT PUSH2 0x2586 JUMPI INVALID JUMPDEST SWAP1 PUSH1 0x0 MSTORE PUSH1 0x20 PUSH1 0x0 KECCAK256 ADD SLOAD PUSH1 0x6 DUP8 DUP2 SLOAD DUP2 LT PUSH2 0x259E JUMPI INVALID JUMPDEST SWAP1 PUSH1 0x0 MSTORE PUSH1 0x20 PUSH1 0x0 KECCAK256 ADD SLOAD DUP7 DUP10 PUSH1 0x40 MLOAD DUP7 PUSH4 0xFFFFFFFF AND PUSH1 0xE0 SHL DUP2 MSTORE PUSH1 0x4 ADD DUP1 DUP7 PUSH1 0x1 PUSH1 0x1 PUSH1 0xA0 SHL SUB AND PUSH1 0x1 PUSH1 0x1 PUSH1 0xA0 SHL SUB AND DUP2 MSTORE PUSH1 0x20 ADD DUP6 DUP2 MSTORE PUSH1 0x20 ADD DUP5 DUP2 MSTORE PUSH1 0x20 ADD DUP1 PUSH1 0x20 ADD DUP4 DUP2 MSTORE PUSH1 0x20 ADD DUP3 DUP2 SUB DUP3 MSTORE DUP5 DUP2 DUP2 MLOAD DUP2 MSTORE PUSH1 0x20 ADD SWAP2 POP DUP1 MLOAD SWAP1 PUSH1 0x20 ADD SWAP1 PUSH1 0x20 MUL DUP1 DUP4 DUP4 PUSH1 0x0 JUMPDEST DUP4 DUP2 LT ISZERO PUSH2 0x2624 JUMPI DUP2 DUP2 ADD MLOAD DUP4 DUP3 ADD MSTORE PUSH1 0x20 ADD PUSH2 0x260C JUMP JUMPDEST POP POP POP POP SWAP1 POP ADD SWAP7 POP POP POP POP POP POP POP PUSH1 0x0 PUSH1 0x40 MLOAD DUP1 DUP4 SUB DUP2 PUSH1 0x0 DUP8 DUP1 EXTCODESIZE ISZERO DUP1 ISZERO PUSH2 0x264D JUMPI PUSH1 0x0 DUP1 REVERT JUMPDEST POP GAS CALL ISZERO DUP1 ISZERO PUSH2 0x2661 JUMPI RETURNDATASIZE PUSH1 0x0 DUP1 RETURNDATACOPY RETURNDATASIZE PUSH1 0x0 REVERT JUMPDEST POP POP PUSH1 0x1 SWAP1 SWAP3 ADD SWAP2 POP PUSH2 0x2528 SWAP1 POP JUMP JUMPDEST POP POP PUSH1 0x1 ADD PUSH2 0x2507 JUMP JUMPDEST PUSH1 0x1 PUSH1 0x1 PUSH1 0xA0 SHL SUB DUP3 AND PUSH2 0x26D6 JUMPI PUSH1 0x40 DUP1 MLOAD PUSH3 0x461BCD PUSH1 0xE5 SHL DUP2 MSTORE PUSH1 0x20 PUSH1 0x4 DUP3 ADD MSTORE PUSH1 0x1F PUSH1 0x24 DUP3 ADD MSTORE PUSH32 0x45524332303A206D696E7420746F20746865207A65726F206164647265737300 PUSH1 0x44 DUP3 ADD MSTORE SWAP1 MLOAD SWAP1 DUP2 SWAP1 SUB PUSH1 0x64 ADD SWAP1 REVERT JUMPDEST PUSH2 0x26E2 PUSH1 0x0 DUP4 DUP4 PUSH2 0x28FC JUMP JUMPDEST PUSH1 0x2 SLOAD PUSH2 0x26F5 SWAP1 DUP3 PUSH4 0xFFFFFFFF PUSH2 0x1F91 AND JUMP JUMPDEST PUSH1 0x2 SSTORE PUSH1 0x1 PUSH1 0x1 PUSH1 0xA0 SHL SUB DUP3 AND PUSH1 0x0 SWAP1 DUP2 MSTORE PUSH1 0x20 DUP2 SWAP1 MSTORE PUSH1 0x40 SWAP1 KECCAK256 SLOAD PUSH2 0x2721 SWAP1 DUP3 PUSH4 0xFFFFFFFF PUSH2 0x1F91 AND JUMP JUMPDEST PUSH1 0x1 PUSH1 0x1 PUSH1 0xA0 SHL SUB DUP4 AND PUSH1 0x0 DUP2 DUP2 MSTORE PUSH1 0x20 DUP2 DUP2 MSTORE PUSH1 0x40 DUP1 DUP4 KECCAK256 SWAP5 SWAP1 SWAP5 SSTORE DUP4 MLOAD DUP6 DUP2 MSTORE SWAP4 MLOAD SWAP3 SWAP4 SWAP2 SWAP3 PUSH32 0xDDF252AD1BE2C89B69C2B068FC378DAA952BA7F163C4A11628F55A4DF523B3EF SWAP3 DUP2 SWAP1 SUB SWAP1 SWAP2 ADD SWAP1 LOG3 POP POP JUMP JUMPDEST PUSH1 0x1 PUSH1 0x1 PUSH1 0xA0 SHL SUB DUP3 AND PUSH2 0x27BC JUMPI PUSH1 0x40 MLOAD PUSH3 0x461BCD PUSH1 0xE5 SHL DUP2 MSTORE PUSH1 0x4 ADD DUP1 DUP1 PUSH1 0x20 ADD DUP3 DUP2 SUB DUP3 MSTORE PUSH1 0x21 DUP2 MSTORE PUSH1 0x20 ADD DUP1 PUSH2 0x2B58 PUSH1 0x21 SWAP2 CODECOPY PUSH1 0x40 ADD SWAP2 POP POP PUSH1 0x40 MLOAD DUP1 SWAP2 SUB SWAP1 REVERT JUMPDEST PUSH2 0x27C8 DUP3 PUSH1 0x0 DUP4 PUSH2 0x28FC JUMP JUMPDEST PUSH1 0x1 PUSH1 0x1 PUSH1 0xA0 SHL SUB DUP3 AND PUSH1 0x0 SWAP1 DUP2 MSTORE PUSH1 0x20 DUP2 SWAP1 MSTORE PUSH1 0x40 SWAP1 KECCAK256 SLOAD PUSH2 0x27F1 SWAP1 DUP3 PUSH4 0xFFFFFFFF PUSH2 0x1F4F AND JUMP JUMPDEST PUSH1 0x1 PUSH1 0x1 PUSH1 0xA0 SHL SUB DUP4 AND PUSH1 0x0 SWAP1 DUP2 MSTORE PUSH1 0x20 DUP2 SWAP1 MSTORE PUSH1 0x40 SWAP1 KECCAK256 SSTORE PUSH1 0x2 SLOAD PUSH2 0x281D SWAP1 DUP3 PUSH4 0xFFFFFFFF PUSH2 0x1F4F AND JUMP JUMPDEST PUSH1 0x2 SSTORE PUSH1 0x40 DUP1 MLOAD DUP3 DUP2 MSTORE SWAP1 MLOAD PUSH1 0x0 SWAP2 PUSH1 0x1 PUSH1 0x1 PUSH1 0xA0 SHL SUB DUP6 AND SWAP2 PUSH32 0xDDF252AD1BE2C89B69C2B068FC378DAA952BA7F163C4A11628F55A4DF523B3EF SWAP2 DUP2 SWAP1 SUB PUSH1 0x20 ADD SWAP1 LOG3 POP POP JUMP JUMPDEST PUSH1 0x0 DUP2 DUP5 DUP5 GT ISZERO PUSH2 0x28F4 JUMPI PUSH1 0x40 MLOAD PUSH3 0x461BCD PUSH1 0xE5 SHL DUP2 MSTORE PUSH1 0x4 ADD DUP1 DUP1 PUSH1 0x20 ADD DUP3 DUP2 SUB DUP3 MSTORE DUP4 DUP2 DUP2 MLOAD DUP2 MSTORE PUSH1 0x20 ADD SWAP2 POP DUP1 MLOAD SWAP1 PUSH1 0x20 ADD SWAP1 DUP1 DUP4 DUP4 PUSH1 0x0 JUMPDEST DUP4 DUP2 LT ISZERO PUSH2 0x28B9 JUMPI DUP2 DUP2 ADD MLOAD DUP4 DUP3 ADD MSTORE PUSH1 0x20 ADD PUSH2 0x28A1 JUMP JUMPDEST POP POP POP POP SWAP1 POP SWAP1 DUP2 ADD SWAP1 PUSH1 0x1F AND DUP1 ISZERO PUSH2 0x28E6 JUMPI DUP1 DUP3 SUB DUP1 MLOAD PUSH1 0x1 DUP4 PUSH1 0x20 SUB PUSH2 0x100 EXP SUB NOT AND DUP2 MSTORE PUSH1 0x20 ADD SWAP2 POP JUMPDEST POP SWAP3 POP POP POP PUSH1 0x40 MLOAD DUP1 SWAP2 SUB SWAP1 REVERT JUMPDEST POP POP POP SWAP1 SUB SWAP1 JUMP JUMPDEST PUSH1 0x1 PUSH1 0x1 PUSH1 0xA0 SHL SUB DUP4 AND ISZERO PUSH2 0x2914 JUMPI PUSH2 0x2914 DUP4 PUSH2 0x6CA JUMP JUMPDEST PUSH1 0x0 PUSH2 0x291E PUSH2 0x88C JUMP JUMPDEST SWAP1 POP PUSH1 0x0 DUP2 ISZERO PUSH2 0x294A JUMPI PUSH1 0x8 SLOAD DUP3 SWAP1 PUSH2 0x293D SWAP1 DUP6 PUSH4 0xFFFFFFFF PUSH2 0x1EF6 AND JUMP JUMPDEST DUP2 PUSH2 0x2944 JUMPI INVALID JUMPDEST DIV PUSH2 0x294C JUMP JUMPDEST DUP3 JUMPDEST SWAP1 POP PUSH1 0x1 PUSH1 0x1 PUSH1 0xA0 SHL SUB DUP6 AND ISZERO PUSH2 0x29BA JUMPI PUSH1 0x1 PUSH1 0x1 PUSH1 0xA0 SHL SUB DUP6 AND PUSH1 0x0 SWAP1 DUP2 MSTORE PUSH1 0xC PUSH1 0x20 MSTORE PUSH1 0x40 SWAP1 KECCAK256 SLOAD PUSH2 0x2986 SWAP1 DUP3 PUSH4 0xFFFFFFFF PUSH2 0x1F4F AND JUMP JUMPDEST PUSH1 0x1 PUSH1 0x1 PUSH1 0xA0 SHL SUB DUP7 AND PUSH1 0x0 SWAP1 DUP2 MSTORE PUSH1 0xC PUSH1 0x20 MSTORE PUSH1 0x40 SWAP1 KECCAK256 SSTORE PUSH1 0xD SLOAD PUSH2 0x29B2 SWAP1 DUP3 PUSH4 0xFFFFFFFF PUSH2 0x1F4F AND JUMP JUMPDEST PUSH1 0xD SSTORE PUSH2 0x29D1 JUMP JUMPDEST PUSH1 0x8 SLOAD PUSH2 0x29CD SWAP1 DUP3 PUSH4 0xFFFFFFFF PUSH2 0x1F91 AND JUMP JUMPDEST PUSH1 0x8 SSTORE JUMPDEST PUSH1 0x1 PUSH1 0x1 PUSH1 0xA0 SHL SUB DUP5 AND ISZERO PUSH2 0x2A3D JUMPI PUSH1 0x1 PUSH1 0x1 PUSH1 0xA0 SHL SUB DUP5 AND PUSH1 0x0 SWAP1 DUP2 MSTORE PUSH1 0xC PUSH1 0x20 MSTORE PUSH1 0x40 SWAP1 KECCAK256 SLOAD PUSH2 0x2A09 SWAP1 DUP3 PUSH4 0xFFFFFFFF PUSH2 0x1F91 AND JUMP JUMPDEST PUSH1 0x1 PUSH1 0x1 PUSH1 0xA0 SHL SUB DUP6 AND PUSH1 0x0 SWAP1 DUP2 MSTORE PUSH1 0xC PUSH1 0x20 MSTORE PUSH1 0x40 SWAP1 KECCAK256 SSTORE PUSH1 0xD SLOAD PUSH2 0x2A35 SWAP1 DUP3 PUSH4 0xFFFFFFFF PUSH2 0x1F91 AND JUMP JUMPDEST PUSH1 0xD SSTORE PUSH2 0x2A54 JUMP JUMPDEST PUSH1 0x8 SLOAD PUSH2 0x2A50 SWAP1 DUP3 PUSH4 0xFFFFFFFF PUSH2 0x1F4F AND JUMP JUMPDEST PUSH1 0x8 SSTORE JUMPDEST POP POP POP POP POP JUMP JUMPDEST PUSH1 0x60 DUP2 PUSH1 0x40 MLOAD SWAP1 DUP1 DUP3 MSTORE DUP1 PUSH1 0x20 MUL PUSH1 0x20 ADD DUP3 ADD PUSH1 0x40 MSTORE DUP1 ISZERO PUSH2 0x2A87 JUMPI DUP2 PUSH1 0x20 ADD PUSH1 0x20 DUP3 MUL DUP1 CODESIZE DUP4 CODECOPY ADD SWAP1 POP JUMPDEST POP SWAP1 POP PUSH1 0x0 JUMPDEST DUP3 DUP2 LT ISZERO PUSH2 0x2AB9 JUMPI DUP1 PUSH1 0x1 SWAP1 SHL DUP3 DUP3 DUP2 MLOAD DUP2 LT PUSH2 0x2AA6 JUMPI INVALID JUMPDEST PUSH1 0x20 SWAP1 DUP2 MUL SWAP2 SWAP1 SWAP2 ADD ADD MSTORE PUSH1 0x1 ADD PUSH2 0x2A8D JUMP JUMPDEST POP SWAP2 SWAP1 POP JUMP INVALID GASLIMIT MSTORE NUMBER ORIGIN ADDRESS GASPRICE KECCAK256 PUSH21 0x72616E7366657220746F20746865207A65726F2061 PUSH5 0x6472657373 GASLIMIT MSTORE NUMBER ORIGIN ADDRESS GASPRICE KECCAK256 PUSH2 0x7070 PUSH19 0x6F766520746F20746865207A65726F20616464 PUSH19 0x65737363616E6E6F7420757365206469737472 PUSH10 0x627574696F6E2068696E PUSH21 0x20616674657220696E697469616C2066756E64696E PUSH8 0x536166654D617468 GASPRICE KECCAK256 PUSH14 0x756C7469706C69636174696F6E20 PUSH16 0x766572666C6F7745524332303A206275 PUSH19 0x6E2066726F6D20746865207A65726F20616464 PUSH19 0x65737345524332303A207472616E7366657220 PUSH7 0x726F6D20746865 KECCAK256 PUSH27 0x65726F206164647265737345524332303A20617070726F76652066 PUSH19 0x6F6D20746865207A65726F2061646472657373 LOG2 PUSH6 0x627A7A723158 KECCAK256 0xE1 PUSH10 0x8895C2AD89374CFD92AF AND 0xBB SELFBALANCE 0xA7 PUSH14 0xE5AA8DD8E88C02250453BE37680B 0xED PUSH5 0x736F6C6343 STOP SDIV GT STOP ORIGIN "},"methodIdentifiers":{"cloneConstructor(bytes)":"52e831dd","createFixedProductMarketMaker(address,address,bytes32[],uint256)":"23f66e47","implementationMaster()":"12b4d20c"}}}}}