{"contracts/Wrapped1155Factory.sol":{"Wrapped1155Metadata":{"abi":[{"inputs":[],"name":"factory","outputs":[{"internalType":"contract Wrapped1155Factory","name":"","type":"address"}],"stateMutability":"view","type":"function"},{"inputs":[],"name":"multiToken","outputs":[{"internalType":"contract IERC1155","name":"","type":"address"}],"stateMutability":"view","type":"function"},{"inputs":[],"name":"tokenId","outputs":[{"internalType":"uint256","name":"","type":"uint256"}],"stateMutability":"view","type":"function"}],"evm":{"bytecode":{"linkReferences":{},"object":"608060405234801561001057600080fd5b5060d98061001f6000396000f3fe6080604052348015600f57600080fd5b5060043610603c5760003560e01c806317d70f7c1460415780631904e5c9146059578063c45a0155146088575b600080fd5b6047608e565b60408051918252519081900360200190f35b605f6094565b6040805173ffffffffffffffffffffffffffffffffffffffff9092168252519081900360200190f35b605f60b0565b60025481565b60015473ffffffffffffffffffffffffffffffffffffffff1681565b60005473ffffffffffffffffffffffffffffffffffffffff168156fea164736f6c6343000706000a","opcodes":"PUSH1 0x80 PUSH1 0x40 MSTORE CALLVALUE DUP1 ISZERO PUSH2 0x10 JUMPI PUSH1 0x0 DUP1 REVERT JUMPDEST POP PUSH1 0xD9 DUP1 PUSH2 0x1F PUSH1 0x0 CODECOPY PUSH1 0x0 RETURN INVALID PUSH1 0x80 PUSH1 0x40 MSTORE CALLVALUE DUP1 ISZERO PUSH1 0xF JUMPI PUSH1 0x0 DUP1 REVERT JUMPDEST POP PUSH1 0x4 CALLDATASIZE LT PUSH1 0x3C JUMPI PUSH1 0x0 CALLDATALOAD PUSH1 0xE0 SHR DUP1 PUSH4 0x17D70F7C EQ PUSH1 0x41 JUMPI DUP1 PUSH4 0x1904E5C9 EQ PUSH1 0x59 JUMPI DUP1 PUSH4 0xC45A0155 EQ PUSH1 0x88 JUMPI JUMPDEST PUSH1 0x0 DUP1 REVERT JUMPDEST PUSH1 0x47 PUSH1 0x8E JUMP JUMPDEST PUSH1 0x40 DUP1 MLOAD SWAP2 DUP3 MSTORE MLOAD SWAP1 DUP2 SWAP1 SUB PUSH1 0x20 ADD SWAP1 RETURN JUMPDEST PUSH1 0x5F PUSH1 0x94 JUMP JUMPDEST PUSH1 0x40 DUP1 MLOAD PUSH20 0xFFFFFFFFFFFFFFFFFFFFFFFFFFFFFFFFFFFFFFFF SWAP1 SWAP3 AND DUP3 MSTORE MLOAD SWAP1 DUP2 SWAP1 SUB PUSH1 0x20 ADD SWAP1 RETURN JUMPDEST PUSH1 0x5F PUSH1 0xB0 JUMP JUMPDEST PUSH1 0x2 SLOAD DUP2 JUMP JUMPDEST PUSH1 0x1 SLOAD PUSH20 0xFFFFFFFFFFFFFFFFFFFFFFFFFFFFFFFFFFFFFFFF AND DUP2 JUMP JUMPDEST PUSH1 0x0 SLOAD PUSH20 0xFFFFFFFFFFFFFFFFFFFFFFFFFFFFFFFFFFFFFFFF AND DUP2 JUMP INVALID LOG1 PUSH5 0x736F6C6343 STOP SMOD MOD STOP EXP "},"methodIdentifiers":{"factory()":"c45a0155","multiToken()":"1904e5c9","tokenId()":"17d70f7c"}},"storageLayout":{"storage":[{"astId":1506,"contract":"contracts/Wrapped1155Factory.sol:Wrapped1155Metadata","label":"factory","offset":0,"slot":"0","type":"t_contract(Wrapped1155Factory)2151"},{"astId":1508,"contract":"contracts/Wrapped1155Factory.sol:Wrapped1155Metadata","label":"multiToken","offset":0,"slot":"1","type":"t_contract(IERC1155)1378"},{"astId":1510,"contract":"contracts/Wrapped1155Factory.sol:Wrapped1155Metadata","label":"tokenId","offset":0,"slot":"2","type":"t_uint256"}],"types":{"t_contract(IERC1155)1378":{"encoding":"inplace","label":"contract IERC1155","numberOfBytes":"20"},"t_contract(Wrapped1155Factory)2151":{"encoding":"inplace","label":"contract Wrapped1155Factory","numberOfBytes":"20"},"t_uint256":{"encoding":"inplace","label":"uint256","numberOfBytes":"32"}}}}}}