{
  "_format": "hh-sol-artifact-1",
  "contractName": "Vault1",
  "sourceName": "contracts/vault1.sol",
  "abi": [
    {
      "inputs": [
        {
          "internalType": "address",
          "name": "_usdcTokenAddress",
          "type": "address"
        },
        {
          "internalType": "address",
          "name": "_NonfungiblePositionManager",
          "type": "address"
        },
        {
          "internalType": "address",
          "name": "_ctf",
          "type": "address"
        },
        {
          "internalType": "address",
          "name": "_swaprouter",
          "type": "address"
        }
      ],
      "stateMutability": "nonpayable",
      "type": "constructor"
    },
    {
      "anonymous": false,
      "inputs": [
        {
          "indexed": true,
          "internalType": "address",
          "name": "owner",
          "type": "address"
        },
        {
          "indexed": true,
          "internalType": "address",
          "name": "spender",
          "type": "address"
        },
        {
          "indexed": false,
          "internalType": "uint256",
          "name": "value",
          "type": "uint256"
        }
      ],
      "name": "Approval",
      "type": "event"
    },
    {
      "anonymous": false,
      "inputs": [
        {
          "indexed": false,
          "internalType": "uint256",
          "name": "amountIn",
          "type": "uint256"
        },
        {
          "indexed": false,
          "internalType": "uint256",
          "name": "amountOut",
          "type": "uint256"
        },
        {
          "indexed": false,
          "internalType": "address",
          "name": "pool",
          "type": "address"
        },
        {
          "indexed": false,
          "internalType": "address",
          "name": "recipient",
          "type": "address"
        }
      ],
      "name": "BuyNo",
      "type": "event"
    },
    {
      "anonymous": false,
      "inputs": [
        {
          "indexed": false,
          "internalType": "uint256",
          "name": "amountIn",
          "type": "uint256"
        },
        {
          "indexed": false,
          "internalType": "uint256",
          "name": "amountOut",
          "type": "uint256"
        },
        {
          "indexed": false,
          "internalType": "address",
          "name": "pool",
          "type": "address"
        },
        {
          "indexed": false,
          "internalType": "address",
          "name": "recipient",
          "type": "address"
        }
      ],
      "name": "BuyYes",
      "type": "event"
    },
    {
      "anonymous": false,
      "inputs": [
        {
          "indexed": true,
          "internalType": "uint256",
          "name": "tokenId",
          "type": "uint256"
        },
        {
          "indexed": false,
          "internalType": "uint128",
          "name": "liquidity",
          "type": "uint128"
        },
        {
          "indexed": false,
          "internalType": "uint256",
          "name": "amount0",
          "type": "uint256"
        },
        {
          "indexed": false,
          "internalType": "uint256",
          "name": "amount1",
          "type": "uint256"
        }
      ],
      "name": "IncreaseLiquidity",
      "type": "event"
    },
    {
      "anonymous": false,
      "inputs": [
        {
          "indexed": false,
          "internalType": "uint256",
          "name": "amountIn",
          "type": "uint256"
        },
        {
          "indexed": false,
          "internalType": "uint256",
          "name": "amountOut",
          "type": "uint256"
        },
        {
          "indexed": false,
          "internalType": "address",
          "name": "pool",
          "type": "address"
        },
        {
          "indexed": false,
          "internalType": "address",
          "name": "recipient",
          "type": "address"
        }
      ],
      "name": "SellNo",
      "type": "event"
    },
    {
      "anonymous": false,
      "inputs": [
        {
          "indexed": false,
          "internalType": "uint256",
          "name": "amountIn",
          "type": "uint256"
        },
        {
          "indexed": false,
          "internalType": "uint256",
          "name": "amountOut",
          "type": "uint256"
        },
        {
          "indexed": false,
          "internalType": "address",
          "name": "pool",
          "type": "address"
        },
        {
          "indexed": false,
          "internalType": "address",
          "name": "recipient",
          "type": "address"
        }
      ],
      "name": "SellYes",
      "type": "event"
    },
    {
      "anonymous": false,
      "inputs": [
        {
          "indexed": true,
          "internalType": "address",
          "name": "from",
          "type": "address"
        },
        {
          "indexed": true,
          "internalType": "address",
          "name": "to",
          "type": "address"
        },
        {
          "indexed": false,
          "internalType": "uint256",
          "name": "value",
          "type": "uint256"
        }
      ],
      "name": "Transfer",
      "type": "event"
    },
    {
      "inputs": [],
      "name": "DAILY_INTEREST_RATE",
      "outputs": [
        {
          "internalType": "uint256",
          "name": "",
          "type": "uint256"
        }
      ],
      "stateMutability": "view",
      "type": "function"
    },
    {
      "inputs": [],
      "name": "FIXED_POINT",
      "outputs": [
        {
          "internalType": "uint256",
          "name": "",
          "type": "uint256"
        }
      ],
      "stateMutability": "view",
      "type": "function"
    },
    {
      "inputs": [
        {
          "internalType": "address",
          "name": "",
          "type": "address"
        }
      ],
      "name": "LPshares",
      "outputs": [
        {
          "internalType": "uint256",
          "name": "",
          "type": "uint256"
        }
      ],
      "stateMutability": "view",
      "type": "function"
    },
    {
      "inputs": [],
      "name": "NonfungiblePositionManager",
      "outputs": [
        {
          "internalType": "address",
          "name": "",
          "type": "address"
        }
      ],
      "stateMutability": "view",
      "type": "function"
    },
    {
      "inputs": [],
      "name": "SECONDS_IN_A_DAY",
      "outputs": [
        {
          "internalType": "uint256",
          "name": "",
          "type": "uint256"
        }
      ],
      "stateMutability": "view",
      "type": "function"
    },
    {
      "inputs": [],
      "name": "SwapRouter",
      "outputs": [
        {
          "internalType": "address",
          "name": "",
          "type": "address"
        }
      ],
      "stateMutability": "view",
      "type": "function"
    },
    {
      "inputs": [
        {
          "components": [
            {
              "internalType": "address",
              "name": "token0",
              "type": "address"
            },
            {
              "internalType": "address",
              "name": "token1",
              "type": "address"
            },
            {
              "internalType": "uint24",
              "name": "fee",
              "type": "uint24"
            },
            {
              "internalType": "int24",
              "name": "tickLower",
              "type": "int24"
            },
            {
              "internalType": "int24",
              "name": "tickUpper",
              "type": "int24"
            },
            {
              "internalType": "uint256",
              "name": "amount0Desired",
              "type": "uint256"
            },
            {
              "internalType": "uint256",
              "name": "amount1Desired",
              "type": "uint256"
            },
            {
              "internalType": "uint256",
              "name": "amount0Min",
              "type": "uint256"
            },
            {
              "internalType": "uint256",
              "name": "amount1Min",
              "type": "uint256"
            },
            {
              "internalType": "address",
              "name": "recipient",
              "type": "address"
            },
            {
              "internalType": "uint256",
              "name": "deadline",
              "type": "uint256"
            }
          ],
          "internalType": "struct INonfungiblePositionManager.MintParams",
          "name": "mintParams",
          "type": "tuple"
        },
        {
          "components": [
            {
              "internalType": "contract IERC20",
              "name": "collateralToken",
              "type": "address"
            },
            {
              "internalType": "bytes32",
              "name": "parentCollectionId",
              "type": "bytes32"
            },
            {
              "internalType": "bytes32",
              "name": "conditionId",
              "type": "bytes32"
            },
            {
              "internalType": "uint256[]",
              "name": "partition",
              "type": "uint256[]"
            },
            {
              "internalType": "uint256",
              "name": "amount",
              "type": "uint256"
            }
          ],
          "internalType": "struct SplitPositionParams",
          "name": "splitPositionParmas",
          "type": "tuple"
        },
        {
          "components": [
            {
              "internalType": "address",
              "name": "from",
              "type": "address"
            },
            {
              "internalType": "address",
              "name": "to",
              "type": "address"
            },
            {
              "internalType": "uint256",
              "name": "id",
              "type": "uint256"
            },
            {
              "internalType": "uint256",
              "name": "value",
              "type": "uint256"
            },
            {
              "internalType": "bytes",
              "name": "data",
              "type": "bytes"
            }
          ],
          "internalType": "struct ERC1155TransferParams",
          "name": "transferParmas",
          "type": "tuple"
        },
        {
          "internalType": "address",
          "name": "ERC1155Factory",
          "type": "address"
        },
        {
          "internalType": "address",
          "name": "poolAddress",
          "type": "address"
        }
      ],
      "name": "addLiquidity",
      "outputs": [
        {
          "internalType": "uint256",
          "name": "tokenId",
          "type": "uint256"
        },
        {
          "internalType": "uint128",
          "name": "liquidity",
          "type": "uint128"
        },
        {
          "internalType": "uint256",
          "name": "amount0",
          "type": "uint256"
        },
        {
          "internalType": "uint256",
          "name": "amount1",
          "type": "uint256"
        }
      ],
      "stateMutability": "nonpayable",
      "type": "function"
    },
    {
      "inputs": [
        {
          "internalType": "address",
          "name": "owner",
          "type": "address"
        },
        {
          "internalType": "address",
          "name": "spender",
          "type": "address"
        }
      ],
      "name": "allowance",
      "outputs": [
        {
          "internalType": "uint256",
          "name": "",
          "type": "uint256"
        }
      ],
      "stateMutability": "view",
      "type": "function"
    },
    {
      "inputs": [
        {
          "internalType": "address",
          "name": "spender",
          "type": "address"
        },
        {
          "internalType": "uint256",
          "name": "amount",
          "type": "uint256"
        }
      ],
      "name": "approve",
      "outputs": [
        {
          "internalType": "bool",
          "name": "",
          "type": "bool"
        }
      ],
      "stateMutability": "nonpayable",
      "type": "function"
    },
    {
      "inputs": [
        {
          "internalType": "address",
          "name": "account",
          "type": "address"
        }
      ],
      "name": "balanceOf",
      "outputs": [
        {
          "internalType": "uint256",
          "name": "",
          "type": "uint256"
        }
      ],
      "stateMutability": "view",
      "type": "function"
    },
    {
      "inputs": [
        {
          "components": [
            {
              "internalType": "address",
              "name": "tokenIn",
              "type": "address"
            },
            {
              "internalType": "address",
              "name": "tokenOut",
              "type": "address"
            },
            {
              "internalType": "uint24",
              "name": "fee",
              "type": "uint24"
            },
            {
              "internalType": "address",
              "name": "recipient",
              "type": "address"
            },
            {
              "internalType": "uint256",
              "name": "deadline",
              "type": "uint256"
            },
            {
              "internalType": "uint256",
              "name": "amountIn",
              "type": "uint256"
            },
            {
              "internalType": "uint256",
              "name": "amountOutMinimum",
              "type": "uint256"
            },
            {
              "internalType": "uint160",
              "name": "sqrtPriceLimitX96",
              "type": "uint160"
            }
          ],
          "internalType": "struct ISwapRouter.ExactInputSingleParams",
          "name": "params",
          "type": "tuple"
        },
        {
          "components": [
            {
              "internalType": "contract IERC20",
              "name": "collateralToken",
              "type": "address"
            },
            {
              "internalType": "bytes32",
              "name": "parentCollectionId",
              "type": "bytes32"
            },
            {
              "internalType": "bytes32",
              "name": "conditionId",
              "type": "bytes32"
            },
            {
              "internalType": "uint256[]",
              "name": "partition",
              "type": "uint256[]"
            },
            {
              "internalType": "uint256",
              "name": "amount",
              "type": "uint256"
            }
          ],
          "internalType": "struct SplitPositionParams",
          "name": "splitPositionParmas",
          "type": "tuple"
        },
        {
          "components": [
            {
              "internalType": "address",
              "name": "from",
              "type": "address"
            },
            {
              "internalType": "address",
              "name": "to",
              "type": "address"
            },
            {
              "internalType": "uint256",
              "name": "id",
              "type": "uint256"
            },
            {
              "internalType": "uint256",
              "name": "value",
              "type": "uint256"
            },
            {
              "internalType": "bytes",
              "name": "data",
              "type": "bytes"
            }
          ],
          "internalType": "struct ERC1155TransferParams",
          "name": "transferParmas",
          "type": "tuple"
        },
        {
          "internalType": "uint256",
          "name": "noPositionId",
          "type": "uint256"
        },
        {
          "internalType": "address",
          "name": "ERC1155Factory",
          "type": "address"
        },
        {
          "internalType": "address",
          "name": "pool",
          "type": "address"
        }
      ],
      "name": "buyNo",
      "outputs": [],
      "stateMutability": "nonpayable",
      "type": "function"
    },
    {
      "inputs": [
        {
          "components": [
            {
              "internalType": "address",
              "name": "tokenIn",
              "type": "address"
            },
            {
              "internalType": "address",
              "name": "tokenOut",
              "type": "address"
            },
            {
              "internalType": "uint24",
              "name": "fee",
              "type": "uint24"
            },
            {
              "internalType": "address",
              "name": "recipient",
              "type": "address"
            },
            {
              "internalType": "uint256",
              "name": "deadline",
              "type": "uint256"
            },
            {
              "internalType": "uint256",
              "name": "amountIn",
              "type": "uint256"
            },
            {
              "internalType": "uint256",
              "name": "amountOutMinimum",
              "type": "uint256"
            },
            {
              "internalType": "uint160",
              "name": "sqrtPriceLimitX96",
              "type": "uint160"
            }
          ],
          "internalType": "struct ISwapRouter.ExactInputSingleParams",
          "name": "params",
          "type": "tuple"
        },
        {
          "internalType": "address",
          "name": "pool",
          "type": "address"
        }
      ],
      "name": "buyYes",
      "outputs": [],
      "stateMutability": "nonpayable",
      "type": "function"
    },
    {
      "inputs": [],
      "name": "ctfAddress",
      "outputs": [
        {
          "internalType": "address",
          "name": "",
          "type": "address"
        }
      ],
      "stateMutability": "view",
      "type": "function"
    },
    {
      "inputs": [],
      "name": "decimals",
      "outputs": [
        {
          "internalType": "uint8",
          "name": "",
          "type": "uint8"
        }
      ],
      "stateMutability": "view",
      "type": "function"
    },
    {
      "inputs": [
        {
          "internalType": "address",
          "name": "spender",
          "type": "address"
        },
        {
          "internalType": "uint256",
          "name": "subtractedValue",
          "type": "uint256"
        }
      ],
      "name": "decreaseAllowance",
      "outputs": [
        {
          "internalType": "bool",
          "name": "",
          "type": "bool"
        }
      ],
      "stateMutability": "nonpayable",
      "type": "function"
    },
    {
      "inputs": [
        {
          "components": [
            {
              "internalType": "uint256",
              "name": "tokenId",
              "type": "uint256"
            },
            {
              "internalType": "uint128",
              "name": "liquidity",
              "type": "uint128"
            },
            {
              "internalType": "uint256",
              "name": "amount0Min",
              "type": "uint256"
            },
            {
              "internalType": "uint256",
              "name": "amount1Min",
              "type": "uint256"
            },
            {
              "internalType": "uint256",
              "name": "deadline",
              "type": "uint256"
            }
          ],
          "internalType": "struct INonfungiblePositionManager.DecreaseLiquidityParams",
          "name": "params",
          "type": "tuple"
        }
      ],
      "name": "decreaseLiquidity",
      "outputs": [],
      "stateMutability": "nonpayable",
      "type": "function"
    },
    {
      "inputs": [
        {
          "internalType": "uint256",
          "name": "amount",
          "type": "uint256"
        }
      ],
      "name": "deposit",
      "outputs": [],
      "stateMutability": "nonpayable",
      "type": "function"
    },
    {
      "inputs": [
        {
          "internalType": "address",
          "name": "",
          "type": "address"
        }
      ],
      "name": "deposits",
      "outputs": [
        {
          "internalType": "uint256",
          "name": "principal",
          "type": "uint256"
        },
        {
          "internalType": "uint256",
          "name": "interestAccrued",
          "type": "uint256"
        },
        {
          "internalType": "uint256",
          "name": "lastDepositTime",
          "type": "uint256"
        }
      ],
      "stateMutability": "view",
      "type": "function"
    },
    {
      "inputs": [
        {
          "internalType": "address",
          "name": "user",
          "type": "address"
        }
      ],
      "name": "getBalance",
      "outputs": [
        {
          "internalType": "uint256",
          "name": "principal",
          "type": "uint256"
        },
        {
          "internalType": "uint256",
          "name": "interest",
          "type": "uint256"
        }
      ],
      "stateMutability": "view",
      "type": "function"
    },
    {
      "inputs": [],
      "name": "getTotalBalance",
      "outputs": [
        {
          "internalType": "uint256",
          "name": "totalPrincipalAmount",
          "type": "uint256"
        },
        {
          "internalType": "uint256",
          "name": "totalInterestAmount",
          "type": "uint256"
        }
      ],
      "stateMutability": "view",
      "type": "function"
    },
    {
      "inputs": [
        {
          "internalType": "address",
          "name": "spender",
          "type": "address"
        },
        {
          "internalType": "uint256",
          "name": "addedValue",
          "type": "uint256"
        }
      ],
      "name": "increaseAllowance",
      "outputs": [
        {
          "internalType": "bool",
          "name": "",
          "type": "bool"
        }
      ],
      "stateMutability": "nonpayable",
      "type": "function"
    },
    {
      "inputs": [],
      "name": "lastUpdateTimestamp",
      "outputs": [
        {
          "internalType": "uint256",
          "name": "",
          "type": "uint256"
        }
      ],
      "stateMutability": "view",
      "type": "function"
    },
    {
      "inputs": [
        {
          "internalType": "uint256",
          "name": "amount",
          "type": "uint256"
        }
      ],
      "name": "mint",
      "outputs": [],
      "stateMutability": "nonpayable",
      "type": "function"
    },
    {
      "inputs": [],
      "name": "name",
      "outputs": [
        {
          "internalType": "string",
          "name": "",
          "type": "string"
        }
      ],
      "stateMutability": "view",
      "type": "function"
    },
    {
      "inputs": [
        {
          "internalType": "address",
          "name": "operator",
          "type": "address"
        },
        {
          "internalType": "address",
          "name": "",
          "type": "address"
        },
        {
          "internalType": "uint256[]",
          "name": "ids",
          "type": "uint256[]"
        },
        {
          "internalType": "uint256[]",
          "name": "values",
          "type": "uint256[]"
        },
        {
          "internalType": "bytes",
          "name": "data",
          "type": "bytes"
        }
      ],
      "name": "onERC1155BatchReceived",
      "outputs": [
        {
          "internalType": "bytes4",
          "name": "",
          "type": "bytes4"
        }
      ],
      "stateMutability": "nonpayable",
      "type": "function"
    },
    {
      "inputs": [
        {
          "internalType": "address",
          "name": "operator",
          "type": "address"
        },
        {
          "internalType": "address",
          "name": "",
          "type": "address"
        },
        {
          "internalType": "uint256",
          "name": "id",
          "type": "uint256"
        },
        {
          "internalType": "uint256",
          "name": "value",
          "type": "uint256"
        },
        {
          "internalType": "bytes",
          "name": "data",
          "type": "bytes"
        }
      ],
      "name": "onERC1155Received",
      "outputs": [
        {
          "internalType": "bytes4",
          "name": "",
          "type": "bytes4"
        }
      ],
      "stateMutability": "nonpayable",
      "type": "function"
    },
    {
      "inputs": [
        {
          "internalType": "address",
          "name": "",
          "type": "address"
        }
      ],
      "name": "poolExposure",
      "outputs": [
        {
          "internalType": "uint256",
          "name": "",
          "type": "uint256"
        }
      ],
      "stateMutability": "view",
      "type": "function"
    },
    {
      "inputs": [
        {
          "components": [
            {
              "internalType": "address",
              "name": "tokenIn",
              "type": "address"
            },
            {
              "internalType": "address",
              "name": "tokenOut",
              "type": "address"
            },
            {
              "internalType": "uint24",
              "name": "fee",
              "type": "uint24"
            },
            {
              "internalType": "address",
              "name": "recipient",
              "type": "address"
            },
            {
              "internalType": "uint256",
              "name": "deadline",
              "type": "uint256"
            },
            {
              "internalType": "uint256",
              "name": "amountOut",
              "type": "uint256"
            },
            {
              "internalType": "uint256",
              "name": "amountInMaximum",
              "type": "uint256"
            },
            {
              "internalType": "uint160",
              "name": "sqrtPriceLimitX96",
              "type": "uint160"
            }
          ],
          "internalType": "struct ISwapRouter.ExactOutputSingleParams",
          "name": "params",
          "type": "tuple"
        },
        {
          "components": [
            {
              "internalType": "contract IERC20",
              "name": "collateralToken",
              "type": "address"
            },
            {
              "internalType": "bytes32",
              "name": "parentCollectionId",
              "type": "bytes32"
            },
            {
              "internalType": "bytes32",
              "name": "conditionId",
              "type": "bytes32"
            },
            {
              "internalType": "uint256[]",
              "name": "partition",
              "type": "uint256[]"
            },
            {
              "internalType": "uint256",
              "name": "amount",
              "type": "uint256"
            }
          ],
          "internalType": "struct SplitPositionParams",
          "name": "splitPositionParmas",
          "type": "tuple"
        },
        {
          "components": [
            {
              "internalType": "address",
              "name": "multiToken",
              "type": "address"
            },
            {
              "internalType": "uint256",
              "name": "tokenId",
              "type": "uint256"
            },
            {
              "internalType": "uint256",
              "name": "amount",
              "type": "uint256"
            },
            {
              "internalType": "address",
              "name": "recipient",
              "type": "address"
            },
            {
              "internalType": "bytes",
              "name": "data",
              "type": "bytes"
            }
          ],
          "internalType": "struct UnwrappedParams",
          "name": "unwrappedParams",
          "type": "tuple"
        },
        {
          "internalType": "uint256",
          "name": "noPositionId",
          "type": "uint256"
        },
        {
          "internalType": "address",
          "name": "ERC1155Factory",
          "type": "address"
        },
        {
          "internalType": "address",
          "name": "pool",
          "type": "address"
        }
      ],
      "name": "sellNo",
      "outputs": [],
      "stateMutability": "nonpayable",
      "type": "function"
    },
    {
      "inputs": [
        {
          "components": [
            {
              "internalType": "address",
              "name": "tokenIn",
              "type": "address"
            },
            {
              "internalType": "address",
              "name": "tokenOut",
              "type": "address"
            },
            {
              "internalType": "uint24",
              "name": "fee",
              "type": "uint24"
            },
            {
              "internalType": "address",
              "name": "recipient",
              "type": "address"
            },
            {
              "internalType": "uint256",
              "name": "deadline",
              "type": "uint256"
            },
            {
              "internalType": "uint256",
              "name": "amountIn",
              "type": "uint256"
            },
            {
              "internalType": "uint256",
              "name": "amountOutMinimum",
              "type": "uint256"
            },
            {
              "internalType": "uint160",
              "name": "sqrtPriceLimitX96",
              "type": "uint160"
            }
          ],
          "internalType": "struct ISwapRouter.ExactInputSingleParams",
          "name": "params",
          "type": "tuple"
        },
        {
          "internalType": "address",
          "name": "pool",
          "type": "address"
        }
      ],
      "name": "sellYes",
      "outputs": [],
      "stateMutability": "nonpayable",
      "type": "function"
    },
    {
      "inputs": [
        {
          "internalType": "bytes4",
          "name": "interfaceId",
          "type": "bytes4"
        }
      ],
      "name": "supportsInterface",
      "outputs": [
        {
          "internalType": "bool",
          "name": "",
          "type": "bool"
        }
      ],
      "stateMutability": "view",
      "type": "function"
    },
    {
      "inputs": [],
      "name": "symbol",
      "outputs": [
        {
          "internalType": "string",
          "name": "",
          "type": "string"
        }
      ],
      "stateMutability": "view",
      "type": "function"
    },
    {
      "inputs": [],
      "name": "totalInterest",
      "outputs": [
        {
          "internalType": "uint256",
          "name": "",
          "type": "uint256"
        }
      ],
      "stateMutability": "view",
      "type": "function"
    },
    {
      "inputs": [],
      "name": "totalInterestCanUse",
      "outputs": [
        {
          "internalType": "uint256",
          "name": "",
          "type": "uint256"
        }
      ],
      "stateMutability": "view",
      "type": "function"
    },
    {
      "inputs": [],
      "name": "totalPrincipal",
      "outputs": [
        {
          "internalType": "uint256",
          "name": "",
          "type": "uint256"
        }
      ],
      "stateMutability": "view",
      "type": "function"
    },
    {
      "inputs": [],
      "name": "totalSupply",
      "outputs": [
        {
          "internalType": "uint256",
          "name": "",
          "type": "uint256"
        }
      ],
      "stateMutability": "view",
      "type": "function"
    },
    {
      "inputs": [],
      "name": "totalshares",
      "outputs": [
        {
          "internalType": "uint256",
          "name": "",
          "type": "uint256"
        }
      ],
      "stateMutability": "view",
      "type": "function"
    },
    {
      "inputs": [
        {
          "internalType": "uint256",
          "name": "amount",
          "type": "uint256"
        }
      ],
      "name": "traderDeposit",
      "outputs": [],
      "stateMutability": "nonpayable",
      "type": "function"
    },
    {
      "inputs": [
        {
          "internalType": "uint256",
          "name": "amount",
          "type": "uint256"
        }
      ],
      "name": "traderWithdraw",
      "outputs": [],
      "stateMutability": "nonpayable",
      "type": "function"
    },
    {
      "inputs": [
        {
          "internalType": "address",
          "name": "recipient",
          "type": "address"
        },
        {
          "internalType": "uint256",
          "name": "amount",
          "type": "uint256"
        }
      ],
      "name": "transfer",
      "outputs": [
        {
          "internalType": "bool",
          "name": "",
          "type": "bool"
        }
      ],
      "stateMutability": "nonpayable",
      "type": "function"
    },
    {
      "inputs": [
        {
          "internalType": "address",
          "name": "sender",
          "type": "address"
        },
        {
          "internalType": "address",
          "name": "recipient",
          "type": "address"
        },
        {
          "internalType": "uint256",
          "name": "amount",
          "type": "uint256"
        }
      ],
      "name": "transferFrom",
      "outputs": [
        {
          "internalType": "bool",
          "name": "",
          "type": "bool"
        }
      ],
      "stateMutability": "nonpayable",
      "type": "function"
    },
    {
      "inputs": [],
      "name": "usdbTokenAddress",
      "outputs": [
        {
          "internalType": "address",
          "name": "",
          "type": "address"
        }
      ],
      "stateMutability": "view",
      "type": "function"
    },
    {
      "inputs": [],
      "name": "usdc",
      "outputs": [
        {
          "internalType": "contract IERC20",
          "name": "",
          "type": "address"
        }
      ],
      "stateMutability": "view",
      "type": "function"
    },
    {
      "inputs": [],
      "name": "withdraw",
      "outputs": [],
      "stateMutability": "nonpayable",
      "type": "function"
    }
  ],
  "bytecode": "0x60806040523480156200001157600080fd5b5060405162003dbe38038062003dbe83398101604081905262000034916200028d565b604080518082018252600a81526955534420427562626c7960b01b602080830191909152825180840190935260048352632aa9a22160e11b9083015290620000836301ffc9a760e01b6200013f565b62000095630271189760e51b6200013f565b8151620000aa906004906020850190620001c4565b508051620000c0906005906020840190620001c4565b505060068054600880546001600160a01b03199081163017909155600a80546001600160a01b03998a1690831617905542601290815596881661010002610100600160a81b031960ff199093169097179190911695909517905550600980549285169284169290921790915560078054919093169116179055620002e9565b6001600160e01b031980821614156200019f576040805162461bcd60e51b815260206004820152601c60248201527f4552433136353a20696e76616c696420696e7465726661636520696400000000604482015290519081900360640190fd5b6001600160e01b0319166000908152602081905260409020805460ff19166001179055565b828054600181600116156101000203166002900490600052602060002090601f016020900481019282620001fc576000855562000247565b82601f106200021757805160ff191683800117855562000247565b8280016001018555821562000247579182015b82811115620002475782518255916020019190600101906200022a565b506200025592915062000259565b5090565b5b808211156200025557600081556001016200025a565b80516001600160a01b03811681146200028857600080fd5b919050565b60008060008060808587031215620002a3578384fd5b620002ae8562000270565b9350620002be6020860162000270565b9250620002ce6040860162000270565b9150620002de6060860162000270565b905092959194509250565b613ac580620002f96000396000f3fe608060405234801561001057600080fd5b50600436106102e95760003560e01c806370a0823111610191578063d061c81e116100e3578063f8b2cb4f11610097578063fbd24d4511610071578063fbd24d4514610587578063fc7e286d146105aa578063fef396c9146105cc576102e9565b8063f8b2cb4f14610559578063f9cfa06f1461056c578063fa29b0ba14610574576102e9565b8063deabb06b116100c8578063deabb06b1461052b578063eb582d131461053e578063f23a6e6114610546576102e9565b8063d061c81e14610510578063dd62ed3e14610518576102e9565b8063a9059cbb11610145578063bc197c811161011f578063bc197c81146104d5578063bc7a36d6146104f5578063c20b58ec146104fd576102e9565b8063a9059cbb1461049c578063b024f98a146104af578063b6b55f25146104c2576102e9565b806395d89b411161017657806395d89b411461046e578063a0712d6814610476578063a457c2d714610489576102e9565b806370a08231146104535780637a458d7a14610466576102e9565b806323b872dd1161024a5780634b1533b2116101fe578063623f17bd116101d8578063623f17bd14610425578063632e784d14610438578063636a6d461461044b576102e9565b80634b1533b2146104025780634dc32eff1461040a578063573e4bdb14610412576102e9565b8063395093511161022f57806339509351146103df5780633ccfd60b146103f25780633e413bee146103fa576102e9565b806323b872dd146103b7578063313ce567146103ca576102e9565b806312b58349116102a157806314bcec9f1161028657806314bcec9f1461039257806318160ddd146103a757806322c4b937146103af576102e9565b806312b5834914610369578063146e6db71461037f576102e9565b806306fdde03116102d257806306fdde031461032c578063095ea7b3146103415780630c49ccbe14610354576102e9565b806301ffc9a7146102ee57806303f71c5a14610317575b600080fd5b6103016102fc366004612fc8565b6105d4565b60405161030e91906134d4565b60405180910390f35b61031f61060f565b60405161030e919061333f565b61033461062b565b60405161030e9190613591565b61030161034f366004612f7d565b6106df565b610367610362366004613008565b6106fd565b005b6103716107ad565b60405161030e929190613806565b61036761038d366004613051565b6107f2565b61039a610d65565b60405161030e91906137d0565b61039a610d6b565b61039a610d71565b6103016103c5366004612ec3565b610d76565b6103d2610e17565b60405161030e919061385e565b6103016103ed366004612f7d565b610e20565b610367610e7b565b61031f610fa9565b61039a610fc5565b61031f610fcb565b61039a610420366004612d98565b610fe7565b610367610433366004613023565b610ff9565b61036761044636600461319e565b6112c8565b61031f611382565b61039a610461366004612d98565b61139e565b61039a6113c6565b6103346113d2565b61036761048436600461319e565b611451565b610301610497366004612f7d565b61145b565b6103016104aa366004612f7d565b6114d0565b61039a6104bd366004612d98565b6114e4565b6103676104d036600461319e565b6114f6565b6104e86104e3366004612e08565b61164a565b60405161030e91906134df565b61039a611677565b61036761050b366004613023565b61167d565b61039a61192c565b61039a610526366004612dd0565b611932565b61036761053936600461319e565b61196a565b61031f611a1e565b6104e8610554366004612f03565b611a3f565b610371610567366004612d98565b611a6a565b61039a611ab3565b610367610582366004613051565b611aba565b61059a6105953660046130f9565b611ebe565b60405161030e94939291906137d9565b6105bd6105b8366004612d98565b6124b7565b60405161030e93929190613848565b61039a6124d8565b7fffffffff00000000000000000000000000000000000000000000000000000000811660009081526020819052604090205460ff165b919050565b60095473ffffffffffffffffffffffffffffffffffffffff1681565b60048054604080516020601f60027fffffffffffffffffffffffffffffffffffffffffffffffffffffffffffffffff6101006001881615020190951694909404938401819004810282018101909252828152606093909290918301828280156106d55780601f106106aa576101008083540402835291602001916106d5565b820191906000526020600020905b8154815290600101906020018083116106b857829003601f168201915b5050505050905090565b60006106f36106ec6124de565b84846124e2565b5060015b92915050565b6006546040517f0c49ccbe00000000000000000000000000000000000000000000000000000000815261010090910473ffffffffffffffffffffffffffffffffffffffff1690630c49ccbe90610757908490600401613670565b6040805180830381600087803b15801561077057600080fd5b505af1158015610784573d6000803e3d6000fd5b505050506040513d601f19601f820116820180604052508101906107a8919061320b565b505050565b6000806000601254420390506000620151806103e86001600e5402816107cf57fe5b04816107d757fe5b600e54600f5490965091900492909202919091019150509091565b610800308760a00135612629565b60085473ffffffffffffffffffffffffffffffffffffffff166108266020880188612d98565b73ffffffffffffffffffffffffffffffffffffffff16141561084757600080fd5b6008546009546040517f095ea7b300000000000000000000000000000000000000000000000000000000815273ffffffffffffffffffffffffffffffffffffffff9283169263095ea7b3926108c3929116907fffffffffffffffffffffffffffffffffffffffffffffffffffffffffffffffff906004016133d6565b602060405180830381600087803b1580156108dd57600080fd5b505af11580156108f1573d6000803e3d6000fd5b505050506040513d601f19601f820116820180604052508101906109159190612fa8565b5060095473ffffffffffffffffffffffffffffffffffffffff166372ce42756109416020880188612d98565b6020880135604089013561095860608b018b61386c565b8b608001356040518763ffffffff1660e01b815260040161097e9695949392919061350c565b600060405180830381600087803b15801561099857600080fd5b505af11580156109ac573d6000803e3d6000fd5b50506009546040517ff242432a00000000000000000000000000000000000000000000000000000000815273ffffffffffffffffffffffffffffffffffffffff909116925063f242432a9150610a109030903390889060808c013590600401613391565b600060405180830381600087803b158015610a2a57600080fd5b505af1158015610a3e573d6000803e3d6000fd5b505060095473ffffffffffffffffffffffffffffffffffffffff16915063f242432a9050610a6f6020870187612d98565b610a7f6040880160208901612d98565b60408801356060890135610a9660808b018b6138d1565b6040518763ffffffff1660e01b8152600401610ab7969594939291906133fc565b600060405180830381600087803b158015610ad157600080fd5b505af1158015610ae5573d6000803e3d6000fd5b50506009546000925073ffffffffffffffffffffffffffffffffffffffff80861692506308b2ea5e91166040880135610b2160808a018a6138d1565b6040518563ffffffff1660e01b8152600401610b40949392919061344e565b60206040518083038186803b158015610b5857600080fd5b505afa158015610b6c573d6000803e3d6000fd5b505050506040513d601f19601f82011682018060405250810190610b909190612db4565b6007546040517f095ea7b300000000000000000000000000000000000000000000000000000000815291925073ffffffffffffffffffffffffffffffffffffffff8084169263095ea7b392610c0b9216907fffffffffffffffffffffffffffffffffffffffffffffffffffffffffffffffff906004016133d6565b602060405180830381600087803b158015610c2557600080fd5b505af1158015610c39573d6000803e3d6000fd5b505050506040513d601f19601f82011682018060405250810190610c5d9190612fa8565b506007546040517f414bf38900000000000000000000000000000000000000000000000000000000815260009173ffffffffffffffffffffffffffffffffffffffff169063414bf38990610cb5908b906004016136c3565b602060405180830381600087803b158015610ccf57600080fd5b505af1158015610ce3573d6000803e3d6000fd5b505050506040513d601f19601f82011682018060405250810190610d0791906131b6565b9050610d1933828a60a00135036114d0565b507f71200a6d57d07294fb28d10c5ab296e04911e797c40d03d853fc1db02acbf1508860a00135828533604051610d539493929190613814565b60405180910390a15050505050505050565b60125481565b60035490565b600181565b6000610d83848484612633565b610e0d84610d8f6124de565b610e0885604051806060016040528060288152602001613a026028913973ffffffffffffffffffffffffffffffffffffffff8a16600090815260026020526040812090610dda6124de565b73ffffffffffffffffffffffffffffffffffffffff1681526020810191909152604001600020549190612805565b6124e2565b5060019392505050565b60065460ff1690565b60006106f3610e2d6124de565b84610e088560026000610e3e6124de565b73ffffffffffffffffffffffffffffffffffffffff908116825260208083019390935260409182016000908120918c1681529252902054906128b6565b336000818152600b6020526040902090610e9490612931565b600181015481540180610edc576040517f08c379a0000000000000000000000000000000000000000000000000000000008152600401610ed390613639565b60405180910390fd5b8154600e8054919091039055600182018054600f805491909103905560008084559055600a546040517fa9059cbb00000000000000000000000000000000000000000000000000000000815273ffffffffffffffffffffffffffffffffffffffff9091169063a9059cbb90610f5790339085906004016133d6565b602060405180830381600087803b158015610f7157600080fd5b505af1158015610f85573d6000803e3d6000fd5b505050506040513d601f19601f820116820180604052508101906107a89190612fa8565b600a5473ffffffffffffffffffffffffffffffffffffffff1681565b600e5481565b60075473ffffffffffffffffffffffffffffffffffffffff1681565b600c6020526000908152604090205481565b600a546040517f23b872dd00000000000000000000000000000000000000000000000000000000815273ffffffffffffffffffffffffffffffffffffffff909116906323b872dd90611057903390309060a088013590600401613360565b602060405180830381600087803b15801561107157600080fd5b505af1158015611085573d6000803e3d6000fd5b505050506040513d601f19601f820116820180604052508101906110a99190612fa8565b506110b8308360a00135612629565b60085473ffffffffffffffffffffffffffffffffffffffff166110de6020840184612d98565b73ffffffffffffffffffffffffffffffffffffffff16146110fe57600080fd5b61110b6020830183612d98565b6007546040517f095ea7b300000000000000000000000000000000000000000000000000000000815273ffffffffffffffffffffffffffffffffffffffff9283169263095ea7b392611184929116907fffffffffffffffffffffffffffffffffffffffffffffffffffffffffffffffff906004016133d6565b602060405180830381600087803b15801561119e57600080fd5b505af11580156111b2573d6000803e3d6000fd5b505050506040513d601f19601f820116820180604052508101906111d69190612fa8565b506007546040517f414bf38900000000000000000000000000000000000000000000000000000000815260009173ffffffffffffffffffffffffffffffffffffffff169063414bf3899061122e9086906004016136c3565b602060405180830381600087803b15801561124857600080fd5b505af115801561125c573d6000803e3d6000fd5b505050506040513d601f19601f8201168201806040525081019061128091906131b6565b90507f61998cd06455c68ff3e745458291a04b28d750281c8c88dec8bec2193f3fc1b98360a001358284336040516112bb9493929190613814565b60405180910390a1505050565b600a546040517f23b872dd00000000000000000000000000000000000000000000000000000000815273ffffffffffffffffffffffffffffffffffffffff909116906323b872dd9061132290339030908690600401613360565b602060405180830381600087803b15801561133c57600080fd5b505af1158015611350573d6000803e3d6000fd5b505050506040513d601f19601f820116820180604052508101906113749190612fa8565b5061137f3382612980565b50565b60085473ffffffffffffffffffffffffffffffffffffffff1681565b73ffffffffffffffffffffffffffffffffffffffff1660009081526001602052604090205490565b670de0b6b3a764000081565b60058054604080516020601f60027fffffffffffffffffffffffffffffffffffffffffffffffffffffffffffffffff6101006001881615020190951694909404938401819004810282018101909252828152606093909290918301828280156106d55780601f106106aa576101008083540402835291602001916106d5565b61137f3382612980565b60006106f36114686124de565b84610e0885604051806060016040528060258152602001613a9460259139600260006114926124de565b73ffffffffffffffffffffffffffffffffffffffff908116825260208083019390935260409182016000908120918d16815292529020549190612805565b60006106f36114dd6124de565b8484612633565b600d6020526000908152604090205481565b60008111611530576040517f08c379a0000000000000000000000000000000000000000000000000000000008152600401610ed390613602565b336000908152600b6020526040902080541561154f5761154f33612931565b600a546040517f23b872dd00000000000000000000000000000000000000000000000000000000815273ffffffffffffffffffffffffffffffffffffffff909116906323b872dd906115a990339030908790600401613360565b602060405180830381600087803b1580156115c357600080fd5b505af11580156115d7573d6000803e3d6000fd5b505050506040513d601f19601f820116820180604052508101906115fb9190612fa8565b506116063083612980565b336000908152600d6020526040902080548301905560118054830190558054611630574260028201555b805482018155600e805483019055611646612ab3565b5050565b7fbc197c810000000000000000000000000000000000000000000000000000000098975050505050505050565b600f5481565b61168a6020830183612d98565b73ffffffffffffffffffffffffffffffffffffffff166323b872dd33308560a001356040518463ffffffff1660e01b81526004016116ca93929190613360565b602060405180830381600087803b1580156116e457600080fd5b505af11580156116f8573d6000803e3d6000fd5b505050506040513d601f19601f8201168201806040525081019061171c9190612fa8565b5060085473ffffffffffffffffffffffffffffffffffffffff166117436020840184612d98565b73ffffffffffffffffffffffffffffffffffffffff16141561176457600080fd5b6117716020830183612d98565b6007546040517f095ea7b300000000000000000000000000000000000000000000000000000000815273ffffffffffffffffffffffffffffffffffffffff9283169263095ea7b3926117ea929116907fffffffffffffffffffffffffffffffffffffffffffffffffffffffffffffffff906004016133d6565b602060405180830381600087803b15801561180457600080fd5b505af1158015611818573d6000803e3d6000fd5b505050506040513d601f19601f8201168201806040525081019061183c9190612fa8565b506007546040517f414bf38900000000000000000000000000000000000000000000000000000000815260009173ffffffffffffffffffffffffffffffffffffffff169063414bf389906118949086906004016136c3565b602060405180830381600087803b1580156118ae57600080fd5b505af11580156118c2573d6000803e3d6000fd5b505050506040513d601f19601f820116820180604052508101906118e691906131b6565b90506118f233826114d0565b507fd755bb96a718f94f6258036872c1b48a903507455667ed83d8edf44b5ebbd0e18360a001358284336040516112bb9493929190613814565b60115481565b73ffffffffffffffffffffffffffffffffffffffff918216600090815260026020908152604080832093909416825291909152205490565b6119743382612af1565b600a546040517fa9059cbb00000000000000000000000000000000000000000000000000000000815273ffffffffffffffffffffffffffffffffffffffff9091169063a9059cbb906119cc90339085906004016133d6565b602060405180830381600087803b1580156119e657600080fd5b505af11580156119fa573d6000803e3d6000fd5b505050506040513d601f19601f820116820180604052508101906116469190612fa8565b600654610100900473ffffffffffffffffffffffffffffffffffffffff1681565b7ff23a6e61000000000000000000000000000000000000000000000000000000009695505050505050565b73ffffffffffffffffffffffffffffffffffffffff166000908152600b602052604090206002810154815460019092015491924291909103620151806103e88504040290910190565b6201518081565b611ac8308760a00135612629565b60085473ffffffffffffffffffffffffffffffffffffffff16611aee6020880188612d98565b73ffffffffffffffffffffffffffffffffffffffff1614611b0e57600080fd5b611b1b6020870187612d98565b6007546040517f095ea7b300000000000000000000000000000000000000000000000000000000815273ffffffffffffffffffffffffffffffffffffffff9283169263095ea7b392611b94929116907fffffffffffffffffffffffffffffffffffffffffffffffffffffffffffffffff906004016133d6565b602060405180830381600087803b158015611bae57600080fd5b505af1158015611bc2573d6000803e3d6000fd5b505050506040513d601f19601f82011682018060405250810190611be69190612fa8565b506007546040517fdb3e219800000000000000000000000000000000000000000000000000000000815260009173ffffffffffffffffffffffffffffffffffffffff169063db3e219890611c3e908a906004016136c3565b602060405180830381600087803b158015611c5857600080fd5b505af1158015611c6c573d6000803e3d6000fd5b505050506040513d601f19601f82011682018060405250810190611c9091906131b6565b905073ffffffffffffffffffffffffffffffffffffffff83166352aecb24611cbb6020880188612d98565b602088013560a08b0135611cd560808b0160608c01612d98565b611ce260808c018c6138d1565b6040518763ffffffff1660e01b8152600401611d039695949392919061348e565b600060405180830381600087803b158015611d1d57600080fd5b505af1158015611d31573d6000803e3d6000fd5b50506009546040517ff242432a00000000000000000000000000000000000000000000000000000000815273ffffffffffffffffffffffffffffffffffffffff909116925063f242432a9150611d959033903090899060a08e013590600401613391565b600060405180830381600087803b158015611daf57600080fd5b505af1158015611dc3573d6000803e3d6000fd5b505060095473ffffffffffffffffffffffffffffffffffffffff169150639e7212ad9050611df46020890189612d98565b602089013560408a0135611e0b60608c018c61386c565b8d60a001356040518763ffffffff1660e01b8152600401611e319695949392919061350c565b600060405180830381600087803b158015611e4b57600080fd5b505af1158015611e5f573d6000803e3d6000fd5b50505050611e7333828960a00135036114d0565b507f0728ab1d2d6ccca6c1bf6be724a31414e2af3c253a8c6dbd14973e30a9ef02ba818860a001358433604051611ead9493929190613814565b60405180910390a150505050505050565b60008060008088610140013580611ed3612c3b565b1115611f4057604080517f08c379a000000000000000000000000000000000000000000000000000000000815260206004820152601360248201527f5472616e73616374696f6e20746f6f206f6c6400000000000000000000000000604482015290519081900360640190fd5b611f4d60208a018a612d98565b6009546040517f095ea7b300000000000000000000000000000000000000000000000000000000815273ffffffffffffffffffffffffffffffffffffffff9283169263095ea7b392611fc6929116907fffffffffffffffffffffffffffffffffffffffffffffffffffffffffffffffff906004016133d6565b602060405180830381600087803b158015611fe057600080fd5b505af1158015611ff4573d6000803e3d6000fd5b505050506040513d601f19601f820116820180604052508101906120189190612fa8565b5060095473ffffffffffffffffffffffffffffffffffffffff166372ce427561204460208c018c612d98565b60208c013560408d013561205b60608f018f61386c565b8f608001356040518763ffffffff1660e01b81526004016120819695949392919061350c565b600060405180830381600087803b15801561209b57600080fd5b505af11580156120af573d6000803e3d6000fd5b505060095473ffffffffffffffffffffffffffffffffffffffff16915063f242432a90506120e060208b018b612d98565b6120f060408c0160208d01612d98565b60408c013560608d013561210760808f018f6138d1565b6040518763ffffffff1660e01b8152600401612128969594939291906133fc565b600060405180830381600087803b15801561214257600080fd5b505af1158015612156573d6000803e3d6000fd5b50506009546000925073ffffffffffffffffffffffffffffffffffffffff808b1692506308b2ea5e911660408c013561219260808e018e6138d1565b6040518563ffffffff1660e01b81526004016121b1949392919061344e565b60206040518083038186803b1580156121c957600080fd5b505afa1580156121dd573d6000803e3d6000fd5b505050506040513d601f19601f820116820180604052508101906122019190612db4565b6006546040517f095ea7b300000000000000000000000000000000000000000000000000000000815291925073ffffffffffffffffffffffffffffffffffffffff8084169263095ea7b3926122829261010090910416907fffffffffffffffffffffffffffffffffffffffffffffffffffffffffffffffff906004016133d6565b602060405180830381600087803b15801561229c57600080fd5b505af11580156122b0573d6000803e3d6000fd5b505050506040513d601f19601f820116820180604052508101906122d49190612fa8565b506122e260208b018b612d98565b6006546040517f095ea7b300000000000000000000000000000000000000000000000000000000815273ffffffffffffffffffffffffffffffffffffffff9283169263095ea7b39261236292610100909104909116907fffffffffffffffffffffffffffffffffffffffffffffffffffffffffffffffff906004016133d6565b602060405180830381600087803b15801561237c57600080fd5b505af1158015612390573d6000803e3d6000fd5b505050506040513d601f19601f820116820180604052508101906123b49190612fa8565b506006546040517f8831645600000000000000000000000000000000000000000000000000000000815261010090910473ffffffffffffffffffffffffffffffffffffffff169063883164569061240f908e906004016136d2565b608060405180830381600087803b15801561242957600080fd5b505af115801561243d573d6000803e3d6000fd5b505050506040513d601f19601f8201168201806040525081019061246191906131ce565b6040519399509197509550935086907f3067048beee31b25b2f1681f88dac838c8bba36af25bfb2b7cf7473a5847e35f906124a1908890889088906137a6565b60405180910390a2505095509550955095915050565b600b6020526000908152604090208054600182015460029092015490919083565b60105481565b3390565b73ffffffffffffffffffffffffffffffffffffffff831661254e576040517f08c379a0000000000000000000000000000000000000000000000000000000008152600401808060200182810382526024815260200180613a706024913960400191505060405180910390fd5b73ffffffffffffffffffffffffffffffffffffffff82166125ba576040517f08c379a00000000000000000000000000000000000000000000000000000000081526004018080602001828103825260228152602001806139ba6022913960400191505060405180910390fd5b73ffffffffffffffffffffffffffffffffffffffff808416600081815260026020908152604080832094871680845294825291829020859055815185815291517f8c5be1e5ebec7d5bd14f71427d1e84f3dd0314c0f7b2291e5b200ac8c7c3b9259281900390910190a3505050565b6116468282612980565b73ffffffffffffffffffffffffffffffffffffffff831661269f576040517f08c379a0000000000000000000000000000000000000000000000000000000008152600401808060200182810382526025815260200180613a4b6025913960400191505060405180910390fd5b73ffffffffffffffffffffffffffffffffffffffff821661270b576040517f08c379a00000000000000000000000000000000000000000000000000000000081526004018080602001828103825260238152602001806139756023913960400191505060405180910390fd5b6127168383836107a8565b612760816040518060600160405280602681526020016139dc6026913973ffffffffffffffffffffffffffffffffffffffff86166000908152600160205260409020549190612805565b73ffffffffffffffffffffffffffffffffffffffff808516600090815260016020526040808220939093559084168152205461279c90826128b6565b73ffffffffffffffffffffffffffffffffffffffff80841660008181526001602090815260409182902094909455805185815290519193928716927fddf252ad1be2c89b69c2b068fc378daa952ba7f163c4a11628f55a4df523b3ef92918290030190a3505050565b600081848411156128ae576040517f08c379a00000000000000000000000000000000000000000000000000000000081526004018080602001828103825283818151815260200191508051906020019080838360005b8381101561287357818101518382015260200161285b565b50505050905090810190601f1680156128a05780820380516001836020036101000a031916815260200191505b509250505060405180910390fd5b505050900390565b60008282018381101561292a57604080517f08c379a000000000000000000000000000000000000000000000000000000000815260206004820152601b60248201527f536166654d6174683a206164646974696f6e206f766572666c6f770000000000604482015290519081900360640190fd5b9392505050565b73ffffffffffffffffffffffffffffffffffffffff166000908152600b60205260409020600281018054825460019093018054620151806103e890950494909404429283030290930190925555565b73ffffffffffffffffffffffffffffffffffffffff8216612a0257604080517f08c379a000000000000000000000000000000000000000000000000000000000815260206004820152601f60248201527f45524332303a206d696e7420746f20746865207a65726f206164647265737300604482015290519081900360640190fd5b612a0e600083836107a8565b600354612a1b90826128b6565b60035573ffffffffffffffffffffffffffffffffffffffff8216600090815260016020526040902054612a4e90826128b6565b73ffffffffffffffffffffffffffffffffffffffff831660008181526001602090815260408083209490945583518581529351929391927fddf252ad1be2c89b69c2b068fc378daa952ba7f163c4a11628f55a4df523b3ef9281900390910190a35050565b6000601254420390506000620151806103e86001600e540281612ad257fe5b0481612ada57fe5b600f80549290910493909302019091555042601255565b73ffffffffffffffffffffffffffffffffffffffff8216612b5d576040517f08c379a0000000000000000000000000000000000000000000000000000000008152600401808060200182810382526021815260200180613a2a6021913960400191505060405180910390fd5b612b69826000836107a8565b612bb3816040518060600160405280602281526020016139986022913973ffffffffffffffffffffffffffffffffffffffff85166000908152600160205260409020549190612805565b73ffffffffffffffffffffffffffffffffffffffff8316600090815260016020526040902055600354612be69082612c3f565b60035560408051828152905160009173ffffffffffffffffffffffffffffffffffffffff8516917fddf252ad1be2c89b69c2b068fc378daa952ba7f163c4a11628f55a4df523b3ef9181900360200190a35050565b4290565b600082821115612cb057604080517f08c379a000000000000000000000000000000000000000000000000000000000815260206004820152601e60248201527f536166654d6174683a207375627472616374696f6e206f766572666c6f770000604482015290519081900360640190fd5b50900390565b803561060a81613934565b60008083601f840112612cd2578182fd5b50813567ffffffffffffffff811115612ce9578182fd5b6020830191508360208083028501011115612d0357600080fd5b9250929050565b60008083601f840112612d1b578182fd5b50813567ffffffffffffffff811115612d32578182fd5b602083019150836020828501011115612d0357600080fd5b8035600281900b811461060a57600080fd5b600060a08284031215612d6d578081fd5b50919050565b60006101008284031215612d6d578081fd5b803562ffffff8116811461060a57600080fd5b600060208284031215612da9578081fd5b813561292a81613934565b600060208284031215612dc5578081fd5b815161292a81613934565b60008060408385031215612de2578081fd5b8235612ded81613934565b91506020830135612dfd81613934565b809150509250929050565b60008060008060008060008060a0898b031215612e23578384fd5b8835612e2e81613934565b97506020890135612e3e81613934565b9650604089013567ffffffffffffffff80821115612e5a578586fd5b612e668c838d01612cc1565b909850965060608b0135915080821115612e7e578586fd5b612e8a8c838d01612cc1565b909650945060808b0135915080821115612ea2578384fd5b50612eaf8b828c01612d0a565b999c989b5096995094979396929594505050565b600080600060608486031215612ed7578283fd5b8335612ee281613934565b92506020840135612ef281613934565b929592945050506040919091013590565b60008060008060008060a08789031215612f1b578182fd5b8635612f2681613934565b95506020870135612f3681613934565b94506040870135935060608701359250608087013567ffffffffffffffff811115612f5f578283fd5b612f6b89828a01612d0a565b979a9699509497509295939492505050565b60008060408385031215612f8f578182fd5b8235612f9a81613934565b946020939093013593505050565b600060208284031215612fb9578081fd5b8151801515811461292a578182fd5b600060208284031215612fd9578081fd5b81357fffffffff000000000000000000000000000000000000000000000000000000008116811461292a578182fd5b600060a08284031215613019578081fd5b61292a8383612d5c565b6000806101208385031215613036578182fd5b6130408484612d73565b9150610100830135612dfd81613934565b6000806000806000806101a0878903121561306a578384fd5b6130748888612d73565b955061010087013567ffffffffffffffff80821115613091578586fd5b61309d8a838b01612d5c565b96506101208901359150808211156130b3578586fd5b506130c089828a01612d5c565b94505061014087013592506101608701356130da81613934565b91506101808701356130eb81613934565b809150509295509295509295565b60008060008060008587036101e0811215613112578384fd5b61016080821215613121578485fd5b879650860135905067ffffffffffffffff8082111561313e578485fd5b61314a89838a01612d5c565b9550610180880135915080821115613160578485fd5b5061316d88828901612d5c565b9350506101a086013561317f81613934565b91506101c086013561319081613934565b809150509295509295909350565b6000602082840312156131af578081fd5b5035919050565b6000602082840312156131c7578081fd5b5051919050565b600080600080608085870312156131e3578182fd5b8451935060208501516131f581613956565b6040860151606090960151949790965092505050565b6000806040838503121561321d578182fd5b505080516020909101519092909150565b73ffffffffffffffffffffffffffffffffffffffff169052565b600082845282826020860137806020848601015260207fffffffffffffffffffffffffffffffffffffffffffffffffffffffffffffffe0601f85011685010190509392505050565b60020b9052565b80356132a281613934565b73ffffffffffffffffffffffffffffffffffffffff90811683526020820135906132cb82613934565b808216602085015262ffffff6132e360408501612d85565b166040850152606083013591506132f982613934565b1660608301526080818101359083015260a0808201359083015260c0808201359083015261332960e08201612cb6565b6107a860e084018261322e565b62ffffff169052565b73ffffffffffffffffffffffffffffffffffffffff91909116815260200190565b73ffffffffffffffffffffffffffffffffffffffff9384168152919092166020820152604081019190915260600190565b73ffffffffffffffffffffffffffffffffffffffff94851681529290931660208301526040820152606081019190915260a06080820181905260009082015260c00190565b73ffffffffffffffffffffffffffffffffffffffff929092168252602082015260400190565b600073ffffffffffffffffffffffffffffffffffffffff808916835280881660208401525085604083015284606083015260a0608083015261344260a083018486613248565b98975050505050505050565b600073ffffffffffffffffffffffffffffffffffffffff8616825284602083015260606040830152613484606083018486613248565b9695505050505050565b600073ffffffffffffffffffffffffffffffffffffffff808916835287602084015286604084015280861660608401525060a0608083015261344260a083018486613248565b901515815260200190565b7fffffffff0000000000000000000000000000000000000000000000000000000091909116815260200190565b600073ffffffffffffffffffffffffffffffffffffffff8816825286602083015285604083015260a060608301528360a08301527f07ffffffffffffffffffffffffffffffffffffffffffffffffffffffffffffff84111561356c578081fd5b60208402808660c0850137820160c00190815260809091019190915295945050505050565b6000602080835283518082850152825b818110156135bd578581018301518582016040015282016135a1565b818111156135ce5783604083870101525b50601f017fffffffffffffffffffffffffffffffffffffffffffffffffffffffffffffffe016929092016040019392505050565b6020808252601d908201527f416d6f756e74206d7573742062652067726561746572207468616e2030000000604082015260600190565b60208082526014908201527f4e6f2066756e647320746f207769746864726177000000000000000000000000604082015260600190565b8135815260a08101602083013561368681613956565b6fffffffffffffffffffffffffffffffff811660208401525060408301356040830152606083013560608301526080830135608083015292915050565b61010081016106f78284613297565b61016081016136e9826136e485612cb6565b61322e565b6136f560208401612cb6565b613702602084018261322e565b5061370f60408401612d85565b61371c6040840182613336565b5061372960608401612d4a565b6137366060840182613290565b5061374360808401612d4a565b6137506080840182613290565b5060a083013560a083015260c083013560c083015260e083013560e0830152610100808401358184015250610120613789818501612cb6565b6137958285018261322e565b505061014092830135919092015290565b6fffffffffffffffffffffffffffffffff9390931683526020830191909152604082015260600190565b90815260200190565b9384526fffffffffffffffffffffffffffffffff9290921660208401526040830152606082015260800190565b918252602082015260400190565b938452602084019290925273ffffffffffffffffffffffffffffffffffffffff908116604084015216606082015260800190565b9283526020830191909152604082015260600190565b60ff91909116815260200190565b60008083357fffffffffffffffffffffffffffffffffffffffffffffffffffffffffffffffe18436030181126138a0578283fd5b83018035915067ffffffffffffffff8211156138ba578283fd5b6020908101925081023603821315612d0357600080fd5b60008083357fffffffffffffffffffffffffffffffffffffffffffffffffffffffffffffffe1843603018112613905578283fd5b83018035915067ffffffffffffffff82111561391f578283fd5b602001915036819003821315612d0357600080fd5b73ffffffffffffffffffffffffffffffffffffffff8116811461137f57600080fd5b6fffffffffffffffffffffffffffffffff8116811461137f57600080fdfe45524332303a207472616e7366657220746f20746865207a65726f206164647265737345524332303a206275726e20616d6f756e7420657863656564732062616c616e636545524332303a20617070726f766520746f20746865207a65726f206164647265737345524332303a207472616e7366657220616d6f756e7420657863656564732062616c616e636545524332303a207472616e7366657220616d6f756e74206578636565647320616c6c6f77616e636545524332303a206275726e2066726f6d20746865207a65726f206164647265737345524332303a207472616e736665722066726f6d20746865207a65726f206164647265737345524332303a20617070726f76652066726f6d20746865207a65726f206164647265737345524332303a2064656372656173656420616c6c6f77616e63652062656c6f77207a65726fa164736f6c6343000706000a",
  "linkReferences": {},
  "deployedLinkReferences": {}
}