{
  "_format": "hh-sol-artifact-1",
  "contractName": "USDC",
  "sourceName": "contracts/USDC.sol",
  "abi": [
    {
      "inputs": [],
      "stateMutability": "nonpayable",
      "type": "constructor"
    },
    {
      "anonymous": false,
      "inputs": [
        {
          "indexed": true,
          "internalType": "address",
          "name": "owner",
          "type": "address"
        },
        {
          "indexed": true,
          "internalType": "address",
          "name": "spender",
          "type": "address"
        },
        {
          "indexed": false,
          "internalType": "uint256",
          "name": "amount",
          "type": "uint256"
        }
      ],
      "name": "Approval",
      "type": "event"
    },
    {
      "anonymous": false,
      "inputs": [
        {
          "indexed": true,
          "internalType": "address",
          "name": "from",
          "type": "address"
        },
        {
          "indexed": true,
          "internalType": "address",
          "name": "to",
          "type": "address"
        },
        {
          "indexed": false,
          "internalType": "uint256",
          "name": "amount",
          "type": "uint256"
        }
      ],
      "name": "Transfer",
      "type": "event"
    },
    {
      "inputs": [],
      "name": "DOMAIN_SEPARATOR",
      "outputs": [
        {
          "internalType": "bytes32",
          "name": "",
          "type": "bytes32"
        }
      ],
      "stateMutability": "view",
      "type": "function"
    },
    {
      "inputs": [
        {
          "internalType": "address",
          "name": "",
          "type": "address"
        },
        {
          "internalType": "address",
          "name": "",
          "type": "address"
        }
      ],
      "name": "allowance",
      "outputs": [
        {
          "internalType": "uint256",
          "name": "",
          "type": "uint256"
        }
      ],
      "stateMutability": "view",
      "type": "function"
    },
    {
      "inputs": [
        {
          "internalType": "address",
          "name": "spender",
          "type": "address"
        },
        {
          "internalType": "uint256",
          "name": "amount",
          "type": "uint256"
        }
      ],
      "name": "approve",
      "outputs": [
        {
          "internalType": "bool",
          "name": "",
          "type": "bool"
        }
      ],
      "stateMutability": "nonpayable",
      "type": "function"
    },
    {
      "inputs": [
        {
          "internalType": "address",
          "name": "",
          "type": "address"
        }
      ],
      "name": "balanceOf",
      "outputs": [
        {
          "internalType": "uint256",
          "name": "",
          "type": "uint256"
        }
      ],
      "stateMutability": "view",
      "type": "function"
    },
    {
      "inputs": [],
      "name": "decimals",
      "outputs": [
        {
          "internalType": "uint8",
          "name": "",
          "type": "uint8"
        }
      ],
      "stateMutability": "view",
      "type": "function"
    },
    {
      "inputs": [],
      "name": "name",
      "outputs": [
        {
          "internalType": "string",
          "name": "",
          "type": "string"
        }
      ],
      "stateMutability": "view",
      "type": "function"
    },
    {
      "inputs": [
        {
          "internalType": "address",
          "name": "",
          "type": "address"
        }
      ],
      "name": "nonces",
      "outputs": [
        {
          "internalType": "uint256",
          "name": "",
          "type": "uint256"
        }
      ],
      "stateMutability": "view",
      "type": "function"
    },
    {
      "inputs": [
        {
          "internalType": "address",
          "name": "owner",
          "type": "address"
        },
        {
          "internalType": "address",
          "name": "spender",
          "type": "address"
        },
        {
          "internalType": "uint256",
          "name": "value",
          "type": "uint256"
        },
        {
          "internalType": "uint256",
          "name": "deadline",
          "type": "uint256"
        },
        {
          "internalType": "uint8",
          "name": "v",
          "type": "uint8"
        },
        {
          "internalType": "bytes32",
          "name": "r",
          "type": "bytes32"
        },
        {
          "internalType": "bytes32",
          "name": "s",
          "type": "bytes32"
        }
      ],
      "name": "permit",
      "outputs": [],
      "stateMutability": "nonpayable",
      "type": "function"
    },
    {
      "inputs": [],
      "name": "symbol",
      "outputs": [
        {
          "internalType": "string",
          "name": "",
          "type": "string"
        }
      ],
      "stateMutability": "view",
      "type": "function"
    },
    {
      "inputs": [],
      "name": "totalSupply",
      "outputs": [
        {
          "internalType": "uint256",
          "name": "",
          "type": "uint256"
        }
      ],
      "stateMutability": "view",
      "type": "function"
    },
    {
      "inputs": [
        {
          "internalType": "address",
          "name": "to",
          "type": "address"
        },
        {
          "internalType": "uint256",
          "name": "amount",
          "type": "uint256"
        }
      ],
      "name": "transfer",
      "outputs": [
        {
          "internalType": "bool",
          "name": "",
          "type": "bool"
        }
      ],
      "stateMutability": "nonpayable",
      "type": "function"
    },
    {
      "inputs": [
        {
          "internalType": "address",
          "name": "from",
          "type": "address"
        },
        {
          "internalType": "address",
          "name": "to",
          "type": "address"
        },
        {
          "internalType": "uint256",
          "name": "amount",
          "type": "uint256"
        }
      ],
      "name": "transferFrom",
      "outputs": [
        {
          "internalType": "bool",
          "name": "",
          "type": "bool"
        }
      ],
      "stateMutability": "nonpayable",
      "type": "function"
    }
  ],
  "bytecode": "0x60e06040523480156200001157600080fd5b5060408051808201825260088152672aa9a21021b7b4b760c11b6020808301918252835180850190945260048452635553444360e01b908401528151919291600691620000629160009190620001ce565b50815162000078906001906020850190620001ce565b507fff0000000000000000000000000000000000000000000000000000000000000060f882901b166080524660a052620000b1620000cd565b60c05250620000c791503390506000196200015a565b620003bc565b60007f8b73c3c69bb8fe3d512ecc4cf759cc79239f7b179b0ffacaa9a75d522b39400f600060405162000101919062000274565b6040519081900381206200013f92917fc89efdaa54c0f20c7adf612882df0950f5a951637e0307cdcb4c672f298b8bc6904690309060200162000319565b60405160208183030381529060405280519060200120905090565b80600260008282546200016e91906200035a565b90915550506001600160a01b038216600081815260036020526040808220805485019055517fddf252ad1be2c89b69c2b068fc378daa952ba7f163c4a11628f55a4df523b3ef90620001c290859062000345565b60405180910390a35050565b828054620001dc906200037f565b90600052602060002090601f0160209004810192826200020057600085556200024b565b82601f106200021b57805160ff19168380011785556200024b565b828001600101855582156200024b579182015b828111156200024b5782518255916020019190600101906200022e565b50620002599291506200025d565b5090565b5b808211156200025957600081556001016200025e565b81546000908190600281046001808316806200029157607f831692505b6020808410821415620002b257634e487b7160e01b87526022600452602487fd5b818015620002c95760018114620002db576200030b565b60ff198616895284890196506200030b565b620002e68a6200034e565b885b86811015620003035781548b820152908501908301620002e8565b505084890196505b509498975050505050505050565b9485526020850193909352604084019190915260608301526001600160a01b0316608082015260a00190565b90815260200190565b60009081526020902090565b600082198211156200037a57634e487b7160e01b81526011600452602481fd5b500190565b6002810460018216806200039457607f821691505b60208210811415620003b657634e487b7160e01b600052602260045260246000fd5b50919050565b60805160f81c60a05160c051610b20620003ef60003960006103ef015260006103bb015260006103950152610b206000f3fe608060405234801561001057600080fd5b50600436106100b45760003560e01c806370a082311161007157806370a082311461013c5780637ecebe001461014f57806395d89b4114610162578063a9059cbb1461016a578063d505accf1461017d578063dd62ed3e14610192576100b4565b806306fdde03146100b9578063095ea7b3146100d757806318160ddd146100f757806323b872dd1461010c578063313ce5671461011f5780633644e51514610134575b600080fd5b6100c16101a5565b6040516100ce91906109c0565b60405180910390f35b6100ea6100e536600461084f565b610233565b6040516100ce919061092e565b6100ff61029d565b6040516100ce9190610939565b6100ea61011a3660046107a3565b6102a3565b610127610393565b6040516100ce9190610a72565b6100ff6103b7565b6100ff61014a366004610750565b610414565b6100ff61015d366004610750565b610426565b6100c1610438565b6100ea61017836600461084f565b610445565b61019061018b3660046107de565b6104bb565b005b6100ff6101a0366004610771565b61068e565b600080546101b290610aaf565b80601f01602080910402602001604051908101604052809291908181526020018280546101de90610aaf565b801561022b5780601f106102005761010080835404028352916020019161022b565b820191906000526020600020905b81548152906001019060200180831161020e57829003601f168201915b505050505081565b3360008181526004602090815260408083206001600160a01b038716808552925280832085905551919290917f8c5be1e5ebec7d5bd14f71427d1e84f3dd0314c0f7b2291e5b200ac8c7c3b9259061028c908690610939565b60405180910390a350600192915050565b60025481565b6001600160a01b038316600090815260046020908152604080832033845290915281205460001981146102ff576102da8382610a8c565b6001600160a01b03861660009081526004602090815260408083203384529091529020555b6001600160a01b03851660009081526003602052604081208054859290610327908490610a8c565b90915550506001600160a01b03808516600081815260036020526040908190208054870190555190918716907fddf252ad1be2c89b69c2b068fc378daa952ba7f163c4a11628f55a4df523b3ef90610380908790610939565b60405180910390a3506001949350505050565b7f000000000000000000000000000000000000000000000000000000000000000081565b60007f000000000000000000000000000000000000000000000000000000000000000046146103ed576103e86106ab565b61040f565b7f00000000000000000000000000000000000000000000000000000000000000005b905090565b60036020526000908152604090205481565b60056020526000908152604090205481565b600180546101b290610aaf565b33600090815260036020526040812080548391908390610466908490610a8c565b90915550506001600160a01b038316600081815260036020526040908190208054850190555133907fddf252ad1be2c89b69c2b068fc378daa952ba7f163c4a11628f55a4df523b3ef9061028c908690610939565b428410156104e45760405162461bcd60e51b81526004016104db90610a3b565b60405180910390fd5b600060016104f06103b7565b6001600160a01b038a16600090815260056020908152604091829020805460018101909155915161054d927f6e71edae12b1b97f4d1f60370fef10105fa2faae0126114a169c64845d6126c9928e928e928e9290918e9101610942565b60405160208183030381529060405280519060200120604051602001610574929190610913565b60405160208183030381529060405280519060200120858585604051600081526020016040526040516105aa94939291906109a2565b6020604051602081039080840390855afa1580156105cc573d6000803e3d6000fd5b5050604051601f1901519150506001600160a01b038116158015906106025750876001600160a01b0316816001600160a01b0316145b61061e5760405162461bcd60e51b81526004016104db90610a13565b6001600160a01b0390811660009081526004602090815260408083208a8516808552925291829020889055905190918916907f8c5be1e5ebec7d5bd14f71427d1e84f3dd0314c0f7b2291e5b200ac8c7c3b9259061067d908990610939565b60405180910390a350505050505050565b600460209081526000928352604080842090915290825290205481565b60007f8b73c3c69bb8fe3d512ecc4cf759cc79239f7b179b0ffacaa9a75d522b39400f60006040516106dd9190610878565b60405190819003812061071992917fc89efdaa54c0f20c7adf612882df0950f5a951637e0307cdcb4c672f298b8bc69046903090602001610976565b60405160208183030381529060405280519060200120905090565b80356001600160a01b038116811461074b57600080fd5b919050565b600060208284031215610761578081fd5b61076a82610734565b9392505050565b60008060408385031215610783578081fd5b61078c83610734565b915061079a60208401610734565b90509250929050565b6000806000606084860312156107b7578081fd5b6107c084610734565b92506107ce60208501610734565b9150604084013590509250925092565b600080600080600080600060e0888a0312156107f8578283fd5b61080188610734565b965061080f60208901610734565b95506040880135945060608801359350608088013560ff81168114610832578384fd5b9699959850939692959460a0840135945060c09093013592915050565b60008060408385031215610861578182fd5b61086a83610734565b946020939093013593505050565b815460009081906002810460018083168061089457607f831692505b60208084108214156108b457634e487b7160e01b87526022600452602487fd5b8180156108c857600181146108d957610905565b60ff19861689528489019650610905565b6108e28a610a80565b885b868110156108fd5781548b8201529085019083016108e4565b505084890196505b509498975050505050505050565b61190160f01b81526002810192909252602282015260420190565b901515815260200190565b90815260200190565b9586526001600160a01b0394851660208701529290931660408501526060840152608083019190915260a082015260c00190565b9485526020850193909352604084019190915260608301526001600160a01b0316608082015260a00190565b93845260ff9290921660208401526040830152606082015260800190565b6000602080835283518082850152825b818110156109ec578581018301518582016040015282016109d0565b818111156109fd5783604083870101525b50601f01601f1916929092016040019392505050565b6020808252600e908201526d24a72b20a624a22fa9a4a3a722a960911b604082015260600190565b60208082526017908201527f5045524d49545f444541444c494e455f45585049524544000000000000000000604082015260600190565b60ff91909116815260200190565b60009081526020902090565b600082821015610aaa57634e487b7160e01b81526011600452602481fd5b500390565b600281046001821680610ac357607f821691505b60208210811415610ae457634e487b7160e01b600052602260045260246000fd5b5091905056fea26469706673582212208ade01edbbb35a552ee51005bebc9133875905b63fc435c5bb6764a321d75e5a64736f6c63430008000033",
  "linkReferences": {},
  "deployedLinkReferences": {}
}