{
  "_format": "hh-sol-artifact-1",
  "contractName": "QuoterV2",
  "sourceName": "contracts/lens/QuoterV2.sol",
  "abi": [
    {
      "inputs": [
        {
          "internalType": "address",
          "name": "_deployer",
          "type": "address"
        },
        {
          "internalType": "address",
          "name": "_factory",
          "type": "address"
        },
        {
          "internalType": "address",
          "name": "_WETH9",
          "type": "address"
        }
      ],
      "stateMutability": "nonpayable",
      "type": "constructor"
    },
    {
      "inputs": [
        {
          "internalType": "int256",
          "name": "amount0Delta",
          "type": "int256"
        },
        {
          "internalType": "int256",
          "name": "amount1Delta",
          "type": "int256"
        },
        {
          "internalType": "bytes",
          "name": "path",
          "type": "bytes"
        }
      ],
      "name": "BubblySwapSwapCallback",
      "outputs": [],
      "stateMutability": "view",
      "type": "function"
    },
    {
      "inputs": [],
      "name": "WETH9",
      "outputs": [
        {
          "internalType": "address",
          "name": "",
          "type": "address"
        }
      ],
      "stateMutability": "view",
      "type": "function"
    },
    {
      "inputs": [],
      "name": "deployer",
      "outputs": [
        {
          "internalType": "address",
          "name": "",
          "type": "address"
        }
      ],
      "stateMutability": "view",
      "type": "function"
    },
    {
      "inputs": [],
      "name": "factory",
      "outputs": [
        {
          "internalType": "address",
          "name": "",
          "type": "address"
        }
      ],
      "stateMutability": "view",
      "type": "function"
    },
    {
      "inputs": [
        {
          "internalType": "bytes",
          "name": "path",
          "type": "bytes"
        },
        {
          "internalType": "uint256",
          "name": "amountIn",
          "type": "uint256"
        }
      ],
      "name": "quoteExactInput",
      "outputs": [
        {
          "internalType": "uint256",
          "name": "amountOut",
          "type": "uint256"
        },
        {
          "internalType": "uint160[]",
          "name": "sqrtPriceX96AfterList",
          "type": "uint160[]"
        },
        {
          "internalType": "uint32[]",
          "name": "initializedTicksCrossedList",
          "type": "uint32[]"
        },
        {
          "internalType": "uint256",
          "name": "gasEstimate",
          "type": "uint256"
        }
      ],
      "stateMutability": "nonpayable",
      "type": "function"
    },
    {
      "inputs": [
        {
          "components": [
            {
              "internalType": "address",
              "name": "tokenIn",
              "type": "address"
            },
            {
              "internalType": "address",
              "name": "tokenOut",
              "type": "address"
            },
            {
              "internalType": "uint256",
              "name": "amountIn",
              "type": "uint256"
            },
            {
              "internalType": "uint24",
              "name": "fee",
              "type": "uint24"
            },
            {
              "internalType": "uint160",
              "name": "sqrtPriceLimitX96",
              "type": "uint160"
            }
          ],
          "internalType": "struct IQuoterV2.QuoteExactInputSingleParams",
          "name": "params",
          "type": "tuple"
        }
      ],
      "name": "quoteExactInputSingle",
      "outputs": [
        {
          "internalType": "uint256",
          "name": "amountOut",
          "type": "uint256"
        },
        {
          "internalType": "uint160",
          "name": "sqrtPriceX96After",
          "type": "uint160"
        },
        {
          "internalType": "uint32",
          "name": "initializedTicksCrossed",
          "type": "uint32"
        },
        {
          "internalType": "uint256",
          "name": "gasEstimate",
          "type": "uint256"
        }
      ],
      "stateMutability": "nonpayable",
      "type": "function"
    },
    {
      "inputs": [
        {
          "internalType": "bytes",
          "name": "path",
          "type": "bytes"
        },
        {
          "internalType": "uint256",
          "name": "amountOut",
          "type": "uint256"
        }
      ],
      "name": "quoteExactOutput",
      "outputs": [
        {
          "internalType": "uint256",
          "name": "amountIn",
          "type": "uint256"
        },
        {
          "internalType": "uint160[]",
          "name": "sqrtPriceX96AfterList",
          "type": "uint160[]"
        },
        {
          "internalType": "uint32[]",
          "name": "initializedTicksCrossedList",
          "type": "uint32[]"
        },
        {
          "internalType": "uint256",
          "name": "gasEstimate",
          "type": "uint256"
        }
      ],
      "stateMutability": "nonpayable",
      "type": "function"
    },
    {
      "inputs": [
        {
          "components": [
            {
              "internalType": "address",
              "name": "tokenIn",
              "type": "address"
            },
            {
              "internalType": "address",
              "name": "tokenOut",
              "type": "address"
            },
            {
              "internalType": "uint256",
              "name": "amount",
              "type": "uint256"
            },
            {
              "internalType": "uint24",
              "name": "fee",
              "type": "uint24"
            },
            {
              "internalType": "uint160",
              "name": "sqrtPriceLimitX96",
              "type": "uint160"
            }
          ],
          "internalType": "struct IQuoterV2.QuoteExactOutputSingleParams",
          "name": "params",
          "type": "tuple"
        }
      ],
      "name": "quoteExactOutputSingle",
      "outputs": [
        {
          "internalType": "uint256",
          "name": "amountIn",
          "type": "uint256"
        },
        {
          "internalType": "uint160",
          "name": "sqrtPriceX96After",
          "type": "uint160"
        },
        {
          "internalType": "uint32",
          "name": "initializedTicksCrossed",
          "type": "uint32"
        },
        {
          "internalType": "uint256",
          "name": "gasEstimate",
          "type": "uint256"
        }
      ],
      "stateMutability": "nonpayable",
      "type": "function"
    }
  ],
  "bytecode": "0x60e06040523480156200001157600080fd5b506040516200218d3803806200218d833981016040819052620000349162000079565b6001600160601b0319606093841b811660805291831b821660a05290911b1660c052620000c2565b80516001600160a01b03811681146200007457600080fd5b919050565b6000806000606084860312156200008e578283fd5b62000099846200005c565b9250620000a9602085016200005c565b9150620000b9604085016200005c565b90509250925092565b60805160601c60a05160601c60c05160601c61208b620001026000398061033452508061058a5250806109705280610afd5280610bc9525061208b6000f3fe608060405234801561001057600080fd5b50600436106100885760003560e01c8063c6a5026a1161005b578063c6a5026a146100f9578063cdca17531461010c578063ce41b35a1461011f578063d5f394881461013457610088565b80632f80bb1d1461008d5780634aa4a4fc146100b9578063bd21704a146100ce578063c45a0155146100f1575b600080fd5b6100a061009b366004611b62565b61013c565b6040516100b09493929190611ee6565b60405180910390f35b6100c1610332565b6040516100b09190611e29565b6100e16100dc366004611c80565b610356565b6040516100b09493929190611f8e565b6100c1610588565b6100e1610107366004611c80565b6105ac565b6100a061011a366004611b62565b610767565b61013261012d366004611bc8565b61093f565b005b6100c1610afb565b6000606080600061014c86610b1f565b67ffffffffffffffff8111801561016257600080fd5b5060405190808252806020026020018201604052801561018c578160200160208202803683370190505b50925061019886610b1f565b67ffffffffffffffff811180156101ae57600080fd5b506040519080825280602002602001820160405280156101d8578160200160208202803683370190505b50915060005b60008060006101ec8a610b4e565b92509250925060008060008061026f6040518060a001604052808873ffffffffffffffffffffffffffffffffffffffff1681526020018973ffffffffffffffffffffffffffffffffffffffff1681526020018f81526020018762ffffff168152602001600073ffffffffffffffffffffffffffffffffffffffff16815250610356565b9350935093509350828b898151811061028457fe5b602002602001019073ffffffffffffffffffffffffffffffffffffffff16908173ffffffffffffffffffffffffffffffffffffffff1681525050818a89815181106102cb57fe5b63ffffffff90921660209283029190910190910152929b50968201966001909601958b926102f88e610b7f565b1561030d576103068e610b87565b9d5061031d565b8c9b505050505050505050610329565b505050505050506101de565b92959194509250565b7f000000000000000000000000000000000000000000000000000000000000000081565b60208101518151606083015160009283928392839273ffffffffffffffffffffffffffffffffffffffff808216908416109284926103949290610bc2565b9050866080015173ffffffffffffffffffffffffffffffffffffffff16600014156103c25760408701516000555b60005a90508173ffffffffffffffffffffffffffffffffffffffff1663128acb0830856103f28c60400151610c00565b6000038c6080015173ffffffffffffffffffffffffffffffffffffffff16600014610421578c60800151610447565b876104405773fffd8963efd1fc6a506488495d951d5263988d25610447565b6401000276a45b8d602001518e606001518f6000015160405160200161046893929190611dc3565b6040516020818303038152906040526040518663ffffffff1660e01b8152600401610497959493929190611e4a565b6040805180830381600087803b1580156104b057600080fd5b505af19250505080156104fe575060408051601f3d9081017fffffffffffffffffffffffffffffffffffffffffffffffffffffffffffffffe01682019092526104fb91810190611ba5565b60015b61057b573d80801561052c576040519150601f19603f3d011682016040523d82523d6000602084013e610531565b606091505b505a82039450886080015173ffffffffffffffffffffffffffffffffffffffff166000141561055f57600080555b61056a818487610c32565b975097509750975050505050610581565b50505050505b9193509193565b7f000000000000000000000000000000000000000000000000000000000000000081565b60208101518151606083015160009283928392839273ffffffffffffffffffffffffffffffffffffffff808216908416109284926105ea9290610bc2565b905060005a90508173ffffffffffffffffffffffffffffffffffffffff1663128acb08308561061c8c60400151610c00565b60808d015173ffffffffffffffffffffffffffffffffffffffff1615610646578c6080015161066c565b876106655773fffd8963efd1fc6a506488495d951d5263988d2561066c565b6401000276a45b8d600001518e606001518f6020015160405160200161068d93929190611dc3565b6040516020818303038152906040526040518663ffffffff1660e01b81526004016106bc959493929190611e4a565b6040805180830381600087803b1580156106d557600080fd5b505af1925050508015610723575060408051601f3d9081017fffffffffffffffffffffffffffffffffffffffffffffffffffffffffffffffe016820190925261072091810190611ba5565b60015b61057b573d808015610751576040519150601f19603f3d011682016040523d82523d6000602084013e610756565b606091505b505a8203945061056a818487610c32565b6000606080600061077786610b1f565b67ffffffffffffffff8111801561078d57600080fd5b506040519080825280602002602001820160405280156107b7578160200160208202803683370190505b5092506107c386610b1f565b67ffffffffffffffff811180156107d957600080fd5b50604051908082528060200260200182016040528015610803578160200160208202803683370190505b50915060005b60008060006108178a610b4e565b92509250925060008060008061089a6040518060a001604052808973ffffffffffffffffffffffffffffffffffffffff1681526020018873ffffffffffffffffffffffffffffffffffffffff1681526020018f81526020018762ffffff168152602001600073ffffffffffffffffffffffffffffffffffffffff168152506105ac565b9350935093509350828b89815181106108af57fe5b602002602001019073ffffffffffffffffffffffffffffffffffffffff16908173ffffffffffffffffffffffffffffffffffffffff1681525050818a89815181106108f657fe5b63ffffffff90921660209283029190910190910152929b50968201966001909601958b926109238e610b7f565b1561030d576109318e610b87565b9d5050505050505050610809565b600083138061094e5750600082135b61095757600080fd5b600080600061096584610b4e565b9250925092506109977f0000000000000000000000000000000000000000000000000000000000000000848484610d06565b5060008060008089136109dd578573ffffffffffffffffffffffffffffffffffffffff168573ffffffffffffffffffffffffffffffffffffffff1610888a600003610a12565b8473ffffffffffffffffffffffffffffffffffffffff168673ffffffffffffffffffffffffffffffffffffffff161089896000035b9250925092506000610a25878787610bc2565b90506000808273ffffffffffffffffffffffffffffffffffffffff16633850c7bd6040518163ffffffff1660e01b815260040160e06040518083038186803b158015610a7057600080fd5b505afa158015610a84573d6000803e3d6000fd5b505050506040513d601f19601f82011682018060405250810190610aa89190611ca2565b5050505050915091508515610ace57604051848152826020820152816040820152606081fd5b60005415610ae4576000548414610ae457600080fd5b604051858152826020820152816040820152606081fd5b7f000000000000000000000000000000000000000000000000000000000000000081565b805160177fffffffffffffffffffffffffffffffffffffffffffffffffffffffffffffffec909101045b919050565b60008080610b5c8482610d25565b9250610b69846014610e25565b9050610b76846017610d25565b91509193909250565b516042111590565b8051606090610bbc9083906017907fffffffffffffffffffffffffffffffffffffffffffffffffffffffffffffffe901610f15565b92915050565b6000610bf87f0000000000000000000000000000000000000000000000000000000000000000610bf38686866110fc565b611179565b949350505050565b60007f80000000000000000000000000000000000000000000000000000000000000008210610c2e57600080fd5b5090565b6000806000806000808773ffffffffffffffffffffffffffffffffffffffff16633850c7bd6040518163ffffffff1660e01b815260040160e06040518083038186803b158015610c8157600080fd5b505afa158015610c95573d6000803e3d6000fd5b505050506040513d601f19601f82011682018060405250810190610cb99190611ca2565b50939650610cce94508d93506112af92505050565b91975095509050610cf673ffffffffffffffffffffffffffffffffffffffff89168383611370565b9350869250505093509350935093565b6000610d1c85610d178686866110fc565b6119c8565b95945050505050565b600081826014011015610d9957604080517f08c379a000000000000000000000000000000000000000000000000000000000815260206004820152601260248201527f746f416464726573735f6f766572666c6f770000000000000000000000000000604482015290519081900360640190fd5b8160140183511015610e0c57604080517f08c379a000000000000000000000000000000000000000000000000000000000815260206004820152601560248201527f746f416464726573735f6f75744f66426f756e64730000000000000000000000604482015290519081900360640190fd5b5001602001516c01000000000000000000000000900490565b600081826003011015610e9957604080517f08c379a000000000000000000000000000000000000000000000000000000000815260206004820152601160248201527f746f55696e7432345f6f766572666c6f77000000000000000000000000000000604482015290519081900360640190fd5b8160030183511015610f0c57604080517f08c379a000000000000000000000000000000000000000000000000000000000815260206004820152601460248201527f746f55696e7432345f6f75744f66426f756e6473000000000000000000000000604482015290519081900360640190fd5b50016003015190565b60608182601f011015610f8957604080517f08c379a000000000000000000000000000000000000000000000000000000000815260206004820152600e60248201527f736c6963655f6f766572666c6f77000000000000000000000000000000000000604482015290519081900360640190fd5b828284011015610ffa57604080517f08c379a000000000000000000000000000000000000000000000000000000000815260206004820152600e60248201527f736c6963655f6f766572666c6f77000000000000000000000000000000000000604482015290519081900360640190fd5b8183018451101561106c57604080517f08c379a000000000000000000000000000000000000000000000000000000000815260206004820152601160248201527f736c6963655f6f75744f66426f756e6473000000000000000000000000000000604482015290519081900360640190fd5b60608215801561108b57604051915060008252602082016040526110f3565b6040519150601f8416801560200281840101858101878315602002848b0101015b818310156110c45780518352602092830192016110ac565b5050858452601f017fffffffffffffffffffffffffffffffffffffffffffffffffffffffffffffffe016604052505b50949350505050565b611104611a31565b8273ffffffffffffffffffffffffffffffffffffffff168473ffffffffffffffffffffffffffffffffffffffff16111561113c579192915b506040805160608101825273ffffffffffffffffffffffffffffffffffffffff948516815292909316602083015262ffffff169181019190915290565b6000816020015173ffffffffffffffffffffffffffffffffffffffff16826000015173ffffffffffffffffffffffffffffffffffffffff16106111bb57600080fd5b508051602080830151604093840151845173ffffffffffffffffffffffffffffffffffffffff94851681850152939091168385015262ffffff166060808401919091528351808403820181526080840185528051908301207fff0000000000000000000000000000000000000000000000000000000000000060a085015294901b7fffffffffffffffffffffffffffffffffffffffff0000000000000000000000001660a183015260b58201939093527f0d28a143a55ec9a5c99aad68c5ddbec488f23663d53236879a8d8ea26f47ae7660d5808301919091528251808303909101815260f5909101909152805191012090565b6000806000835160601461134f57604484511015611302576040517f08c379a00000000000000000000000000000000000000000000000000000000081526004016112f990611eaf565b60405180910390fd5b6004840193508380602001905181019061131c9190611c16565b6040517f08c379a00000000000000000000000000000000000000000000000000000000081526004016112f99190611e9c565b838060200190518101906113639190611d3c565b9250925092509193909250565b60008060008060008060008060088b73ffffffffffffffffffffffffffffffffffffffff1663d0c93a7c6040518163ffffffff1660e01b815260040160206040518083038186803b1580156113c457600080fd5b505afa1580156113d8573d6000803e3d6000fd5b505050506040513d60208110156113ee57600080fd5b5051600290810b908c900b8161140057fe5b0560020b901d905060006101008c73ffffffffffffffffffffffffffffffffffffffff1663d0c93a7c6040518163ffffffff1660e01b815260040160206040518083038186803b15801561145357600080fd5b505afa158015611467573d6000803e3d6000fd5b505050506040513d602081101561147d57600080fd5b5051600290810b908d900b8161148f57fe5b0560020b8161149a57fe5b079050600060088d73ffffffffffffffffffffffffffffffffffffffff1663d0c93a7c6040518163ffffffff1660e01b815260040160206040518083038186803b1580156114e757600080fd5b505afa1580156114fb573d6000803e3d6000fd5b505050506040513d602081101561151157600080fd5b5051600290810b908d900b8161152357fe5b0560020b901d905060006101008e73ffffffffffffffffffffffffffffffffffffffff1663d0c93a7c6040518163ffffffff1660e01b815260040160206040518083038186803b15801561157657600080fd5b505afa15801561158a573d6000803e3d6000fd5b505050506040513d60208110156115a057600080fd5b5051600290810b908e900b816115b257fe5b0560020b816115bd57fe5b07905060008160ff166001901b8f73ffffffffffffffffffffffffffffffffffffffff16635339c296856040518263ffffffff1660e01b8152600401808260010b815260200191505060206040518083038186803b15801561161e57600080fd5b505afa158015611632573d6000803e3d6000fd5b505050506040513d602081101561164857600080fd5b5051161180156116db57508d73ffffffffffffffffffffffffffffffffffffffff1663d0c93a7c6040518163ffffffff1660e01b815260040160206040518083038186803b15801561169957600080fd5b505afa1580156116ad573d6000803e3d6000fd5b505050506040513d60208110156116c357600080fd5b5051600290810b908d900b816116d557fe5b0760020b155b80156116ec57508b60020b8d60020b135b945060008360ff166001901b8f73ffffffffffffffffffffffffffffffffffffffff16635339c296876040518263ffffffff1660e01b8152600401808260010b815260200191505060206040518083038186803b15801561174c57600080fd5b505afa158015611760573d6000803e3d6000fd5b505050506040513d602081101561177657600080fd5b50511611801561180957508d73ffffffffffffffffffffffffffffffffffffffff1663d0c93a7c6040518163ffffffff1660e01b815260040160206040518083038186803b1580156117c757600080fd5b505afa1580156117db573d6000803e3d6000fd5b505050506040513d60208110156117f157600080fd5b5051600290810b908e900b8161180357fe5b0760020b155b801561181a57508b60020b8d60020b125b95508160010b8460010b128061184657508160010b8460010b14801561184657508060ff168360ff1611155b1561185c57839950829750819850809650611869565b8199508097508398508296505b50507fffffffffffffffffffffffffffffffffffffffffffffffffffffffffffffffff60ff87161b9150505b8560010b8760010b136119a0578560010b8760010b14156118da577fffffffffffffffffffffffffffffffffffffffffffffffffffffffffffffffff60ff858103161c165b6000818c73ffffffffffffffffffffffffffffffffffffffff16635339c2968a6040518263ffffffff1660e01b8152600401808260010b815260200191505060206040518083038186803b15801561193157600080fd5b505afa158015611945573d6000803e3d6000fd5b505050506040513d602081101561195b57600080fd5b5051169050611969816119f8565b61ffff16989098019750506001909501947fffffffffffffffffffffffffffffffffffffffffffffffffffffffffffffffff611895565b81156119ad576001880397505b82156119ba576001880397505b505050505050509392505050565b60006119d48383611179565b90503373ffffffffffffffffffffffffffffffffffffffff821614610bbc57600080fd5b6000805b8215610bbc577fffffffffffffffffffffffffffffffffffffffffffffffffffffffffffffffff8301909216916001016119fc565b604080516060810182526000808252602082018190529181019190915290565b600082601f830112611a61578081fd5b8135611a74611a6f82611fe9565b611fc5565b818152846020838601011115611a88578283fd5b816020850160208301379081016020019190915292915050565b8051600281900b8114610b4957600080fd5b600060a08284031215611ac5578081fd5b60405160a0810181811067ffffffffffffffff82111715611ae257fe5b6040529050808235611af381612059565b81526020830135611b0381612059565b602082015260408381013590820152606083013562ffffff81168114611b2857600080fd5b6060820152611b3960808401611b45565b60808201525092915050565b8035610b4981612059565b805161ffff81168114610b4957600080fd5b60008060408385031215611b74578182fd5b823567ffffffffffffffff811115611b8a578283fd5b611b9685828601611a51565b95602094909401359450505050565b60008060408385031215611bb7578182fd5b505080516020909101519092909150565b600080600060608486031215611bdc578081fd5b8335925060208401359150604084013567ffffffffffffffff811115611c00578182fd5b611c0c86828701611a51565b9150509250925092565b600060208284031215611c27578081fd5b815167ffffffffffffffff811115611c3d578182fd5b8201601f81018413611c4d578182fd5b8051611c5b611a6f82611fe9565b818152856020838501011115611c6f578384fd5b610d1c826020830160208601612029565b600060a08284031215611c91578081fd5b611c9b8383611ab4565b9392505050565b600080600080600080600060e0888a031215611cbc578283fd5b8751611cc781612059565b9650611cd560208901611aa2565b9550611ce360408901611b50565b9450611cf160608901611b50565b9350611cff60808901611b50565b925060a088015163ffffffff81168114611d17578283fd5b60c08901519092508015158114611d2c578182fd5b8091505092959891949750929550565b600080600060608486031215611d50578081fd5b835192506020840151611d6281612059565b9150611d7060408501611aa2565b90509250925092565b60008151808452611d91816020860160208601612029565b601f017fffffffffffffffffffffffffffffffffffffffffffffffffffffffffffffffe0169290920160200192915050565b606093841b7fffffffffffffffffffffffffffffffffffffffff000000000000000000000000908116825260e89390931b7fffffff0000000000000000000000000000000000000000000000000000000000166014820152921b166017820152602b0190565b73ffffffffffffffffffffffffffffffffffffffff91909116815260200190565b600073ffffffffffffffffffffffffffffffffffffffff8088168352861515602084015285604084015280851660608401525060a06080830152611e9160a0830184611d79565b979650505050505050565b600060208252611c9b6020830184611d79565b60208082526010908201527f556e6578706563746564206572726f7200000000000000000000000000000000604082015260600190565b600060808201868352602060808185015281875180845260a0860191508289019350845b81811015611f3c57845173ffffffffffffffffffffffffffffffffffffffff1683529383019391830191600101611f0a565b505084810360408601528651808252908201925081870190845b81811015611f7857825163ffffffff1685529383019391830191600101611f56565b5050505060609290920192909252949350505050565b93845273ffffffffffffffffffffffffffffffffffffffff92909216602084015263ffffffff166040830152606082015260800190565b60405181810167ffffffffffffffff81118282101715611fe157fe5b604052919050565b600067ffffffffffffffff821115611ffd57fe5b50601f017fffffffffffffffffffffffffffffffffffffffffffffffffffffffffffffffe01660200190565b60005b8381101561204457818101518382015260200161202c565b83811115612053576000848401525b50505050565b73ffffffffffffffffffffffffffffffffffffffff8116811461207b57600080fd5b5056fea164736f6c6343000706000a",
  "linkReferences": {},
  "deployedLinkReferences": {}
}